{
  "contractName": "ERC721",
  "abi": [
    {
      "inputs": [
        {
          "internalType": "string",
          "name": "name",
          "type": "string"
        },
        {
          "internalType": "string",
          "name": "symbol",
          "type": "string"
        }
      ],
      "stateMutability": "nonpayable",
      "type": "constructor"
    },
    {
      "anonymous": false,
      "inputs": [
        {
          "indexed": true,
          "internalType": "address",
          "name": "owner",
          "type": "address"
        },
        {
          "indexed": true,
          "internalType": "address",
          "name": "approved",
          "type": "address"
        },
        {
          "indexed": true,
          "internalType": "uint256",
          "name": "tokenId",
          "type": "uint256"
        }
      ],
      "name": "Approval",
      "type": "event"
    },
    {
      "anonymous": false,
      "inputs": [
        {
          "indexed": true,
          "internalType": "address",
          "name": "owner",
          "type": "address"
        },
        {
          "indexed": true,
          "internalType": "address",
          "name": "operator",
          "type": "address"
        },
        {
          "indexed": false,
          "internalType": "bool",
          "name": "approved",
          "type": "bool"
        }
      ],
      "name": "ApprovalForAll",
      "type": "event"
    },
    {
      "anonymous": false,
      "inputs": [
        {
          "indexed": true,
          "internalType": "address",
          "name": "from",
          "type": "address"
        },
        {
          "indexed": true,
          "internalType": "address",
          "name": "to",
          "type": "address"
        },
        {
          "indexed": true,
          "internalType": "uint256",
          "name": "tokenId",
          "type": "uint256"
        }
      ],
      "name": "Transfer",
      "type": "event"
    },
    {
      "inputs": [
        {
          "internalType": "uint256",
          "name": "",
          "type": "uint256"
        }
      ],
      "name": "EligibleEmp",
      "outputs": [
        {
          "internalType": "address",
          "name": "",
          "type": "address"
        }
      ],
      "stateMutability": "view",
      "type": "function"
    },
    {
      "inputs": [
        {
          "internalType": "uint256",
          "name": "",
          "type": "uint256"
        }
      ],
      "name": "_propertyValue",
      "outputs": [
        {
          "internalType": "uint256",
          "name": "OrginalValue",
          "type": "uint256"
        },
        {
          "internalType": "uint256",
          "name": "CurrentValue",
          "type": "uint256"
        },
        {
          "internalType": "uint256",
          "name": "OriginalIssuanceRate",
          "type": "uint256"
        }
      ],
      "stateMutability": "view",
      "type": "function"
    },
    {
      "inputs": [],
      "name": "contractOwner",
      "outputs": [
        {
          "internalType": "address",
          "name": "",
          "type": "address"
        }
      ],
      "stateMutability": "view",
      "type": "function"
    },
    {
      "inputs": [
        {
          "internalType": "uint256",
          "name": "",
          "type": "uint256"
        }
      ],
      "name": "prop",
      "outputs": [
        {
          "internalType": "uint256",
          "name": "Orig_Value",
          "type": "uint256"
        },
        {
          "internalType": "uint256",
          "name": "Curr_Value",
          "type": "uint256"
        },
        {
          "internalType": "uint256",
          "name": "next_reevaluation_date",
          "type": "uint256"
        },
        {
          "components": [
            {
              "internalType": "uint256",
              "name": "coin_issue",
              "type": "uint256"
            },
            {
              "internalType": "uint256",
              "name": "org_val",
              "type": "uint256"
            },
            {
              "internalType": "uint256",
              "name": "equity_at_issuance",
              "type": "uint256"
            },
            {
              "internalType": "uint256",
              "name": "curr_val",
              "type": "uint256"
            },
            {
              "internalType": "uint256",
              "name": "tot_curr_val",
              "type": "uint256"
            },
            {
              "internalType": "uint256",
              "name": "increase",
              "type": "uint256"
            }
          ],
          "internalType": "struct ERC721.Property_coins_generated_till_now",
          "name": "total_coins_issue",
          "type": "tuple"
        },
        {
          "internalType": "uint256",
          "name": "taxes",
          "type": "uint256"
        },
        {
          "internalType": "uint256",
          "name": "insurance",
          "type": "uint256"
        },
        {
          "internalType": "uint256",
          "name": "maintainence",
          "type": "uint256"
        },
        {
          "internalType": "uint256",
          "name": "total",
          "type": "uint256"
        },
        {
          "internalType": "uint256",
          "name": "monthly_hoa_payment",
          "type": "uint256"
        },
        {
          "internalType": "string",
          "name": "property_features",
          "type": "string"
        }
      ],
      "stateMutability": "view",
      "type": "function"
    },
    {
      "inputs": [
        {
          "internalType": "bytes4",
          "name": "interfaceId",
          "type": "bytes4"
        }
      ],
      "name": "supportsInterface",
      "outputs": [
        {
          "internalType": "bool",
          "name": "",
          "type": "bool"
        }
      ],
      "stateMutability": "view",
      "type": "function"
    },
    {
      "inputs": [],
      "name": "tot_no_of_prop_onplatform",
      "outputs": [
        {
          "internalType": "uint256",
          "name": "",
          "type": "uint256"
        }
      ],
      "stateMutability": "view",
      "type": "function"
    },
    {
      "inputs": [
        {
          "internalType": "address",
          "name": "owner",
          "type": "address"
        }
      ],
      "name": "balanceOf",
      "outputs": [
        {
          "internalType": "uint256",
          "name": "",
          "type": "uint256"
        }
      ],
      "stateMutability": "view",
      "type": "function"
    },
    {
      "inputs": [
        {
          "internalType": "uint256",
          "name": "tokenId",
          "type": "uint256"
        }
      ],
      "name": "ownerOf",
      "outputs": [
        {
          "internalType": "address",
          "name": "",
          "type": "address"
        }
      ],
      "stateMutability": "view",
      "type": "function"
    },
    {
      "inputs": [],
      "name": "name",
      "outputs": [
        {
          "internalType": "string",
          "name": "",
          "type": "string"
        }
      ],
      "stateMutability": "view",
      "type": "function"
    },
    {
      "inputs": [],
      "name": "symbol",
      "outputs": [
        {
          "internalType": "string",
          "name": "",
          "type": "string"
        }
      ],
      "stateMutability": "view",
      "type": "function"
    },
    {
      "inputs": [
        {
          "internalType": "uint256",
          "name": "tokenId",
          "type": "uint256"
        }
      ],
      "name": "tokenURI",
      "outputs": [
        {
          "internalType": "string",
          "name": "",
          "type": "string"
        }
      ],
      "stateMutability": "view",
      "type": "function"
    },
    {
      "inputs": [],
      "name": "baseURI",
      "outputs": [
        {
          "internalType": "string",
          "name": "",
          "type": "string"
        }
      ],
      "stateMutability": "view",
      "type": "function"
    },
    {
      "inputs": [
        {
          "internalType": "address",
          "name": "owner",
          "type": "address"
        },
        {
          "internalType": "uint256",
          "name": "index",
          "type": "uint256"
        }
      ],
      "name": "tokenOfOwnerByIndex",
      "outputs": [
        {
          "internalType": "uint256",
          "name": "",
          "type": "uint256"
        }
      ],
      "stateMutability": "view",
      "type": "function"
    },
    {
      "inputs": [],
      "name": "totalSupply",
      "outputs": [
        {
          "internalType": "uint256",
          "name": "",
          "type": "uint256"
        }
      ],
      "stateMutability": "view",
      "type": "function"
    },
    {
      "inputs": [
        {
          "internalType": "uint256",
          "name": "index",
          "type": "uint256"
        }
      ],
      "name": "tokenByIndex",
      "outputs": [
        {
          "internalType": "uint256",
          "name": "",
          "type": "uint256"
        }
      ],
      "stateMutability": "view",
      "type": "function"
    },
    {
      "inputs": [
        {
          "internalType": "address",
          "name": "to",
          "type": "address"
        },
        {
          "internalType": "uint256",
          "name": "tokenId",
          "type": "uint256"
        }
      ],
      "name": "approve",
      "outputs": [],
      "stateMutability": "nonpayable",
      "type": "function"
    },
    {
      "inputs": [
        {
          "internalType": "uint256",
          "name": "tokenId",
          "type": "uint256"
        }
      ],
      "name": "getApproved",
      "outputs": [
        {
          "internalType": "address",
          "name": "",
          "type": "address"
        }
      ],
      "stateMutability": "view",
      "type": "function"
    },
    {
      "inputs": [
        {
          "internalType": "address",
          "name": "operator",
          "type": "address"
        },
        {
          "internalType": "bool",
          "name": "approved",
          "type": "bool"
        }
      ],
      "name": "setApprovalForAll",
      "outputs": [],
      "stateMutability": "nonpayable",
      "type": "function"
    },
    {
      "inputs": [
        {
          "internalType": "address",
          "name": "owner",
          "type": "address"
        },
        {
          "internalType": "address",
          "name": "operator",
          "type": "address"
        }
      ],
      "name": "isApprovedForAll",
      "outputs": [
        {
          "internalType": "bool",
          "name": "",
          "type": "bool"
        }
      ],
      "stateMutability": "view",
      "type": "function"
    },
    {
      "inputs": [
        {
          "internalType": "address",
          "name": "from",
          "type": "address"
        },
        {
          "internalType": "address",
          "name": "to",
          "type": "address"
        },
        {
          "internalType": "uint256",
          "name": "tokenId",
          "type": "uint256"
        }
      ],
      "name": "transferFrom",
      "outputs": [],
      "stateMutability": "nonpayable",
      "type": "function"
    },
    {
      "inputs": [
        {
          "internalType": "address",
          "name": "from",
          "type": "address"
        },
        {
          "internalType": "address",
          "name": "to",
          "type": "address"
        },
        {
          "internalType": "uint256",
          "name": "tokenId",
          "type": "uint256"
        }
      ],
      "name": "safeTransferFrom",
      "outputs": [],
      "stateMutability": "nonpayable",
      "type": "function"
    },
    {
      "inputs": [
        {
          "internalType": "address",
          "name": "from",
          "type": "address"
        },
        {
          "internalType": "address",
          "name": "to",
          "type": "address"
        },
        {
          "internalType": "uint256",
          "name": "tokenId",
          "type": "uint256"
        },
        {
          "internalType": "bytes",
          "name": "_data",
          "type": "bytes"
        }
      ],
      "name": "safeTransferFrom",
      "outputs": [],
      "stateMutability": "nonpayable",
      "type": "function"
    }
  ],
  "bytecode": "0x6080604052600180556000600d553480156200001a57600080fd5b5060405162003338380380620033388339818101604052810190620000409190620002b4565b620000586301ffc9a760e01b620000da60201b60201c565b816007908051906020019062000070929190620001b2565b50806008908051906020019062000089929190620001b2565b50620000a26380ac58cd60e01b620000da60201b60201c565b620000ba635b5e139f60e01b620000da60201b60201c565b620000d263780e9d6360e01b620000da60201b60201c565b50506200042d565b63ffffffff60e01b817bffffffffffffffffffffffffffffffffffffffffffffffffffffffff1916141562000146576040517f08c379a00000000000000000000000000000000000000000000000000000000081526004016200013d9062000369565b60405180910390fd5b6001600080837bffffffffffffffffffffffffffffffffffffffffffffffffffffffff19167bffffffffffffffffffffffffffffffffffffffffffffffffffffffff1916815260200190815260200160002060006101000a81548160ff02191690831515021790555050565b828054600181600116156101000203166002900490600052602060002090601f016020900481019282601f10620001f557805160ff191683800117855562000226565b8280016001018555821562000226579182015b828111156200022557825182559160200191906001019062000208565b5b50905062000235919062000239565b5090565b5b80821115620002545760008160009055506001016200023a565b5090565b600082601f8301126200026a57600080fd5b8151620002816200027b82620003b9565b6200038b565b915080825260208301602083018583830111156200029e57600080fd5b620002ab838284620003f7565b50505092915050565b60008060408385031215620002c857600080fd5b600083015167ffffffffffffffff811115620002e357600080fd5b620002f18582860162000258565b925050602083015167ffffffffffffffff8111156200030f57600080fd5b6200031d8582860162000258565b9150509250929050565b600062000336601c83620003e6565b91507f4552433136353a20696e76616c696420696e74657266616365206964000000006000830152602082019050919050565b60006020820190508181036000830152620003848162000327565b9050919050565b6000604051905081810181811067ffffffffffffffff82111715620003af57600080fd5b8060405250919050565b600067ffffffffffffffff821115620003d157600080fd5b601f19601f8301169050602081019050919050565b600082825260208201905092915050565b60005b8381101562000417578082015181840152602081019050620003fa565b8381111562000427576000848401525b50505050565b612efb806200043d6000396000f3fe608060405234801561001057600080fd5b50600436106101425760003560e01c80636352211e116100b8578063b88d4fde1161007c578063b88d4fde146103a6578063c87b56dd146103c2578063ce606ee0146103f2578063e06e068814610410578063e985e9c514610440578063f5cc77131461047057610142565b80636352211e146102ee5780636c0360eb1461031e57806370a082311461033c57806395d89b411461036c578063a22cb4651461038a57610142565b8063190be8b11161010a578063190be8b1146101ff57806323b872dd146102385780632e9edf35146102545780632f745c591461027257806342842e0e146102a25780634f6ccce7146102be57610142565b806301ffc9a71461014757806306fdde0314610177578063081812fc14610195578063095ea7b3146101c557806318160ddd146101e1575b600080fd5b610161600480360381019061015c9190612070565b6104a2565b60405161016e9190612963565b60405180910390f35b61017f610509565b60405161018c919061297e565b60405180910390f35b6101af60048036038101906101aa91906120c2565b6105ab565b6040516101bc91906128fc565b60405180910390f35b6101df60048036038101906101da9190612034565b610630565b005b6101e9610748565b6040516101f69190612b80565b60405180910390f35b610219600480360381019061021491906120c2565b610759565b60405161022f9a99989796959493929190612bd2565b60405180910390f35b610252600480360381019061024d9190611f2e565b61088b565b005b61025c6108eb565b6040516102699190612b80565b60405180910390f35b61028c60048036038101906102879190612034565b6108f1565b6040516102999190612b80565b60405180910390f35b6102bc60048036038101906102b79190611f2e565b61094c565b005b6102d860048036038101906102d391906120c2565b61096c565b6040516102e59190612b80565b60405180910390f35b610308600480360381019061030391906120c2565b61098f565b60405161031591906128fc565b60405180910390f35b6103266109c6565b604051610333919061297e565b60405180910390f35b61035660048036038101906103519190611ec9565b610a68565b6040516103639190612b80565b60405180910390f35b610374610b27565b604051610381919061297e565b60405180910390f35b6103a4600480360381019061039f9190611ff8565b610bc9565b005b6103c060048036038101906103bb9190611f7d565b610d4a565b005b6103dc60048036038101906103d791906120c2565b610dac565b6040516103e9919061297e565b60405180910390f35b6103fa610f37565b60405161040791906128fc565b60405180910390f35b61042a600480360381019061042591906120c2565b610f5d565b60405161043791906128fc565b60405180910390f35b61045a60048036038101906104559190611ef2565b610f99565b6040516104679190612963565b60405180910390f35b61048a600480360381019061048591906120c2565b61102d565b60405161049993929190612b9b565b60405180910390f35b6000806000837bffffffffffffffffffffffffffffffffffffffffffffffffffffffff19167bffffffffffffffffffffffffffffffffffffffffffffffffffffffff1916815260200190815260200160002060009054906101000a900460ff169050919050565b606060078054600181600116156101000203166002900480601f0160208091040260200160405190810160405280929190818152602001828054600181600116156101000203166002900480156105a15780601f10610576576101008083540402835291602001916105a1565b820191906000526020600020905b81548152906001019060200180831161058457829003601f168201915b5050505050905090565b60006105b682611057565b6105f5576040517f08c379a00000000000000000000000000000000000000000000000000000000081526004016105ec90612ac0565b60405180910390fd5b6005600083815260200190815260200160002060009054906101000a900473ffffffffffffffffffffffffffffffffffffffff169050919050565b600061063b8261098f565b90508073ffffffffffffffffffffffffffffffffffffffff168373ffffffffffffffffffffffffffffffffffffffff1614156106ac576040517f08c379a00000000000000000000000000000000000000000000000000000000081526004016106a390612b20565b60405180910390fd5b8073ffffffffffffffffffffffffffffffffffffffff166106cb611074565b73ffffffffffffffffffffffffffffffffffffffff1614806106fa57506106f9816106f4611074565b610f99565b5b610739576040517f08c379a000000000000000000000000000000000000000000000000000000000815260040161073090612a60565b60405180910390fd5b610743838361107c565b505050565b60006107546003611135565b905090565b600e602052806000526040600020600091509050806000015490806001015490806002015490806004016040518060c001604052908160008201548152602001600182015481526020016002820154815260200160038201548152602001600482015481526020016005820154815250509080600c01549080600d01549080600e01549080600f015490806010015490806011018054600181600116156101000203166002900480601f0160208091040260200160405190810160405280929190818152602001828054600181600116156101000203166002900480156108815780601f1061085657610100808354040283529160200191610881565b820191906000526020600020905b81548152906001019060200180831161086457829003601f168201915b505050505090508a565b61089c610896611074565b8261114a565b6108db576040517f08c379a00000000000000000000000000000000000000000000000000000000081526004016108d290612b40565b60405180910390fd5b6108e6838383611228565b505050565b600d5481565b600061094482600260008673ffffffffffffffffffffffffffffffffffffffff1673ffffffffffffffffffffffffffffffffffffffff16815260200190815260200160002061143f90919063ffffffff16565b905092915050565b61096783838360405180602001604052806000815250610d4a565b505050565b60008061098383600361145990919063ffffffff16565b50905080915050919050565b60006109bf82604051806060016040528060298152602001612e9d6029913960036114859092919063ffffffff16565b9050919050565b606060108054600181600116156101000203166002900480601f016020809104026020016040519081016040528092919081815260200182805460018160011615610100020316600290048015610a5e5780601f10610a3357610100808354040283529160200191610a5e565b820191906000526020600020905b815481529060010190602001808311610a4157829003601f168201915b5050505050905090565b60008073ffffffffffffffffffffffffffffffffffffffff168273ffffffffffffffffffffffffffffffffffffffff161415610ad9576040517f08c379a0000000000000000000000000000000000000000000000000000000008152600401610ad090612a80565b60405180910390fd5b610b20600260008473ffffffffffffffffffffffffffffffffffffffff1673ffffffffffffffffffffffffffffffffffffffff1681526020019081526020016000206114a4565b9050919050565b606060088054600181600116156101000203166002900480601f016020809104026020016040519081016040528092919081815260200182805460018160011615610100020316600290048015610bbf5780601f10610b9457610100808354040283529160200191610bbf565b820191906000526020600020905b815481529060010190602001808311610ba257829003601f168201915b5050505050905090565b610bd1611074565b73ffffffffffffffffffffffffffffffffffffffff168273ffffffffffffffffffffffffffffffffffffffff161415610c3f576040517f08c379a0000000000000000000000000000000000000000000000000000000008152600401610c3690612a00565b60405180910390fd5b8060066000610c4c611074565b73ffffffffffffffffffffffffffffffffffffffff1673ffffffffffffffffffffffffffffffffffffffff16815260200190815260200160002060008473ffffffffffffffffffffffffffffffffffffffff1673ffffffffffffffffffffffffffffffffffffffff16815260200190815260200160002060006101000a81548160ff0219169083151502179055508173ffffffffffffffffffffffffffffffffffffffff16610cf9611074565b73ffffffffffffffffffffffffffffffffffffffff167f17307eab39ab6107e8899845ad3d59bd9653f200f220920489ca2b5937696c3183604051610d3e9190612963565b60405180910390a35050565b610d5b610d55611074565b8361114a565b610d9a576040517f08c379a0000000000000000000000000000000000000000000000000000000008152600401610d9190612b40565b60405180910390fd5b610da6848484846114b9565b50505050565b6060610db782611057565b610df6576040517f08c379a0000000000000000000000000000000000000000000000000000000008152600401610ded90612b00565b60405180910390fd5b6060600960008481526020019081526020016000208054600181600116156101000203166002900480601f016020809104026020016040519081016040528092919081815260200182805460018160011615610100020316600290048015610e9f5780601f10610e7457610100808354040283529160200191610e9f565b820191906000526020600020905b815481529060010190602001808311610e8257829003601f168201915b50505050509050600060108054600181600116156101000203166002900490501415610ece5780915050610f32565b600081511115610f0357601081604051602001610eec9291906128d8565b604051602081830303815290604052915050610f32565b6010610f0e84611515565b604051602001610f1f9291906128d8565b6040516020818303038152906040529150505b919050565b600b60009054906101000a900473ffffffffffffffffffffffffffffffffffffffff1681565b600a8181548110610f6a57fe5b906000526020600020016000915054906101000a900473ffffffffffffffffffffffffffffffffffffffff1681565b6000600660008473ffffffffffffffffffffffffffffffffffffffff1673ffffffffffffffffffffffffffffffffffffffff16815260200190815260200160002060008373ffffffffffffffffffffffffffffffffffffffff1673ffffffffffffffffffffffffffffffffffffffff16815260200190815260200160002060009054906101000a900460ff16905092915050565b600f6020528060005260406000206000915090508060000154908060010154908060020154905083565b600061106d82600361165c90919063ffffffff16565b9050919050565b600033905090565b816005600083815260200190815260200160002060006101000a81548173ffffffffffffffffffffffffffffffffffffffff021916908373ffffffffffffffffffffffffffffffffffffffff160217905550808273ffffffffffffffffffffffffffffffffffffffff166110ef8361098f565b73ffffffffffffffffffffffffffffffffffffffff167f8c5be1e5ebec7d5bd14f71427d1e84f3dd0314c0f7b2291e5b200ac8c7c3b92560405160405180910390a45050565b600061114382600001611676565b9050919050565b600061115582611057565b611194576040517f08c379a000000000000000000000000000000000000000000000000000000000815260040161118b90612a40565b60405180910390fd5b600061119f8361098f565b90508073ffffffffffffffffffffffffffffffffffffffff168473ffffffffffffffffffffffffffffffffffffffff16148061120e57508373ffffffffffffffffffffffffffffffffffffffff166111f6846105ab565b73ffffffffffffffffffffffffffffffffffffffff16145b8061121f575061121e8185610f99565b5b91505092915050565b8273ffffffffffffffffffffffffffffffffffffffff166112488261098f565b73ffffffffffffffffffffffffffffffffffffffff161461129e576040517f08c379a000000000000000000000000000000000000000000000000000000000815260040161129590612ae0565b60405180910390fd5b600073ffffffffffffffffffffffffffffffffffffffff168273ffffffffffffffffffffffffffffffffffffffff16141561130e576040517f08c379a0000000000000000000000000000000000000000000000000000000008152600401611305906129e0565b60405180910390fd5b611319838383611687565b61132460008261107c565b61137581600260008673ffffffffffffffffffffffffffffffffffffffff1673ffffffffffffffffffffffffffffffffffffffff16815260200190815260200160002061168c90919063ffffffff16565b506113c781600260008573ffffffffffffffffffffffffffffffffffffffff1673ffffffffffffffffffffffffffffffffffffffff1681526020019081526020016000206116a690919063ffffffff16565b506113de818360036116c09092919063ffffffff16565b50808273ffffffffffffffffffffffffffffffffffffffff168473ffffffffffffffffffffffffffffffffffffffff167fddf252ad1be2c89b69c2b068fc378daa952ba7f163c4a11628f55a4df523b3ef60405160405180910390a4505050565b600061144e83600001836116f5565b60001c905092915050565b60008060008061146c8660000186611762565b915091508160001c8160001c9350935050509250929050565b6000611498846000018460001b846117e5565b60001c90509392505050565b60006114b282600001611876565b9050919050565b6114c4848484611228565b6114d084848484611887565b61150f576040517f08c379a0000000000000000000000000000000000000000000000000000000008152600401611506906129c0565b60405180910390fd5b50505050565b6060600082141561155d576040518060400160405280600181526020017f30000000000000000000000000000000000000000000000000000000000000008152509050611657565b600082905060005b60008214611587578080600101915050600a828161157f57fe5b049150611565565b60608167ffffffffffffffff811180156115a057600080fd5b506040519080825280601f01601f1916602001820160405280156115d35781602001600182028036833780820191505090505b50905060006001830390508593505b6000841461164f57600a84816115f457fe5b0660300160f81b8282806001900393508151811061160e57fe5b60200101907effffffffffffffffffffffffffffffffffffffffffffffffffffffffffffff1916908160001a905350600a848161164757fe5b0493506115e2565b819450505050505b919050565b600061166e836000018360001b6119eb565b905092915050565b600081600001805490509050919050565b505050565b600061169e836000018360001b611a0e565b905092915050565b60006116b8836000018360001b611af6565b905092915050565b60006116ec846000018460001b8473ffffffffffffffffffffffffffffffffffffffff1660001b611b66565b90509392505050565b600081836000018054905011611740576040517f08c379a0000000000000000000000000000000000000000000000000000000008152600401611737906129a0565b60405180910390fd5b82600001828154811061174f57fe5b9060005260206000200154905092915050565b600080828460000180549050116117ae576040517f08c379a00000000000000000000000000000000000000000000000000000000081526004016117a590612aa0565b60405180910390fd5b60008460000184815481106117bf57fe5b906000526020600020906002020190508060000154816001015492509250509250929050565b60008084600101600085815260200190815260200160002054905060008114158390611847576040517f08c379a000000000000000000000000000000000000000000000000000000000815260040161183e919061297e565b60405180910390fd5b5084600001600182038154811061185a57fe5b9060005260206000209060020201600101549150509392505050565b600081600001805490509050919050565b60006118a88473ffffffffffffffffffffffffffffffffffffffff16611c42565b6118b557600190506119e3565b606061197c63150b7a0260e01b6118ca611074565b8887876040516024016118e09493929190612917565b604051602081830303815290604052907bffffffffffffffffffffffffffffffffffffffffffffffffffffffff19166020820180517bffffffffffffffffffffffffffffffffffffffffffffffffffffffff8381831617835250505050604051806060016040528060328152602001612e6b603291398773ffffffffffffffffffffffffffffffffffffffff16611c559092919063ffffffff16565b90506000818060200190518101906119949190612099565b905063150b7a0260e01b7bffffffffffffffffffffffffffffffffffffffffffffffffffffffff1916817bffffffffffffffffffffffffffffffffffffffffffffffffffffffff191614925050505b949350505050565b600080836001016000848152602001908152602001600020541415905092915050565b60008083600101600084815260200190815260200160002054905060008114611aea5760006001820390506000600186600001805490500390506000866000018281548110611a5957fe5b9060005260206000200154905080876000018481548110611a7657fe5b9060005260206000200181905550600183018760010160008381526020019081526020016000208190555086600001805480611aae57fe5b60019003818190600052602060002001600090559055866001016000878152602001908152602001600020600090556001945050505050611af0565b60009150505b92915050565b6000611b028383611c6d565b611b5b578260000182908060018154018082558091505060019003906000526020600020016000909190919091505582600001805490508360010160008481526020019081526020016000208190555060019050611b60565b600090505b92915050565b6000808460010160008581526020019081526020016000205490506000811415611c0d57846000016040518060400160405280868152602001858152509080600181540180825580915050600190039060005260206000209060020201600090919091909150600082015181600001556020820151816001015550508460000180549050856001016000868152602001908152602001600020819055506001915050611c3b565b82856000016001830381548110611c2057fe5b90600052602060002090600202016001018190555060009150505b9392505050565b600080823b905060008111915050919050565b6060611c648484600085611c90565b90509392505050565b600080836001016000848152602001908152602001600020541415905092915050565b606082471015611cd5576040517f08c379a0000000000000000000000000000000000000000000000000000000008152600401611ccc90612a20565b60405180910390fd5b611cde85611c42565b611d1d576040517f08c379a0000000000000000000000000000000000000000000000000000000008152600401611d1490612b60565b60405180910390fd5b600060608673ffffffffffffffffffffffffffffffffffffffff168587604051611d4791906128c1565b60006040518083038185875af1925050503d8060008114611d84576040519150601f19603f3d011682016040523d82523d6000602084013e611d89565b606091505b5091509150611d99828286611da5565b92505050949350505050565b60608315611db557829050611e05565b600083511115611dc85782518084602001fd5b816040517f08c379a0000000000000000000000000000000000000000000000000000000008152600401611dfc919061297e565b60405180910390fd5b9392505050565b600081359050611e1b81612e0e565b92915050565b600081359050611e3081612e25565b92915050565b600081359050611e4581612e3c565b92915050565b600081519050611e5a81612e3c565b92915050565b600082601f830112611e7157600080fd5b8135611e84611e7f82612ca6565b612c79565b91508082526020830160208301858383011115611ea057600080fd5b611eab838284612dbb565b50505092915050565b600081359050611ec381612e53565b92915050565b600060208284031215611edb57600080fd5b6000611ee984828501611e0c565b91505092915050565b60008060408385031215611f0557600080fd5b6000611f1385828601611e0c565b9250506020611f2485828601611e0c565b9150509250929050565b600080600060608486031215611f4357600080fd5b6000611f5186828701611e0c565b9350506020611f6286828701611e0c565b9250506040611f7386828701611eb4565b9150509250925092565b60008060008060808587031215611f9357600080fd5b6000611fa187828801611e0c565b9450506020611fb287828801611e0c565b9350506040611fc387828801611eb4565b925050606085013567ffffffffffffffff811115611fe057600080fd5b611fec87828801611e60565b91505092959194509250565b6000806040838503121561200b57600080fd5b600061201985828601611e0c565b925050602061202a85828601611e21565b9150509250929050565b6000806040838503121561204757600080fd5b600061205585828601611e0c565b925050602061206685828601611eb4565b9150509250929050565b60006020828403121561208257600080fd5b600061209084828501611e36565b91505092915050565b6000602082840312156120ab57600080fd5b60006120b984828501611e4b565b91505092915050565b6000602082840312156120d457600080fd5b60006120e284828501611eb4565b91505092915050565b6120f481612d47565b82525050565b61210381612d35565b82525050565b61211281612d59565b82525050565b600061212382612ce7565b61212d8185612cfd565b935061213d818560208601612dca565b61214681612dfd565b840191505092915050565b600061215c82612ce7565b6121668185612d0e565b9350612176818560208601612dca565b80840191505092915050565b600061218d82612cf2565b6121978185612d19565b93506121a7818560208601612dca565b6121b081612dfd565b840191505092915050565b60006121c682612cf2565b6121d08185612d2a565b93506121e0818560208601612dca565b80840191505092915050565b600081546001811660008114612209576001811461222e57612272565b607f600283041661221a8187612d2a565b955060ff1983168652808601935050612272565b6002820461223c8187612d2a565b955061224785612cd2565b60005b828110156122695781548189015260018201915060208101905061224a565b82880195505050505b505092915050565b6000612287602283612d19565b91507f456e756d657261626c655365743a20696e646578206f7574206f6620626f756e60008301527f64730000000000000000000000000000000000000000000000000000000000006020830152604082019050919050565b60006122ed603283612d19565b91507f4552433732313a207472616e7366657220746f206e6f6e20455243373231526560008301527f63656976657220696d706c656d656e74657200000000000000000000000000006020830152604082019050919050565b6000612353602483612d19565b91507f4552433732313a207472616e7366657220746f20746865207a65726f2061646460008301527f72657373000000000000000000000000000000000000000000000000000000006020830152604082019050919050565b60006123b9601983612d19565b91507f4552433732313a20617070726f766520746f2063616c6c6572000000000000006000830152602082019050919050565b60006123f9602683612d19565b91507f416464726573733a20696e73756666696369656e742062616c616e636520666f60008301527f722063616c6c00000000000000000000000000000000000000000000000000006020830152604082019050919050565b600061245f602c83612d19565b91507f4552433732313a206f70657261746f7220717565727920666f72206e6f6e657860008301527f697374656e7420746f6b656e00000000000000000000000000000000000000006020830152604082019050919050565b60006124c5603883612d19565b91507f4552433732313a20617070726f76652063616c6c6572206973206e6f74206f7760008301527f6e6572206e6f7220617070726f76656420666f7220616c6c00000000000000006020830152604082019050919050565b600061252b602a83612d19565b91507f4552433732313a2062616c616e636520717565727920666f7220746865207a6560008301527f726f2061646472657373000000000000000000000000000000000000000000006020830152604082019050919050565b6000612591602283612d19565b91507f456e756d657261626c654d61703a20696e646578206f7574206f6620626f756e60008301527f64730000000000000000000000000000000000000000000000000000000000006020830152604082019050919050565b60006125f7602c83612d19565b91507f4552433732313a20617070726f76656420717565727920666f72206e6f6e657860008301527f697374656e7420746f6b656e00000000000000000000000000000000000000006020830152604082019050919050565b600061265d602983612d19565b91507f4552433732313a207472616e73666572206f6620746f6b656e2074686174206960008301527f73206e6f74206f776e00000000000000000000000000000000000000000000006020830152604082019050919050565b60006126c3602f83612d19565b91507f4552433732314d657461646174613a2055524920717565727920666f72206e6f60008301527f6e6578697374656e7420746f6b656e00000000000000000000000000000000006020830152604082019050919050565b6000612729602183612d19565b91507f4552433732313a20617070726f76616c20746f2063757272656e74206f776e6560008301527f72000000000000000000000000000000000000000000000000000000000000006020830152604082019050919050565b600061278f603183612d19565b91507f4552433732313a207472616e736665722063616c6c6572206973206e6f74206f60008301527f776e6572206e6f7220617070726f7665640000000000000000000000000000006020830152604082019050919050565b60006127f5601d83612d19565b91507f416464726573733a2063616c6c20746f206e6f6e2d636f6e74726163740000006000830152602082019050919050565b60c08201600082015161283e60008501826128a3565b50602082015161285160208501826128a3565b50604082015161286460408501826128a3565b50606082015161287760608501826128a3565b50608082015161288a60808501826128a3565b5060a082015161289d60a08501826128a3565b50505050565b6128ac81612db1565b82525050565b6128bb81612db1565b82525050565b60006128cd8284612151565b915081905092915050565b60006128e482856121ec565b91506128f082846121bb565b91508190509392505050565b600060208201905061291160008301846120fa565b92915050565b600060808201905061292c60008301876120eb565b61293960208301866120fa565b61294660408301856128b2565b81810360608301526129588184612118565b905095945050505050565b60006020820190506129786000830184612109565b92915050565b600060208201905081810360008301526129988184612182565b905092915050565b600060208201905081810360008301526129b98161227a565b9050919050565b600060208201905081810360008301526129d9816122e0565b9050919050565b600060208201905081810360008301526129f981612346565b9050919050565b60006020820190508181036000830152612a19816123ac565b9050919050565b60006020820190508181036000830152612a39816123ec565b9050919050565b60006020820190508181036000830152612a5981612452565b9050919050565b60006020820190508181036000830152612a79816124b8565b9050919050565b60006020820190508181036000830152612a998161251e565b9050919050565b60006020820190508181036000830152612ab981612584565b9050919050565b60006020820190508181036000830152612ad9816125ea565b9050919050565b60006020820190508181036000830152612af981612650565b9050919050565b60006020820190508181036000830152612b19816126b6565b9050919050565b60006020820190508181036000830152612b398161271c565b9050919050565b60006020820190508181036000830152612b5981612782565b9050919050565b60006020820190508181036000830152612b79816127e8565b9050919050565b6000602082019050612b9560008301846128b2565b92915050565b6000606082019050612bb060008301866128b2565b612bbd60208301856128b2565b612bca60408301846128b2565b949350505050565b60006101e082019050612be8600083018d6128b2565b612bf5602083018c6128b2565b612c02604083018b6128b2565b612c0f606083018a612828565b612c1d6101208301896128b2565b612c2b6101408301886128b2565b612c396101608301876128b2565b612c476101808301866128b2565b612c556101a08301856128b2565b8181036101c0830152612c688184612182565b90509b9a5050505050505050505050565b6000604051905081810181811067ffffffffffffffff82111715612c9c57600080fd5b8060405250919050565b600067ffffffffffffffff821115612cbd57600080fd5b601f19601f8301169050602081019050919050565b60008190508160005260206000209050919050565b600081519050919050565b600081519050919050565b600082825260208201905092915050565b600081905092915050565b600082825260208201905092915050565b600081905092915050565b6000612d4082612d91565b9050919050565b6000612d5282612d91565b9050919050565b60008115159050919050565b60007fffffffff0000000000000000000000000000000000000000000000000000000082169050919050565b600073ffffffffffffffffffffffffffffffffffffffff82169050919050565b6000819050919050565b82818337600083830152505050565b60005b83811015612de8578082015181840152602081019050612dcd565b83811115612df7576000848401525b50505050565b6000601f19601f8301169050919050565b612e1781612d35565b8114612e2257600080fd5b50565b612e2e81612d59565b8114612e3957600080fd5b50565b612e4581612d65565b8114612e5057600080fd5b50565b612e5c81612db1565b8114612e6757600080fd5b5056fe4552433732313a207472616e7366657220746f206e6f6e20455243373231526563656976657220696d706c656d656e7465724552433732313a206f776e657220717565727920666f72206e6f6e6578697374656e7420746f6b656ea26469706673582212207176a75a41feb6874141ac216f8b11a8eb3b5ea97b0b5830cc2124238fcc00ca64736f6c634300060c0033",
  "immutableReferences": {},
  "source": "// SPDX-License-Identifier: MIT\r\npragma solidity ^0.6.12;\r\npragma experimental ABIEncoderV2;\r\n\r\nimport \"./Context.sol\";\r\nimport \"./IERC721.sol\";\r\nimport \"./IERC721Metadata.sol\";\r\nimport \"./IERC721Enumerable.sol\";\r\nimport \"./IERC721Receiver.sol\";\r\nimport \"./ERC165.sol\";\r\nimport \"./SafeMath.sol\";\r\nimport \"./Address.sol\";\r\nimport \"./EnumerableSet.sol\";\r\nimport \"./EnumerableMap.sol\";\r\nimport \"./Strings.sol\";\r\n\r\n/**\r\n * @title ERC721 Non-Fungible Token Standard basic implementation\r\n * @dev see https://eips.ethereum.org/EIPS/eip-721\r\n */\r\ncontract ERC721 is Context, ERC165, IERC721, IERC721Metadata, IERC721Enumerable {\r\n    using SafeMath for uint256;\r\n    using Address for address;\r\n    using EnumerableSet for EnumerableSet.UintSet;\r\n    using EnumerableMap for EnumerableMap.UintToAddressMap;\r\n    using Strings for uint256;\r\n    \r\n    uint256 _id = 1;\r\n\r\n    // Equals to `bytes4(keccak256(\"onERC721Received(address,address,uint256,bytes)\"))`\r\n    // which can be also obtained as `IERC721Receiver(0).onERC721Received.selector`\r\n    bytes4 private constant _ERC721_RECEIVED = 0x150b7a02;\r\n\r\n    // Mapping from holder address to their (enumerable) set of owned tokens\r\n    mapping (address => EnumerableSet.UintSet) private _holderTokens;\r\n\r\n    // Enumerable mapping from token ids to their owners\r\n    EnumerableMap.UintToAddressMap private _tokenOwners;\r\n\r\n    // Mapping from token ID to approved address\r\n    mapping (uint256 => address) private _tokenApprovals;\r\n\r\n    // Mapping from owner to operator approvals\r\n    mapping (address => mapping (address => bool)) private _operatorApprovals;\r\n\r\n    // Token name\r\n    string private _name;\r\n\r\n    // Token symbol\r\n    string private _symbol;\r\n\r\n    // Optional mapping for token URIs\r\n    mapping (uint256 => string) private _tokenURIs;\r\n    \r\n    // Adding metaData to the property\r\n    \r\n    struct _IssuanceDetail{\r\n        uint256 tokesIssued;\r\n    }\r\n    \r\n    struct PropertyValue{\r\n     uint OrginalValue;\r\n     uint CurrentValue;\r\n     uint OriginalIssuanceRate;\r\n     mapping (uint256 => _IssuanceDetail) IssuanceDetails;\r\n    }\r\n    \r\n    // Metadata values\r\n    \r\n    \r\n    struct Property_coins_generated_till_now{\r\n        \r\n        uint256 coin_issue;\r\n        uint256 org_val;\r\n        uint256 equity_at_issuance;\r\n        uint256 curr_val;\r\n        uint256 tot_curr_val; \r\n        uint256 increase;\r\n    \r\n    }\r\n    \r\n    struct Prop_Value_Details{\r\n\r\n        uint256 Orig_Value;//Original Value of the Property\r\n        uint256 Curr_Value;//Current value of the Property\r\n        uint256 next_reevaluation_date;\r\n        Property_coins_generated_till_now[] coins_issue;\r\n        Property_coins_generated_till_now total_coins_issue;\r\n        string[] Property_images;\r\n        string[] Property_location;\r\n        uint256 taxes;\r\n        uint256 insurance;\r\n        uint256 maintainence;\r\n        uint256 total;\r\n        uint256 monthly_hoa_payment;\r\n        string property_features;\r\n    \r\n    }\r\n    \r\n    \r\n    address[] public EligibleEmp;\r\n    address public contractOwner;\r\n    uint256 nftPrice;\r\n    uint256 public tot_no_of_prop_onplatform = 0;\r\n    mapping(uint256 => Prop_Value_Details) public prop;\r\n    \r\n    \r\n    // \r\n    \r\n    mapping (uint256 => PropertyValue) public _propertyValue;\r\n\r\n    // Base URI\r\n    string private _baseURI;\r\n\r\n    /*\r\n     *     bytes4(keccak256('balanceOf(address)')) == 0x70a08231\r\n     *     bytes4(keccak256('ownerOf(uint256)')) == 0x6352211e\r\n     *     bytes4(keccak256('approve(address,uint256)')) == 0x095ea7b3\r\n     *     bytes4(keccak256('getApproved(uint256)')) == 0x081812fc\r\n     *     bytes4(keccak256('setApprovalForAll(address,bool)')) == 0xa22cb465\r\n     *     bytes4(keccak256('isApprovedForAll(address,address)')) == 0xe985e9c5\r\n     *     bytes4(keccak256('transferFrom(address,address,uint256)')) == 0x23b872dd\r\n     *     bytes4(keccak256('safeTransferFrom(address,address,uint256)')) == 0x42842e0e\r\n     *     bytes4(keccak256('safeTransferFrom(address,address,uint256,bytes)')) == 0xb88d4fde\r\n     *\r\n     *     => 0x70a08231 ^ 0x6352211e ^ 0x095ea7b3 ^ 0x081812fc ^\r\n     *        0xa22cb465 ^ 0xe985e9c5 ^ 0x23b872dd ^ 0x42842e0e ^ 0xb88d4fde == 0x80ac58cd\r\n     */\r\n    bytes4 private constant _INTERFACE_ID_ERC721 = 0x80ac58cd;\r\n\r\n    /*\r\n     *     bytes4(keccak256('name()')) == 0x06fdde03\r\n     *     bytes4(keccak256('symbol()')) == 0x95d89b41\r\n     *     bytes4(keccak256('tokenURI(uint256)')) == 0xc87b56dd\r\n     *\r\n     *     => 0x06fdde03 ^ 0x95d89b41 ^ 0xc87b56dd == 0x5b5e139f\r\n     */\r\n    bytes4 private constant _INTERFACE_ID_ERC721_METADATA = 0x5b5e139f;\r\n\r\n    /*\r\n     *     bytes4(keccak256('totalSupply()')) == 0x18160ddd\r\n     *     bytes4(keccak256('tokenOfOwnerByIndex(address,uint256)')) == 0x2f745c59\r\n     *     bytes4(keccak256('tokenByIndex(uint256)')) == 0x4f6ccce7\r\n     *\r\n     *     => 0x18160ddd ^ 0x2f745c59 ^ 0x4f6ccce7 == 0x780e9d63\r\n     */\r\n    bytes4 private constant _INTERFACE_ID_ERC721_ENUMERABLE = 0x780e9d63;\r\n\r\n    /**\r\n     * @dev Initializes the contract by setting a `name` and a `symbol` to the token collection.\r\n     */\r\n    constructor (string memory name, string memory symbol ) public {\r\n        _name = name;\r\n        _symbol = symbol;\r\n        \r\n        \r\n\r\n    \r\n        \r\n\r\n        // register the supported interfaces to conform to ERC721 via ERC165\r\n        _registerInterface(_INTERFACE_ID_ERC721);\r\n        _registerInterface(_INTERFACE_ID_ERC721_METADATA);\r\n        _registerInterface(_INTERFACE_ID_ERC721_ENUMERABLE);\r\n    }\r\n\r\n    /**\r\n     * @dev See {IERC721-balanceOf}.\r\n     */\r\n    function balanceOf(address owner) public view override returns (uint256) {\r\n        require(owner != address(0), \"ERC721: balance query for the zero address\");\r\n\r\n        return _holderTokens[owner].length();\r\n    }\r\n\r\n    /**\r\n     * @dev See {IERC721-ownerOf}.\r\n     */\r\n    function ownerOf(uint256 tokenId) public view override returns (address) {\r\n        return _tokenOwners.get(tokenId, \"ERC721: owner query for nonexistent token\");\r\n    }\r\n\r\n    /**\r\n     * @dev See {IERC721Metadata-name}.\r\n     */\r\n    function name() public view override returns (string memory) {\r\n        return _name;\r\n    }\r\n\r\n    /**\r\n     * @dev See {IERC721Metadata-symbol}.\r\n     */\r\n    function symbol() public view override returns (string memory) {\r\n        return _symbol;\r\n    }\r\n\r\n    /**\r\n     * @dev See {IERC721Metadata-tokenURI}.\r\n     */\r\n    function tokenURI(uint256 tokenId) public view override returns (string memory) {\r\n        require(_exists(tokenId), \"ERC721Metadata: URI query for nonexistent token\");\r\n\r\n        string memory _tokenURI = _tokenURIs[tokenId];\r\n\r\n        // If there is no base URI, return the token URI.\r\n        if (bytes(_baseURI).length == 0) {\r\n            return _tokenURI;\r\n        }\r\n        // If both are set, concatenate the baseURI and tokenURI (via abi.encodePacked).\r\n        if (bytes(_tokenURI).length > 0) {\r\n            return string(abi.encodePacked(_baseURI, _tokenURI));\r\n        }\r\n        // If there is a baseURI but no tokenURI, concatenate the tokenID to the baseURI.\r\n        return string(abi.encodePacked(_baseURI, tokenId.toString()));\r\n    }\r\n\r\n    /**\r\n    * @dev Returns the base URI set via {_setBaseURI}. This will be\r\n    * automatically added as a prefix in {tokenURI} to each token's URI, or\r\n    * to the token ID if no specific URI is set for that token ID.\r\n    */\r\n    function baseURI() public view returns (string memory) {\r\n        return _baseURI;\r\n    }\r\n\r\n    /**  \r\n     * @dev See {IERC721Enumerable-tokenOfOwnerByIndex}.\r\n     */\r\n    function tokenOfOwnerByIndex(address owner, uint256 index) public view override returns (uint256) {\r\n        return _holderTokens[owner].at(index);\r\n    }\r\n\r\n    /**\r\n     * @dev See {IERC721Enumerable-totalSupply}.\r\n     */\r\n    function totalSupply() public view override returns (uint256) {\r\n        // _tokenOwners are indexed by tokenIds, so .length() returns the number of tokenIds\r\n        return _tokenOwners.length();\r\n    }\r\n\r\n    /**\r\n     * @dev See {IERC721Enumerable-tokenByIndex}.\r\n     */\r\n    function tokenByIndex(uint256 index) public view override returns (uint256) {\r\n        (uint256 tokenId, ) = _tokenOwners.at(index);\r\n        return tokenId;\r\n    }\r\n\r\n    /**\r\n     * @dev See {IERC721-approve}.\r\n     */\r\n    function approve(address to, uint256 tokenId) public virtual override {\r\n        address owner = ownerOf(tokenId);\r\n        require(to != owner, \"ERC721: approval to current owner\");\r\n\r\n        require(_msgSender() == owner || isApprovedForAll(owner, _msgSender()),\r\n            \"ERC721: approve caller is not owner nor approved for all\"\r\n        );\r\n\r\n        _approve(to, tokenId);\r\n    }\r\n\r\n    /**\r\n     * @dev See {IERC721-getApproved}.\r\n     */\r\n    function getApproved(uint256 tokenId) public view override returns (address) {\r\n        require(_exists(tokenId), \"ERC721: approved query for nonexistent token\");\r\n\r\n        return _tokenApprovals[tokenId];\r\n    }\r\n\r\n    /**\r\n     * @dev See {IERC721-setApprovalForAll}.\r\n     */\r\n    function setApprovalForAll(address operator, bool approved) public virtual override {\r\n        require(operator != _msgSender(), \"ERC721: approve to caller\");\r\n\r\n        _operatorApprovals[_msgSender()][operator] = approved;\r\n        emit ApprovalForAll(_msgSender(), operator, approved);\r\n    }\r\n\r\n    /**\r\n     * @dev See {IERC721-isApprovedForAll}.\r\n     */\r\n    function isApprovedForAll(address owner, address operator) public view override returns (bool) {\r\n        return _operatorApprovals[owner][operator];\r\n    }\r\n\r\n    /**\r\n     * @dev See {IERC721-transferFrom}.\r\n     */\r\n    function transferFrom(address from, address to, uint256 tokenId) public virtual override {\r\n        //solhint-disable-next-line max-line-length\r\n        require(_isApprovedOrOwner(_msgSender(), tokenId), \"ERC721: transfer caller is not owner nor approved\");\r\n\r\n        _transfer(from, to, tokenId);\r\n    }\r\n\r\n    /**\r\n     * @dev See {IERC721-safeTransferFrom}.\r\n     */\r\n    function safeTransferFrom(address from, address to, uint256 tokenId) public virtual override {\r\n        safeTransferFrom(from, to, tokenId, \"\");\r\n    }\r\n\r\n    /**\r\n     * @dev See {IERC721-safeTransferFrom}.\r\n     */\r\n    function safeTransferFrom(address from, address to, uint256 tokenId, bytes memory _data) public virtual override {\r\n        require(_isApprovedOrOwner(_msgSender(), tokenId), \"ERC721: transfer caller is not owner nor approved\");\r\n        _safeTransfer(from, to, tokenId, _data);\r\n    }\r\n\r\n    /**\r\n     * @dev Safely transfers `tokenId` token from `from` to `to`, checking first that contract recipients\r\n     * are aware of the ERC721 protocol to prevent tokens from being forever locked.\r\n     *\r\n     * `_data` is additional data, it has no specified format and it is sent in call to `to`.\r\n     *\r\n     * This internal function is equivalent to {safeTransferFrom}, and can be used to e.g.\r\n     * implement alternative mechanisms to perform token transfer, such as signature-based.\r\n     *\r\n     * Requirements:\r\n     *\r\n     * - `from` cannot be the zero address.\r\n     * - `to` cannot be the zero address.\r\n     * - `tokenId` token must exist and be owned by `from`.\r\n     * - If `to` refers to a smart contract, it must implement {IERC721Receiver-onERC721Received}, which is called upon a safe transfer.\r\n     *\r\n     * Emits a {Transfer} event.\r\n     */\r\n    function _safeTransfer(address from, address to, uint256 tokenId, bytes memory _data) internal virtual {\r\n        _transfer(from, to, tokenId);\r\n        require(_checkOnERC721Received(from, to, tokenId, _data), \"ERC721: transfer to non ERC721Receiver implementer\");\r\n    }\r\n\r\n    /**\r\n     * @dev Returns whether `tokenId` exists.\r\n     *\r\n     * Tokens can be managed by their owner or approved accounts via {approve} or {setApprovalForAll}.\r\n     *\r\n     * Tokens start existing when they are minted (`_mint`),\r\n     * and stop existing when they are burned (`_burn`).\r\n     */\r\n    function _exists(uint256 tokenId) internal view returns (bool) {\r\n        return _tokenOwners.contains(tokenId);\r\n    }\r\n\r\n    /**\r\n     * @dev Returns whether `spender` is allowed to manage `tokenId`.\r\n     *\r\n     * Requirements:\r\n     *\r\n     * - `tokenId` must exist.\r\n     */\r\n    function _isApprovedOrOwner(address spender, uint256 tokenId) internal view returns (bool) {\r\n        require(_exists(tokenId), \"ERC721: operator query for nonexistent token\");\r\n        address owner = ownerOf(tokenId);\r\n        return (spender == owner || getApproved(tokenId) == spender || isApprovedForAll(owner, spender));\r\n    }\r\n\r\n    /**\r\n     * @dev Safely mints `tokenId` and transfers it to `to`.\r\n     *\r\n     * Requirements:\r\n     d*\r\n     * - `tokenId` must not exist.\r\n     * - If `to` refers to a smart contract, it must implement {IERC721Receiver-onERC721Received}, which is called upon a safe transfer.\r\n     *\r\n     * Emits a {Transfer} event.\r\n     */\r\n    // function _safeMint(address to, uint256 tokenId, uint OrginalValue) internal virtual {\r\n    //     _safeMint(to, tokenId, OrginalValue);\r\n    // }\r\n\r\n    /**\r\n     * @dev Same as {xref-ERC721-_safeMint-address-uint256-}[`_safeMint`], with an additional `data` parameter which is\r\n     * forwarded in {IERC721Receiver-onERC721Received} to contract recipients.\r\n     */\r\n    // function _safeMint(address to, uint256 tokenId, bytes memory _data, uint OrginalValue) internal virtual {\r\n    //     _mint(to, tokenId,origVal,currVal,date,coins,property_images,pro_add_details,prop_tax,prop_insurance,prop_maintainence,features_prop);\r\n    //     require(_checkOnERC721Received(address(0), to, tokenId, _data), \"ERC721: transfer to non ERC721Receiver implementer\");\r\n    // }\r\n\r\n    /**\r\n     * @dev Mints `tokenId` and transfers it to `to`.\r\n     *\r\n     * WARNING: Usage of this method is discouraged, use {_safeMint} whenever possible\r\n     *\r\n     * Requirements:\r\n     *\r\n     * - `tokenId` must not exist.\r\n     * - `to` cannot be the zero address.\r\n     *\r\n     * Emits a {Transfer} event.\r\n     */\r\n    function _mint(uint256 origVal,\r\n                                     uint256 coins,\r\n                                     string[] memory property_images,\r\n                                     string[] memory pro_add_details,\r\n                                     uint prop_tax,\r\n                                     uint prop_insurance,\r\n                                     uint prop_maintainence,\r\n                                     string memory features_prop) internal virtual {\r\n                                        uint256 tokenId = _id;\r\n                                        _id++;\r\n        require(msg.sender != address(0), \"ERC721: mint to the zero address\");\r\n        require(!_exists(tokenId), \"ERC721: token already minted\");\r\n\r\n        _beforeTokenTransfer(address(0), msg.sender, tokenId);\r\n\r\n        _holderTokens[msg.sender].add(tokenId);\r\n\r\n        _tokenOwners.set(tokenId, msg.sender);\r\n        \r\n        Property_coins_generated_till_now memory coinsdetails;\r\n    \r\n        coinsdetails.coin_issue = coins;\r\n        coinsdetails.org_val = origVal;\r\n        coinsdetails.equity_at_issuance = 0;\r\n\r\n        //uint temp = 0;\r\n        //uint temp1=  (temp.mul(origVal)).div(origVal);\r\n    \r\n        coinsdetails.curr_val = 1;\r\n        coinsdetails.tot_curr_val = origVal;\r\n        \r\n        //uint curr = coinsdetails.tot_curr_val;\r\n        //uint orig=  ((coinsdetails.org_val).mul(coins)).div(origVal);\r\n            \r\n        coinsdetails.increase = 0;\r\n           \r\n        prop[tokenId].Orig_Value = origVal;\r\n        prop[tokenId].Curr_Value = origVal;\r\n        prop[tokenId].next_reevaluation_date = now;\r\n        prop[tokenId].Property_images = property_images;    \r\n        prop[tokenId].Property_location = pro_add_details;\r\n        prop[tokenId].coins_issue.push(coinsdetails);\r\n        prop[tokenId].total_coins_issue = coinsdetails;  \r\n        prop[tokenId].taxes = prop_tax;\r\n        prop[tokenId].insurance = prop_insurance;\r\n        prop[tokenId].maintainence = prop_maintainence;\r\n        prop[tokenId].total = (prop_tax.add(prop_insurance)).add(prop_maintainence);\r\n       // prop[tokenId] .monthly_hoa_payment = (prop[tokenId].total).div(12);\r\n        prop[tokenId].property_features = features_prop;\r\n        address to = msg.sender;\r\n       // emit Transfer(address(0), msg.sender, tokenId);\r\n        emit Transfer(address(0), to , tokenId);\r\n        \r\n        \r\n    }\r\n\r\n    /**\r\n     * @dev Destroys `tokenId`.\r\n     * The approval is cleared when the token is burned.\r\n     *\r\n     * Requirements:\r\n     *\r\n     * - `tokenId` must exist.\r\n     *\r\n     * Emits a {Transfer} event.\r\n     */\r\n    function _burn(uint256 tokenId) internal virtual {\r\n        address owner = ownerOf(tokenId);\r\n\r\n        _beforeTokenTransfer(owner, address(0), tokenId);\r\n\r\n        // Clear approvals\r\n        _approve(address(0), tokenId);\r\n\r\n        // Clear metadata (if any)\r\n        if (bytes(_tokenURIs[tokenId]).length != 0) {\r\n            delete _tokenURIs[tokenId];\r\n        }\r\n\r\n        _holderTokens[owner].remove(tokenId);\r\n\r\n        _tokenOwners.remove(tokenId);\r\n\r\n        emit Transfer(owner, address(0), tokenId);\r\n    }\r\n\r\n    /**\r\n     * @dev Transfers `tokenId` from `from` to `to`.\r\n     *  As opposed to {transferFrom}, this imposes no restrictions on msg.sender.\r\n     *\r\n     * Requirements:\r\n     *\r\n     * - `to` cannot be the zero address.\r\n     * - `tokenId` token must be owned by `from`.\r\n     *\r\n     * Emits a {Transfer} event.\r\n     */\r\n    function _transfer(address from, address to, uint256 tokenId) internal virtual {\r\n        require(ownerOf(tokenId) == from, \"ERC721: transfer of token that is not own\");\r\n        require(to != address(0), \"ERC721: transfer to the zero address\");\r\n\r\n        _beforeTokenTransfer(from, to, tokenId);\r\n\r\n        // Clear approvals from the previous owner\r\n        _approve(address(0), tokenId);\r\n\r\n        _holderTokens[from].remove(tokenId);\r\n        _holderTokens[to].add(tokenId);\r\n\r\n        _tokenOwners.set(tokenId, to);\r\n\r\n        emit Transfer(from, to, tokenId);\r\n    }\r\n\r\n    /**\r\n     * @dev Sets `_tokenURI` as the tokenURI of `tokenId`.\r\n     *\r\n     * Requirements:\r\n     *\r\n     * - `tokenId` must exist.\r\n     */\r\n    function _setTokenURI(uint256 tokenId, string memory _tokenURI) internal virtual {\r\n        require(_exists(tokenId), \"ERC721Metadata: URI set of nonexistent token\");\r\n        _tokenURIs[tokenId] = _tokenURI;\r\n    }\r\n\r\n    /**\r\n     * @dev Internal function to set the base URI for all token IDs. It is\r\n     * automatically added as a prefix to the value returned in {tokenURI},\r\n     * or to the token ID if {tokenURI} is empty.\r\n     */\r\n    function _setBaseURI(string memory baseURI_) internal virtual {\r\n        _baseURI = baseURI_;\r\n    }\r\n\r\n    /**\r\n     * @dev Internal function to invoke {IERC721Receiver-onERC721Received} on a target address.\r\n     * The call is not executed if the target address is not a contract.\r\n     *\r\n     * @param from address representing the previous owner of the given token ID\r\n     * @param to target address that will receive the tokens\r\n     * @param tokenId uint256 ID of the token to be transferred\r\n     * @param _data bytes optional data to send along with the call\r\n     * @return bool whether the call correctly returned the expected magic value\r\n     */\r\n    function _checkOnERC721Received(address from, address to, uint256 tokenId, bytes memory _data)\r\n        private returns (bool)\r\n    {\r\n        if (!to.isContract()) {\r\n            return true;\r\n        }\r\n        bytes memory returndata = to.functionCall(abi.encodeWithSelector(\r\n            IERC721Receiver(to).onERC721Received.selector,\r\n            _msgSender(),\r\n            from,\r\n            tokenId,\r\n            _data\r\n        ), \"ERC721: transfer to non ERC721Receiver implementer\");\r\n        bytes4 retval = abi.decode(returndata, (bytes4));\r\n        return (retval == _ERC721_RECEIVED);\r\n    }\r\n\r\n    function _approve(address to, uint256 tokenId) private {\r\n        _tokenApprovals[tokenId] = to;\r\n        emit Approval(ownerOf(tokenId), to, tokenId);\r\n    }\r\n\r\n    /**\r\n     * @dev Hook that is called before any token transfer. This includes minting\r\n     * and burning.\r\n     *\r\n     * Calling conditions:\r\n     *\r\n     * - When `from` and `to` are both non-zero, ``from``'s `tokenId` will be\r\n     * transferred to `to`.\r\n     * - When `from` is zero, `tokenId` will be minted for `to`.\r\n     * - When `to` is zero, ``from``'s `tokenId` will be burned.\r\n     * - `from` cannot be the zero address.\r\n     * - `to` cannot be the zero address.\r\n     *\r\n     * To learn more about hooks, head to xref:ROOT:extending-contracts.adoc#using-hooks[Using Hooks].\r\n     */\r\n    function _beforeTokenTransfer(address from, address to, uint256 tokenId) internal virtual { }\r\n    \r\n}",
  "sourcePath": "C:\\MyProjects\\Code2Learn\\Quest\\nft\\src\\contracts\\ERC721.sol",
  "compiler": {
    "name": "solc",
    "version": "0.6.12+commit.27d51765.Emscripten.clang"
  },
  "schemaVersion": "3.3.1",
  "updatedAt": "2020-11-20T11:54:11.719Z",
  "devdoc": {
    "details": "see https://eips.ethereum.org/EIPS/eip-721",
    "kind": "dev",
    "methods": {
      "approve(address,uint256)": {
        "details": "See {IERC721-approve}."
      },
      "balanceOf(address)": {
        "details": "See {IERC721-balanceOf}."
      },
      "baseURI()": {
        "details": "Returns the base URI set via {_setBaseURI}. This will be automatically added as a prefix in {tokenURI} to each token's URI, or to the token ID if no specific URI is set for that token ID."
      },
      "constructor": {
        "details": "Initializes the contract by setting a `name` and a `symbol` to the token collection."
      },
      "getApproved(uint256)": {
        "details": "See {IERC721-getApproved}."
      },
      "isApprovedForAll(address,address)": {
        "details": "See {IERC721-isApprovedForAll}."
      },
      "name()": {
        "details": "See {IERC721Metadata-name}."
      },
      "ownerOf(uint256)": {
        "details": "See {IERC721-ownerOf}."
      },
      "safeTransferFrom(address,address,uint256)": {
        "details": "See {IERC721-safeTransferFrom}."
      },
      "safeTransferFrom(address,address,uint256,bytes)": {
        "details": "See {IERC721-safeTransferFrom}."
      },
      "setApprovalForAll(address,bool)": {
        "details": "See {IERC721-setApprovalForAll}."
      },
      "supportsInterface(bytes4)": {
        "details": "See {IERC165-supportsInterface}. Time complexity O(1), guaranteed to always use less than 30 000 gas."
      },
      "symbol()": {
        "details": "See {IERC721Metadata-symbol}."
      },
      "tokenByIndex(uint256)": {
        "details": "See {IERC721Enumerable-tokenByIndex}."
      },
      "tokenOfOwnerByIndex(address,uint256)": {
        "details": "See {IERC721Enumerable-tokenOfOwnerByIndex}."
      },
      "tokenURI(uint256)": {
        "details": "See {IERC721Metadata-tokenURI}."
      },
      "totalSupply()": {
        "details": "See {IERC721Enumerable-totalSupply}."
      },
      "transferFrom(address,address,uint256)": {
        "details": "See {IERC721-transferFrom}."
      }
    },
    "title": "ERC721 Non-Fungible Token Standard basic implementation",
    "version": 1
  },
  "userdoc": {
    "kind": "user",
    "methods": {},
    "version": 1
  }
}