{
  "contractName": "ERC721",
  "abi": [
    {
      "inputs": [
        {
          "internalType": "string",
          "name": "name",
          "type": "string"
        },
        {
          "internalType": "string",
          "name": "symbol",
          "type": "string"
        }
      ],
      "stateMutability": "nonpayable",
      "type": "constructor"
    },
    {
      "anonymous": false,
      "inputs": [
        {
          "indexed": true,
          "internalType": "address",
          "name": "owner",
          "type": "address"
        },
        {
          "indexed": true,
          "internalType": "address",
          "name": "approved",
          "type": "address"
        },
        {
          "indexed": true,
          "internalType": "uint256",
          "name": "tokenId",
          "type": "uint256"
        }
      ],
      "name": "Approval",
      "type": "event"
    },
    {
      "anonymous": false,
      "inputs": [
        {
          "indexed": true,
          "internalType": "address",
          "name": "owner",
          "type": "address"
        },
        {
          "indexed": true,
          "internalType": "address",
          "name": "operator",
          "type": "address"
        },
        {
          "indexed": false,
          "internalType": "bool",
          "name": "approved",
          "type": "bool"
        }
      ],
      "name": "ApprovalForAll",
      "type": "event"
    },
    {
      "anonymous": false,
      "inputs": [
        {
          "indexed": true,
          "internalType": "address",
          "name": "from",
          "type": "address"
        },
        {
          "indexed": true,
          "internalType": "address",
          "name": "to",
          "type": "address"
        },
        {
          "indexed": true,
          "internalType": "uint256",
          "name": "tokenId",
          "type": "uint256"
        }
      ],
      "name": "Transfer",
      "type": "event"
    },
    {
      "inputs": [
        {
          "internalType": "uint256",
          "name": "",
          "type": "uint256"
        }
      ],
      "name": "EligibleEmp",
      "outputs": [
        {
          "internalType": "address",
          "name": "",
          "type": "address"
        }
      ],
      "stateMutability": "view",
      "type": "function"
    },
    {
      "inputs": [
        {
          "internalType": "uint256",
          "name": "",
          "type": "uint256"
        }
      ],
      "name": "_propertyValue",
      "outputs": [
        {
          "internalType": "uint256",
          "name": "OrginalValue",
          "type": "uint256"
        },
        {
          "internalType": "uint256",
          "name": "CurrentValue",
          "type": "uint256"
        },
        {
          "internalType": "uint256",
          "name": "OriginalIssuanceRate",
          "type": "uint256"
        }
      ],
      "stateMutability": "view",
      "type": "function"
    },
    {
      "inputs": [],
      "name": "contractOwner",
      "outputs": [
        {
          "internalType": "address",
          "name": "",
          "type": "address"
        }
      ],
      "stateMutability": "view",
      "type": "function"
    },
    {
      "inputs": [
        {
          "internalType": "uint256",
          "name": "",
          "type": "uint256"
        }
      ],
      "name": "prop",
      "outputs": [
        {
          "internalType": "uint256",
          "name": "Orig_Value",
          "type": "uint256"
        },
        {
          "internalType": "uint256",
          "name": "Curr_Value",
          "type": "uint256"
        },
        {
          "internalType": "uint256",
          "name": "next_reevaluation_date",
          "type": "uint256"
        },
        {
          "components": [
            {
              "internalType": "uint256",
              "name": "coin_issue",
              "type": "uint256"
            },
            {
              "internalType": "uint256",
              "name": "org_val",
              "type": "uint256"
            },
            {
              "internalType": "uint256",
              "name": "equity_at_issuance",
              "type": "uint256"
            },
            {
              "internalType": "uint256",
              "name": "curr_val",
              "type": "uint256"
            },
            {
              "internalType": "uint256",
              "name": "tot_curr_val",
              "type": "uint256"
            },
            {
              "internalType": "uint256",
              "name": "increase",
              "type": "uint256"
            }
          ],
          "internalType": "struct ERC721.Property_coins_generated_till_now",
          "name": "total_coins_issue",
          "type": "tuple"
        },
        {
          "internalType": "string",
          "name": "Property_images_hash",
          "type": "string"
        },
        {
          "internalType": "uint256",
          "name": "taxes",
          "type": "uint256"
        },
        {
          "internalType": "uint256",
          "name": "insurance",
          "type": "uint256"
        },
        {
          "internalType": "uint256",
          "name": "maintainence",
          "type": "uint256"
        },
        {
          "internalType": "uint256",
          "name": "total",
          "type": "uint256"
        },
        {
          "internalType": "uint256",
          "name": "monthly_hoa_payment",
          "type": "uint256"
        },
        {
          "internalType": "string",
          "name": "property_features",
          "type": "string"
        }
      ],
      "stateMutability": "view",
      "type": "function"
    },
    {
      "inputs": [
        {
          "internalType": "bytes4",
          "name": "interfaceId",
          "type": "bytes4"
        }
      ],
      "name": "supportsInterface",
      "outputs": [
        {
          "internalType": "bool",
          "name": "",
          "type": "bool"
        }
      ],
      "stateMutability": "view",
      "type": "function"
    },
    {
      "inputs": [],
      "name": "tot_no_of_prop_onplatform",
      "outputs": [
        {
          "internalType": "uint256",
          "name": "",
          "type": "uint256"
        }
      ],
      "stateMutability": "view",
      "type": "function"
    },
    {
      "inputs": [
        {
          "internalType": "address",
          "name": "owner",
          "type": "address"
        }
      ],
      "name": "balanceOf",
      "outputs": [
        {
          "internalType": "uint256",
          "name": "",
          "type": "uint256"
        }
      ],
      "stateMutability": "view",
      "type": "function"
    },
    {
      "inputs": [
        {
          "internalType": "uint256",
          "name": "tokenId",
          "type": "uint256"
        }
      ],
      "name": "ownerOf",
      "outputs": [
        {
          "internalType": "address",
          "name": "",
          "type": "address"
        }
      ],
      "stateMutability": "view",
      "type": "function"
    },
    {
      "inputs": [],
      "name": "name",
      "outputs": [
        {
          "internalType": "string",
          "name": "",
          "type": "string"
        }
      ],
      "stateMutability": "view",
      "type": "function"
    },
    {
      "inputs": [],
      "name": "symbol",
      "outputs": [
        {
          "internalType": "string",
          "name": "",
          "type": "string"
        }
      ],
      "stateMutability": "view",
      "type": "function"
    },
    {
      "inputs": [
        {
          "internalType": "uint256",
          "name": "tokenId",
          "type": "uint256"
        }
      ],
      "name": "tokenURI",
      "outputs": [
        {
          "internalType": "string",
          "name": "",
          "type": "string"
        }
      ],
      "stateMutability": "view",
      "type": "function"
    },
    {
      "inputs": [],
      "name": "baseURI",
      "outputs": [
        {
          "internalType": "string",
          "name": "",
          "type": "string"
        }
      ],
      "stateMutability": "view",
      "type": "function"
    },
    {
      "inputs": [
        {
          "internalType": "address",
          "name": "owner",
          "type": "address"
        },
        {
          "internalType": "uint256",
          "name": "index",
          "type": "uint256"
        }
      ],
      "name": "tokenOfOwnerByIndex",
      "outputs": [
        {
          "internalType": "uint256",
          "name": "",
          "type": "uint256"
        }
      ],
      "stateMutability": "view",
      "type": "function"
    },
    {
      "inputs": [],
      "name": "totalSupply",
      "outputs": [
        {
          "internalType": "uint256",
          "name": "",
          "type": "uint256"
        }
      ],
      "stateMutability": "view",
      "type": "function"
    },
    {
      "inputs": [
        {
          "internalType": "uint256",
          "name": "index",
          "type": "uint256"
        }
      ],
      "name": "tokenByIndex",
      "outputs": [
        {
          "internalType": "uint256",
          "name": "",
          "type": "uint256"
        }
      ],
      "stateMutability": "view",
      "type": "function"
    },
    {
      "inputs": [
        {
          "internalType": "address",
          "name": "to",
          "type": "address"
        },
        {
          "internalType": "uint256",
          "name": "tokenId",
          "type": "uint256"
        }
      ],
      "name": "approve",
      "outputs": [],
      "stateMutability": "nonpayable",
      "type": "function"
    },
    {
      "inputs": [
        {
          "internalType": "uint256",
          "name": "tokenId",
          "type": "uint256"
        }
      ],
      "name": "getApproved",
      "outputs": [
        {
          "internalType": "address",
          "name": "",
          "type": "address"
        }
      ],
      "stateMutability": "view",
      "type": "function"
    },
    {
      "inputs": [
        {
          "internalType": "address",
          "name": "operator",
          "type": "address"
        },
        {
          "internalType": "bool",
          "name": "approved",
          "type": "bool"
        }
      ],
      "name": "setApprovalForAll",
      "outputs": [],
      "stateMutability": "nonpayable",
      "type": "function"
    },
    {
      "inputs": [
        {
          "internalType": "address",
          "name": "owner",
          "type": "address"
        },
        {
          "internalType": "address",
          "name": "operator",
          "type": "address"
        }
      ],
      "name": "isApprovedForAll",
      "outputs": [
        {
          "internalType": "bool",
          "name": "",
          "type": "bool"
        }
      ],
      "stateMutability": "view",
      "type": "function"
    },
    {
      "inputs": [
        {
          "internalType": "address",
          "name": "from",
          "type": "address"
        },
        {
          "internalType": "address",
          "name": "to",
          "type": "address"
        },
        {
          "internalType": "uint256",
          "name": "tokenId",
          "type": "uint256"
        }
      ],
      "name": "transferFrom",
      "outputs": [],
      "stateMutability": "nonpayable",
      "type": "function"
    },
    {
      "inputs": [
        {
          "internalType": "address",
          "name": "from",
          "type": "address"
        },
        {
          "internalType": "address",
          "name": "to",
          "type": "address"
        },
        {
          "internalType": "uint256",
          "name": "tokenId",
          "type": "uint256"
        }
      ],
      "name": "safeTransferFrom",
      "outputs": [],
      "stateMutability": "nonpayable",
      "type": "function"
    },
    {
      "inputs": [
        {
          "internalType": "address",
          "name": "from",
          "type": "address"
        },
        {
          "internalType": "address",
          "name": "to",
          "type": "address"
        },
        {
          "internalType": "uint256",
          "name": "tokenId",
          "type": "uint256"
        },
        {
          "internalType": "bytes",
          "name": "_data",
          "type": "bytes"
        }
      ],
      "name": "safeTransferFrom",
      "outputs": [],
      "stateMutability": "nonpayable",
      "type": "function"
    }
  ],
  "bytecode": "0x6080604052600180556000600d553480156200001a57600080fd5b50604051620033ed380380620033ed8339818101604052810190620000409190620002b4565b620000586301ffc9a760e01b620000da60201b60201c565b816007908051906020019062000070929190620001b2565b50806008908051906020019062000089929190620001b2565b50620000a26380ac58cd60e01b620000da60201b60201c565b620000ba635b5e139f60e01b620000da60201b60201c565b620000d263780e9d6360e01b620000da60201b60201c565b50506200042d565b63ffffffff60e01b817bffffffffffffffffffffffffffffffffffffffffffffffffffffffff1916141562000146576040517f08c379a00000000000000000000000000000000000000000000000000000000081526004016200013d9062000369565b60405180910390fd5b6001600080837bffffffffffffffffffffffffffffffffffffffffffffffffffffffff19167bffffffffffffffffffffffffffffffffffffffffffffffffffffffff1916815260200190815260200160002060006101000a81548160ff02191690831515021790555050565b828054600181600116156101000203166002900490600052602060002090601f016020900481019282601f10620001f557805160ff191683800117855562000226565b8280016001018555821562000226579182015b828111156200022557825182559160200191906001019062000208565b5b50905062000235919062000239565b5090565b5b80821115620002545760008160009055506001016200023a565b5090565b600082601f8301126200026a57600080fd5b8151620002816200027b82620003b9565b6200038b565b915080825260208301602083018583830111156200029e57600080fd5b620002ab838284620003f7565b50505092915050565b60008060408385031215620002c857600080fd5b600083015167ffffffffffffffff811115620002e357600080fd5b620002f18582860162000258565b925050602083015167ffffffffffffffff8111156200030f57600080fd5b6200031d8582860162000258565b9150509250929050565b600062000336601c83620003e6565b91507f4552433136353a20696e76616c696420696e74657266616365206964000000006000830152602082019050919050565b60006020820190508181036000830152620003848162000327565b9050919050565b6000604051905081810181811067ffffffffffffffff82111715620003af57600080fd5b8060405250919050565b600067ffffffffffffffff821115620003d157600080fd5b601f19601f8301169050602081019050919050565b600082825260208201905092915050565b60005b8381101562000417578082015181840152602081019050620003fa565b8381111562000427576000848401525b50505050565b612fb0806200043d6000396000f3fe608060405234801561001057600080fd5b50600436106101425760003560e01c80636352211e116100b8578063b88d4fde1161007c578063b88d4fde146103a7578063c87b56dd146103c3578063ce606ee0146103f3578063e06e068814610411578063e985e9c514610441578063f5cc77131461047157610142565b80636352211e146102ef5780636c0360eb1461031f57806370a082311461033d57806395d89b411461036d578063a22cb4651461038b57610142565b8063190be8b11161010a578063190be8b1146101ff57806323b872dd146102395780632e9edf35146102555780632f745c591461027357806342842e0e146102a35780634f6ccce7146102bf57610142565b806301ffc9a71461014757806306fdde0314610177578063081812fc14610195578063095ea7b3146101c557806318160ddd146101e1575b600080fd5b610161600480360381019061015c919061210f565b6104a3565b60405161016e9190612a02565b60405180910390f35b61017f61050a565b60405161018c9190612a1d565b60405180910390f35b6101af60048036038101906101aa9190612161565b6105ac565b6040516101bc919061299b565b60405180910390f35b6101df60048036038101906101da91906120d3565b610631565b005b6101e9610749565b6040516101f69190612c1f565b60405180910390f35b61021960048036038101906102149190612161565b61075a565b6040516102309b9a99989796959493929190612c71565b60405180910390f35b610253600480360381019061024e9190611fcd565b61092a565b005b61025d61098a565b60405161026a9190612c1f565b60405180910390f35b61028d600480360381019061028891906120d3565b610990565b60405161029a9190612c1f565b60405180910390f35b6102bd60048036038101906102b89190611fcd565b6109eb565b005b6102d960048036038101906102d49190612161565b610a0b565b6040516102e69190612c1f565b60405180910390f35b61030960048036038101906103049190612161565b610a2e565b604051610316919061299b565b60405180910390f35b610327610a65565b6040516103349190612a1d565b60405180910390f35b61035760048036038101906103529190611f68565b610b07565b6040516103649190612c1f565b60405180910390f35b610375610bc6565b6040516103829190612a1d565b60405180910390f35b6103a560048036038101906103a09190612097565b610c68565b005b6103c160048036038101906103bc919061201c565b610de9565b005b6103dd60048036038101906103d89190612161565b610e4b565b6040516103ea9190612a1d565b60405180910390f35b6103fb610fd6565b604051610408919061299b565b60405180910390f35b61042b60048036038101906104269190612161565b610ffc565b604051610438919061299b565b60405180910390f35b61045b60048036038101906104569190611f91565b611038565b6040516104689190612a02565b60405180910390f35b61048b60048036038101906104869190612161565b6110cc565b60405161049a93929190612c3a565b60405180910390f35b6000806000837bffffffffffffffffffffffffffffffffffffffffffffffffffffffff19167bffffffffffffffffffffffffffffffffffffffffffffffffffffffff1916815260200190815260200160002060009054906101000a900460ff169050919050565b606060078054600181600116156101000203166002900480601f0160208091040260200160405190810160405280929190818152602001828054600181600116156101000203166002900480156105a25780601f10610577576101008083540402835291602001916105a2565b820191906000526020600020905b81548152906001019060200180831161058557829003601f168201915b5050505050905090565b60006105b7826110f6565b6105f6576040517f08c379a00000000000000000000000000000000000000000000000000000000081526004016105ed90612b5f565b60405180910390fd5b6005600083815260200190815260200160002060009054906101000a900473ffffffffffffffffffffffffffffffffffffffff169050919050565b600061063c82610a2e565b90508073ffffffffffffffffffffffffffffffffffffffff168373ffffffffffffffffffffffffffffffffffffffff1614156106ad576040517f08c379a00000000000000000000000000000000000000000000000000000000081526004016106a490612bbf565b60405180910390fd5b8073ffffffffffffffffffffffffffffffffffffffff166106cc611113565b73ffffffffffffffffffffffffffffffffffffffff1614806106fb57506106fa816106f5611113565b611038565b5b61073a576040517f08c379a000000000000000000000000000000000000000000000000000000000815260040161073190612aff565b60405180910390fd5b610744838361111b565b505050565b600061075560036111d4565b905090565b600e602052806000526040600020600091509050806000015490806001015490806002015490806004016040518060c001604052908160008201548152602001600182015481526020016002820154815260200160038201548152602001600482015481526020016005820154815250509080600a018054600181600116156101000203166002900480601f0160208091040260200160405190810160405280929190818152602001828054600181600116156101000203166002900480156108645780601f1061083957610100808354040283529160200191610864565b820191906000526020600020905b81548152906001019060200180831161084757829003601f168201915b50505050509080600c01549080600d01549080600e01549080600f015490806010015490806011018054600181600116156101000203166002900480601f0160208091040260200160405190810160405280929190818152602001828054600181600116156101000203166002900480156109205780601f106108f557610100808354040283529160200191610920565b820191906000526020600020905b81548152906001019060200180831161090357829003601f168201915b505050505090508b565b61093b610935611113565b826111e9565b61097a576040517f08c379a000000000000000000000000000000000000000000000000000000000815260040161097190612bdf565b60405180910390fd5b6109858383836112c7565b505050565b600d5481565b60006109e382600260008673ffffffffffffffffffffffffffffffffffffffff1673ffffffffffffffffffffffffffffffffffffffff1681526020019081526020016000206114de90919063ffffffff16565b905092915050565b610a0683838360405180602001604052806000815250610de9565b505050565b600080610a228360036114f890919063ffffffff16565b50905080915050919050565b6000610a5e82604051806060016040528060298152602001612f526029913960036115249092919063ffffffff16565b9050919050565b606060108054600181600116156101000203166002900480601f016020809104026020016040519081016040528092919081815260200182805460018160011615610100020316600290048015610afd5780601f10610ad257610100808354040283529160200191610afd565b820191906000526020600020905b815481529060010190602001808311610ae057829003601f168201915b5050505050905090565b60008073ffffffffffffffffffffffffffffffffffffffff168273ffffffffffffffffffffffffffffffffffffffff161415610b78576040517f08c379a0000000000000000000000000000000000000000000000000000000008152600401610b6f90612b1f565b60405180910390fd5b610bbf600260008473ffffffffffffffffffffffffffffffffffffffff1673ffffffffffffffffffffffffffffffffffffffff168152602001908152602001600020611543565b9050919050565b606060088054600181600116156101000203166002900480601f016020809104026020016040519081016040528092919081815260200182805460018160011615610100020316600290048015610c5e5780601f10610c3357610100808354040283529160200191610c5e565b820191906000526020600020905b815481529060010190602001808311610c4157829003601f168201915b5050505050905090565b610c70611113565b73ffffffffffffffffffffffffffffffffffffffff168273ffffffffffffffffffffffffffffffffffffffff161415610cde576040517f08c379a0000000000000000000000000000000000000000000000000000000008152600401610cd590612a9f565b60405180910390fd5b8060066000610ceb611113565b73ffffffffffffffffffffffffffffffffffffffff1673ffffffffffffffffffffffffffffffffffffffff16815260200190815260200160002060008473ffffffffffffffffffffffffffffffffffffffff1673ffffffffffffffffffffffffffffffffffffffff16815260200190815260200160002060006101000a81548160ff0219169083151502179055508173ffffffffffffffffffffffffffffffffffffffff16610d98611113565b73ffffffffffffffffffffffffffffffffffffffff167f17307eab39ab6107e8899845ad3d59bd9653f200f220920489ca2b5937696c3183604051610ddd9190612a02565b60405180910390a35050565b610dfa610df4611113565b836111e9565b610e39576040517f08c379a0000000000000000000000000000000000000000000000000000000008152600401610e3090612bdf565b60405180910390fd5b610e4584848484611558565b50505050565b6060610e56826110f6565b610e95576040517f08c379a0000000000000000000000000000000000000000000000000000000008152600401610e8c90612b9f565b60405180910390fd5b6060600960008481526020019081526020016000208054600181600116156101000203166002900480601f016020809104026020016040519081016040528092919081815260200182805460018160011615610100020316600290048015610f3e5780601f10610f1357610100808354040283529160200191610f3e565b820191906000526020600020905b815481529060010190602001808311610f2157829003601f168201915b50505050509050600060108054600181600116156101000203166002900490501415610f6d5780915050610fd1565b600081511115610fa257601081604051602001610f8b929190612977565b604051602081830303815290604052915050610fd1565b6010610fad846115b4565b604051602001610fbe929190612977565b6040516020818303038152906040529150505b919050565b600b60009054906101000a900473ffffffffffffffffffffffffffffffffffffffff1681565b600a818154811061100957fe5b906000526020600020016000915054906101000a900473ffffffffffffffffffffffffffffffffffffffff1681565b6000600660008473ffffffffffffffffffffffffffffffffffffffff1673ffffffffffffffffffffffffffffffffffffffff16815260200190815260200160002060008373ffffffffffffffffffffffffffffffffffffffff1673ffffffffffffffffffffffffffffffffffffffff16815260200190815260200160002060009054906101000a900460ff16905092915050565b600f6020528060005260406000206000915090508060000154908060010154908060020154905083565b600061110c8260036116fb90919063ffffffff16565b9050919050565b600033905090565b816005600083815260200190815260200160002060006101000a81548173ffffffffffffffffffffffffffffffffffffffff021916908373ffffffffffffffffffffffffffffffffffffffff160217905550808273ffffffffffffffffffffffffffffffffffffffff1661118e83610a2e565b73ffffffffffffffffffffffffffffffffffffffff167f8c5be1e5ebec7d5bd14f71427d1e84f3dd0314c0f7b2291e5b200ac8c7c3b92560405160405180910390a45050565b60006111e282600001611715565b9050919050565b60006111f4826110f6565b611233576040517f08c379a000000000000000000000000000000000000000000000000000000000815260040161122a90612adf565b60405180910390fd5b600061123e83610a2e565b90508073ffffffffffffffffffffffffffffffffffffffff168473ffffffffffffffffffffffffffffffffffffffff1614806112ad57508373ffffffffffffffffffffffffffffffffffffffff16611295846105ac565b73ffffffffffffffffffffffffffffffffffffffff16145b806112be57506112bd8185611038565b5b91505092915050565b8273ffffffffffffffffffffffffffffffffffffffff166112e782610a2e565b73ffffffffffffffffffffffffffffffffffffffff161461133d576040517f08c379a000000000000000000000000000000000000000000000000000000000815260040161133490612b7f565b60405180910390fd5b600073ffffffffffffffffffffffffffffffffffffffff168273ffffffffffffffffffffffffffffffffffffffff1614156113ad576040517f08c379a00000000000000000000000000000000000000000000000000000000081526004016113a490612a7f565b60405180910390fd5b6113b8838383611726565b6113c360008261111b565b61141481600260008673ffffffffffffffffffffffffffffffffffffffff1673ffffffffffffffffffffffffffffffffffffffff16815260200190815260200160002061172b90919063ffffffff16565b5061146681600260008573ffffffffffffffffffffffffffffffffffffffff1673ffffffffffffffffffffffffffffffffffffffff16815260200190815260200160002061174590919063ffffffff16565b5061147d8183600361175f9092919063ffffffff16565b50808273ffffffffffffffffffffffffffffffffffffffff168473ffffffffffffffffffffffffffffffffffffffff167fddf252ad1be2c89b69c2b068fc378daa952ba7f163c4a11628f55a4df523b3ef60405160405180910390a4505050565b60006114ed8360000183611794565b60001c905092915050565b60008060008061150b8660000186611801565b915091508160001c8160001c9350935050509250929050565b6000611537846000018460001b84611884565b60001c90509392505050565b600061155182600001611915565b9050919050565b6115638484846112c7565b61156f84848484611926565b6115ae576040517f08c379a00000000000000000000000000000000000000000000000000000000081526004016115a590612a5f565b60405180910390fd5b50505050565b606060008214156115fc576040518060400160405280600181526020017f300000000000000000000000000000000000000000000000000000000000000081525090506116f6565b600082905060005b60008214611626578080600101915050600a828161161e57fe5b049150611604565b60608167ffffffffffffffff8111801561163f57600080fd5b506040519080825280601f01601f1916602001820160405280156116725781602001600182028036833780820191505090505b50905060006001830390508593505b600084146116ee57600a848161169357fe5b0660300160f81b828280600190039350815181106116ad57fe5b60200101907effffffffffffffffffffffffffffffffffffffffffffffffffffffffffffff1916908160001a905350600a84816116e657fe5b049350611681565b819450505050505b919050565b600061170d836000018360001b611a8a565b905092915050565b600081600001805490509050919050565b505050565b600061173d836000018360001b611aad565b905092915050565b6000611757836000018360001b611b95565b905092915050565b600061178b846000018460001b8473ffffffffffffffffffffffffffffffffffffffff1660001b611c05565b90509392505050565b6000818360000180549050116117df576040517f08c379a00000000000000000000000000000000000000000000000000000000081526004016117d690612a3f565b60405180910390fd5b8260000182815481106117ee57fe5b9060005260206000200154905092915050565b6000808284600001805490501161184d576040517f08c379a000000000000000000000000000000000000000000000000000000000815260040161184490612b3f565b60405180910390fd5b600084600001848154811061185e57fe5b906000526020600020906002020190508060000154816001015492509250509250929050565b600080846001016000858152602001908152602001600020549050600081141583906118e6576040517f08c379a00000000000000000000000000000000000000000000000000000000081526004016118dd9190612a1d565b60405180910390fd5b508460000160018203815481106118f957fe5b9060005260206000209060020201600101549150509392505050565b600081600001805490509050919050565b60006119478473ffffffffffffffffffffffffffffffffffffffff16611ce1565b6119545760019050611a82565b6060611a1b63150b7a0260e01b611969611113565b88878760405160240161197f94939291906129b6565b604051602081830303815290604052907bffffffffffffffffffffffffffffffffffffffffffffffffffffffff19166020820180517bffffffffffffffffffffffffffffffffffffffffffffffffffffffff8381831617835250505050604051806060016040528060328152602001612f20603291398773ffffffffffffffffffffffffffffffffffffffff16611cf49092919063ffffffff16565b9050600081806020019051810190611a339190612138565b905063150b7a0260e01b7bffffffffffffffffffffffffffffffffffffffffffffffffffffffff1916817bffffffffffffffffffffffffffffffffffffffffffffffffffffffff191614925050505b949350505050565b600080836001016000848152602001908152602001600020541415905092915050565b60008083600101600084815260200190815260200160002054905060008114611b895760006001820390506000600186600001805490500390506000866000018281548110611af857fe5b9060005260206000200154905080876000018481548110611b1557fe5b9060005260206000200181905550600183018760010160008381526020019081526020016000208190555086600001805480611b4d57fe5b60019003818190600052602060002001600090559055866001016000878152602001908152602001600020600090556001945050505050611b8f565b60009150505b92915050565b6000611ba18383611d0c565b611bfa578260000182908060018154018082558091505060019003906000526020600020016000909190919091505582600001805490508360010160008481526020019081526020016000208190555060019050611bff565b600090505b92915050565b6000808460010160008581526020019081526020016000205490506000811415611cac57846000016040518060400160405280868152602001858152509080600181540180825580915050600190039060005260206000209060020201600090919091909150600082015181600001556020820151816001015550508460000180549050856001016000868152602001908152602001600020819055506001915050611cda565b82856000016001830381548110611cbf57fe5b90600052602060002090600202016001018190555060009150505b9392505050565b600080823b905060008111915050919050565b6060611d038484600085611d2f565b90509392505050565b600080836001016000848152602001908152602001600020541415905092915050565b606082471015611d74576040517f08c379a0000000000000000000000000000000000000000000000000000000008152600401611d6b90612abf565b60405180910390fd5b611d7d85611ce1565b611dbc576040517f08c379a0000000000000000000000000000000000000000000000000000000008152600401611db390612bff565b60405180910390fd5b600060608673ffffffffffffffffffffffffffffffffffffffff168587604051611de69190612960565b60006040518083038185875af1925050503d8060008114611e23576040519150601f19603f3d011682016040523d82523d6000602084013e611e28565b606091505b5091509150611e38828286611e44565b92505050949350505050565b60608315611e5457829050611ea4565b600083511115611e675782518084602001fd5b816040517f08c379a0000000000000000000000000000000000000000000000000000000008152600401611e9b9190612a1d565b60405180910390fd5b9392505050565b600081359050611eba81612ec3565b92915050565b600081359050611ecf81612eda565b92915050565b600081359050611ee481612ef1565b92915050565b600081519050611ef981612ef1565b92915050565b600082601f830112611f1057600080fd5b8135611f23611f1e82612d5b565b612d2e565b91508082526020830160208301858383011115611f3f57600080fd5b611f4a838284612e70565b50505092915050565b600081359050611f6281612f08565b92915050565b600060208284031215611f7a57600080fd5b6000611f8884828501611eab565b91505092915050565b60008060408385031215611fa457600080fd5b6000611fb285828601611eab565b9250506020611fc385828601611eab565b9150509250929050565b600080600060608486031215611fe257600080fd5b6000611ff086828701611eab565b935050602061200186828701611eab565b925050604061201286828701611f53565b9150509250925092565b6000806000806080858703121561203257600080fd5b600061204087828801611eab565b945050602061205187828801611eab565b935050604061206287828801611f53565b925050606085013567ffffffffffffffff81111561207f57600080fd5b61208b87828801611eff565b91505092959194509250565b600080604083850312156120aa57600080fd5b60006120b885828601611eab565b92505060206120c985828601611ec0565b9150509250929050565b600080604083850312156120e657600080fd5b60006120f485828601611eab565b925050602061210585828601611f53565b9150509250929050565b60006020828403121561212157600080fd5b600061212f84828501611ed5565b91505092915050565b60006020828403121561214a57600080fd5b600061215884828501611eea565b91505092915050565b60006020828403121561217357600080fd5b600061218184828501611f53565b91505092915050565b61219381612dfc565b82525050565b6121a281612dea565b82525050565b6121b181612e0e565b82525050565b60006121c282612d9c565b6121cc8185612db2565b93506121dc818560208601612e7f565b6121e581612eb2565b840191505092915050565b60006121fb82612d9c565b6122058185612dc3565b9350612215818560208601612e7f565b80840191505092915050565b600061222c82612da7565b6122368185612dce565b9350612246818560208601612e7f565b61224f81612eb2565b840191505092915050565b600061226582612da7565b61226f8185612ddf565b935061227f818560208601612e7f565b80840191505092915050565b6000815460018116600081146122a857600181146122cd57612311565b607f60028304166122b98187612ddf565b955060ff1983168652808601935050612311565b600282046122db8187612ddf565b95506122e685612d87565b60005b82811015612308578154818901526001820191506020810190506122e9565b82880195505050505b505092915050565b6000612326602283612dce565b91507f456e756d657261626c655365743a20696e646578206f7574206f6620626f756e60008301527f64730000000000000000000000000000000000000000000000000000000000006020830152604082019050919050565b600061238c603283612dce565b91507f4552433732313a207472616e7366657220746f206e6f6e20455243373231526560008301527f63656976657220696d706c656d656e74657200000000000000000000000000006020830152604082019050919050565b60006123f2602483612dce565b91507f4552433732313a207472616e7366657220746f20746865207a65726f2061646460008301527f72657373000000000000000000000000000000000000000000000000000000006020830152604082019050919050565b6000612458601983612dce565b91507f4552433732313a20617070726f766520746f2063616c6c6572000000000000006000830152602082019050919050565b6000612498602683612dce565b91507f416464726573733a20696e73756666696369656e742062616c616e636520666f60008301527f722063616c6c00000000000000000000000000000000000000000000000000006020830152604082019050919050565b60006124fe602c83612dce565b91507f4552433732313a206f70657261746f7220717565727920666f72206e6f6e657860008301527f697374656e7420746f6b656e00000000000000000000000000000000000000006020830152604082019050919050565b6000612564603883612dce565b91507f4552433732313a20617070726f76652063616c6c6572206973206e6f74206f7760008301527f6e6572206e6f7220617070726f76656420666f7220616c6c00000000000000006020830152604082019050919050565b60006125ca602a83612dce565b91507f4552433732313a2062616c616e636520717565727920666f7220746865207a6560008301527f726f2061646472657373000000000000000000000000000000000000000000006020830152604082019050919050565b6000612630602283612dce565b91507f456e756d657261626c654d61703a20696e646578206f7574206f6620626f756e60008301527f64730000000000000000000000000000000000000000000000000000000000006020830152604082019050919050565b6000612696602c83612dce565b91507f4552433732313a20617070726f76656420717565727920666f72206e6f6e657860008301527f697374656e7420746f6b656e00000000000000000000000000000000000000006020830152604082019050919050565b60006126fc602983612dce565b91507f4552433732313a207472616e73666572206f6620746f6b656e2074686174206960008301527f73206e6f74206f776e00000000000000000000000000000000000000000000006020830152604082019050919050565b6000612762602f83612dce565b91507f4552433732314d657461646174613a2055524920717565727920666f72206e6f60008301527f6e6578697374656e7420746f6b656e00000000000000000000000000000000006020830152604082019050919050565b60006127c8602183612dce565b91507f4552433732313a20617070726f76616c20746f2063757272656e74206f776e6560008301527f72000000000000000000000000000000000000000000000000000000000000006020830152604082019050919050565b600061282e603183612dce565b91507f4552433732313a207472616e736665722063616c6c6572206973206e6f74206f60008301527f776e6572206e6f7220617070726f7665640000000000000000000000000000006020830152604082019050919050565b6000612894601d83612dce565b91507f416464726573733a2063616c6c20746f206e6f6e2d636f6e74726163740000006000830152602082019050919050565b60c0820160008201516128dd6000850182612942565b5060208201516128f06020850182612942565b5060408201516129036040850182612942565b5060608201516129166060850182612942565b5060808201516129296080850182612942565b5060a082015161293c60a0850182612942565b50505050565b61294b81612e66565b82525050565b61295a81612e66565b82525050565b600061296c82846121f0565b915081905092915050565b6000612983828561228b565b915061298f828461225a565b91508190509392505050565b60006020820190506129b06000830184612199565b92915050565b60006080820190506129cb600083018761218a565b6129d86020830186612199565b6129e56040830185612951565b81810360608301526129f781846121b7565b905095945050505050565b6000602082019050612a1760008301846121a8565b92915050565b60006020820190508181036000830152612a378184612221565b905092915050565b60006020820190508181036000830152612a5881612319565b9050919050565b60006020820190508181036000830152612a788161237f565b9050919050565b60006020820190508181036000830152612a98816123e5565b9050919050565b60006020820190508181036000830152612ab88161244b565b9050919050565b60006020820190508181036000830152612ad88161248b565b9050919050565b60006020820190508181036000830152612af8816124f1565b9050919050565b60006020820190508181036000830152612b1881612557565b9050919050565b60006020820190508181036000830152612b38816125bd565b9050919050565b60006020820190508181036000830152612b5881612623565b9050919050565b60006020820190508181036000830152612b7881612689565b9050919050565b60006020820190508181036000830152612b98816126ef565b9050919050565b60006020820190508181036000830152612bb881612755565b9050919050565b60006020820190508181036000830152612bd8816127bb565b9050919050565b60006020820190508181036000830152612bf881612821565b9050919050565b60006020820190508181036000830152612c1881612887565b9050919050565b6000602082019050612c346000830184612951565b92915050565b6000606082019050612c4f6000830186612951565b612c5c6020830185612951565b612c696040830184612951565b949350505050565b600061020082019050612c87600083018e612951565b612c94602083018d612951565b612ca1604083018c612951565b612cae606083018b6128c7565b818103610120830152612cc1818a612221565b9050612cd1610140830189612951565b612cdf610160830188612951565b612ced610180830187612951565b612cfb6101a0830186612951565b612d096101c0830185612951565b8181036101e0830152612d1c8184612221565b90509c9b505050505050505050505050565b6000604051905081810181811067ffffffffffffffff82111715612d5157600080fd5b8060405250919050565b600067ffffffffffffffff821115612d7257600080fd5b601f19601f8301169050602081019050919050565b60008190508160005260206000209050919050565b600081519050919050565b600081519050919050565b600082825260208201905092915050565b600081905092915050565b600082825260208201905092915050565b600081905092915050565b6000612df582612e46565b9050919050565b6000612e0782612e46565b9050919050565b60008115159050919050565b60007fffffffff0000000000000000000000000000000000000000000000000000000082169050919050565b600073ffffffffffffffffffffffffffffffffffffffff82169050919050565b6000819050919050565b82818337600083830152505050565b60005b83811015612e9d578082015181840152602081019050612e82565b83811115612eac576000848401525b50505050565b6000601f19601f8301169050919050565b612ecc81612dea565b8114612ed757600080fd5b50565b612ee381612e0e565b8114612eee57600080fd5b50565b612efa81612e1a565b8114612f0557600080fd5b50565b612f1181612e66565b8114612f1c57600080fd5b5056fe4552433732313a207472616e7366657220746f206e6f6e20455243373231526563656976657220696d706c656d656e7465724552433732313a206f776e657220717565727920666f72206e6f6e6578697374656e7420746f6b656ea264697066735822122002b463c358cad877a8838fa091a65ec06286b59c196fdfbb963e7f501a34f85864736f6c634300060c0033",
  "immutableReferences": {},
  "source": "// SPDX-License-Identifier: MIT\r\npragma solidity ^0.6.12;\r\npragma experimental ABIEncoderV2;\r\n\r\nimport \"./Context.sol\";\r\nimport \"./IERC721.sol\";\r\nimport \"./IERC721Metadata.sol\";\r\nimport \"./IERC721Enumerable.sol\";\r\nimport \"./IERC721Receiver.sol\";\r\nimport \"./ERC165.sol\";\r\nimport \"./SafeMath.sol\";\r\nimport \"./Address.sol\";\r\nimport \"./EnumerableSet.sol\";\r\nimport \"./EnumerableMap.sol\";\r\nimport \"./Strings.sol\";\r\n\r\n/**\r\n * @title ERC721 Non-Fungible Token Standard basic implementation\r\n * @dev see https://eips.ethereum.org/EIPS/eip-721\r\n */\r\ncontract ERC721 is Context, ERC165, IERC721, IERC721Metadata, IERC721Enumerable {\r\n    using SafeMath for uint256;\r\n    using Address for address;\r\n    using EnumerableSet for EnumerableSet.UintSet;\r\n    using EnumerableMap for EnumerableMap.UintToAddressMap;\r\n    using Strings for uint256;\r\n    \r\n    uint256 _id = 1;\r\n\r\n    // Equals to `bytes4(keccak256(\"onERC721Received(address,address,uint256,bytes)\"))`\r\n    // which can be also obtained as `IERC721Receiver(0).onERC721Received.selector`\r\n    bytes4 private constant _ERC721_RECEIVED = 0x150b7a02;\r\n\r\n    // Mapping from holder address to their (enumerable) set of owned tokens\r\n    mapping (address => EnumerableSet.UintSet) private _holderTokens;\r\n\r\n    // Enumerable mapping from token ids to their owners\r\n    EnumerableMap.UintToAddressMap private _tokenOwners;\r\n\r\n    // Mapping from token ID to approved address\r\n    mapping (uint256 => address) private _tokenApprovals;\r\n\r\n    // Mapping from owner to operator approvals\r\n    mapping (address => mapping (address => bool)) private _operatorApprovals;\r\n\r\n    // Token name\r\n    string private _name;\r\n\r\n    // Token symbol\r\n    string private _symbol;\r\n\r\n    // Optional mapping for token URIs\r\n    mapping (uint256 => string) private _tokenURIs;\r\n    \r\n    // Adding metaData to the property\r\n    \r\n    struct _IssuanceDetail{\r\n        uint256 tokesIssued;\r\n    }\r\n    \r\n    struct PropertyValue{\r\n     uint OrginalValue;\r\n     uint CurrentValue;\r\n     uint OriginalIssuanceRate;\r\n     mapping (uint256 => _IssuanceDetail) IssuanceDetails;\r\n    }\r\n    \r\n    // Metadata values\r\n    \r\n    \r\n    struct Property_coins_generated_till_now{\r\n        \r\n        uint256 coin_issue;\r\n        uint256 org_val;\r\n        uint256 equity_at_issuance;\r\n        uint256 curr_val;\r\n        uint256 tot_curr_val; \r\n        uint256 increase;\r\n    \r\n    }\r\n    \r\n    struct Prop_Value_Details{\r\n\r\n        uint256 Orig_Value;//Original Value of the Property\r\n        uint256 Curr_Value;//Current value of the Property\r\n        uint256 next_reevaluation_date;\r\n        Property_coins_generated_till_now[] coins_issue;\r\n        Property_coins_generated_till_now total_coins_issue;\r\n        string Property_images_hash;\r\n        string[] Property_location;\r\n        uint256 taxes;\r\n        uint256 insurance;\r\n        uint256 maintainence;\r\n        uint256 total;\r\n        uint256 monthly_hoa_payment;\r\n        string property_features;\r\n    \r\n    }\r\n    \r\n    \r\n    address[] public EligibleEmp;\r\n    address public contractOwner;\r\n    uint256 nftPrice;\r\n    uint256 public tot_no_of_prop_onplatform = 0;\r\n    mapping(uint256 => Prop_Value_Details) public prop;\r\n    \r\n    \r\n    // \r\n    \r\n    mapping (uint256 => PropertyValue) public _propertyValue;\r\n\r\n    // Base URI\r\n    string private _baseURI;\r\n\r\n    /*\r\n     *     bytes4(keccak256('balanceOf(address)')) == 0x70a08231\r\n     *     bytes4(keccak256('ownerOf(uint256)')) == 0x6352211e\r\n     *     bytes4(keccak256('approve(address,uint256)')) == 0x095ea7b3\r\n     *     bytes4(keccak256('getApproved(uint256)')) == 0x081812fc\r\n     *     bytes4(keccak256('setApprovalForAll(address,bool)')) == 0xa22cb465\r\n     *     bytes4(keccak256('isApprovedForAll(address,address)')) == 0xe985e9c5\r\n     *     bytes4(keccak256('transferFrom(address,address,uint256)')) == 0x23b872dd\r\n     *     bytes4(keccak256('safeTransferFrom(address,address,uint256)')) == 0x42842e0e\r\n     *     bytes4(keccak256('safeTransferFrom(address,address,uint256,bytes)')) == 0xb88d4fde\r\n     *\r\n     *     => 0x70a08231 ^ 0x6352211e ^ 0x095ea7b3 ^ 0x081812fc ^\r\n     *        0xa22cb465 ^ 0xe985e9c5 ^ 0x23b872dd ^ 0x42842e0e ^ 0xb88d4fde == 0x80ac58cd\r\n     */\r\n    bytes4 private constant _INTERFACE_ID_ERC721 = 0x80ac58cd;\r\n\r\n    /*\r\n     *     bytes4(keccak256('name()')) == 0x06fdde03\r\n     *     bytes4(keccak256('symbol()')) == 0x95d89b41\r\n     *     bytes4(keccak256('tokenURI(uint256)')) == 0xc87b56dd\r\n     *\r\n     *     => 0x06fdde03 ^ 0x95d89b41 ^ 0xc87b56dd == 0x5b5e139f\r\n     */\r\n    bytes4 private constant _INTERFACE_ID_ERC721_METADATA = 0x5b5e139f;\r\n\r\n    /*\r\n     *     bytes4(keccak256('totalSupply()')) == 0x18160ddd\r\n     *     bytes4(keccak256('tokenOfOwnerByIndex(address,uint256)')) == 0x2f745c59\r\n     *     bytes4(keccak256('tokenByIndex(uint256)')) == 0x4f6ccce7\r\n     *\r\n     *     => 0x18160ddd ^ 0x2f745c59 ^ 0x4f6ccce7 == 0x780e9d63\r\n     */\r\n    bytes4 private constant _INTERFACE_ID_ERC721_ENUMERABLE = 0x780e9d63;\r\n\r\n    /**\r\n     * @dev Initializes the contract by setting a `name` and a `symbol` to the token collection.\r\n     */\r\n    constructor (string memory name, string memory symbol ) public {\r\n        _name = name;\r\n        _symbol = symbol;\r\n        \r\n        \r\n\r\n    \r\n        \r\n\r\n        // register the supported interfaces to conform to ERC721 via ERC165\r\n        _registerInterface(_INTERFACE_ID_ERC721);\r\n        _registerInterface(_INTERFACE_ID_ERC721_METADATA);\r\n        _registerInterface(_INTERFACE_ID_ERC721_ENUMERABLE);\r\n    }\r\n\r\n    /**\r\n     * @dev See {IERC721-balanceOf}.\r\n     */\r\n    function balanceOf(address owner) public view override returns (uint256) {\r\n        require(owner != address(0), \"ERC721: balance query for the zero address\");\r\n\r\n        return _holderTokens[owner].length();\r\n    }\r\n\r\n    /**\r\n     * @dev See {IERC721-ownerOf}.\r\n     */\r\n    function ownerOf(uint256 tokenId) public view override returns (address) {\r\n        return _tokenOwners.get(tokenId, \"ERC721: owner query for nonexistent token\");\r\n    }\r\n\r\n    /**\r\n     * @dev See {IERC721Metadata-name}.\r\n     */\r\n    function name() public view override returns (string memory) {\r\n        return _name;\r\n    }\r\n\r\n    /**\r\n     * @dev See {IERC721Metadata-symbol}.\r\n     */\r\n    function symbol() public view override returns (string memory) {\r\n        return _symbol;\r\n    }\r\n\r\n    /**\r\n     * @dev See {IERC721Metadata-tokenURI}.\r\n     */\r\n    function tokenURI(uint256 tokenId) public view override returns (string memory) {\r\n        require(_exists(tokenId), \"ERC721Metadata: URI query for nonexistent token\");\r\n\r\n        string memory _tokenURI = _tokenURIs[tokenId];\r\n\r\n        // If there is no base URI, return the token URI.\r\n        if (bytes(_baseURI).length == 0) {\r\n            return _tokenURI;\r\n        }\r\n        // If both are set, concatenate the baseURI and tokenURI (via abi.encodePacked).\r\n        if (bytes(_tokenURI).length > 0) {\r\n            return string(abi.encodePacked(_baseURI, _tokenURI));\r\n        }\r\n        // If there is a baseURI but no tokenURI, concatenate the tokenID to the baseURI.\r\n        return string(abi.encodePacked(_baseURI, tokenId.toString()));\r\n    }\r\n\r\n    /**\r\n    * @dev Returns the base URI set via {_setBaseURI}. This will be\r\n    * automatically added as a prefix in {tokenURI} to each token's URI, or\r\n    * to the token ID if no specific URI is set for that token ID.\r\n    */\r\n    function baseURI() public view returns (string memory) {\r\n        return _baseURI;\r\n    }\r\n\r\n    /**  \r\n     * @dev See {IERC721Enumerable-tokenOfOwnerByIndex}.\r\n     */\r\n    function tokenOfOwnerByIndex(address owner, uint256 index) public view override returns (uint256) {\r\n        return _holderTokens[owner].at(index);\r\n    }\r\n\r\n    /**\r\n     * @dev See {IERC721Enumerable-totalSupply}.\r\n     */\r\n    function totalSupply() public view override returns (uint256) {\r\n        // _tokenOwners are indexed by tokenIds, so .length() returns the number of tokenIds\r\n        return _tokenOwners.length();\r\n    }\r\n\r\n    /**\r\n     * @dev See {IERC721Enumerable-tokenByIndex}.\r\n     */\r\n    function tokenByIndex(uint256 index) public view override returns (uint256) {\r\n        (uint256 tokenId, ) = _tokenOwners.at(index);\r\n        return tokenId;\r\n    }\r\n\r\n    /**\r\n     * @dev See {IERC721-approve}.\r\n     */\r\n    function approve(address to, uint256 tokenId) public virtual override {\r\n        address owner = ownerOf(tokenId);\r\n        require(to != owner, \"ERC721: approval to current owner\");\r\n\r\n        require(_msgSender() == owner || isApprovedForAll(owner, _msgSender()),\r\n            \"ERC721: approve caller is not owner nor approved for all\"\r\n        );\r\n\r\n        _approve(to, tokenId);\r\n    }\r\n\r\n    /**\r\n     * @dev See {IERC721-getApproved}.\r\n     */\r\n    function getApproved(uint256 tokenId) public view override returns (address) {\r\n        require(_exists(tokenId), \"ERC721: approved query for nonexistent token\");\r\n\r\n        return _tokenApprovals[tokenId];\r\n    }\r\n\r\n    /**\r\n     * @dev See {IERC721-setApprovalForAll}.\r\n     */\r\n    function setApprovalForAll(address operator, bool approved) public virtual override {\r\n        require(operator != _msgSender(), \"ERC721: approve to caller\");\r\n\r\n        _operatorApprovals[_msgSender()][operator] = approved;\r\n        emit ApprovalForAll(_msgSender(), operator, approved);\r\n    }\r\n\r\n    /**\r\n     * @dev See {IERC721-isApprovedForAll}.\r\n     */\r\n    function isApprovedForAll(address owner, address operator) public view override returns (bool) {\r\n        return _operatorApprovals[owner][operator];\r\n    }\r\n\r\n    /**\r\n     * @dev See {IERC721-transferFrom}.\r\n     */\r\n    function transferFrom(address from, address to, uint256 tokenId) public virtual override {\r\n        //solhint-disable-next-line max-line-length\r\n        require(_isApprovedOrOwner(_msgSender(), tokenId), \"ERC721: transfer caller is not owner nor approved\");\r\n\r\n        _transfer(from, to, tokenId);\r\n    }\r\n\r\n    /**\r\n     * @dev See {IERC721-safeTransferFrom}.\r\n     */\r\n    function safeTransferFrom(address from, address to, uint256 tokenId) public virtual override {\r\n        safeTransferFrom(from, to, tokenId, \"\");\r\n    }\r\n\r\n    /**\r\n     * @dev See {IERC721-safeTransferFrom}.\r\n     */\r\n    function safeTransferFrom(address from, address to, uint256 tokenId, bytes memory _data) public virtual override {\r\n        require(_isApprovedOrOwner(_msgSender(), tokenId), \"ERC721: transfer caller is not owner nor approved\");\r\n        _safeTransfer(from, to, tokenId, _data);\r\n    }\r\n\r\n    /**\r\n     * @dev Safely transfers `tokenId` token from `from` to `to`, checking first that contract recipients\r\n     * are aware of the ERC721 protocol to prevent tokens from being forever locked.\r\n     *\r\n     * `_data` is additional data, it has no specified format and it is sent in call to `to`.\r\n     *\r\n     * This internal function is equivalent to {safeTransferFrom}, and can be used to e.g.\r\n     * implement alternative mechanisms to perform token transfer, such as signature-based.\r\n     *\r\n     * Requirements:\r\n     *\r\n     * - `from` cannot be the zero address.\r\n     * - `to` cannot be the zero address.\r\n     * - `tokenId` token must exist and be owned by `from`.\r\n     * - If `to` refers to a smart contract, it must implement {IERC721Receiver-onERC721Received}, which is called upon a safe transfer.\r\n     *\r\n     * Emits a {Transfer} event.\r\n     */\r\n    function _safeTransfer(address from, address to, uint256 tokenId, bytes memory _data) internal virtual {\r\n        _transfer(from, to, tokenId);\r\n        require(_checkOnERC721Received(from, to, tokenId, _data), \"ERC721: transfer to non ERC721Receiver implementer\");\r\n    }\r\n\r\n    /**\r\n     * @dev Returns whether `tokenId` exists.\r\n     *\r\n     * Tokens can be managed by their owner or approved accounts via {approve} or {setApprovalForAll}.\r\n     *\r\n     * Tokens start existing when they are minted (`_mint`),\r\n     * and stop existing when they are burned (`_burn`).\r\n     */\r\n    function _exists(uint256 tokenId) internal view returns (bool) {\r\n        return _tokenOwners.contains(tokenId);\r\n    }\r\n\r\n    /**\r\n     * @dev Returns whether `spender` is allowed to manage `tokenId`.\r\n     *\r\n     * Requirements:\r\n     *\r\n     * - `tokenId` must exist.\r\n     */\r\n    function _isApprovedOrOwner(address spender, uint256 tokenId) internal view returns (bool) {\r\n        require(_exists(tokenId), \"ERC721: operator query for nonexistent token\");\r\n        address owner = ownerOf(tokenId);\r\n        return (spender == owner || getApproved(tokenId) == spender || isApprovedForAll(owner, spender));\r\n    }\r\n\r\n    /**\r\n     * @dev Safely mints `tokenId` and transfers it to `to`.\r\n     *\r\n     * Requirements:\r\n     d*\r\n     * - `tokenId` must not exist.\r\n     * - If `to` refers to a smart contract, it must implement {IERC721Receiver-onERC721Received}, which is called upon a safe transfer.\r\n     *\r\n     * Emits a {Transfer} event.\r\n     */\r\n    // function _safeMint(address to, uint256 tokenId, uint OrginalValue) internal virtual {\r\n    //     _safeMint(to, tokenId, OrginalValue);\r\n    // }\r\n\r\n    /**\r\n     * @dev Same as {xref-ERC721-_safeMint-address-uint256-}[`_safeMint`], with an additional `data` parameter which is\r\n     * forwarded in {IERC721Receiver-onERC721Received} to contract recipients.\r\n     */\r\n    // function _safeMint(address to, uint256 tokenId, bytes memory _data, uint OrginalValue) internal virtual {\r\n    //     _mint(to, tokenId,origVal,currVal,date,coins,property_images,pro_add_details,prop_tax,prop_insurance,prop_maintainence,features_prop);\r\n    //     require(_checkOnERC721Received(address(0), to, tokenId, _data), \"ERC721: transfer to non ERC721Receiver implementer\");\r\n    // }\r\n\r\n    /**\r\n     * @dev Mints `tokenId` and transfers it to `to`.\r\n     *\r\n     * WARNING: Usage of this method is discouraged, use {_safeMint} whenever possible\r\n     *\r\n     * Requirements:\r\n     *\r\n     * - `tokenId` must not exist.\r\n     * - `to` cannot be the zero address.\r\n     *\r\n     * Emits a {Transfer} event.\r\n     */\r\n    function _mint(uint256 origVal,\r\n                                     uint256 coins,\r\n                                     string memory property_images_hash,\r\n                                     string[] memory pro_add_details,\r\n                                     uint prop_tax,\r\n                                     uint prop_insurance,\r\n                                     uint prop_maintainence,\r\n                                     string memory features_prop) internal virtual {\r\n                                        uint256 tokenId = _id;\r\n                                        _id++;\r\n        require(msg.sender != address(0), \"ERC721: mint to the zero address\");\r\n        require(!_exists(tokenId), \"ERC721: token already minted\");\r\n\r\n        _beforeTokenTransfer(address(0), msg.sender, tokenId);\r\n\r\n        _holderTokens[msg.sender].add(tokenId);\r\n\r\n        _tokenOwners.set(tokenId, msg.sender);\r\n        \r\n        Property_coins_generated_till_now memory coinsdetails;\r\n    \r\n        coinsdetails.coin_issue = coins;\r\n        coinsdetails.org_val = origVal;\r\n        coinsdetails.equity_at_issuance = 0;\r\n\r\n        //uint temp = 0;\r\n        //uint temp1=  (temp.mul(origVal)).div(origVal);\r\n    \r\n        coinsdetails.curr_val = 1;\r\n        coinsdetails.tot_curr_val = origVal;\r\n        \r\n        //uint curr = coinsdetails.tot_curr_val;\r\n        //uint orig=  ((coinsdetails.org_val).mul(coins)).div(origVal);\r\n            \r\n        coinsdetails.increase = 0;\r\n           \r\n        prop[tokenId].Orig_Value = origVal;\r\n        prop[tokenId].Curr_Value = origVal;\r\n        prop[tokenId].next_reevaluation_date = now;\r\n        prop[tokenId].Property_images_hash = property_images_hash;    \r\n        prop[tokenId].Property_location = pro_add_details;\r\n        prop[tokenId].coins_issue.push(coinsdetails);\r\n        prop[tokenId].total_coins_issue = coinsdetails;  \r\n        prop[tokenId].taxes = prop_tax;\r\n        prop[tokenId].insurance = prop_insurance;\r\n        prop[tokenId].maintainence = prop_maintainence;\r\n        prop[tokenId].total = (prop_tax.add(prop_insurance)).add(prop_maintainence);\r\n       // prop[tokenId] .monthly_hoa_payment = (prop[tokenId].total).div(12);\r\n        prop[tokenId].property_features = features_prop;\r\n        emit Transfer(address(0), msg.sender , tokenId);\r\n        \r\n        \r\n    }\r\n\r\n    /**\r\n     * @dev Destroys `tokenId`.\r\n     * The approval is cleared when the token is burned.\r\n     *\r\n     * Requirements:\r\n     *\r\n     * - `tokenId` must exist.\r\n     *\r\n     * Emits a {Transfer} event.\r\n     */\r\n    function _burn(uint256 tokenId) internal virtual {\r\n        address owner = ownerOf(tokenId);\r\n\r\n        _beforeTokenTransfer(owner, address(0), tokenId);\r\n\r\n        // Clear approvals\r\n        _approve(address(0), tokenId);\r\n\r\n        // Clear metadata (if any)\r\n        if (bytes(_tokenURIs[tokenId]).length != 0) {\r\n            delete _tokenURIs[tokenId];\r\n        }\r\n\r\n        _holderTokens[owner].remove(tokenId);\r\n\r\n        _tokenOwners.remove(tokenId);\r\n\r\n        emit Transfer(owner, address(0), tokenId);\r\n    }\r\n\r\n    /**\r\n     * @dev Transfers `tokenId` from `from` to `to`.\r\n     *  As opposed to {transferFrom}, this imposes no restrictions on msg.sender.\r\n     *\r\n     * Requirements:\r\n     *\r\n     * - `to` cannot be the zero address.\r\n     * - `tokenId` token must be owned by `from`.\r\n     *\r\n     * Emits a {Transfer} event.\r\n     */\r\n    function _transfer(address from, address to, uint256 tokenId) internal virtual {\r\n        require(ownerOf(tokenId) == from, \"ERC721: transfer of token that is not own\");\r\n        require(to != address(0), \"ERC721: transfer to the zero address\");\r\n\r\n        _beforeTokenTransfer(from, to, tokenId);\r\n\r\n        // Clear approvals from the previous owner\r\n        _approve(address(0), tokenId);\r\n\r\n        _holderTokens[from].remove(tokenId);\r\n        _holderTokens[to].add(tokenId);\r\n\r\n        _tokenOwners.set(tokenId, to);\r\n\r\n        emit Transfer(from, to, tokenId);\r\n    }\r\n\r\n    /**\r\n     * @dev Sets `_tokenURI` as the tokenURI of `tokenId`.\r\n     *\r\n     * Requirements:\r\n     *\r\n     * - `tokenId` must exist.\r\n     */\r\n    function _setTokenURI(uint256 tokenId, string memory _tokenURI) internal virtual {\r\n        require(_exists(tokenId), \"ERC721Metadata: URI set of nonexistent token\");\r\n        _tokenURIs[tokenId] = _tokenURI;\r\n    }\r\n\r\n    /**\r\n     * @dev Internal function to set the base URI for all token IDs. It is\r\n     * automatically added as a prefix to the value returned in {tokenURI},\r\n     * or to the token ID if {tokenURI} is empty.\r\n     */\r\n    function _setBaseURI(string memory baseURI_) internal virtual {\r\n        _baseURI = baseURI_;\r\n    }\r\n\r\n    /**\r\n     * @dev Internal function to invoke {IERC721Receiver-onERC721Received} on a target address.\r\n     * The call is not executed if the target address is not a contract.\r\n     *\r\n     * @param from address representing the previous owner of the given token ID\r\n     * @param to target address that will receive the tokens\r\n     * @param tokenId uint256 ID of the token to be transferred\r\n     * @param _data bytes optional data to send along with the call\r\n     * @return bool whether the call correctly returned the expected magic value\r\n     */\r\n    function _checkOnERC721Received(address from, address to, uint256 tokenId, bytes memory _data)\r\n        private returns (bool)\r\n    {\r\n        if (!to.isContract()) {\r\n            return true;\r\n        }\r\n        bytes memory returndata = to.functionCall(abi.encodeWithSelector(\r\n            IERC721Receiver(to).onERC721Received.selector,\r\n            _msgSender(),\r\n            from,\r\n            tokenId,\r\n            _data\r\n        ), \"ERC721: transfer to non ERC721Receiver implementer\");\r\n        bytes4 retval = abi.decode(returndata, (bytes4));\r\n        return (retval == _ERC721_RECEIVED);\r\n    }\r\n\r\n    function _approve(address to, uint256 tokenId) private {\r\n        _tokenApprovals[tokenId] = to;\r\n        emit Approval(ownerOf(tokenId), to, tokenId);\r\n    }\r\n\r\n    /**\r\n     * @dev Hook that is called before any token transfer. This includes minting\r\n     * and burning.\r\n     *\r\n     * Calling conditions:\r\n     *\r\n     * - When `from` and `to` are both non-zero, ``from``'s `tokenId` will be\r\n     * transferred to `to`.\r\n     * - When `from` is zero, `tokenId` will be minted for `to`.\r\n     * - When `to` is zero, ``from``'s `tokenId` will be burned.\r\n     * - `from` cannot be the zero address.\r\n     * - `to` cannot be the zero address.\r\n     *\r\n     * To learn more about hooks, head to xref:ROOT:extending-contracts.adoc#using-hooks[Using Hooks].\r\n     */\r\n    function _beforeTokenTransfer(address from, address to, uint256 tokenId) internal virtual { }\r\n    \r\n}",
  "sourcePath": "C:\\Users\\Prerna\\Desktop\\QuestCrypt\\Quest-Contracts\\src\\contracts\\ERC721.sol",
  "compiler": {
    "name": "solc",
    "version": "0.6.12+commit.27d51765.Emscripten.clang"
  },
  "schemaVersion": "3.3.1",
  "updatedAt": "2020-11-25T13:11:49.839Z",
  "devdoc": {
    "details": "see https://eips.ethereum.org/EIPS/eip-721",
    "kind": "dev",
    "methods": {
      "approve(address,uint256)": {
        "details": "See {IERC721-approve}."
      },
      "balanceOf(address)": {
        "details": "See {IERC721-balanceOf}."
      },
      "baseURI()": {
        "details": "Returns the base URI set via {_setBaseURI}. This will be automatically added as a prefix in {tokenURI} to each token's URI, or to the token ID if no specific URI is set for that token ID."
      },
      "constructor": {
        "details": "Initializes the contract by setting a `name` and a `symbol` to the token collection."
      },
      "getApproved(uint256)": {
        "details": "See {IERC721-getApproved}."
      },
      "isApprovedForAll(address,address)": {
        "details": "See {IERC721-isApprovedForAll}."
      },
      "name()": {
        "details": "See {IERC721Metadata-name}."
      },
      "ownerOf(uint256)": {
        "details": "See {IERC721-ownerOf}."
      },
      "safeTransferFrom(address,address,uint256)": {
        "details": "See {IERC721-safeTransferFrom}."
      },
      "safeTransferFrom(address,address,uint256,bytes)": {
        "details": "See {IERC721-safeTransferFrom}."
      },
      "setApprovalForAll(address,bool)": {
        "details": "See {IERC721-setApprovalForAll}."
      },
      "supportsInterface(bytes4)": {
        "details": "See {IERC165-supportsInterface}. Time complexity O(1), guaranteed to always use less than 30 000 gas."
      },
      "symbol()": {
        "details": "See {IERC721Metadata-symbol}."
      },
      "tokenByIndex(uint256)": {
        "details": "See {IERC721Enumerable-tokenByIndex}."
      },
      "tokenOfOwnerByIndex(address,uint256)": {
        "details": "See {IERC721Enumerable-tokenOfOwnerByIndex}."
      },
      "tokenURI(uint256)": {
        "details": "See {IERC721Metadata-tokenURI}."
      },
      "totalSupply()": {
        "details": "See {IERC721Enumerable-totalSupply}."
      },
      "transferFrom(address,address,uint256)": {
        "details": "See {IERC721-transferFrom}."
      }
    },
    "title": "ERC721 Non-Fungible Token Standard basic implementation",
    "version": 1
  },
  "userdoc": {
    "kind": "user",
    "methods": {},
    "version": 1
  }
}