{
  "contractName": "ERC721",
  "abi": [
    {
      "inputs": [],
      "stateMutability": "nonpayable",
      "type": "constructor"
    },
    {
      "anonymous": false,
      "inputs": [
        {
          "indexed": true,
          "internalType": "address",
          "name": "owner",
          "type": "address"
        },
        {
          "indexed": true,
          "internalType": "address",
          "name": "approved",
          "type": "address"
        },
        {
          "indexed": true,
          "internalType": "uint256",
          "name": "tokenId",
          "type": "uint256"
        }
      ],
      "name": "Approval",
      "type": "event"
    },
    {
      "anonymous": false,
      "inputs": [
        {
          "indexed": true,
          "internalType": "address",
          "name": "owner",
          "type": "address"
        },
        {
          "indexed": true,
          "internalType": "address",
          "name": "operator",
          "type": "address"
        },
        {
          "indexed": false,
          "internalType": "bool",
          "name": "approved",
          "type": "bool"
        }
      ],
      "name": "ApprovalForAll",
      "type": "event"
    },
    {
      "anonymous": false,
      "inputs": [
        {
          "indexed": true,
          "internalType": "address",
          "name": "from",
          "type": "address"
        },
        {
          "indexed": true,
          "internalType": "address",
          "name": "to",
          "type": "address"
        },
        {
          "indexed": true,
          "internalType": "uint256",
          "name": "tokenId",
          "type": "uint256"
        }
      ],
      "name": "Transfer",
      "type": "event"
    },
    {
      "inputs": [
        {
          "internalType": "uint256",
          "name": "",
          "type": "uint256"
        }
      ],
      "name": "EligibleEmp",
      "outputs": [
        {
          "internalType": "address",
          "name": "",
          "type": "address"
        }
      ],
      "stateMutability": "view",
      "type": "function",
      "constant": true
    },
    {
      "inputs": [
        {
          "internalType": "uint256",
          "name": "",
          "type": "uint256"
        }
      ],
      "name": "_propertyValue",
      "outputs": [
        {
          "internalType": "uint256",
          "name": "OrginalValue",
          "type": "uint256"
        },
        {
          "internalType": "uint256",
          "name": "CurrentValue",
          "type": "uint256"
        },
        {
          "internalType": "uint256",
          "name": "OriginalIssuanceRate",
          "type": "uint256"
        }
      ],
      "stateMutability": "view",
      "type": "function",
      "constant": true
    },
    {
      "inputs": [],
      "name": "contractOwner",
      "outputs": [
        {
          "internalType": "address",
          "name": "",
          "type": "address"
        }
      ],
      "stateMutability": "view",
      "type": "function",
      "constant": true
    },
    {
      "inputs": [
        {
          "internalType": "uint256",
          "name": "",
          "type": "uint256"
        }
      ],
      "name": "prop",
      "outputs": [
        {
          "internalType": "uint256",
          "name": "Orig_Value",
          "type": "uint256"
        },
        {
          "internalType": "uint256",
          "name": "Curr_Value",
          "type": "uint256"
        },
        {
          "internalType": "uint256",
          "name": "next_reevaluation_date",
          "type": "uint256"
        },
        {
          "components": [
            {
              "internalType": "uint256",
              "name": "coin_issue",
              "type": "uint256"
            },
            {
              "internalType": "uint256",
              "name": "org_val",
              "type": "uint256"
            },
            {
              "internalType": "uint256",
              "name": "equity_at_issuance",
              "type": "uint256"
            },
            {
              "internalType": "uint256",
              "name": "curr_val",
              "type": "uint256"
            },
            {
              "internalType": "uint256",
              "name": "tot_curr_val",
              "type": "uint256"
            },
            {
              "internalType": "uint256",
              "name": "increase",
              "type": "uint256"
            }
          ],
          "internalType": "struct ERC721.Property_coins_generated_till_now",
          "name": "total_coins_issue",
          "type": "tuple"
        },
        {
          "internalType": "string",
          "name": "Property_images_hash",
          "type": "string"
        },
        {
          "internalType": "uint256",
          "name": "taxes",
          "type": "uint256"
        },
        {
          "internalType": "uint256",
          "name": "insurance",
          "type": "uint256"
        },
        {
          "internalType": "uint256",
          "name": "maintainence",
          "type": "uint256"
        },
        {
          "internalType": "uint256",
          "name": "total",
          "type": "uint256"
        },
        {
          "internalType": "uint256",
          "name": "monthly_hoa_payment",
          "type": "uint256"
        },
        {
          "internalType": "string",
          "name": "property_features",
          "type": "string"
        }
      ],
      "stateMutability": "view",
      "type": "function",
      "constant": true
    },
    {
      "inputs": [
        {
          "internalType": "bytes4",
          "name": "interfaceId",
          "type": "bytes4"
        }
      ],
      "name": "supportsInterface",
      "outputs": [
        {
          "internalType": "bool",
          "name": "",
          "type": "bool"
        }
      ],
      "stateMutability": "view",
      "type": "function",
      "constant": true
    },
    {
      "inputs": [],
      "name": "tot_no_of_prop_onplatform",
      "outputs": [
        {
          "internalType": "uint256",
          "name": "",
          "type": "uint256"
        }
      ],
      "stateMutability": "view",
      "type": "function",
      "constant": true
    },
    {
      "inputs": [
        {
          "internalType": "address",
          "name": "owner",
          "type": "address"
        }
      ],
      "name": "balanceOf",
      "outputs": [
        {
          "internalType": "uint256",
          "name": "",
          "type": "uint256"
        }
      ],
      "stateMutability": "view",
      "type": "function",
      "constant": true
    },
    {
      "inputs": [
        {
          "internalType": "uint256",
          "name": "tokenId",
          "type": "uint256"
        }
      ],
      "name": "ownerOf",
      "outputs": [
        {
          "internalType": "address",
          "name": "",
          "type": "address"
        }
      ],
      "stateMutability": "view",
      "type": "function",
      "constant": true
    },
    {
      "inputs": [],
      "name": "name",
      "outputs": [
        {
          "internalType": "string",
          "name": "",
          "type": "string"
        }
      ],
      "stateMutability": "view",
      "type": "function",
      "constant": true
    },
    {
      "inputs": [],
      "name": "symbol",
      "outputs": [
        {
          "internalType": "string",
          "name": "",
          "type": "string"
        }
      ],
      "stateMutability": "view",
      "type": "function",
      "constant": true
    },
    {
      "inputs": [
        {
          "internalType": "uint256",
          "name": "tokenId",
          "type": "uint256"
        }
      ],
      "name": "tokenURI",
      "outputs": [
        {
          "internalType": "string",
          "name": "",
          "type": "string"
        }
      ],
      "stateMutability": "view",
      "type": "function",
      "constant": true
    },
    {
      "inputs": [],
      "name": "baseURI",
      "outputs": [
        {
          "internalType": "string",
          "name": "",
          "type": "string"
        }
      ],
      "stateMutability": "view",
      "type": "function",
      "constant": true
    },
    {
      "inputs": [
        {
          "internalType": "address",
          "name": "owner",
          "type": "address"
        },
        {
          "internalType": "uint256",
          "name": "index",
          "type": "uint256"
        }
      ],
      "name": "tokenOfOwnerByIndex",
      "outputs": [
        {
          "internalType": "uint256",
          "name": "",
          "type": "uint256"
        }
      ],
      "stateMutability": "view",
      "type": "function",
      "constant": true
    },
    {
      "inputs": [],
      "name": "totalSupply",
      "outputs": [
        {
          "internalType": "uint256",
          "name": "",
          "type": "uint256"
        }
      ],
      "stateMutability": "view",
      "type": "function",
      "constant": true
    },
    {
      "inputs": [
        {
          "internalType": "uint256",
          "name": "index",
          "type": "uint256"
        }
      ],
      "name": "tokenByIndex",
      "outputs": [
        {
          "internalType": "uint256",
          "name": "",
          "type": "uint256"
        }
      ],
      "stateMutability": "view",
      "type": "function",
      "constant": true
    },
    {
      "inputs": [
        {
          "internalType": "address",
          "name": "to",
          "type": "address"
        },
        {
          "internalType": "uint256",
          "name": "tokenId",
          "type": "uint256"
        }
      ],
      "name": "approve",
      "outputs": [],
      "stateMutability": "nonpayable",
      "type": "function"
    },
    {
      "inputs": [
        {
          "internalType": "uint256",
          "name": "tokenId",
          "type": "uint256"
        }
      ],
      "name": "getApproved",
      "outputs": [
        {
          "internalType": "address",
          "name": "",
          "type": "address"
        }
      ],
      "stateMutability": "view",
      "type": "function",
      "constant": true
    },
    {
      "inputs": [
        {
          "internalType": "address",
          "name": "operator",
          "type": "address"
        },
        {
          "internalType": "bool",
          "name": "approved",
          "type": "bool"
        }
      ],
      "name": "setApprovalForAll",
      "outputs": [],
      "stateMutability": "nonpayable",
      "type": "function"
    },
    {
      "inputs": [
        {
          "internalType": "address",
          "name": "owner",
          "type": "address"
        },
        {
          "internalType": "address",
          "name": "operator",
          "type": "address"
        }
      ],
      "name": "isApprovedForAll",
      "outputs": [
        {
          "internalType": "bool",
          "name": "",
          "type": "bool"
        }
      ],
      "stateMutability": "view",
      "type": "function",
      "constant": true
    },
    {
      "inputs": [
        {
          "internalType": "address",
          "name": "from",
          "type": "address"
        },
        {
          "internalType": "address",
          "name": "to",
          "type": "address"
        },
        {
          "internalType": "uint256",
          "name": "tokenId",
          "type": "uint256"
        }
      ],
      "name": "transferFrom",
      "outputs": [],
      "stateMutability": "nonpayable",
      "type": "function"
    },
    {
      "inputs": [
        {
          "internalType": "address",
          "name": "from",
          "type": "address"
        },
        {
          "internalType": "address",
          "name": "to",
          "type": "address"
        },
        {
          "internalType": "uint256",
          "name": "tokenId",
          "type": "uint256"
        }
      ],
      "name": "safeTransferFrom",
      "outputs": [],
      "stateMutability": "nonpayable",
      "type": "function"
    },
    {
      "inputs": [
        {
          "internalType": "address",
          "name": "from",
          "type": "address"
        },
        {
          "internalType": "address",
          "name": "to",
          "type": "address"
        },
        {
          "internalType": "uint256",
          "name": "tokenId",
          "type": "uint256"
        },
        {
          "internalType": "bytes",
          "name": "_data",
          "type": "bytes"
        }
      ],
      "name": "safeTransferFrom",
      "outputs": [],
      "stateMutability": "nonpayable",
      "type": "function"
    },
    {
      "inputs": [
        {
          "internalType": "uint256",
          "name": "origVal",
          "type": "uint256"
        },
        {
          "internalType": "address",
          "name": "ownerAddress",
          "type": "address"
        },
        {
          "internalType": "uint256",
          "name": "coins",
          "type": "uint256"
        },
        {
          "internalType": "string",
          "name": "property_images_hash",
          "type": "string"
        },
        {
          "internalType": "string[]",
          "name": "pro_add_details",
          "type": "string[]"
        },
        {
          "internalType": "uint256",
          "name": "prop_tax",
          "type": "uint256"
        },
        {
          "internalType": "uint256",
          "name": "prop_insurance",
          "type": "uint256"
        },
        {
          "internalType": "uint256",
          "name": "prop_maintainence",
          "type": "uint256"
        },
        {
          "internalType": "string",
          "name": "features_prop",
          "type": "string"
        }
      ],
      "name": "_mint",
      "outputs": [],
      "stateMutability": "nonpayable",
      "type": "function"
    }
  ],
  "bytecode": "0x6080604052600180556000600d553480156200001a57600080fd5b50620000336301ffc9a760e01b6200011d60201b60201c565b6040518060400160405280600881526020017f50726f70657274790000000000000000000000000000000000000000000000008152506007908051906020019062000080929190620001f5565b506040518060400160405280600781526020017f5153545f544b4e0000000000000000000000000000000000000000000000000081525060089080519060200190620000ce929190620001f5565b50620000e76380ac58cd60e01b6200011d60201b60201c565b620000ff635b5e139f60e01b6200011d60201b60201c565b6200011763780e9d6360e01b6200011d60201b60201c565b62000310565b63ffffffff60e01b817bffffffffffffffffffffffffffffffffffffffffffffffffffffffff1916141562000189576040517f08c379a00000000000000000000000000000000000000000000000000000000081526004016200018090620002dd565b60405180910390fd5b6001600080837bffffffffffffffffffffffffffffffffffffffffffffffffffffffff19167bffffffffffffffffffffffffffffffffffffffffffffffffffffffff1916815260200190815260200160002060006101000a81548160ff02191690831515021790555050565b828054600181600116156101000203166002900490600052602060002090601f016020900481019282601f106200023857805160ff191683800117855562000269565b8280016001018555821562000269579182015b82811115620002685782518255916020019190600101906200024b565b5b5090506200027891906200027c565b5090565b5b80821115620002975760008160009055506001016200027d565b5090565b6000620002aa601c83620002ff565b91507f4552433136353a20696e76616c696420696e74657266616365206964000000006000830152602082019050919050565b60006020820190508181036000830152620002f8816200029b565b9050919050565b600082825260208201905092915050565b61394280620003206000396000f3fe608060405234801561001057600080fd5b506004361061014d5760003560e01c80634f6ccce7116100c3578063b88d4fde1161007c578063b88d4fde146103ce578063c87b56dd146103ea578063ce606ee01461041a578063e06e068814610438578063e985e9c514610468578063f5cc7713146104985761014d565b80634f6ccce7146102e65780636352211e146103165780636c0360eb1461034657806370a082311461036457806395d89b4114610394578063a22cb465146103b25761014d565b806318160ddd1161011557806318160ddd14610208578063190be8b11461022657806323b872dd146102605780632e9edf351461027c5780632f745c591461029a57806342842e0e146102ca5761014d565b806301ffc9a714610152578063027ee8581461018257806306fdde031461019e578063081812fc146101bc578063095ea7b3146101ec575b600080fd5b61016c6004803603810190610167919061281f565b6104ca565b60405161017991906132e0565b60405180910390f35b61019c6004803603810190610197919061289a565b610531565b005b6101a661095e565b6040516101b391906132fb565b60405180910390f35b6101d660048036038101906101d19190612871565b610a00565b6040516101e39190613279565b60405180910390f35b610206600480360381019061020191906127e3565b610a85565b005b610210610b9d565b60405161021d919061355d565b60405180910390f35b610240600480360381019061023b9190612871565b610bae565b6040516102579b9a999897969594939291906135af565b60405180910390f35b61027a600480360381019061027591906126dd565b610d7e565b005b610284610dde565b604051610291919061355d565b60405180910390f35b6102b460048036038101906102af91906127e3565b610de4565b6040516102c1919061355d565b60405180910390f35b6102e460048036038101906102df91906126dd565b610e3f565b005b61030060048036038101906102fb9190612871565b610e5f565b60405161030d919061355d565b60405180910390f35b610330600480360381019061032b9190612871565b610e82565b60405161033d9190613279565b60405180910390f35b61034e610eb9565b60405161035b91906132fb565b60405180910390f35b61037e60048036038101906103799190612678565b610f5b565b60405161038b919061355d565b60405180910390f35b61039c61101a565b6040516103a991906132fb565b60405180910390f35b6103cc60048036038101906103c791906127a7565b6110bc565b005b6103e860048036038101906103e3919061272c565b61123d565b005b61040460048036038101906103ff9190612871565b61129f565b60405161041191906132fb565b60405180910390f35b61042261142a565b60405161042f9190613279565b60405180910390f35b610452600480360381019061044d9190612871565b611450565b60405161045f9190613279565b60405180910390f35b610482600480360381019061047d91906126a1565b61148c565b60405161048f91906132e0565b60405180910390f35b6104b260048036038101906104ad9190612871565b611520565b6040516104c193929190613578565b60405180910390f35b6000806000837bffffffffffffffffffffffffffffffffffffffffffffffffffffffff19167bffffffffffffffffffffffffffffffffffffffffffffffffffffffff1916815260200190815260200160002060009054906101000a900460ff169050919050565b60006001549050600160008154809291906001019190505550600073ffffffffffffffffffffffffffffffffffffffff168973ffffffffffffffffffffffffffffffffffffffff1614156105ba576040517f08c379a00000000000000000000000000000000000000000000000000000000081526004016105b19061347d565b60405180910390fd5b6105c38161154a565b15610603576040517f08c379a00000000000000000000000000000000000000000000000000000000081526004016105fa9061335d565b60405180910390fd5b61060f60008a83611567565b61066081600260008c73ffffffffffffffffffffffffffffffffffffffff1673ffffffffffffffffffffffffffffffffffffffff16815260200190815260200160002061156c90919063ffffffff16565b50610677818a60036115869092919063ffffffff16565b50610680612354565b888160000181815250508a816020018181525050600081604001818152505060018160600181815250508a81608001818152505060008160a00181815250508a600e6000848152602001908152602001600020600001819055508a600e60008481526020019081526020016000206001018190555042600e60008481526020019081526020016000206002018190555087600e6000848152602001908152602001600020600a01908051906020019061073a92919061238a565b5086600e6000848152602001908152602001600020600b01908051906020019061076592919061240a565b50600e6000838152602001908152602001600020600301819080600181540180825580915050600190039060005260206000209060060201600090919091909150600082015181600001556020820151816001015560408201518160020155606082015181600301556080820151816004015560a08201518160050155505080600e6000848152602001908152602001600020600401600082015181600001556020820151816001015560408201518160020155606082015181600301556080820151816004015560a0820151816005015590505085600e6000848152602001908152602001600020600c018190555084600e6000848152602001908152602001600020600d018190555083600e6000848152602001908152602001600020600e01819055506108b0846108a287896115bb90919063ffffffff16565b6115bb90919063ffffffff16565b600e6000848152602001908152602001600020600f018190555082600e600084815260200190815260200160002060110190805190602001906108f492919061238a565b50818a73ffffffffffffffffffffffffffffffffffffffff16600073ffffffffffffffffffffffffffffffffffffffff167fddf252ad1be2c89b69c2b068fc378daa952ba7f163c4a11628f55a4df523b3ef60405160405180910390a45050505050505050505050565b606060078054600181600116156101000203166002900480601f0160208091040260200160405190810160405280929190818152602001828054600181600116156101000203166002900480156109f65780601f106109cb576101008083540402835291602001916109f6565b820191906000526020600020905b8154815290600101906020018083116109d957829003601f168201915b5050505050905090565b6000610a0b8261154a565b610a4a576040517f08c379a0000000000000000000000000000000000000000000000000000000008152600401610a419061349d565b60405180910390fd5b6005600083815260200190815260200160002060009054906101000a900473ffffffffffffffffffffffffffffffffffffffff169050919050565b6000610a9082610e82565b90508073ffffffffffffffffffffffffffffffffffffffff168373ffffffffffffffffffffffffffffffffffffffff161415610b01576040517f08c379a0000000000000000000000000000000000000000000000000000000008152600401610af8906134fd565b60405180910390fd5b8073ffffffffffffffffffffffffffffffffffffffff16610b20611610565b73ffffffffffffffffffffffffffffffffffffffff161480610b4f5750610b4e81610b49611610565b61148c565b5b610b8e576040517f08c379a0000000000000000000000000000000000000000000000000000000008152600401610b859061341d565b60405180910390fd5b610b988383611618565b505050565b6000610ba960036116d1565b905090565b600e602052806000526040600020600091509050806000015490806001015490806002015490806004016040518060c001604052908160008201548152602001600182015481526020016002820154815260200160038201548152602001600482015481526020016005820154815250509080600a018054600181600116156101000203166002900480601f016020809104026020016040519081016040528092919081815260200182805460018160011615610100020316600290048015610cb85780601f10610c8d57610100808354040283529160200191610cb8565b820191906000526020600020905b815481529060010190602001808311610c9b57829003601f168201915b50505050509080600c01549080600d01549080600e01549080600f015490806010015490806011018054600181600116156101000203166002900480601f016020809104026020016040519081016040528092919081815260200182805460018160011615610100020316600290048015610d745780601f10610d4957610100808354040283529160200191610d74565b820191906000526020600020905b815481529060010190602001808311610d5757829003601f168201915b505050505090508b565b610d8f610d89611610565b826116e6565b610dce576040517f08c379a0000000000000000000000000000000000000000000000000000000008152600401610dc59061351d565b60405180910390fd5b610dd98383836117c4565b505050565b600d5481565b6000610e3782600260008673ffffffffffffffffffffffffffffffffffffffff1673ffffffffffffffffffffffffffffffffffffffff1681526020019081526020016000206119db90919063ffffffff16565b905092915050565b610e5a8383836040518060200160405280600081525061123d565b505050565b600080610e768360036119f590919063ffffffff16565b50905080915050919050565b6000610eb2826040518060600160405280602981526020016138e4602991396003611a219092919063ffffffff16565b9050919050565b606060108054600181600116156101000203166002900480601f016020809104026020016040519081016040528092919081815260200182805460018160011615610100020316600290048015610f515780601f10610f2657610100808354040283529160200191610f51565b820191906000526020600020905b815481529060010190602001808311610f3457829003601f168201915b5050505050905090565b60008073ffffffffffffffffffffffffffffffffffffffff168273ffffffffffffffffffffffffffffffffffffffff161415610fcc576040517f08c379a0000000000000000000000000000000000000000000000000000000008152600401610fc39061343d565b60405180910390fd5b611013600260008473ffffffffffffffffffffffffffffffffffffffff1673ffffffffffffffffffffffffffffffffffffffff168152602001908152602001600020611a40565b9050919050565b606060088054600181600116156101000203166002900480601f0160208091040260200160405190810160405280929190818152602001828054600181600116156101000203166002900480156110b25780601f10611087576101008083540402835291602001916110b2565b820191906000526020600020905b81548152906001019060200180831161109557829003601f168201915b5050505050905090565b6110c4611610565b73ffffffffffffffffffffffffffffffffffffffff168273ffffffffffffffffffffffffffffffffffffffff161415611132576040517f08c379a0000000000000000000000000000000000000000000000000000000008152600401611129906133bd565b60405180910390fd5b806006600061113f611610565b73ffffffffffffffffffffffffffffffffffffffff1673ffffffffffffffffffffffffffffffffffffffff16815260200190815260200160002060008473ffffffffffffffffffffffffffffffffffffffff1673ffffffffffffffffffffffffffffffffffffffff16815260200190815260200160002060006101000a81548160ff0219169083151502179055508173ffffffffffffffffffffffffffffffffffffffff166111ec611610565b73ffffffffffffffffffffffffffffffffffffffff167f17307eab39ab6107e8899845ad3d59bd9653f200f220920489ca2b5937696c318360405161123191906132e0565b60405180910390a35050565b61124e611248611610565b836116e6565b61128d576040517f08c379a00000000000000000000000000000000000000000000000000000000081526004016112849061351d565b60405180910390fd5b61129984848484611a55565b50505050565b60606112aa8261154a565b6112e9576040517f08c379a00000000000000000000000000000000000000000000000000000000081526004016112e0906134dd565b60405180910390fd5b6060600960008481526020019081526020016000208054600181600116156101000203166002900480601f0160208091040260200160405190810160405280929190818152602001828054600181600116156101000203166002900480156113925780601f1061136757610100808354040283529160200191611392565b820191906000526020600020905b81548152906001019060200180831161137557829003601f168201915b505050505090506000601080546001816001161561010002031660029004905014156113c15780915050611425565b6000815111156113f6576010816040516020016113df929190613255565b604051602081830303815290604052915050611425565b601061140184611ab1565b604051602001611412929190613255565b6040516020818303038152906040529150505b919050565b600b60009054906101000a900473ffffffffffffffffffffffffffffffffffffffff1681565b600a818154811061145d57fe5b906000526020600020016000915054906101000a900473ffffffffffffffffffffffffffffffffffffffff1681565b6000600660008473ffffffffffffffffffffffffffffffffffffffff1673ffffffffffffffffffffffffffffffffffffffff16815260200190815260200160002060008373ffffffffffffffffffffffffffffffffffffffff1673ffffffffffffffffffffffffffffffffffffffff16815260200190815260200160002060009054906101000a900460ff16905092915050565b600f6020528060005260406000206000915090508060000154908060010154908060020154905083565b6000611560826003611bf890919063ffffffff16565b9050919050565b505050565b600061157e836000018360001b611c12565b905092915050565b60006115b2846000018460001b8473ffffffffffffffffffffffffffffffffffffffff1660001b611c82565b90509392505050565b600080828401905083811015611606576040517f08c379a00000000000000000000000000000000000000000000000000000000081526004016115fd9061337d565b60405180910390fd5b8091505092915050565b600033905090565b816005600083815260200190815260200160002060006101000a81548173ffffffffffffffffffffffffffffffffffffffff021916908373ffffffffffffffffffffffffffffffffffffffff160217905550808273ffffffffffffffffffffffffffffffffffffffff1661168b83610e82565b73ffffffffffffffffffffffffffffffffffffffff167f8c5be1e5ebec7d5bd14f71427d1e84f3dd0314c0f7b2291e5b200ac8c7c3b92560405160405180910390a45050565b60006116df82600001611d5e565b9050919050565b60006116f18261154a565b611730576040517f08c379a0000000000000000000000000000000000000000000000000000000008152600401611727906133fd565b60405180910390fd5b600061173b83610e82565b90508073ffffffffffffffffffffffffffffffffffffffff168473ffffffffffffffffffffffffffffffffffffffff1614806117aa57508373ffffffffffffffffffffffffffffffffffffffff1661179284610a00565b73ffffffffffffffffffffffffffffffffffffffff16145b806117bb57506117ba818561148c565b5b91505092915050565b8273ffffffffffffffffffffffffffffffffffffffff166117e482610e82565b73ffffffffffffffffffffffffffffffffffffffff161461183a576040517f08c379a0000000000000000000000000000000000000000000000000000000008152600401611831906134bd565b60405180910390fd5b600073ffffffffffffffffffffffffffffffffffffffff168273ffffffffffffffffffffffffffffffffffffffff1614156118aa576040517f08c379a00000000000000000000000000000000000000000000000000000000081526004016118a19061339d565b60405180910390fd5b6118b5838383611567565b6118c0600082611618565b61191181600260008673ffffffffffffffffffffffffffffffffffffffff1673ffffffffffffffffffffffffffffffffffffffff168152602001908152602001600020611d6f90919063ffffffff16565b5061196381600260008573ffffffffffffffffffffffffffffffffffffffff1673ffffffffffffffffffffffffffffffffffffffff16815260200190815260200160002061156c90919063ffffffff16565b5061197a818360036115869092919063ffffffff16565b50808273ffffffffffffffffffffffffffffffffffffffff168473ffffffffffffffffffffffffffffffffffffffff167fddf252ad1be2c89b69c2b068fc378daa952ba7f163c4a11628f55a4df523b3ef60405160405180910390a4505050565b60006119ea8360000183611d89565b60001c905092915050565b600080600080611a088660000186611df6565b915091508160001c8160001c9350935050509250929050565b6000611a34846000018460001b84611e79565b60001c90509392505050565b6000611a4e82600001611f0a565b9050919050565b611a608484846117c4565b611a6c84848484611f1b565b611aab576040517f08c379a0000000000000000000000000000000000000000000000000000000008152600401611aa29061333d565b60405180910390fd5b50505050565b60606000821415611af9576040518060400160405280600181526020017f30000000000000000000000000000000000000000000000000000000000000008152509050611bf3565b600082905060005b60008214611b23578080600101915050600a8281611b1b57fe5b049150611b01565b60608167ffffffffffffffff81118015611b3c57600080fd5b506040519080825280601f01601f191660200182016040528015611b6f5781602001600182028036833780820191505090505b50905060006001830390508593505b60008414611beb57600a8481611b9057fe5b0660300160f81b82828060019003935081518110611baa57fe5b60200101907effffffffffffffffffffffffffffffffffffffffffffffffffffffffffffff1916908160001a905350600a8481611be357fe5b049350611b7e565b819450505050505b919050565b6000611c0a836000018360001b61207f565b905092915050565b6000611c1e83836120a2565b611c77578260000182908060018154018082558091505060019003906000526020600020016000909190919091505582600001805490508360010160008481526020019081526020016000208190555060019050611c7c565b600090505b92915050565b6000808460010160008581526020019081526020016000205490506000811415611d2957846000016040518060400160405280868152602001858152509080600181540180825580915050600190039060005260206000209060020201600090919091909150600082015181600001556020820151816001015550508460000180549050856001016000868152602001908152602001600020819055506001915050611d57565b82856000016001830381548110611d3c57fe5b90600052602060002090600202016001018190555060009150505b9392505050565b600081600001805490509050919050565b6000611d81836000018360001b6120c5565b905092915050565b600081836000018054905011611dd4576040517f08c379a0000000000000000000000000000000000000000000000000000000008152600401611dcb9061331d565b60405180910390fd5b826000018281548110611de357fe5b9060005260206000200154905092915050565b60008082846000018054905011611e42576040517f08c379a0000000000000000000000000000000000000000000000000000000008152600401611e399061345d565b60405180910390fd5b6000846000018481548110611e5357fe5b906000526020600020906002020190508060000154816001015492509250509250929050565b60008084600101600085815260200190815260200160002054905060008114158390611edb576040517f08c379a0000000000000000000000000000000000000000000000000000000008152600401611ed291906132fb565b60405180910390fd5b50846000016001820381548110611eee57fe5b9060005260206000209060020201600101549150509392505050565b600081600001805490509050919050565b6000611f3c8473ffffffffffffffffffffffffffffffffffffffff166121ad565b611f495760019050612077565b606061201063150b7a0260e01b611f5e611610565b888787604051602401611f749493929190613294565b604051602081830303815290604052907bffffffffffffffffffffffffffffffffffffffffffffffffffffffff19166020820180517bffffffffffffffffffffffffffffffffffffffffffffffffffffffff83818316178352505050506040518060600160405280603281526020016138b2603291398773ffffffffffffffffffffffffffffffffffffffff166121c09092919063ffffffff16565b90506000818060200190518101906120289190612848565b905063150b7a0260e01b7bffffffffffffffffffffffffffffffffffffffffffffffffffffffff1916817bffffffffffffffffffffffffffffffffffffffffffffffffffffffff191614925050505b949350505050565b600080836001016000848152602001908152602001600020541415905092915050565b600080836001016000848152602001908152602001600020541415905092915050565b600080836001016000848152602001908152602001600020549050600081146121a1576000600182039050600060018660000180549050039050600086600001828154811061211057fe5b906000526020600020015490508087600001848154811061212d57fe5b906000526020600020018190555060018301876001016000838152602001908152602001600020819055508660000180548061216557fe5b600190038181906000526020600020016000905590558660010160008781526020019081526020016000206000905560019450505050506121a7565b60009150505b92915050565b600080823b905060008111915050919050565b60606121cf84846000856121d8565b90509392505050565b60608247101561221d576040517f08c379a0000000000000000000000000000000000000000000000000000000008152600401612214906133dd565b60405180910390fd5b612226856121ad565b612265576040517f08c379a000000000000000000000000000000000000000000000000000000000815260040161225c9061353d565b60405180910390fd5b600060608673ffffffffffffffffffffffffffffffffffffffff16858760405161228f919061323e565b60006040518083038185875af1925050503d80600081146122cc576040519150601f19603f3d011682016040523d82523d6000602084013e6122d1565b606091505b50915091506122e18282866122ed565b92505050949350505050565b606083156122fd5782905061234d565b6000835111156123105782518084602001fd5b816040517f08c379a000000000000000000000000000000000000000000000000000000000815260040161234491906132fb565b60405180910390fd5b9392505050565b6040518060c001604052806000815260200160008152602001600081526020016000815260200160008152602001600081525090565b828054600181600116156101000203166002900490600052602060002090601f016020900481019282601f106123cb57805160ff19168380011785556123f9565b828001600101855582156123f9579182015b828111156123f85782518255916020019190600101906123dd565b5b509050612406919061246a565b5090565b828054828255906000526020600020908101928215612459579160200282015b8281111561245857825182908051906020019061244892919061238a565b509160200191906001019061242a565b5b5090506124669190612487565b5090565b5b8082111561248357600081600090555060010161246b565b5090565b5b808211156124a7576000818161249e91906124ab565b50600101612488565b5090565b50805460018160011615610100020316600290046000825580601f106124d157506124f0565b601f0160209004906000526020600020908101906124ef919061246a565b5b50565b60008135905061250281613855565b92915050565b600082601f83011261251957600080fd5b813561252c61252782613699565b61366c565b9150818183526020840193506020810190508360005b838110156125725781358601612558888261260f565b845260208401935060208301925050600181019050612542565b5050505092915050565b60008135905061258b8161386c565b92915050565b6000813590506125a081613883565b92915050565b6000815190506125b581613883565b92915050565b600082601f8301126125cc57600080fd5b81356125df6125da826136c1565b61366c565b915080825260208301602083018583830111156125fb57600080fd5b612606838284613802565b50505092915050565b600082601f83011261262057600080fd5b813561263361262e826136ed565b61366c565b9150808252602083016020830185838301111561264f57600080fd5b61265a838284613802565b50505092915050565b6000813590506126728161389a565b92915050565b60006020828403121561268a57600080fd5b6000612698848285016124f3565b91505092915050565b600080604083850312156126b457600080fd5b60006126c2858286016124f3565b92505060206126d3858286016124f3565b9150509250929050565b6000806000606084860312156126f257600080fd5b6000612700868287016124f3565b9350506020612711868287016124f3565b925050604061272286828701612663565b9150509250925092565b6000806000806080858703121561274257600080fd5b6000612750878288016124f3565b9450506020612761878288016124f3565b935050604061277287828801612663565b925050606085013567ffffffffffffffff81111561278f57600080fd5b61279b878288016125bb565b91505092959194509250565b600080604083850312156127ba57600080fd5b60006127c8858286016124f3565b92505060206127d98582860161257c565b9150509250929050565b600080604083850312156127f657600080fd5b6000612804858286016124f3565b925050602061281585828601612663565b9150509250929050565b60006020828403121561283157600080fd5b600061283f84828501612591565b91505092915050565b60006020828403121561285a57600080fd5b6000612868848285016125a6565b91505092915050565b60006020828403121561288357600080fd5b600061289184828501612663565b91505092915050565b60008060008060008060008060006101208a8c0312156128b957600080fd5b60006128c78c828d01612663565b99505060206128d88c828d016124f3565b98505060406128e98c828d01612663565b97505060608a013567ffffffffffffffff81111561290657600080fd5b6129128c828d0161260f565b96505060808a013567ffffffffffffffff81111561292f57600080fd5b61293b8c828d01612508565b95505060a061294c8c828d01612663565b94505060c061295d8c828d01612663565b93505060e061296e8c828d01612663565b9250506101008a013567ffffffffffffffff81111561298c57600080fd5b6129988c828d0161260f565b9150509295985092959850929598565b6129b18161378e565b82525050565b6129c08161377c565b82525050565b6129cf816137a0565b82525050565b60006129e08261372e565b6129ea8185613744565b93506129fa818560208601613811565b612a0381613844565b840191505092915050565b6000612a198261372e565b612a238185613755565b9350612a33818560208601613811565b80840191505092915050565b6000612a4a82613739565b612a548185613760565b9350612a64818560208601613811565b612a6d81613844565b840191505092915050565b6000612a8382613739565b612a8d8185613771565b9350612a9d818560208601613811565b80840191505092915050565b600081546001811660008114612ac65760018114612aeb57612b2f565b607f6002830416612ad78187613771565b955060ff1983168652808601935050612b2f565b60028204612af98187613771565b9550612b0485613719565b60005b82811015612b2657815481890152600182019150602081019050612b07565b82880195505050505b505092915050565b6000612b44602283613760565b91507f456e756d657261626c655365743a20696e646578206f7574206f6620626f756e60008301527f64730000000000000000000000000000000000000000000000000000000000006020830152604082019050919050565b6000612baa603283613760565b91507f4552433732313a207472616e7366657220746f206e6f6e20455243373231526560008301527f63656976657220696d706c656d656e74657200000000000000000000000000006020830152604082019050919050565b6000612c10601c83613760565b91507f4552433732313a20746f6b656e20616c7265616479206d696e746564000000006000830152602082019050919050565b6000612c50601b83613760565b91507f536166654d6174683a206164646974696f6e206f766572666c6f7700000000006000830152602082019050919050565b6000612c90602483613760565b91507f4552433732313a207472616e7366657220746f20746865207a65726f2061646460008301527f72657373000000000000000000000000000000000000000000000000000000006020830152604082019050919050565b6000612cf6601983613760565b91507f4552433732313a20617070726f766520746f2063616c6c6572000000000000006000830152602082019050919050565b6000612d36602683613760565b91507f416464726573733a20696e73756666696369656e742062616c616e636520666f60008301527f722063616c6c00000000000000000000000000000000000000000000000000006020830152604082019050919050565b6000612d9c602c83613760565b91507f4552433732313a206f70657261746f7220717565727920666f72206e6f6e657860008301527f697374656e7420746f6b656e00000000000000000000000000000000000000006020830152604082019050919050565b6000612e02603883613760565b91507f4552433732313a20617070726f76652063616c6c6572206973206e6f74206f7760008301527f6e6572206e6f7220617070726f76656420666f7220616c6c00000000000000006020830152604082019050919050565b6000612e68602a83613760565b91507f4552433732313a2062616c616e636520717565727920666f7220746865207a6560008301527f726f2061646472657373000000000000000000000000000000000000000000006020830152604082019050919050565b6000612ece602283613760565b91507f456e756d657261626c654d61703a20696e646578206f7574206f6620626f756e60008301527f64730000000000000000000000000000000000000000000000000000000000006020830152604082019050919050565b6000612f34602083613760565b91507f4552433732313a206d696e7420746f20746865207a65726f20616464726573736000830152602082019050919050565b6000612f74602c83613760565b91507f4552433732313a20617070726f76656420717565727920666f72206e6f6e657860008301527f697374656e7420746f6b656e00000000000000000000000000000000000000006020830152604082019050919050565b6000612fda602983613760565b91507f4552433732313a207472616e73666572206f6620746f6b656e2074686174206960008301527f73206e6f74206f776e00000000000000000000000000000000000000000000006020830152604082019050919050565b6000613040602f83613760565b91507f4552433732314d657461646174613a2055524920717565727920666f72206e6f60008301527f6e6578697374656e7420746f6b656e00000000000000000000000000000000006020830152604082019050919050565b60006130a6602183613760565b91507f4552433732313a20617070726f76616c20746f2063757272656e74206f776e6560008301527f72000000000000000000000000000000000000000000000000000000000000006020830152604082019050919050565b600061310c603183613760565b91507f4552433732313a207472616e736665722063616c6c6572206973206e6f74206f60008301527f776e6572206e6f7220617070726f7665640000000000000000000000000000006020830152604082019050919050565b6000613172601d83613760565b91507f416464726573733a2063616c6c20746f206e6f6e2d636f6e74726163740000006000830152602082019050919050565b60c0820160008201516131bb6000850182613220565b5060208201516131ce6020850182613220565b5060408201516131e16040850182613220565b5060608201516131f46060850182613220565b5060808201516132076080850182613220565b5060a082015161321a60a0850182613220565b50505050565b613229816137f8565b82525050565b613238816137f8565b82525050565b600061324a8284612a0e565b915081905092915050565b60006132618285612aa9565b915061326d8284612a78565b91508190509392505050565b600060208201905061328e60008301846129b7565b92915050565b60006080820190506132a960008301876129a8565b6132b660208301866129b7565b6132c3604083018561322f565b81810360608301526132d581846129d5565b905095945050505050565b60006020820190506132f560008301846129c6565b92915050565b600060208201905081810360008301526133158184612a3f565b905092915050565b6000602082019050818103600083015261333681612b37565b9050919050565b6000602082019050818103600083015261335681612b9d565b9050919050565b6000602082019050818103600083015261337681612c03565b9050919050565b6000602082019050818103600083015261339681612c43565b9050919050565b600060208201905081810360008301526133b681612c83565b9050919050565b600060208201905081810360008301526133d681612ce9565b9050919050565b600060208201905081810360008301526133f681612d29565b9050919050565b6000602082019050818103600083015261341681612d8f565b9050919050565b6000602082019050818103600083015261343681612df5565b9050919050565b6000602082019050818103600083015261345681612e5b565b9050919050565b6000602082019050818103600083015261347681612ec1565b9050919050565b6000602082019050818103600083015261349681612f27565b9050919050565b600060208201905081810360008301526134b681612f67565b9050919050565b600060208201905081810360008301526134d681612fcd565b9050919050565b600060208201905081810360008301526134f681613033565b9050919050565b6000602082019050818103600083015261351681613099565b9050919050565b60006020820190508181036000830152613536816130ff565b9050919050565b6000602082019050818103600083015261355681613165565b9050919050565b6000602082019050613572600083018461322f565b92915050565b600060608201905061358d600083018661322f565b61359a602083018561322f565b6135a7604083018461322f565b949350505050565b6000610200820190506135c5600083018e61322f565b6135d2602083018d61322f565b6135df604083018c61322f565b6135ec606083018b6131a5565b8181036101208301526135ff818a612a3f565b905061360f61014083018961322f565b61361d61016083018861322f565b61362b61018083018761322f565b6136396101a083018661322f565b6136476101c083018561322f565b8181036101e083015261365a8184612a3f565b90509c9b505050505050505050505050565b6000604051905081810181811067ffffffffffffffff8211171561368f57600080fd5b8060405250919050565b600067ffffffffffffffff8211156136b057600080fd5b602082029050602081019050919050565b600067ffffffffffffffff8211156136d857600080fd5b601f19601f8301169050602081019050919050565b600067ffffffffffffffff82111561370457600080fd5b601f19601f8301169050602081019050919050565b60008190508160005260206000209050919050565b600081519050919050565b600081519050919050565b600082825260208201905092915050565b600081905092915050565b600082825260208201905092915050565b600081905092915050565b6000613787826137d8565b9050919050565b6000613799826137d8565b9050919050565b60008115159050919050565b60007fffffffff0000000000000000000000000000000000000000000000000000000082169050919050565b600073ffffffffffffffffffffffffffffffffffffffff82169050919050565b6000819050919050565b82818337600083830152505050565b60005b8381101561382f578082015181840152602081019050613814565b8381111561383e576000848401525b50505050565b6000601f19601f8301169050919050565b61385e8161377c565b811461386957600080fd5b50565b613875816137a0565b811461388057600080fd5b50565b61388c816137ac565b811461389757600080fd5b50565b6138a3816137f8565b81146138ae57600080fd5b5056fe4552433732313a207472616e7366657220746f206e6f6e20455243373231526563656976657220696d706c656d656e7465724552433732313a206f776e657220717565727920666f72206e6f6e6578697374656e7420746f6b656ea2646970667358221220fd63f14771af518b0abcdab4871356600ee237c2b26313265517f27b5d2f039a64736f6c634300060c0033",
  "immutableReferences": {},
  "source": "// SPDX-License-Identifier: MIT\r\npragma solidity ^0.6.12;\r\npragma experimental ABIEncoderV2;\r\n\r\nimport \"./Context.sol\";\r\nimport \"./IERC721.sol\";\r\nimport \"./IERC721Metadata.sol\";\r\nimport \"./IERC721Enumerable.sol\";\r\nimport \"./IERC721Receiver.sol\";\r\nimport \"./ERC165.sol\";\r\nimport \"./SafeMath.sol\";\r\nimport \"./Address.sol\";\r\nimport \"./EnumerableSet.sol\";\r\nimport \"./EnumerableMap.sol\";\r\nimport \"./Strings.sol\";\r\n\r\n/**\r\n * @title ERC721 Non-Fungible Token Standard basic implementation\r\n * @dev see https://eips.ethereum.org/EIPS/eip-721\r\n */\r\ncontract ERC721 is Context, ERC165, IERC721, IERC721Metadata, IERC721Enumerable {\r\n    using SafeMath for uint256;\r\n    using Address for address;\r\n    using EnumerableSet for EnumerableSet.UintSet;\r\n    using EnumerableMap for EnumerableMap.UintToAddressMap;\r\n    using Strings for uint256;\r\n    \r\n    uint256 _id = 1;\r\n\r\n   \r\n    // Equals to `bytes4(keccak256(\"onERC721Received(address,address,uint256,bytes)\"))`\r\n    // which can be also obtained as `IERC721Receiver(0).onERC721Received.selector`\r\n    bytes4 private constant _ERC721_RECEIVED = 0x150b7a02;\r\n\r\n    // Mapping from holder address to their (enumerable) set of owned tokens\r\n    mapping (address => EnumerableSet.UintSet) private _holderTokens;\r\n\r\n    // Enumerable mapping from token ids to their owners\r\n    EnumerableMap.UintToAddressMap private _tokenOwners;\r\n\r\n    // Mapping from token ID to approved address\r\n    mapping (uint256 => address) private _tokenApprovals;\r\n\r\n    // Mapping from owner to operator approvals\r\n    mapping (address => mapping (address => bool)) private _operatorApprovals;\r\n\r\n    // Token name\r\n    string private _name;\r\n\r\n    // Token symbol\r\n    string private _symbol;\r\n\r\n    // Optional mapping for token URIs\r\n    mapping (uint256 => string) private _tokenURIs;\r\n    \r\n    // Adding metaData to the property\r\n    \r\n    struct _IssuanceDetail{\r\n        uint256 tokesIssued;\r\n    }\r\n    \r\n    struct PropertyValue{\r\n     uint OrginalValue;\r\n     uint CurrentValue;\r\n     uint OriginalIssuanceRate;\r\n     mapping (uint256 => _IssuanceDetail) IssuanceDetails;\r\n    }\r\n    \r\n    // Metadata values\r\n    \r\n    \r\n    struct Property_coins_generated_till_now{\r\n        \r\n        uint256 coin_issue;\r\n        uint256 org_val;\r\n        uint256 equity_at_issuance;\r\n        uint256 curr_val;\r\n        uint256 tot_curr_val; \r\n        uint256 increase;\r\n    \r\n    }\r\n    \r\n    struct Prop_Value_Details{\r\n\r\n        uint256 Orig_Value;//Original Value of the Property\r\n        uint256 Curr_Value;//Current value of the Property\r\n        uint256 next_reevaluation_date;\r\n        Property_coins_generated_till_now[] coins_issue;\r\n        Property_coins_generated_till_now total_coins_issue;\r\n        string Property_images_hash;\r\n        string[] Property_location;\r\n        uint256 taxes;\r\n        uint256 insurance;\r\n        uint256 maintainence;\r\n        uint256 total;\r\n        uint256 monthly_hoa_payment;\r\n        string property_features;\r\n    \r\n    }\r\n    \r\n    \r\n    address[] public EligibleEmp;\r\n    address public contractOwner;\r\n    uint256 nftPrice;\r\n    uint256 public tot_no_of_prop_onplatform = 0;\r\n    mapping(uint256 => Prop_Value_Details) public prop;\r\n    \r\n    \r\n    // \r\n    \r\n    mapping (uint256 => PropertyValue) public _propertyValue;\r\n\r\n    // Base URI\r\n    string private _baseURI;\r\n\r\n    /*\r\n     *     bytes4(keccak256('balanceOf(address)')) == 0x70a08231\r\n     *     bytes4(keccak256('ownerOf(uint256)')) == 0x6352211e\r\n     *     bytes4(keccak256('approve(address,uint256)')) == 0x095ea7b3\r\n     *     bytes4(keccak256('getApproved(uint256)')) == 0x081812fc\r\n     *     bytes4(keccak256('setApprovalForAll(address,bool)')) == 0xa22cb465\r\n     *     bytes4(keccak256('isApprovedForAll(address,address)')) == 0xe985e9c5\r\n     *     bytes4(keccak256('transferFrom(address,address,uint256)')) == 0x23b872dd\r\n     *     bytes4(keccak256('safeTransferFrom(address,address,uint256)')) == 0x42842e0e\r\n     *     bytes4(keccak256('safeTransferFrom(address,address,uint256,bytes)')) == 0xb88d4fde\r\n     *\r\n     *     => 0x70a08231 ^ 0x6352211e ^ 0x095ea7b3 ^ 0x081812fc ^\r\n     *        0xa22cb465 ^ 0xe985e9c5 ^ 0x23b872dd ^ 0x42842e0e ^ 0xb88d4fde == 0x80ac58cd\r\n     */\r\n    bytes4 private constant _INTERFACE_ID_ERC721 = 0x80ac58cd;\r\n\r\n    /*\r\n     *     bytes4(keccak256('name()')) == 0x06fdde03\r\n     *     bytes4(keccak256('symbol()')) == 0x95d89b41\r\n     *     bytes4(keccak256('tokenURI(uint256)')) == 0xc87b56dd\r\n     *\r\n     *     => 0x06fdde03 ^ 0x95d89b41 ^ 0xc87b56dd == 0x5b5e139f\r\n     */\r\n    bytes4 private constant _INTERFACE_ID_ERC721_METADATA = 0x5b5e139f;\r\n\r\n    /*\r\n     *     bytes4(keccak256('totalSupply()')) == 0x18160ddd\r\n     *     bytes4(keccak256('tokenOfOwnerByIndex(address,uint256)')) == 0x2f745c59\r\n     *     bytes4(keccak256('tokenByIndex(uint256)')) == 0x4f6ccce7\r\n     *\r\n     *     => 0x18160ddd ^ 0x2f745c59 ^ 0x4f6ccce7 == 0x780e9d63\r\n     */\r\n    bytes4 private constant _INTERFACE_ID_ERC721_ENUMERABLE = 0x780e9d63;\r\n\r\n    /**\r\n     * @dev Initializes the contract by setting a `name` and a `symbol` to the token collection.\r\n     */\r\n    constructor () public {\r\n        _name = \"Property\";\r\n        _symbol = \"QST_TKN\";\r\n        \r\n        \r\n\r\n    \r\n        \r\n\r\n        // register the supported interfaces to conform to ERC721 via ERC165\r\n        _registerInterface(_INTERFACE_ID_ERC721);\r\n        _registerInterface(_INTERFACE_ID_ERC721_METADATA);\r\n        _registerInterface(_INTERFACE_ID_ERC721_ENUMERABLE);\r\n    }\r\n\r\n    /**\r\n     * @dev See {IERC721-balanceOf}.\r\n     */\r\n    function balanceOf(address owner) public view override returns (uint256) {\r\n        require(owner != address(0), \"ERC721: balance query for the zero address\");\r\n\r\n        return _holderTokens[owner].length();\r\n    }\r\n\r\n    /**\r\n     * @dev See {IERC721-ownerOf}.\r\n     */\r\n    function ownerOf(uint256 tokenId) public view override returns (address) {\r\n        return _tokenOwners.get(tokenId, \"ERC721: owner query for nonexistent token\");\r\n    }\r\n\r\n    /**\r\n     * @dev See {IERC721Metadata-name}.\r\n     */\r\n    function name() public view override returns (string memory) {\r\n        return _name;\r\n    }\r\n\r\n    /**\r\n     * @dev See {IERC721Metadata-symbol}.\r\n     */\r\n    function symbol() public view override returns (string memory) {\r\n        return _symbol;\r\n    }\r\n\r\n    /**\r\n     * @dev See {IERC721Metadata-tokenURI}.\r\n     */\r\n    function tokenURI(uint256 tokenId) public view override returns (string memory) {\r\n        require(_exists(tokenId), \"ERC721Metadata: URI query for nonexistent token\");\r\n\r\n        string memory _tokenURI = _tokenURIs[tokenId];\r\n\r\n        // If there is no base URI, return the token URI.\r\n        if (bytes(_baseURI).length == 0) {\r\n            return _tokenURI;\r\n        }\r\n        // If both are set, concatenate the baseURI and tokenURI (via abi.encodePacked).\r\n        if (bytes(_tokenURI).length > 0) {\r\n            return string(abi.encodePacked(_baseURI, _tokenURI));\r\n        }\r\n        // If there is a baseURI but no tokenURI, concatenate the tokenID to the baseURI.\r\n        return string(abi.encodePacked(_baseURI, tokenId.toString()));\r\n    }\r\n\r\n    /**\r\n    * @dev Returns the base URI set via {_setBaseURI}. This will be\r\n    * automatically added as a prefix in {tokenURI} to each token's URI, or\r\n    * to the token ID if no specific URI is set for that token ID.\r\n    */\r\n    function baseURI() public view returns (string memory) {\r\n        return _baseURI;\r\n    }\r\n\r\n    /**  \r\n     * @dev See {IERC721Enumerable-tokenOfOwnerByIndex}.\r\n     */\r\n    function tokenOfOwnerByIndex(address owner, uint256 index) public view override returns (uint256) {\r\n        return _holderTokens[owner].at(index);\r\n    }\r\n\r\n    /**\r\n     * @dev See {IERC721Enumerable-totalSupply}.\r\n     */\r\n    function totalSupply() public view override returns (uint256) {\r\n        // _tokenOwners are indexed by tokenIds, so .length() returns the number of tokenIds\r\n        return _tokenOwners.length();\r\n    }\r\n\r\n    /**\r\n     * @dev See {IERC721Enumerable-tokenByIndex}.\r\n     */\r\n    function tokenByIndex(uint256 index) public view override returns (uint256) {\r\n        (uint256 tokenId, ) = _tokenOwners.at(index);\r\n        return tokenId;\r\n    }\r\n\r\n    /**\r\n     * @dev See {IERC721-approve}.\r\n     */\r\n    function approve(address to, uint256 tokenId) public virtual override {\r\n        address owner = ownerOf(tokenId);\r\n        require(to != owner, \"ERC721: approval to current owner\");\r\n\r\n        require(_msgSender() == owner || isApprovedForAll(owner, _msgSender()),\r\n            \"ERC721: approve caller is not owner nor approved for all\"\r\n        );\r\n\r\n        _approve(to, tokenId);\r\n    }\r\n\r\n    /**\r\n     * @dev See {IERC721-getApproved}.\r\n     */\r\n    function getApproved(uint256 tokenId) public view override returns (address) {\r\n        require(_exists(tokenId), \"ERC721: approved query for nonexistent token\");\r\n\r\n        return _tokenApprovals[tokenId];\r\n    }\r\n\r\n    /**\r\n     * @dev See {IERC721-setApprovalForAll}.\r\n     */\r\n    function setApprovalForAll(address operator, bool approved) public virtual override {\r\n        require(operator != _msgSender(), \"ERC721: approve to caller\");\r\n\r\n        _operatorApprovals[_msgSender()][operator] = approved;\r\n        emit ApprovalForAll(_msgSender(), operator, approved);\r\n    }\r\n\r\n    /**\r\n     * @dev See {IERC721-isApprovedForAll}.\r\n     */\r\n    function isApprovedForAll(address owner, address operator) public view override returns (bool) {\r\n        return _operatorApprovals[owner][operator];\r\n    }\r\n\r\n    /**\r\n     * @dev See {IERC721-transferFrom}.\r\n     */\r\n    function transferFrom(address from, address to, uint256 tokenId) public virtual override {\r\n        //solhint-disable-next-line max-line-length\r\n        require(_isApprovedOrOwner(_msgSender(), tokenId), \"ERC721: transfer caller is not owner nor approved\");\r\n\r\n        _transfer(from, to, tokenId);\r\n    }\r\n\r\n    /**\r\n     * @dev See {IERC721-safeTransferFrom}.\r\n     */\r\n    function safeTransferFrom(address from, address to, uint256 tokenId) public virtual override {\r\n        safeTransferFrom(from, to, tokenId, \"\");\r\n    }\r\n\r\n    /**\r\n     * @dev See {IERC721-safeTransferFrom}.\r\n     */\r\n    function safeTransferFrom(address from, address to, uint256 tokenId, bytes memory _data) public virtual override {\r\n        require(_isApprovedOrOwner(_msgSender(), tokenId), \"ERC721: transfer caller is not owner nor approved\");\r\n        _safeTransfer(from, to, tokenId, _data);\r\n    }\r\n\r\n    /**\r\n     * @dev Safely transfers `tokenId` token from `from` to `to`, checking first that contract recipients\r\n     * are aware of the ERC721 protocol to prevent tokens from being forever locked.\r\n     *\r\n     * `_data` is additional data, it has no specified format and it is sent in call to `to`.\r\n     *\r\n     * This internal function is equivalent to {safeTransferFrom}, and can be used to e.g.\r\n     * implement alternative mechanisms to perform token transfer, such as signature-based.\r\n     *\r\n     * Requirements:\r\n     *\r\n     * - `from` cannot be the zero address.\r\n     * - `to` cannot be the zero address.\r\n     * - `tokenId` token must exist and be owned by `from`.\r\n     * - If `to` refers to a smart contract, it must implement {IERC721Receiver-onERC721Received}, which is called upon a safe transfer.\r\n     *\r\n     * Emits a {Transfer} event.\r\n     */\r\n    function _safeTransfer(address from, address to, uint256 tokenId, bytes memory _data) internal virtual {\r\n        _transfer(from, to, tokenId);\r\n        require(_checkOnERC721Received(from, to, tokenId, _data), \"ERC721: transfer to non ERC721Receiver implementer\");\r\n    }\r\n\r\n    /**\r\n     * @dev Returns whether `tokenId` exists.\r\n     *\r\n     * Tokens can be managed by their owner or approved accounts via {approve} or {setApprovalForAll}.\r\n     *\r\n     * Tokens start existing when they are minted (`_mint`),\r\n     * and stop existing when they are burned (`_burn`).\r\n     */\r\n    function _exists(uint256 tokenId) internal view returns (bool) {\r\n        return _tokenOwners.contains(tokenId);\r\n    }\r\n\r\n    /**\r\n     * @dev Returns whether `spender` is allowed to manage `tokenId`.\r\n     *\r\n     * Requirements:\r\n     *\r\n     * - `tokenId` must exist.\r\n     */\r\n    function _isApprovedOrOwner(address spender, uint256 tokenId) internal view returns (bool) {\r\n        require(_exists(tokenId), \"ERC721: operator query for nonexistent token\");\r\n        address owner = ownerOf(tokenId);\r\n        return (spender == owner || getApproved(tokenId) == spender || isApprovedForAll(owner, spender));\r\n    }\r\n\r\n    /**\r\n     * @dev Safely mints `tokenId` and transfers it to `to`.\r\n     *\r\n     * Requirements:\r\n     d*\r\n     * - `tokenId` must not exist.\r\n     * - If `to` refers to a smart contract, it must implement {IERC721Receiver-onERC721Received}, which is called upon a safe transfer.\r\n     *\r\n     * Emits a {Transfer} event.\r\n     */\r\n    // function _safeMint(address to, uint256 tokenId, uint OrginalValue) internal virtual {\r\n    //     _safeMint(to, tokenId, OrginalValue);\r\n    // }\r\n\r\n    /**\r\n     * @dev Same as {xref-ERC721-_safeMint-address-uint256-}[`_safeMint`], with an additional `data` parameter which is\r\n     * forwarded in {IERC721Receiver-onERC721Received} to contract recipients.\r\n     */\r\n    // function _safeMint(address to, uint256 tokenId, bytes memory _data, uint OrginalValue) internal virtual {\r\n    //     _mint(to, tokenId,origVal,currVal,date,coins,property_images,pro_add_details,prop_tax,prop_insurance,prop_maintainence,features_prop);\r\n    //     require(_checkOnERC721Received(address(0), to, tokenId, _data), \"ERC721: transfer to non ERC721Receiver implementer\");\r\n    // }\r\n\r\n    /**\r\n     * @dev Mints `tokenId` and transfers it to `to`.\r\n     *\r\n     * WARNING: Usage of this method is discouraged, use {_safeMint} whenever possible\r\n     *\r\n     * Requirements:\r\n     *\r\n     * - `tokenId` must not exist.\r\n     * - `to` cannot be the zero address.\r\n     *\r\n     * Emits a {Transfer} event.\r\n     */\r\n    function _mint(uint256 origVal,\r\n                                     address ownerAddress,\r\n                                     uint256 coins,\r\n                                     string memory property_images_hash,\r\n                                     string[] memory pro_add_details,\r\n                                     uint prop_tax,\r\n                                     uint prop_insurance,\r\n                                     uint prop_maintainence,\r\n                                     string memory features_prop) public override {\r\n                                        uint256 tokenId = _id;\r\n                                        _id++;\r\n        require(ownerAddress != address(0), \"ERC721: mint to the zero address\");\r\n        require(!_exists(tokenId), \"ERC721: token already minted\");\r\n\r\n        _beforeTokenTransfer(address(0),ownerAddress, tokenId);\r\n\r\n        _holderTokens[ownerAddress].add(tokenId);\r\n\r\n        _tokenOwners.set(tokenId, ownerAddress);\r\n        \r\n        Property_coins_generated_till_now memory coinsdetails;\r\n    \r\n        coinsdetails.coin_issue = coins;\r\n        coinsdetails.org_val = origVal;\r\n        coinsdetails.equity_at_issuance = 0;\r\n\r\n        //uint temp = 0;\r\n        //uint temp1=  (temp.mul(origVal)).div(origVal);\r\n    \r\n        coinsdetails.curr_val = 1;\r\n        coinsdetails.tot_curr_val = origVal;\r\n        \r\n        //uint curr = coinsdetails.tot_curr_val;\r\n        //uint orig=  ((coinsdetails.org_val).mul(coins)).div(origVal);\r\n            \r\n        coinsdetails.increase = 0;\r\n           \r\n        prop[tokenId].Orig_Value = origVal;\r\n        prop[tokenId].Curr_Value = origVal;\r\n        prop[tokenId].next_reevaluation_date = now;\r\n        prop[tokenId].Property_images_hash = property_images_hash;    \r\n        prop[tokenId].Property_location = pro_add_details;\r\n        prop[tokenId].coins_issue.push(coinsdetails);\r\n        prop[tokenId].total_coins_issue = coinsdetails;  \r\n        prop[tokenId].taxes = prop_tax;\r\n        prop[tokenId].insurance = prop_insurance;\r\n        prop[tokenId].maintainence = prop_maintainence;\r\n        prop[tokenId].total = (prop_tax.add(prop_insurance)).add(prop_maintainence);\r\n       // prop[tokenId] .monthly_hoa_payment = (prop[tokenId].total).div(12);\r\n        prop[tokenId].property_features = features_prop;\r\n        emit Transfer(address(0),ownerAddress , tokenId);\r\n        \r\n        \r\n    }\r\n\r\n    /**\r\n     * @dev Destroys `tokenId`.\r\n     * The approval is cleared when the token is burned.\r\n     *\r\n     * Requirements:\r\n     *\r\n     * - `tokenId` must exist.\r\n     *\r\n     * Emits a {Transfer} event.\r\n     */\r\n    function _burn(uint256 tokenId) internal virtual {\r\n        address owner = ownerOf(tokenId);\r\n\r\n        _beforeTokenTransfer(owner, address(0), tokenId);\r\n\r\n        // Clear approvals\r\n        _approve(address(0), tokenId);\r\n\r\n        // Clear metadata (if any)\r\n        if (bytes(_tokenURIs[tokenId]).length != 0) {\r\n            delete _tokenURIs[tokenId];\r\n        }\r\n\r\n        _holderTokens[owner].remove(tokenId);\r\n\r\n        _tokenOwners.remove(tokenId);\r\n\r\n        emit Transfer(owner, address(0), tokenId);\r\n    }\r\n\r\n    /**\r\n     * @dev Transfers `tokenId` from `from` to `to`.\r\n     *  As opposed to {transferFrom}, this imposes no restrictions on msg.sender.\r\n     *\r\n     * Requirements:\r\n     *\r\n     * - `to` cannot be the zero address.\r\n     * - `tokenId` token must be owned by `from`.\r\n     *\r\n     * Emits a {Transfer} event.\r\n     */\r\n    function _transfer(address from, address to, uint256 tokenId) internal virtual {\r\n        require(ownerOf(tokenId) == from, \"ERC721: transfer of token that is not own\");\r\n        require(to != address(0), \"ERC721: transfer to the zero address\");\r\n\r\n        _beforeTokenTransfer(from, to, tokenId);\r\n\r\n        // Clear approvals from the previous owner\r\n        _approve(address(0), tokenId);\r\n\r\n        _holderTokens[from].remove(tokenId);\r\n        _holderTokens[to].add(tokenId);\r\n\r\n        _tokenOwners.set(tokenId, to);\r\n\r\n        emit Transfer(from, to, tokenId);\r\n    }\r\n\r\n    /**\r\n     * @dev Sets `_tokenURI` as the tokenURI of `tokenId`.\r\n     *\r\n     * Requirements:\r\n     *\r\n     * - `tokenId` must exist.\r\n     */\r\n    function _setTokenURI(uint256 tokenId, string memory _tokenURI) internal virtual {\r\n        require(_exists(tokenId), \"ERC721Metadata: URI set of nonexistent token\");\r\n        _tokenURIs[tokenId] = _tokenURI;\r\n    }\r\n\r\n    /**\r\n     * @dev Internal function to set the base URI for all token IDs. It is\r\n     * automatically added as a prefix to the value returned in {tokenURI},\r\n     * or to the token ID if {tokenURI} is empty.\r\n     */\r\n    function _setBaseURI(string memory baseURI_) internal virtual {\r\n        _baseURI = baseURI_;\r\n    }\r\n\r\n    /**\r\n     * @dev Internal function to invoke {IERC721Receiver-onERC721Received} on a target address.\r\n     * The call is not executed if the target address is not a contract.\r\n     *\r\n     * @param from address representing the previous owner of the given token ID\r\n     * @param to target address that will receive the tokens\r\n     * @param tokenId uint256 ID of the token to be transferred\r\n     * @param _data bytes optional data to send along with the call\r\n     * @return bool whether the call correctly returned the expected magic value\r\n     */\r\n    function _checkOnERC721Received(address from, address to, uint256 tokenId, bytes memory _data)\r\n        private returns (bool)\r\n    {\r\n        if (!to.isContract()) {\r\n            return true;\r\n        }\r\n        bytes memory returndata = to.functionCall(abi.encodeWithSelector(\r\n            IERC721Receiver(to).onERC721Received.selector,\r\n            _msgSender(),\r\n            from,\r\n            tokenId,\r\n            _data\r\n        ), \"ERC721: transfer to non ERC721Receiver implementer\");\r\n        bytes4 retval = abi.decode(returndata, (bytes4));\r\n        return (retval == _ERC721_RECEIVED);\r\n    }\r\n\r\n    function _approve(address to, uint256 tokenId) private {\r\n        _tokenApprovals[tokenId] = to;\r\n        emit Approval(ownerOf(tokenId), to, tokenId);\r\n    }\r\n\r\n    /**\r\n     * @dev Hook that is called before any token transfer. This includes minting\r\n     * and burning.\r\n     *\r\n     * Calling conditions:\r\n     *\r\n     * - When `from` and `to` are both non-zero, ``from``'s `tokenId` will be\r\n     * transferred to `to`.\r\n     * - When `from` is zero, `tokenId` will be minted for `to`.\r\n     * - When `to` is zero, ``from``'s `tokenId` will be burned.\r\n     * - `from` cannot be the zero address.\r\n     * - `to` cannot be the zero address.\r\n     *\r\n     * To learn more about hooks, head to xref:ROOT:extending-contracts.adoc#using-hooks[Using Hooks].\r\n     */\r\n    function _beforeTokenTransfer(address from, address to, uint256 tokenId) internal virtual { }\r\n    \r\n}",
  "sourcePath": "C:/Users/Prerna/Desktop/QuestCrypt/Quest-Contracts/src/contracts/ERC721.sol",
  "compiler": {
    "name": "solc",
    "version": "0.6.12+commit.27d51765.Emscripten.clang"
  },
  "schemaVersion": "3.3.1",
  "updatedAt": "2020-11-30T05:53:07.150Z",
  "networkType": "ethereum",
  "devdoc": {
    "details": "see https://eips.ethereum.org/EIPS/eip-721",
    "kind": "dev",
    "methods": {
      "_mint(uint256,address,uint256,string,string[],uint256,uint256,uint256,string)": {
        "details": "Mints `tokenId` and transfers it to `to`. WARNING: Usage of this method is discouraged, use {_safeMint} whenever possible Requirements: - `tokenId` must not exist. - `to` cannot be the zero address. Emits a {Transfer} event."
      },
      "approve(address,uint256)": {
        "details": "See {IERC721-approve}."
      },
      "balanceOf(address)": {
        "details": "See {IERC721-balanceOf}."
      },
      "baseURI()": {
        "details": "Returns the base URI set via {_setBaseURI}. This will be automatically added as a prefix in {tokenURI} to each token's URI, or to the token ID if no specific URI is set for that token ID."
      },
      "constructor": {
        "details": "Initializes the contract by setting a `name` and a `symbol` to the token collection."
      },
      "getApproved(uint256)": {
        "details": "See {IERC721-getApproved}."
      },
      "isApprovedForAll(address,address)": {
        "details": "See {IERC721-isApprovedForAll}."
      },
      "name()": {
        "details": "See {IERC721Metadata-name}."
      },
      "ownerOf(uint256)": {
        "details": "See {IERC721-ownerOf}."
      },
      "safeTransferFrom(address,address,uint256)": {
        "details": "See {IERC721-safeTransferFrom}."
      },
      "safeTransferFrom(address,address,uint256,bytes)": {
        "details": "See {IERC721-safeTransferFrom}."
      },
      "setApprovalForAll(address,bool)": {
        "details": "See {IERC721-setApprovalForAll}."
      },
      "supportsInterface(bytes4)": {
        "details": "See {IERC165-supportsInterface}. Time complexity O(1), guaranteed to always use less than 30 000 gas."
      },
      "symbol()": {
        "details": "See {IERC721Metadata-symbol}."
      },
      "tokenByIndex(uint256)": {
        "details": "See {IERC721Enumerable-tokenByIndex}."
      },
      "tokenOfOwnerByIndex(address,uint256)": {
        "details": "See {IERC721Enumerable-tokenOfOwnerByIndex}."
      },
      "tokenURI(uint256)": {
        "details": "See {IERC721Metadata-tokenURI}."
      },
      "totalSupply()": {
        "details": "See {IERC721Enumerable-totalSupply}."
      },
      "transferFrom(address,address,uint256)": {
        "details": "See {IERC721-transferFrom}."
      }
    },
    "title": "ERC721 Non-Fungible Token Standard basic implementation",
    "version": 1
  },
  "userdoc": {
    "kind": "user",
    "methods": {},
    "version": 1
  }
}