{
  "contractName": "ERC721",
  "abi": [
    {
      "inputs": [
        {
          "internalType": "string",
          "name": "name",
          "type": "string"
        },
        {
          "internalType": "string",
          "name": "symbol",
          "type": "string"
        }
      ],
      "stateMutability": "nonpayable",
      "type": "constructor"
    },
    {
      "anonymous": false,
      "inputs": [
        {
          "indexed": true,
          "internalType": "address",
          "name": "owner",
          "type": "address"
        },
        {
          "indexed": true,
          "internalType": "address",
          "name": "approved",
          "type": "address"
        },
        {
          "indexed": true,
          "internalType": "uint256",
          "name": "tokenId",
          "type": "uint256"
        }
      ],
      "name": "Approval",
      "type": "event"
    },
    {
      "anonymous": false,
      "inputs": [
        {
          "indexed": true,
          "internalType": "address",
          "name": "owner",
          "type": "address"
        },
        {
          "indexed": true,
          "internalType": "address",
          "name": "operator",
          "type": "address"
        },
        {
          "indexed": false,
          "internalType": "bool",
          "name": "approved",
          "type": "bool"
        }
      ],
      "name": "ApprovalForAll",
      "type": "event"
    },
    {
      "anonymous": false,
      "inputs": [
        {
          "indexed": true,
          "internalType": "address",
          "name": "from",
          "type": "address"
        },
        {
          "indexed": true,
          "internalType": "address",
          "name": "to",
          "type": "address"
        },
        {
          "indexed": true,
          "internalType": "uint256",
          "name": "tokenId",
          "type": "uint256"
        }
      ],
      "name": "Transfer",
      "type": "event"
    },
    {
      "inputs": [
        {
          "internalType": "uint256",
          "name": "",
          "type": "uint256"
        }
      ],
      "name": "EligibleEmp",
      "outputs": [
        {
          "internalType": "address",
          "name": "",
          "type": "address"
        }
      ],
      "stateMutability": "view",
      "type": "function",
      "constant": true
    },
    {
      "inputs": [],
      "name": "OIR",
      "outputs": [
        {
          "internalType": "uint256",
          "name": "",
          "type": "uint256"
        }
      ],
      "stateMutability": "view",
      "type": "function",
      "constant": true
    },
    {
      "inputs": [],
      "name": "_contractOwner",
      "outputs": [
        {
          "internalType": "address",
          "name": "",
          "type": "address"
        }
      ],
      "stateMutability": "view",
      "type": "function",
      "constant": true
    },
    {
      "inputs": [],
      "name": "contractOwner",
      "outputs": [
        {
          "internalType": "address",
          "name": "",
          "type": "address"
        }
      ],
      "stateMutability": "view",
      "type": "function",
      "constant": true
    },
    {
      "inputs": [
        {
          "internalType": "uint256",
          "name": "",
          "type": "uint256"
        }
      ],
      "name": "propertyDetails",
      "outputs": [
        {
          "internalType": "uint256",
          "name": "originalValue",
          "type": "uint256"
        },
        {
          "internalType": "uint256",
          "name": "currentValue",
          "type": "uint256"
        },
        {
          "internalType": "uint256",
          "name": "originalIssuanceRate",
          "type": "uint256"
        },
        {
          "internalType": "uint256",
          "name": "totalCurrentValue",
          "type": "uint256"
        },
        {
          "internalType": "uint256",
          "name": "variation",
          "type": "uint256"
        },
        {
          "internalType": "uint256",
          "name": "Tax",
          "type": "uint256"
        },
        {
          "internalType": "uint256",
          "name": "Insurance",
          "type": "uint256"
        },
        {
          "internalType": "uint256",
          "name": "Maintenance",
          "type": "uint256"
        },
        {
          "internalType": "string",
          "name": "propertyFeatures",
          "type": "string"
        },
        {
          "internalType": "uint256",
          "name": "NoOfIssuance",
          "type": "uint256"
        }
      ],
      "stateMutability": "view",
      "type": "function",
      "constant": true
    },
    {
      "inputs": [
        {
          "internalType": "bytes4",
          "name": "interfaceId",
          "type": "bytes4"
        }
      ],
      "name": "supportsInterface",
      "outputs": [
        {
          "internalType": "bool",
          "name": "",
          "type": "bool"
        }
      ],
      "stateMutability": "view",
      "type": "function",
      "constant": true
    },
    {
      "inputs": [
        {
          "internalType": "address",
          "name": "owner",
          "type": "address"
        }
      ],
      "name": "balanceOf",
      "outputs": [
        {
          "internalType": "uint256",
          "name": "",
          "type": "uint256"
        }
      ],
      "stateMutability": "view",
      "type": "function",
      "constant": true
    },
    {
      "inputs": [
        {
          "internalType": "uint256",
          "name": "tokenId",
          "type": "uint256"
        }
      ],
      "name": "ownerOf",
      "outputs": [
        {
          "internalType": "address",
          "name": "",
          "type": "address"
        }
      ],
      "stateMutability": "view",
      "type": "function",
      "constant": true
    },
    {
      "inputs": [],
      "name": "name",
      "outputs": [
        {
          "internalType": "string",
          "name": "",
          "type": "string"
        }
      ],
      "stateMutability": "view",
      "type": "function",
      "constant": true
    },
    {
      "inputs": [],
      "name": "symbol",
      "outputs": [
        {
          "internalType": "string",
          "name": "",
          "type": "string"
        }
      ],
      "stateMutability": "view",
      "type": "function",
      "constant": true
    },
    {
      "inputs": [
        {
          "internalType": "uint256",
          "name": "tokenId",
          "type": "uint256"
        }
      ],
      "name": "tokenURI",
      "outputs": [
        {
          "internalType": "string",
          "name": "",
          "type": "string"
        }
      ],
      "stateMutability": "view",
      "type": "function",
      "constant": true
    },
    {
      "inputs": [],
      "name": "baseURI",
      "outputs": [
        {
          "internalType": "string",
          "name": "",
          "type": "string"
        }
      ],
      "stateMutability": "view",
      "type": "function",
      "constant": true
    },
    {
      "inputs": [
        {
          "internalType": "address",
          "name": "owner",
          "type": "address"
        },
        {
          "internalType": "uint256",
          "name": "index",
          "type": "uint256"
        }
      ],
      "name": "tokenOfOwnerByIndex",
      "outputs": [
        {
          "internalType": "uint256",
          "name": "",
          "type": "uint256"
        }
      ],
      "stateMutability": "view",
      "type": "function",
      "constant": true
    },
    {
      "inputs": [],
      "name": "totalSupply",
      "outputs": [
        {
          "internalType": "uint256",
          "name": "",
          "type": "uint256"
        }
      ],
      "stateMutability": "view",
      "type": "function",
      "constant": true
    },
    {
      "inputs": [
        {
          "internalType": "uint256",
          "name": "index",
          "type": "uint256"
        }
      ],
      "name": "tokenByIndex",
      "outputs": [
        {
          "internalType": "uint256",
          "name": "",
          "type": "uint256"
        }
      ],
      "stateMutability": "view",
      "type": "function",
      "constant": true
    },
    {
      "inputs": [
        {
          "internalType": "address",
          "name": "to",
          "type": "address"
        },
        {
          "internalType": "uint256",
          "name": "tokenId",
          "type": "uint256"
        }
      ],
      "name": "approve",
      "outputs": [],
      "stateMutability": "nonpayable",
      "type": "function"
    },
    {
      "inputs": [
        {
          "internalType": "uint256",
          "name": "tokenId",
          "type": "uint256"
        }
      ],
      "name": "getApproved",
      "outputs": [
        {
          "internalType": "address",
          "name": "",
          "type": "address"
        }
      ],
      "stateMutability": "view",
      "type": "function",
      "constant": true
    },
    {
      "inputs": [
        {
          "internalType": "address",
          "name": "operator",
          "type": "address"
        },
        {
          "internalType": "bool",
          "name": "approved",
          "type": "bool"
        }
      ],
      "name": "setApprovalForAll",
      "outputs": [],
      "stateMutability": "nonpayable",
      "type": "function"
    },
    {
      "inputs": [
        {
          "internalType": "address",
          "name": "owner",
          "type": "address"
        },
        {
          "internalType": "address",
          "name": "operator",
          "type": "address"
        }
      ],
      "name": "isApprovedForAll",
      "outputs": [
        {
          "internalType": "bool",
          "name": "",
          "type": "bool"
        }
      ],
      "stateMutability": "view",
      "type": "function",
      "constant": true
    },
    {
      "inputs": [
        {
          "internalType": "address",
          "name": "from",
          "type": "address"
        },
        {
          "internalType": "address",
          "name": "to",
          "type": "address"
        },
        {
          "internalType": "uint256",
          "name": "tokenId",
          "type": "uint256"
        }
      ],
      "name": "transferFrom",
      "outputs": [],
      "stateMutability": "nonpayable",
      "type": "function"
    },
    {
      "inputs": [
        {
          "internalType": "address",
          "name": "from",
          "type": "address"
        },
        {
          "internalType": "address",
          "name": "to",
          "type": "address"
        },
        {
          "internalType": "uint256",
          "name": "tokenId",
          "type": "uint256"
        }
      ],
      "name": "safeTransferFrom",
      "outputs": [],
      "stateMutability": "nonpayable",
      "type": "function"
    },
    {
      "inputs": [
        {
          "internalType": "address",
          "name": "from",
          "type": "address"
        },
        {
          "internalType": "address",
          "name": "to",
          "type": "address"
        },
        {
          "internalType": "uint256",
          "name": "tokenId",
          "type": "uint256"
        },
        {
          "internalType": "bytes",
          "name": "_data",
          "type": "bytes"
        }
      ],
      "name": "safeTransferFrom",
      "outputs": [],
      "stateMutability": "nonpayable",
      "type": "function"
    },
    {
      "inputs": [
        {
          "internalType": "address",
          "name": "owner",
          "type": "address"
        },
        {
          "internalType": "uint256",
          "name": "origVal",
          "type": "uint256"
        },
        {
          "internalType": "uint256",
          "name": "coins",
          "type": "uint256"
        },
        {
          "internalType": "string[]",
          "name": "property_images",
          "type": "string[]"
        },
        {
          "internalType": "string[]",
          "name": "pro_add_details",
          "type": "string[]"
        },
        {
          "internalType": "uint256",
          "name": "prop_tax",
          "type": "uint256"
        },
        {
          "internalType": "uint256",
          "name": "prop_insurance",
          "type": "uint256"
        },
        {
          "internalType": "uint256",
          "name": "prop_maintainence",
          "type": "uint256"
        },
        {
          "internalType": "string",
          "name": "features_prop",
          "type": "string"
        }
      ],
      "name": "_mint",
      "outputs": [],
      "stateMutability": "nonpayable",
      "type": "function"
    },
    {
      "inputs": [
        {
          "internalType": "uint256",
          "name": "id",
          "type": "uint256"
        },
        {
          "internalType": "uint256",
          "name": "TokenId",
          "type": "uint256"
        }
      ],
      "name": "_getValues",
      "outputs": [
        {
          "components": [
            {
              "internalType": "uint256",
              "name": "propertyTokensIssued",
              "type": "uint256"
            },
            {
              "internalType": "uint256",
              "name": "valueAtIssuance",
              "type": "uint256"
            },
            {
              "internalType": "uint256",
              "name": "timeStamp",
              "type": "uint256"
            }
          ],
          "internalType": "struct ERC721.issuanceDetail",
          "name": "",
          "type": "tuple"
        }
      ],
      "stateMutability": "view",
      "type": "function",
      "constant": true
    },
    {
      "inputs": [
        {
          "internalType": "uint256",
          "name": "Tokenvalue",
          "type": "uint256"
        },
        {
          "internalType": "uint256",
          "name": "TokenId",
          "type": "uint256"
        }
      ],
      "name": "_isssueToken",
      "outputs": [],
      "stateMutability": "nonpayable",
      "type": "function"
    }
  ],
  "bytecode": "0x6080604052600180553480156200001557600080fd5b50604051620040163803806200401683398181016040528101906200003b9190620002f0565b620000536301ffc9a760e01b6200011660201b60201c565b81600790805190602001906200006b929190620001ee565b50806008908051906020019062000084929190620001ee565b5033600f60006101000a81548173ffffffffffffffffffffffffffffffffffffffff021916908373ffffffffffffffffffffffffffffffffffffffff160217905550620000de6380ac58cd60e01b6200011660201b60201c565b620000f6635b5e139f60e01b6200011660201b60201c565b6200010e63780e9d6360e01b6200011660201b60201c565b505062000469565b63ffffffff60e01b817bffffffffffffffffffffffffffffffffffffffffffffffffffffffff1916141562000182576040517f08c379a00000000000000000000000000000000000000000000000000000000081526004016200017990620003a5565b60405180910390fd5b6001600080837bffffffffffffffffffffffffffffffffffffffffffffffffffffffff19167bffffffffffffffffffffffffffffffffffffffffffffffffffffffff1916815260200190815260200160002060006101000a81548160ff02191690831515021790555050565b828054600181600116156101000203166002900490600052602060002090601f016020900481019282601f106200023157805160ff191683800117855562000262565b8280016001018555821562000262579182015b828111156200026157825182559160200191906001019062000244565b5b50905062000271919062000275565b5090565b5b808211156200029057600081600090555060010162000276565b5090565b600082601f830112620002a657600080fd5b8151620002bd620002b782620003f5565b620003c7565b91508082526020830160208301858383011115620002da57600080fd5b620002e783828462000433565b50505092915050565b600080604083850312156200030457600080fd5b600083015167ffffffffffffffff8111156200031f57600080fd5b6200032d8582860162000294565b925050602083015167ffffffffffffffff8111156200034b57600080fd5b620003598582860162000294565b9150509250929050565b600062000372601c8362000422565b91507f4552433136353a20696e76616c696420696e74657266616365206964000000006000830152602082019050919050565b60006020820190508181036000830152620003c08162000363565b9050919050565b6000604051905081810181811067ffffffffffffffff82111715620003eb57600080fd5b8060405250919050565b600067ffffffffffffffff8211156200040d57600080fd5b601f19601f8301169050602081019050919050565b600082825260208201905092915050565b60005b838110156200045357808201518184015260208101905062000436565b8381111562000463576000848401525b50505050565b613b9d80620004796000396000f3fe608060405234801561001057600080fd5b50600436106101735760003560e01c80636c0360eb116100de578063b88d4fde11610097578063ce606ee011610071578063ce606ee014610479578063ddb595f314610497578063e06e0688146104c7578063e985e9c5146104f757610173565b8063b88d4fde14610411578063bc88ccd91461042d578063c87b56dd1461044957610173565b80636c0360eb1461033257806370a082311461035057806381db41471461038057806395d89b41146103b9578063a22cb465146103d7578063a88bdcb6146103f357610173565b80632bb3b114116101305780632bb3b1141461024c5780632f745c591461026a57806342842e0e1461029a5780634f6ccce7146102b65780635a736c7b146102e65780636352211e1461030257610173565b806301ffc9a71461017857806306fdde03146101a8578063081812fc146101c6578063095ea7b3146101f657806318160ddd1461021257806323b872dd14610230575b600080fd5b610192600480360381019061018d9190612a6a565b610527565b60405161019f9190613516565b60405180910390f35b6101b061058e565b6040516101bd9190613531565b60405180910390f35b6101e060048036038101906101db9190612afd565b610630565b6040516101ed91906134af565b60405180910390f35b610210600480360381019061020b9190612920565b6106b5565b005b61021a6107cd565b6040516102279190613809565b60405180910390f35b61024a6004803603810190610245919061281a565b6107de565b005b61025461083e565b60405161026191906134af565b60405180910390f35b610284600480360381019061027f9190612920565b610864565b6040516102919190613809565b60405180910390f35b6102b460048036038101906102af919061281a565b6108bf565b005b6102d060048036038101906102cb9190612afd565b6108df565b6040516102dd9190613809565b60405180910390f35b61030060048036038101906102fb919061295c565b610902565b005b61031c60048036038101906103179190612afd565b610ca2565b60405161032991906134af565b60405180910390f35b61033a610cd9565b6040516103479190613531565b60405180910390f35b61036a600480360381019061036591906127b5565b610d7b565b6040516103779190613809565b60405180910390f35b61039a60048036038101906103959190612afd565b610e3a565b6040516103b09a99989796959493929190613824565b60405180910390f35b6103c1610f26565b6040516103ce9190613531565b60405180910390f35b6103f160048036038101906103ec91906128e4565b610fc8565b005b6103fb611149565b6040516104089190613809565b60405180910390f35b61042b60048036038101906104269190612869565b61114f565b005b61044760048036038101906104429190612b26565b6111b1565b005b610463600480360381019061045e9190612afd565b61130e565b6040516104709190613531565b60405180910390f35b61048161151e565b60405161048e91906134af565b60405180910390f35b6104b160048036038101906104ac9190612b26565b611544565b6040516104be91906137d3565b60405180910390f35b6104e160048036038101906104dc9190612afd565b6115a4565b6040516104ee91906134af565b60405180910390f35b610511600480360381019061050c91906127de565b6115e0565b60405161051e9190613516565b60405180910390f35b6000806000837bffffffffffffffffffffffffffffffffffffffffffffffffffffffff19167bffffffffffffffffffffffffffffffffffffffffffffffffffffffff1916815260200190815260200160002060009054906101000a900460ff169050919050565b606060078054600181600116156101000203166002900480601f0160208091040260200160405190810160405280929190818152602001828054600181600116156101000203166002900480156106265780601f106105fb57610100808354040283529160200191610626565b820191906000526020600020905b81548152906001019060200180831161060957829003601f168201915b5050505050905090565b600061063b82611674565b61067a576040517f08c379a0000000000000000000000000000000000000000000000000000000008152600401610671906136f3565b60405180910390fd5b6005600083815260200190815260200160002060009054906101000a900473ffffffffffffffffffffffffffffffffffffffff169050919050565b60006106c082610ca2565b90508073ffffffffffffffffffffffffffffffffffffffff168373ffffffffffffffffffffffffffffffffffffffff161415610731576040517f08c379a000000000000000000000000000000000000000000000000000000000815260040161072890613753565b60405180910390fd5b8073ffffffffffffffffffffffffffffffffffffffff16610750611691565b73ffffffffffffffffffffffffffffffffffffffff16148061077f575061077e81610779611691565b6115e0565b5b6107be576040517f08c379a00000000000000000000000000000000000000000000000000000000081526004016107b590613653565b60405180910390fd5b6107c88383611699565b505050565b60006107d96003611752565b905090565b6107ef6107e9611691565b82611767565b61082e576040517f08c379a000000000000000000000000000000000000000000000000000000000815260040161082590613793565b60405180910390fd5b610839838383611845565b505050565b600f60009054906101000a900473ffffffffffffffffffffffffffffffffffffffff1681565b60006108b782600260008673ffffffffffffffffffffffffffffffffffffffff1673ffffffffffffffffffffffffffffffffffffffff168152602001908152602001600020611a5c90919063ffffffff16565b905092915050565b6108da8383836040518060200160405280600081525061114f565b505050565b6000806108f6836003611a7690919063ffffffff16565b50905080915050919050565b60006001549050600160008154809291906001019190505550600073ffffffffffffffffffffffffffffffffffffffff168a73ffffffffffffffffffffffffffffffffffffffff16141561098b576040517f08c379a0000000000000000000000000000000000000000000000000000000008152600401610982906136b3565b60405180910390fd5b61099481611674565b156109d4576040517f08c379a00000000000000000000000000000000000000000000000000000000081526004016109cb90613593565b60405180910390fd5b6109e060008b83611aa2565b610a3181600260008d73ffffffffffffffffffffffffffffffffffffffff1673ffffffffffffffffffffffffffffffffffffffff168152602001908152602001600020611aa790919063ffffffff16565b50610a48818b6003611ac19092919063ffffffff16565b5088600a60008381526020019081526020016000206000018190555088600a600083815260200190815260200160002060010181905550610aa589610a9760648b611af690919063ffffffff16565b611b6690919063ffffffff16565b600a60008381526020019081526020016000206002018190555086600a60008381526020019081526020016000206005019080519060200190610ae9929190612452565b5085600a60008381526020019081526020016000206006019080519060200190610b14929190612452565b5084600a60008381526020019081526020016000206007018190555083600a60008381526020019081526020016000206008018190555082600a60008381526020019081526020016000206009018190555081600a6000838152602001908152602001600020600a019080519060200190610b909291906124b2565b5088600a6000838152602001908152602001600020600c0160008081526020019081526020016000206000018190555088600a6000838152602001908152602001600020600c0160008081526020019081526020016000206001018190555042600a6000838152602001908152602001600020600c016000808152602001908152602001600020600201819055506000600a6000838152602001908152602001600020600b0181905550808a73ffffffffffffffffffffffffffffffffffffffff16600073ffffffffffffffffffffffffffffffffffffffff167fddf252ad1be2c89b69c2b068fc378daa952ba7f163c4a11628f55a4df523b3ef60405160405180910390a450505050505050505050565b6000610cd282604051806060016040528060298152602001613b3f602991396003611bb09092919063ffffffff16565b9050919050565b6060600e8054600181600116156101000203166002900480601f016020809104026020016040519081016040528092919081815260200182805460018160011615610100020316600290048015610d715780601f10610d4657610100808354040283529160200191610d71565b820191906000526020600020905b815481529060010190602001808311610d5457829003601f168201915b5050505050905090565b60008073ffffffffffffffffffffffffffffffffffffffff168273ffffffffffffffffffffffffffffffffffffffff161415610dec576040517f08c379a0000000000000000000000000000000000000000000000000000000008152600401610de390613673565b60405180910390fd5b610e33600260008473ffffffffffffffffffffffffffffffffffffffff1673ffffffffffffffffffffffffffffffffffffffff168152602001908152602001600020611bcf565b9050919050565b600a60205280600052604060002060009150905080600001549080600101549080600201549080600301549080600401549080600701549080600801549080600901549080600a018054600181600116156101000203166002900480601f016020809104026020016040519081016040528092919081815260200182805460018160011615610100020316600290048015610f165780601f10610eeb57610100808354040283529160200191610f16565b820191906000526020600020905b815481529060010190602001808311610ef957829003601f168201915b50505050509080600b015490508a565b606060088054600181600116156101000203166002900480601f016020809104026020016040519081016040528092919081815260200182805460018160011615610100020316600290048015610fbe5780601f10610f9357610100808354040283529160200191610fbe565b820191906000526020600020905b815481529060010190602001808311610fa157829003601f168201915b5050505050905090565b610fd0611691565b73ffffffffffffffffffffffffffffffffffffffff168273ffffffffffffffffffffffffffffffffffffffff16141561103e576040517f08c379a0000000000000000000000000000000000000000000000000000000008152600401611035906135f3565b60405180910390fd5b806006600061104b611691565b73ffffffffffffffffffffffffffffffffffffffff1673ffffffffffffffffffffffffffffffffffffffff16815260200190815260200160002060008473ffffffffffffffffffffffffffffffffffffffff1673ffffffffffffffffffffffffffffffffffffffff16815260200190815260200160002060006101000a81548160ff0219169083151502179055508173ffffffffffffffffffffffffffffffffffffffff166110f8611691565b73ffffffffffffffffffffffffffffffffffffffff167f17307eab39ab6107e8899845ad3d59bd9653f200f220920489ca2b5937696c318360405161113d9190613516565b60405180910390a35050565b60105481565b61116061115a611691565b83611767565b61119f576040517f08c379a000000000000000000000000000000000000000000000000000000000815260040161119690613793565b60405180910390fd5b6111ab84848484611be4565b50505050565b3373ffffffffffffffffffffffffffffffffffffffff16600f60009054906101000a900473ffffffffffffffffffffffffffffffffffffffff1673ffffffffffffffffffffffffffffffffffffffff1614611241576040517f08c379a000000000000000000000000000000000000000000000000000000000815260040161123890613773565b60405180910390fd5b6000611264600a6000848152602001908152602001600020600b01546001611c40565b905082600a6000848152602001908152602001600020600c0160008381526020019081526020016000206000018190555042600a6000848152602001908152602001600020600c01600083815260200190815260200160002060020181905550600a600083815260200190815260200160002060010154600a6000848152602001908152602001600020600c01600083815260200190815260200160002060010181905550505050565b606061131982611674565b611358576040517f08c379a000000000000000000000000000000000000000000000000000000000815260040161134f90613733565b60405180910390fd5b6060600960008481526020019081526020016000208054600181600116156101000203166002900480601f0160208091040260200160405190810160405280929190818152602001828054600181600116156101000203166002900480156114015780601f106113d657610100808354040283529160200191611401565b820191906000526020600020905b8154815290600101906020018083116113e457829003601f168201915b505050505090506000600e80546001816001161561010002031660029004905014156114305780915050611519565b60008151111561146557600e8160405160200161144e92919061348b565b604051602081830303815290604052915050611519565b600e8373__Strings_______________________________636900a3ae90916040518263ffffffff1660e01b81526004016114a091906137ee565b60006040518083038186803b1580156114b857600080fd5b505af41580156114cc573d6000803e3d6000fd5b505050506040513d6000823e3d601f19601f820116820180604052508101906114f59190612abc565b60405160200161150692919061348b565b6040516020818303038152906040529150505b919050565b600c60009054906101000a900473ffffffffffffffffffffffffffffffffffffffff1681565b61154c612532565b600a6000838152602001908152602001600020600c0160008481526020019081526020016000206040518060600160405290816000820154815260200160018201548152602001600282015481525050905092915050565b600b81815481106115b157fe5b906000526020600020016000915054906101000a900473ffffffffffffffffffffffffffffffffffffffff1681565b6000600660008473ffffffffffffffffffffffffffffffffffffffff1673ffffffffffffffffffffffffffffffffffffffff16815260200190815260200160002060008373ffffffffffffffffffffffffffffffffffffffff1673ffffffffffffffffffffffffffffffffffffffff16815260200190815260200160002060009054906101000a900460ff16905092915050565b600061168a826003611c9590919063ffffffff16565b9050919050565b600033905090565b816005600083815260200190815260200160002060006101000a81548173ffffffffffffffffffffffffffffffffffffffff021916908373ffffffffffffffffffffffffffffffffffffffff160217905550808273ffffffffffffffffffffffffffffffffffffffff1661170c83610ca2565b73ffffffffffffffffffffffffffffffffffffffff167f8c5be1e5ebec7d5bd14f71427d1e84f3dd0314c0f7b2291e5b200ac8c7c3b92560405160405180910390a45050565b600061176082600001611caf565b9050919050565b600061177282611674565b6117b1576040517f08c379a00000000000000000000000000000000000000000000000000000000081526004016117a890613633565b60405180910390fd5b60006117bc83610ca2565b90508073ffffffffffffffffffffffffffffffffffffffff168473ffffffffffffffffffffffffffffffffffffffff16148061182b57508373ffffffffffffffffffffffffffffffffffffffff1661181384610630565b73ffffffffffffffffffffffffffffffffffffffff16145b8061183c575061183b81856115e0565b5b91505092915050565b8273ffffffffffffffffffffffffffffffffffffffff1661186582610ca2565b73ffffffffffffffffffffffffffffffffffffffff16146118bb576040517f08c379a00000000000000000000000000000000000000000000000000000000081526004016118b290613713565b60405180910390fd5b600073ffffffffffffffffffffffffffffffffffffffff168273ffffffffffffffffffffffffffffffffffffffff16141561192b576040517f08c379a0000000000000000000000000000000000000000000000000000000008152600401611922906135d3565b60405180910390fd5b611936838383611aa2565b611941600082611699565b61199281600260008673ffffffffffffffffffffffffffffffffffffffff1673ffffffffffffffffffffffffffffffffffffffff168152602001908152602001600020611cc090919063ffffffff16565b506119e481600260008573ffffffffffffffffffffffffffffffffffffffff1673ffffffffffffffffffffffffffffffffffffffff168152602001908152602001600020611aa790919063ffffffff16565b506119fb81836003611ac19092919063ffffffff16565b50808273ffffffffffffffffffffffffffffffffffffffff168473ffffffffffffffffffffffffffffffffffffffff167fddf252ad1be2c89b69c2b068fc378daa952ba7f163c4a11628f55a4df523b3ef60405160405180910390a4505050565b6000611a6b8360000183611cda565b60001c905092915050565b600080600080611a898660000186611d47565b915091508160001c8160001c9350935050509250929050565b505050565b6000611ab9836000018360001b611dca565b905092915050565b6000611aed846000018460001b8473ffffffffffffffffffffffffffffffffffffffff1660001b611e3a565b90509392505050565b600080831415611b095760009050611b60565b6000828402905082848281611b1a57fe5b0414611b5b576040517f08c379a0000000000000000000000000000000000000000000000000000000008152600401611b52906136d3565b60405180910390fd5b809150505b92915050565b6000611ba883836040518060400160405280601a81526020017f536166654d6174683a206469766973696f6e206279207a65726f000000000000815250611f16565b905092915050565b6000611bc3846000018460001b84611f77565b60001c90509392505050565b6000611bdd82600001612008565b9050919050565b611bef848484611845565b611bfb84848484612019565b611c3a576040517f08c379a0000000000000000000000000000000000000000000000000000000008152600401611c3190613573565b60405180910390fd5b50505050565b600080828401905083811015611c8b576040517f08c379a0000000000000000000000000000000000000000000000000000000008152600401611c82906135b3565b60405180910390fd5b8091505092915050565b6000611ca7836000018360001b61217d565b905092915050565b600081600001805490509050919050565b6000611cd2836000018360001b6121a0565b905092915050565b600081836000018054905011611d25576040517f08c379a0000000000000000000000000000000000000000000000000000000008152600401611d1c90613553565b60405180910390fd5b826000018281548110611d3457fe5b9060005260206000200154905092915050565b60008082846000018054905011611d93576040517f08c379a0000000000000000000000000000000000000000000000000000000008152600401611d8a90613693565b60405180910390fd5b6000846000018481548110611da457fe5b906000526020600020906002020190508060000154816001015492509250509250929050565b6000611dd68383612288565b611e2f578260000182908060018154018082558091505060019003906000526020600020016000909190919091505582600001805490508360010160008481526020019081526020016000208190555060019050611e34565b600090505b92915050565b6000808460010160008581526020019081526020016000205490506000811415611ee157846000016040518060400160405280868152602001858152509080600181540180825580915050600190039060005260206000209060020201600090919091909150600082015181600001556020820151816001015550508460000180549050856001016000868152602001908152602001600020819055506001915050611f0f565b82856000016001830381548110611ef457fe5b90600052602060002090600202016001018190555060009150505b9392505050565b60008083118290611f5d576040517f08c379a0000000000000000000000000000000000000000000000000000000008152600401611f549190613531565b60405180910390fd5b506000838581611f6957fe5b049050809150509392505050565b60008084600101600085815260200190815260200160002054905060008114158390611fd9576040517f08c379a0000000000000000000000000000000000000000000000000000000008152600401611fd09190613531565b60405180910390fd5b50846000016001820381548110611fec57fe5b9060005260206000209060020201600101549150509392505050565b600081600001805490509050919050565b600061203a8473ffffffffffffffffffffffffffffffffffffffff166122ab565b6120475760019050612175565b606061210e63150b7a0260e01b61205c611691565b88878760405160240161207294939291906134ca565b604051602081830303815290604052907bffffffffffffffffffffffffffffffffffffffffffffffffffffffff19166020820180517bffffffffffffffffffffffffffffffffffffffffffffffffffffffff8381831617835250505050604051806060016040528060328152602001613b0d603291398773ffffffffffffffffffffffffffffffffffffffff166122be9092919063ffffffff16565b90506000818060200190518101906121269190612a93565b905063150b7a0260e01b7bffffffffffffffffffffffffffffffffffffffffffffffffffffffff1916817bffffffffffffffffffffffffffffffffffffffffffffffffffffffff191614925050505b949350505050565b600080836001016000848152602001908152602001600020541415905092915050565b6000808360010160008481526020019081526020016000205490506000811461227c57600060018203905060006001866000018054905003905060008660000182815481106121eb57fe5b906000526020600020015490508087600001848154811061220857fe5b906000526020600020018190555060018301876001016000838152602001908152602001600020819055508660000180548061224057fe5b60019003818190600052602060002001600090559055866001016000878152602001908152602001600020600090556001945050505050612282565b60009150505b92915050565b600080836001016000848152602001908152602001600020541415905092915050565b600080823b905060008111915050919050565b60606122cd84846000856122d6565b90509392505050565b60608247101561231b576040517f08c379a000000000000000000000000000000000000000000000000000000000815260040161231290613613565b60405180910390fd5b612324856122ab565b612363576040517f08c379a000000000000000000000000000000000000000000000000000000000815260040161235a906137b3565b60405180910390fd5b600060608673ffffffffffffffffffffffffffffffffffffffff16858760405161238d9190613474565b60006040518083038185875af1925050503d80600081146123ca576040519150601f19603f3d011682016040523d82523d6000602084013e6123cf565b606091505b50915091506123df8282866123eb565b92505050949350505050565b606083156123fb5782905061244b565b60008351111561240e5782518084602001fd5b816040517f08c379a00000000000000000000000000000000000000000000000000000000081526004016124429190613531565b60405180910390fd5b9392505050565b8280548282559060005260206000209081019282156124a1579160200282015b828111156124a05782518290805190602001906124909291906124b2565b5091602001919060010190612472565b5b5090506124ae9190612553565b5090565b828054600181600116156101000203166002900490600052602060002090601f016020900481019282601f106124f357805160ff1916838001178555612521565b82800160010185558215612521579182015b82811115612520578251825591602001919060010190612505565b5b50905061252e9190612577565b5090565b60405180606001604052806000815260200160008152602001600081525090565b5b80821115612573576000818161256a9190612594565b50600101612554565b5090565b5b80821115612590576000816000905550600101612578565b5090565b50805460018160011615610100020316600290046000825580601f106125ba57506125d9565b601f0160209004906000526020600020908101906125d89190612577565b5b50565b6000813590506125eb81613ab0565b92915050565b600082601f83011261260257600080fd5b8135612615612610826138f4565b6138c7565b9150818183526020840193506020810190508360005b8381101561265b578135860161264188826126f8565b84526020840193506020830192505060018101905061262b565b5050505092915050565b60008135905061267481613ac7565b92915050565b60008135905061268981613ade565b92915050565b60008151905061269e81613ade565b92915050565b600082601f8301126126b557600080fd5b81356126c86126c38261391c565b6138c7565b915080825260208301602083018583830111156126e457600080fd5b6126ef838284613a5d565b50505092915050565b600082601f83011261270957600080fd5b813561271c61271782613948565b6138c7565b9150808252602083016020830185838301111561273857600080fd5b612743838284613a5d565b50505092915050565b600082601f83011261275d57600080fd5b815161277061276b82613948565b6138c7565b9150808252602083016020830185838301111561278c57600080fd5b612797838284613a6c565b50505092915050565b6000813590506127af81613af5565b92915050565b6000602082840312156127c757600080fd5b60006127d5848285016125dc565b91505092915050565b600080604083850312156127f157600080fd5b60006127ff858286016125dc565b9250506020612810858286016125dc565b9150509250929050565b60008060006060848603121561282f57600080fd5b600061283d868287016125dc565b935050602061284e868287016125dc565b925050604061285f868287016127a0565b9150509250925092565b6000806000806080858703121561287f57600080fd5b600061288d878288016125dc565b945050602061289e878288016125dc565b93505060406128af878288016127a0565b925050606085013567ffffffffffffffff8111156128cc57600080fd5b6128d8878288016126a4565b91505092959194509250565b600080604083850312156128f757600080fd5b6000612905858286016125dc565b925050602061291685828601612665565b9150509250929050565b6000806040838503121561293357600080fd5b6000612941858286016125dc565b9250506020612952858286016127a0565b9150509250929050565b60008060008060008060008060006101208a8c03121561297b57600080fd5b60006129898c828d016125dc565b995050602061299a8c828d016127a0565b98505060406129ab8c828d016127a0565b97505060608a013567ffffffffffffffff8111156129c857600080fd5b6129d48c828d016125f1565b96505060808a013567ffffffffffffffff8111156129f157600080fd5b6129fd8c828d016125f1565b95505060a0612a0e8c828d016127a0565b94505060c0612a1f8c828d016127a0565b93505060e0612a308c828d016127a0565b9250506101008a013567ffffffffffffffff811115612a4e57600080fd5b612a5a8c828d016126f8565b9150509295985092959850929598565b600060208284031215612a7c57600080fd5b6000612a8a8482850161267a565b91505092915050565b600060208284031215612aa557600080fd5b6000612ab38482850161268f565b91505092915050565b600060208284031215612ace57600080fd5b600082015167ffffffffffffffff811115612ae857600080fd5b612af48482850161274c565b91505092915050565b600060208284031215612b0f57600080fd5b6000612b1d848285016127a0565b91505092915050565b60008060408385031215612b3957600080fd5b6000612b47858286016127a0565b9250506020612b58858286016127a0565b9150509250929050565b612b6b816139e9565b82525050565b612b7a816139d7565b82525050565b612b89816139fb565b82525050565b6000612b9a82613989565b612ba4818561399f565b9350612bb4818560208601613a6c565b612bbd81613a9f565b840191505092915050565b6000612bd382613989565b612bdd81856139b0565b9350612bed818560208601613a6c565b80840191505092915050565b6000612c0482613994565b612c0e81856139bb565b9350612c1e818560208601613a6c565b612c2781613a9f565b840191505092915050565b6000612c3d82613994565b612c4781856139cc565b9350612c57818560208601613a6c565b80840191505092915050565b600081546001811660008114612c805760018114612ca557612ce9565b607f6002830416612c9181876139cc565b955060ff1983168652808601935050612ce9565b60028204612cb381876139cc565b9550612cbe85613974565b60005b82811015612ce057815481890152600182019150602081019050612cc1565b82880195505050505b505092915050565b6000612cfe6022836139bb565b91507f456e756d657261626c655365743a20696e646578206f7574206f6620626f756e60008301527f64730000000000000000000000000000000000000000000000000000000000006020830152604082019050919050565b6000612d646032836139bb565b91507f4552433732313a207472616e7366657220746f206e6f6e20455243373231526560008301527f63656976657220696d706c656d656e74657200000000000000000000000000006020830152604082019050919050565b6000612dca601c836139bb565b91507f4552433732313a20746f6b656e20616c7265616479206d696e746564000000006000830152602082019050919050565b6000612e0a601b836139bb565b91507f536166654d6174683a206164646974696f6e206f766572666c6f7700000000006000830152602082019050919050565b6000612e4a6024836139bb565b91507f4552433732313a207472616e7366657220746f20746865207a65726f2061646460008301527f72657373000000000000000000000000000000000000000000000000000000006020830152604082019050919050565b6000612eb06019836139bb565b91507f4552433732313a20617070726f766520746f2063616c6c6572000000000000006000830152602082019050919050565b6000612ef06026836139bb565b91507f416464726573733a20696e73756666696369656e742062616c616e636520666f60008301527f722063616c6c00000000000000000000000000000000000000000000000000006020830152604082019050919050565b6000612f56602c836139bb565b91507f4552433732313a206f70657261746f7220717565727920666f72206e6f6e657860008301527f697374656e7420746f6b656e00000000000000000000000000000000000000006020830152604082019050919050565b6000612fbc6038836139bb565b91507f4552433732313a20617070726f76652063616c6c6572206973206e6f74206f7760008301527f6e6572206e6f7220617070726f76656420666f7220616c6c00000000000000006020830152604082019050919050565b6000613022602a836139bb565b91507f4552433732313a2062616c616e636520717565727920666f7220746865207a6560008301527f726f2061646472657373000000000000000000000000000000000000000000006020830152604082019050919050565b60006130886022836139bb565b91507f456e756d657261626c654d61703a20696e646578206f7574206f6620626f756e60008301527f64730000000000000000000000000000000000000000000000000000000000006020830152604082019050919050565b60006130ee6020836139bb565b91507f4552433732313a206d696e7420746f20746865207a65726f20616464726573736000830152602082019050919050565b600061312e6021836139bb565b91507f536166654d6174683a206d756c7469706c69636174696f6e206f766572666c6f60008301527f77000000000000000000000000000000000000000000000000000000000000006020830152604082019050919050565b6000613194602c836139bb565b91507f4552433732313a20617070726f76656420717565727920666f72206e6f6e657860008301527f697374656e7420746f6b656e00000000000000000000000000000000000000006020830152604082019050919050565b60006131fa6029836139bb565b91507f4552433732313a207472616e73666572206f6620746f6b656e2074686174206960008301527f73206e6f74206f776e00000000000000000000000000000000000000000000006020830152604082019050919050565b6000613260602f836139bb565b91507f4552433732314d657461646174613a2055524920717565727920666f72206e6f60008301527f6e6578697374656e7420746f6b656e00000000000000000000000000000000006020830152604082019050919050565b60006132c66021836139bb565b91507f4552433732313a20617070726f76616c20746f2063757272656e74206f776e6560008301527f72000000000000000000000000000000000000000000000000000000000000006020830152604082019050919050565b600061332c6011836139bb565b91507f556e617574686f72697a656420557365720000000000000000000000000000006000830152602082019050919050565b600061336c6031836139bb565b91507f4552433732313a207472616e736665722063616c6c6572206973206e6f74206f60008301527f776e6572206e6f7220617070726f7665640000000000000000000000000000006020830152604082019050919050565b60006133d2601d836139bb565b91507f416464726573733a2063616c6c20746f206e6f6e2d636f6e74726163740000006000830152602082019050919050565b60608201600082015161341b6000850182613447565b50602082015161342e6020850182613447565b5060408201516134416040850182613447565b50505050565b61345081613a53565b82525050565b61345f81613a53565b82525050565b61346e81613a53565b82525050565b60006134808284612bc8565b915081905092915050565b60006134978285612c63565b91506134a38284612c32565b91508190509392505050565b60006020820190506134c46000830184612b71565b92915050565b60006080820190506134df6000830187612b62565b6134ec6020830186612b71565b6134f96040830185613456565b818103606083015261350b8184612b8f565b905095945050505050565b600060208201905061352b6000830184612b80565b92915050565b6000602082019050818103600083015261354b8184612bf9565b905092915050565b6000602082019050818103600083015261356c81612cf1565b9050919050565b6000602082019050818103600083015261358c81612d57565b9050919050565b600060208201905081810360008301526135ac81612dbd565b9050919050565b600060208201905081810360008301526135cc81612dfd565b9050919050565b600060208201905081810360008301526135ec81612e3d565b9050919050565b6000602082019050818103600083015261360c81612ea3565b9050919050565b6000602082019050818103600083015261362c81612ee3565b9050919050565b6000602082019050818103600083015261364c81612f49565b9050919050565b6000602082019050818103600083015261366c81612faf565b9050919050565b6000602082019050818103600083015261368c81613015565b9050919050565b600060208201905081810360008301526136ac8161307b565b9050919050565b600060208201905081810360008301526136cc816130e1565b9050919050565b600060208201905081810360008301526136ec81613121565b9050919050565b6000602082019050818103600083015261370c81613187565b9050919050565b6000602082019050818103600083015261372c816131ed565b9050919050565b6000602082019050818103600083015261374c81613253565b9050919050565b6000602082019050818103600083015261376c816132b9565b9050919050565b6000602082019050818103600083015261378c8161331f565b9050919050565b600060208201905081810360008301526137ac8161335f565b9050919050565b600060208201905081810360008301526137cc816133c5565b9050919050565b60006060820190506137e86000830184613405565b92915050565b60006020820190506138036000830184613465565b92915050565b600060208201905061381e6000830184613456565b92915050565b60006101408201905061383a600083018d613456565b613847602083018c613456565b613854604083018b613456565b613861606083018a613456565b61386e6080830189613456565b61387b60a0830188613456565b61388860c0830187613456565b61389560e0830186613456565b8181036101008301526138a88185612bf9565b90506138b8610120830184613456565b9b9a5050505050505050505050565b6000604051905081810181811067ffffffffffffffff821117156138ea57600080fd5b8060405250919050565b600067ffffffffffffffff82111561390b57600080fd5b602082029050602081019050919050565b600067ffffffffffffffff82111561393357600080fd5b601f19601f8301169050602081019050919050565b600067ffffffffffffffff82111561395f57600080fd5b601f19601f8301169050602081019050919050565b60008190508160005260206000209050919050565b600081519050919050565b600081519050919050565b600082825260208201905092915050565b600081905092915050565b600082825260208201905092915050565b600081905092915050565b60006139e282613a33565b9050919050565b60006139f482613a33565b9050919050565b60008115159050919050565b60007fffffffff0000000000000000000000000000000000000000000000000000000082169050919050565b600073ffffffffffffffffffffffffffffffffffffffff82169050919050565b6000819050919050565b82818337600083830152505050565b60005b83811015613a8a578082015181840152602081019050613a6f565b83811115613a99576000848401525b50505050565b6000601f19601f8301169050919050565b613ab9816139d7565b8114613ac457600080fd5b50565b613ad0816139fb565b8114613adb57600080fd5b50565b613ae781613a07565b8114613af257600080fd5b50565b613afe81613a53565b8114613b0957600080fd5b5056fe4552433732313a207472616e7366657220746f206e6f6e20455243373231526563656976657220696d706c656d656e7465724552433732313a206f776e657220717565727920666f72206e6f6e6578697374656e7420746f6b656ea26469706673582212201d63154fe28636b532021567c109fdb08818f66ed3ce781dadc2f9e3733aa3a164736f6c634300060c0033",
  "immutableReferences": {},
  "source": "// SPDX-License-Identifier: MIT\r\npragma solidity ^0.6.12;\r\npragma experimental ABIEncoderV2;\r\n\r\nimport \"./Context.sol\";\r\nimport \"./IERC721.sol\";\r\nimport \"./IERC721Metadata.sol\";\r\nimport \"./IERC721Enumerable.sol\";\r\nimport \"./IERC721Receiver.sol\";\r\nimport \"./ERC165.sol\";\r\nimport \"./SafeMath.sol\";\r\nimport \"./Address.sol\";\r\nimport \"./EnumerableSet.sol\";\r\nimport \"./EnumerableMap.sol\";\r\nimport \"./Strings.sol\";\r\n\r\n/**\r\n * @title ERC721 Non-Fungible Token Standard basic implementation\r\n * @dev see https://eips.ethereum.org/EIPS/eip-721\r\n */\r\ncontract ERC721 is Context, ERC165, IERC721, IERC721Metadata, IERC721Enumerable {\r\n    using SafeMath for uint256;\r\n    using Address for address;\r\n    using EnumerableSet for EnumerableSet.UintSet;\r\n    using EnumerableMap for EnumerableMap.UintToAddressMap;\r\n    using Strings for uint256;\r\n    \r\n    event Transfer(address indexed from, address indexed to, uint256 indexed tokenId);\r\n    \r\n    uint256 _id = 1;\r\n\r\n    // Equals to `bytes4(keccak256(\"onERC721Received(address,address,uint256,bytes)\"))`\r\n    // which can be also obtained as `IERC721Receiver(0).onERC721Received.selector`\r\n    bytes4 private constant _ERC721_RECEIVED = 0x150b7a02;\r\n\r\n    // Mapping from holder address to their (enumerable) set of owned tokens\r\n    mapping (address => EnumerableSet.UintSet) private _holderTokens;\r\n\r\n    // Enumerable mapping from token ids to their owners\r\n    EnumerableMap.UintToAddressMap private _tokenOwners;\r\n\r\n    // Mapping from token ID to approved address\r\n    mapping (uint256 => address) private _tokenApprovals;\r\n\r\n    // Mapping from owner to operator approvals\r\n    mapping (address => mapping (address => bool)) private _operatorApprovals;\r\n\r\n    // Token name\r\n    string private _name;\r\n\r\n    // Token symbol\r\n    string private _symbol;\r\n\r\n    // Optional mapping for token URIs\r\n    mapping (uint256 => string) private _tokenURIs;\r\n    \r\n    // Adding metaData to the property\r\n    \r\n    struct _IssuanceDetail{\r\n        uint256 tokesIssued;\r\n    }\r\n    \r\n    // Metadata values\r\n    \r\n    // Struct for Issuance propertyDetails\r\n    \r\n    struct issuanceDetail {\r\n        \r\n        uint256 propertyTokensIssued;\r\n        uint256 valueAtIssuance;\r\n        uint256  timeStamp;\r\n        \r\n    }\r\n    \r\n    \r\n    struct propertyDetail  {\r\n        \r\n        uint256 originalValue;\r\n        uint256 currentValue;\r\n        uint256 originalIssuanceRate;\r\n        uint256 totalCurrentValue;\r\n        uint256 variation;\r\n        string[] propertyImageHash;\r\n        string[] Address;\r\n        uint256 Tax;\r\n        uint256 Insurance;\r\n        uint256 Maintenance;\r\n        string propertyFeatures;\r\n        uint NoOfIssuance;\r\n        mapping(uint256 => issuanceDetail ) issuanceDetails;\r\n        \r\n    }\r\n    \r\n    \r\n    mapping(uint256 => propertyDetail) public propertyDetails;\r\n    \r\n    \r\n    \r\n    address[] public EligibleEmp;\r\n    address public contractOwner;\r\n    uint256 nftPrice;\r\n    // mapping(uint256 => Prop_Value_Details) public prop;\r\n\r\n    // Base URI\r\n    string private _baseURI;\r\n\r\n    /*\r\n     *     bytes4(keccak256('balanceOf(address)')) == 0x70a08231\r\n     *     bytes4(keccak256('ownerOf(uint256)')) == 0x6352211e\r\n     *     bytes4(keccak256('approve(address,uint256)')) == 0x095ea7b3\r\n     *     bytes4(keccak256('getApproved(uint256)')) == 0x081812fc\r\n     *     bytes4(keccak256('setApprovalForAll(address,bool)')) == 0xa22cb465\r\n     *     bytes4(keccak256('isApprovedForAll(address,address)')) == 0xe985e9c5\r\n     *     bytes4(keccak256('transferFrom(address,address,uint256)')) == 0x23b872dd\r\n     *     bytes4(keccak256('safeTransferFrom(address,address,uint256)')) == 0x42842e0e\r\n     *     bytes4(keccak256('safeTransferFrom(address,address,uint256,bytes)')) == 0xb88d4fde\r\n     *\r\n     *     => 0x70a08231 ^ 0x6352211e ^ 0x095ea7b3 ^ 0x081812fc ^\r\n     *        0xa22cb465 ^ 0xe985e9c5 ^ 0x23b872dd ^ 0x42842e0e ^ 0xb88d4fde == 0x80ac58cd\r\n     */\r\n    bytes4 private constant _INTERFACE_ID_ERC721 = 0x80ac58cd;\r\n\r\n    /*\r\n     *     bytes4(keccak256('name()')) == 0x06fdde03\r\n     *     bytes4(keccak256('symbol()')) == 0x95d89b41\r\n     *     bytes4(keccak256('tokenURI(uint256)')) == 0xc87b56dd\r\n     *\r\n     *     => 0x06fdde03 ^ 0x95d89b41 ^ 0xc87b56dd == 0x5b5e139f\r\n     */\r\n    bytes4 private constant _INTERFACE_ID_ERC721_METADATA = 0x5b5e139f;\r\n\r\n    /*\r\n     *     bytes4(keccak256('totalSupply()')) == 0x18160ddd\r\n     *     bytes4(keccak256('tokenOfOwnerByIndex(address,uint256)')) == 0x2f745c59\r\n     *     bytes4(keccak256('tokenByIndex(uint256)')) == 0x4f6ccce7\r\n     *\r\n     *     => 0x18160ddd ^ 0x2f745c59 ^ 0x4f6ccce7 == 0x780e9d63\r\n     */\r\n    bytes4 private constant _INTERFACE_ID_ERC721_ENUMERABLE = 0x780e9d63;\r\n    \r\n    // Address of the contract owner\r\n    \r\n    address public _contractOwner;\r\n\r\n    /**\r\n     * @dev Initializes the contract by setting a `name` and a `symbol` to the token collection.\r\n     */\r\n    constructor (string memory name, string memory symbol ) public {\r\n        _name = name;\r\n        _symbol = symbol;\r\n        _contractOwner = msg.sender;\r\n        \r\n        \r\n\r\n    \r\n        \r\n\r\n        // register the supported interfaces to conform to ERC721 via ERC165\r\n        _registerInterface(_INTERFACE_ID_ERC721);\r\n        _registerInterface(_INTERFACE_ID_ERC721_METADATA);\r\n        _registerInterface(_INTERFACE_ID_ERC721_ENUMERABLE);\r\n    }\r\n\r\n    /**\r\n     * @dev See {IERC721-balanceOf}.\r\n     */\r\n    function balanceOf(address owner) public view override returns (uint256) {\r\n        require(owner != address(0), \"ERC721: balance query for the zero address\");\r\n\r\n        return _holderTokens[owner].length();\r\n    }\r\n\r\n    /**\r\n     * @dev See {IERC721-ownerOf}.\r\n     */\r\n    function ownerOf(uint256 tokenId) public view override returns (address) {\r\n        return _tokenOwners.get(tokenId, \"ERC721: owner query for nonexistent token\");\r\n    }\r\n\r\n    /**\r\n     * @dev See {IERC721Metadata-name}.\r\n     */\r\n    function name() public view override returns (string memory) {\r\n        return _name;\r\n    }\r\n\r\n    /**\r\n     * @dev See {IERC721Metadata-symbol}.\r\n     */\r\n    function symbol() public view override returns (string memory) {\r\n        return _symbol;\r\n    }\r\n\r\n    /**\r\n     * @dev See {IERC721Metadata-tokenURI}.\r\n     */\r\n    function tokenURI(uint256 tokenId) public view override returns (string memory) {\r\n        require(_exists(tokenId), \"ERC721Metadata: URI query for nonexistent token\");\r\n\r\n        string memory _tokenURI = _tokenURIs[tokenId];\r\n\r\n        // If there is no base URI, return the token URI.\r\n        if (bytes(_baseURI).length == 0) {\r\n            return _tokenURI;\r\n        }\r\n        // If both are set, concatenate the baseURI and tokenURI (via abi.encodePacked).\r\n        if (bytes(_tokenURI).length > 0) {\r\n            return string(abi.encodePacked(_baseURI, _tokenURI));\r\n        }\r\n        // If there is a baseURI but no tokenURI, concatenate the tokenID to the baseURI.\r\n        return string(abi.encodePacked(_baseURI, tokenId.toString()));\r\n    }\r\n\r\n    /**\r\n    * @dev Returns the base URI set via {_setBaseURI}. This will be\r\n    * automatically added as a prefix in {tokenURI} to each token's URI, or\r\n    * to the token ID if no specific URI is set for that token ID.\r\n    */\r\n    function baseURI() public view returns (string memory) {\r\n        return _baseURI;\r\n    }\r\n\r\n    /**  \r\n     * @dev See {IERC721Enumerable-tokenOfOwnerByIndex}.\r\n     */\r\n    function tokenOfOwnerByIndex(address owner, uint256 index) public view override returns (uint256) {\r\n        return _holderTokens[owner].at(index);\r\n    }\r\n\r\n    /**\r\n     * @dev See {IERC721Enumerable-totalSupply}.\r\n     */\r\n    function totalSupply() public view override returns (uint256) {\r\n        // _tokenOwners are indexed by tokenIds, so .length() returns the number of tokenIds\r\n        return _tokenOwners.length();\r\n    }\r\n\r\n    /**\r\n     * @dev See {IERC721Enumerable-tokenByIndex}.\r\n     */\r\n    function tokenByIndex(uint256 index) public view override returns (uint256) {\r\n        (uint256 tokenId, ) = _tokenOwners.at(index);\r\n        return tokenId;\r\n    }\r\n\r\n    /**\r\n     * @dev See {IERC721-approve}.\r\n     */\r\n    function approve(address to, uint256 tokenId) public virtual override {\r\n        address owner = ownerOf(tokenId);\r\n        require(to != owner, \"ERC721: approval to current owner\");\r\n\r\n        require(_msgSender() == owner || isApprovedForAll(owner, _msgSender()),\r\n            \"ERC721: approve caller is not owner nor approved for all\"\r\n        );\r\n\r\n        _approve(to, tokenId);\r\n    }\r\n\r\n    /**\r\n     * @dev See {IERC721-getApproved}.\r\n     */\r\n    function getApproved(uint256 tokenId) public view override returns (address) {\r\n        require(_exists(tokenId), \"ERC721: approved query for nonexistent token\");\r\n\r\n        return _tokenApprovals[tokenId];\r\n    }\r\n\r\n    /**\r\n     * @dev See {IERC721-setApprovalForAll}.\r\n     */\r\n    function setApprovalForAll(address operator, bool approved) public virtual override {\r\n        require(operator != _msgSender(), \"ERC721: approve to caller\");\r\n\r\n        _operatorApprovals[_msgSender()][operator] = approved;\r\n        emit ApprovalForAll(_msgSender(), operator, approved);\r\n    }\r\n\r\n    /**\r\n     * @dev See {IERC721-isApprovedForAll}.\r\n     */\r\n    function isApprovedForAll(address owner, address operator) public view override returns (bool) {\r\n        return _operatorApprovals[owner][operator];\r\n    }\r\n\r\n    /**\r\n     * @dev See {IERC721-transferFrom}.\r\n     */\r\n    function transferFrom(address from, address to, uint256 tokenId) public virtual override {\r\n        //solhint-disable-next-line max-line-length\r\n        require(_isApprovedOrOwner(_msgSender(), tokenId), \"ERC721: transfer caller is not owner nor approved\");\r\n\r\n        _transfer(from, to, tokenId);\r\n    }\r\n\r\n    /**\r\n     * @dev See {IERC721-safeTransferFrom}.\r\n     */\r\n    function safeTransferFrom(address from, address to, uint256 tokenId) public virtual override {\r\n        safeTransferFrom(from, to, tokenId, \"\");\r\n    }\r\n\r\n    /**\r\n     * @dev See {IERC721-safeTransferFrom}.\r\n     */\r\n    function safeTransferFrom(address from, address to, uint256 tokenId, bytes memory _data) public virtual override {\r\n        require(_isApprovedOrOwner(_msgSender(), tokenId), \"ERC721: transfer caller is not owner nor approved\");\r\n        _safeTransfer(from, to, tokenId, _data);\r\n    }\r\n\r\n    /**\r\n     * @dev Safely transfers `tokenId` token from `from` to `to`, checking first that contract recipients\r\n     * are aware of the ERC721 protocol to prevent tokens from being forever locked.\r\n     *\r\n     * `_data` is additional data, it has no specified format and it is sent in call to `to`.\r\n     *\r\n     * This internal function is equivalent to {safeTransferFrom}, and can be used to e.g.\r\n     * implement alternative mechanisms to perform token transfer, such as signature-based.\r\n     *\r\n     * Requirements:\r\n     *\r\n     * - `from` cannot be the zero address.\r\n     * - `to` cannot be the zero address.\r\n     * - `tokenId` token must exist and be owned by `from`.\r\n     * - If `to` refers to a smart contract, it must implement {IERC721Receiver-onERC721Received}, which is called upon a safe transfer.\r\n     *\r\n     * Emits a {Transfer} event.\r\n     */\r\n    function _safeTransfer(address from, address to, uint256 tokenId, bytes memory _data) internal virtual {\r\n        _transfer(from, to, tokenId);\r\n        require(_checkOnERC721Received(from, to, tokenId, _data), \"ERC721: transfer to non ERC721Receiver implementer\");\r\n    }\r\n\r\n    /**\r\n     * @dev Returns whether `tokenId` exists.\r\n     *\r\n     * Tokens can be managed by their owner or approved accounts via {approve} or {setApprovalForAll}.\r\n     *\r\n     * Tokens start existing when they are minted (`_mint`),\r\n     * and stop existing when they are burned (`_burn`).\r\n     */\r\n    function _exists(uint256 tokenId) internal view returns (bool) {\r\n        return _tokenOwners.contains(tokenId);\r\n    }\r\n\r\n    /**\r\n     * @dev Returns whether `spender` is allowed to manage `tokenId`.\r\n     *\r\n     * Requirements:\r\n     *\r\n     * - `tokenId` must exist.\r\n     */\r\n    function _isApprovedOrOwner(address spender, uint256 tokenId) internal view returns (bool) {\r\n        require(_exists(tokenId), \"ERC721: operator query for nonexistent token\");\r\n        address owner = ownerOf(tokenId);\r\n        return (spender == owner || getApproved(tokenId) == spender || isApprovedForAll(owner, spender));\r\n    }\r\n\r\n    /**\r\n     * @dev Safely mints `tokenId` and transfers it to `to`.\r\n     *\r\n     * Requirements:\r\n     d*\r\n     * - `tokenId` must not exist.\r\n     * - If `to` refers to a smart contract, it must implement {IERC721Receiver-onERC721Received}, which is called upon a safe transfer.\r\n     *\r\n     * Emits a {Transfer} event.\r\n     */\r\n    // function _safeMint(address to, uint256 tokenId, uint OrginalValue) internal virtual {\r\n    //     _safeMint(to, tokenId, OrginalValue);\r\n    // }\r\n\r\n    /**\r\n     * @dev Same as {xref-ERC721-_safeMint-address-uint256-}[`_safeMint`], with an additional `data` parameter which is\r\n     * forwarded in {IERC721Receiver-onERC721Received} to contract recipients.\r\n     */\r\n    // function _safeMint(address to, uint256 tokenId, bytes memory _data, uint OrginalValue) internal virtual {\r\n    //     _mint(to, tokenId,origVal,currVal,date,coins,property_images,pro_add_details,prop_tax,prop_insurance,prop_maintainence,features_prop);\r\n    //     require(_checkOnERC721Received(address(0), to, tokenId, _data), \"ERC721: transfer to non ERC721Receiver implementer\");\r\n    // }\r\n\r\n    /**\r\n     * @dev Mints `tokenId` and transfers it to `to`.\r\n     *\r\n     * WARNING: Usage of this method is discouraged, use {_safeMint} whenever possible\r\n     *\r\n     * Requirements:\r\n     *\r\n     * - `tokenId` must not exist.\r\n     * - `to` cannot be the zero address.\r\n     *\r\n     * Emits a {Transfer} event.\r\n     */\r\n     \r\n     uint256 public OIR ;\r\n    function _mint(address owner,uint256 origVal,uint256 coins,\r\n                                     string[] memory property_images,\r\n                                     string[] memory pro_add_details,\r\n                                     uint prop_tax,\r\n                                     uint prop_insurance,\r\n                                     uint prop_maintainence,\r\n                                     string memory features_prop) public override{\r\n                                         \r\n                                     uint256 tokenId = _id;\r\n                                        _id++;\r\n        require(owner != address(0), \"ERC721: mint to the zero address\");\r\n        require(!_exists(tokenId), \"ERC721: token already minted\");\r\n\r\n        _beforeTokenTransfer(address(0), owner, tokenId);\r\n\r\n        _holderTokens[owner].add(tokenId);\r\n\r\n        _tokenOwners.set(tokenId, owner);\r\n        \r\n        propertyDetails[tokenId].originalValue = origVal;\r\n        propertyDetails[tokenId].currentValue = origVal;\r\n        propertyDetails[tokenId].originalIssuanceRate = (coins.mul(100)).div(origVal);\r\n        propertyDetails[tokenId].propertyImageHash = property_images;\r\n        propertyDetails[tokenId].Address = pro_add_details;\r\n        propertyDetails[tokenId].Tax = prop_tax;\r\n        propertyDetails[tokenId].Insurance = prop_insurance;\r\n        propertyDetails[tokenId].Maintenance = prop_maintainence;\r\n        propertyDetails[tokenId].propertyFeatures = features_prop;\r\n        propertyDetails[tokenId].issuanceDetails[0].propertyTokensIssued = origVal;\r\n        propertyDetails[tokenId].issuanceDetails[0].valueAtIssuance = origVal;\r\n        propertyDetails[tokenId].issuanceDetails[0].timeStamp = now;\r\n        propertyDetails[tokenId].NoOfIssuance= 0;\r\n        \r\n        \r\n        emit Transfer(address(0), owner , tokenId);\r\n        \r\n    }\r\n    \r\n  function _getValues(uint256 id, uint256 TokenId) public view returns( issuanceDetail memory){\r\n      \r\n      return propertyDetails[TokenId].issuanceDetails[id];\r\n      \r\n  }\r\n  \r\n  \r\n  // This fucntions enables isssunace of second set of token;\r\n  \r\n  function _isssueToken(uint256 Tokenvalue, uint256 TokenId) public{\r\n      \r\n      require(_contractOwner == msg.sender, \"Unauthorized User\");\r\n       uint256 index = SafeMath.add(propertyDetails[TokenId].NoOfIssuance, 1);\r\n      propertyDetails[TokenId].issuanceDetails[index].propertyTokensIssued = Tokenvalue;\r\n      propertyDetails[TokenId].issuanceDetails[index].timeStamp = now;\r\n      propertyDetails[TokenId].issuanceDetails[index].valueAtIssuance = propertyDetails[TokenId].currentValue;\r\n      \r\n  }\r\n  \r\n    \r\n    // function checkmath() public returns (uint256) {\r\n        \r\n    //     uint256 Value1 = 10000;\r\n    //     uint256 Value2 = 256;\r\n        \r\n    //     uint256 Value3 = SafeMath.div(Value1, Value2);\r\n        \r\n    //     return Value3;\r\n        \r\n    // }\r\n\r\n    /**\r\n     * @dev Destroys `tokenId`.\r\n     * The approval is cleared when the token is burned.\r\n     *\r\n     * Requirements:\r\n     *\r\n     * - `tokenId` must exist.\r\n     *\r\n     * Emits a {Transfer} event.\r\n     */\r\n    function _burn(uint256 tokenId) internal virtual {\r\n        address owner = ownerOf(tokenId);\r\n\r\n        _beforeTokenTransfer(owner, address(0), tokenId);\r\n\r\n        // Clear approvals\r\n        _approve(address(0), tokenId);\r\n\r\n\r\n\r\n        // Clear metadata (if any)\r\n        if (bytes(_tokenURIs[tokenId]).length != 0) {\r\n            delete _tokenURIs[tokenId];\r\n        }\r\n\r\n        _holderTokens[owner].remove(tokenId);\r\n\r\n        _tokenOwners.remove(tokenId);\r\n\r\n        emit Transfer(owner, address(0), tokenId);\r\n    }\r\n\r\n    /**\r\n     * @dev Transfers `tokenId` from `from` to `to`.\r\n     *  As opposed to {transferFrom}, this imposes no restrictions on msg.sender.\r\n     *\r\n     * Requirements:\r\n     *\r\n     * - `to` cannot be the zero address.\r\n     * - `tokenId` token must be owned by `from`.\r\n     *\r\n     * Emits a {Transfer} event.\r\n     */\r\n    function _transfer(address from, address to, uint256 tokenId) internal virtual {\r\n        require(ownerOf(tokenId) == from, \"ERC721: transfer of token that is not own\");\r\n        require(to != address(0), \"ERC721: transfer to the zero address\");\r\n\r\n        _beforeTokenTransfer(from, to, tokenId);\r\n\r\n        // Clear approvals from the previous owner\r\n        _approve(address(0), tokenId);\r\n\r\n        _holderTokens[from].remove(tokenId);\r\n        _holderTokens[to].add(tokenId);\r\n\r\n        _tokenOwners.set(tokenId, to);\r\n\r\n        emit Transfer(from, to, tokenId);\r\n    }\r\n\r\n    /**\r\n     * @dev Sets `_tokenURI` as the tokenURI of `tokenId`.\r\n     *\r\n     * Requirements:\r\n     *\r\n     * - `tokenId` must exist.\r\n     */\r\n    function _setTokenURI(uint256 tokenId, string memory _tokenURI) internal virtual {\r\n        require(_exists(tokenId), \"ERC721Metadata: URI set of nonexistent token\");\r\n        _tokenURIs[tokenId] = _tokenURI;\r\n    }\r\n\r\n    /**\r\n     * @dev Internal function to set the base URI for all token IDs. It is\r\n     * automatically added as a prefix to the value returned in {tokenURI},\r\n     * or to the token ID if {tokenURI} is empty.\r\n     */\r\n    function _setBaseURI(string memory baseURI_) internal virtual {\r\n        _baseURI = baseURI_;\r\n    }\r\n\r\n    /**\r\n     * @dev Internal function to invoke {IERC721Receiver-onERC721Received} on a target address.\r\n     * The call is not executed if the target address is not a contract.\r\n     *\r\n     * @param from address representing the previous owner of the given token ID\r\n     * @param to target address that will receive the tokens\r\n     * @param tokenId uint256 ID of the token to be transferred\r\n     * @param _data bytes optional data to send along with the call\r\n     * @return bool whether the call correctly returned the expected magic value\r\n     */\r\n    function _checkOnERC721Received(address from, address to, uint256 tokenId, bytes memory _data)\r\n        private returns (bool)\r\n    {\r\n        if (!to.isContract()) {\r\n            return true;\r\n        }\r\n        bytes memory returndata = to.functionCall(abi.encodeWithSelector(\r\n            IERC721Receiver(to).onERC721Received.selector,\r\n            _msgSender(),\r\n            from,\r\n            tokenId,\r\n            _data\r\n        ), \"ERC721: transfer to non ERC721Receiver implementer\");\r\n        bytes4 retval = abi.decode(returndata, (bytes4));\r\n        return (retval == _ERC721_RECEIVED);\r\n    }\r\n\r\n    function _approve(address to, uint256 tokenId) private {\r\n        _tokenApprovals[tokenId] = to;\r\n        emit Approval(ownerOf(tokenId), to, tokenId);\r\n    }\r\n\r\n    /**\r\n     * @dev Hook that is called before any token transfer. This includes minting\r\n     * and burning.\r\n     *\r\n     * Calling conditions:\r\n     *\r\n     * - When `from` and `to` are both non-zero, ``from``'s `tokenId` will be\r\n     * transferred to `to`.\r\n     * - When `from` is zero, `tokenId` will be minted for `to`.\r\n     * - When `to` is zero, ``from``'s `tokenId` will be burned.\r\n     * - `from` cannot be the zero address.\r\n     * - `to` cannot be the zero address.\r\n     *\r\n     * To learn more about hooks, head to xref:ROOT:extending-contracts.adoc#using-hooks[Using Hooks].\r\n     */\r\n    function _beforeTokenTransfer(address from, address to, uint256 tokenId) internal virtual { }\r\n    \r\n}",
  "sourcePath": "C:/Users/Prerna/Desktop/QuestCrypt/QuestCrypto/src/contracts/ERC721.sol",
  "compiler": {
    "name": "solc",
    "version": "0.6.12+commit.27d51765.Emscripten.clang"
  },
  "schemaVersion": "3.3.2",
  "updatedAt": "2020-12-17T04:48:27.252Z",
  "networkType": "ethereum",
  "devdoc": {
    "details": "see https://eips.ethereum.org/EIPS/eip-721",
    "kind": "dev",
    "methods": {
      "approve(address,uint256)": {
        "details": "See {IERC721-approve}."
      },
      "balanceOf(address)": {
        "details": "See {IERC721-balanceOf}."
      },
      "baseURI()": {
        "details": "Returns the base URI set via {_setBaseURI}. This will be automatically added as a prefix in {tokenURI} to each token's URI, or to the token ID if no specific URI is set for that token ID."
      },
      "constructor": {
        "details": "Initializes the contract by setting a `name` and a `symbol` to the token collection."
      },
      "getApproved(uint256)": {
        "details": "See {IERC721-getApproved}."
      },
      "isApprovedForAll(address,address)": {
        "details": "See {IERC721-isApprovedForAll}."
      },
      "name()": {
        "details": "See {IERC721Metadata-name}."
      },
      "ownerOf(uint256)": {
        "details": "See {IERC721-ownerOf}."
      },
      "safeTransferFrom(address,address,uint256)": {
        "details": "See {IERC721-safeTransferFrom}."
      },
      "safeTransferFrom(address,address,uint256,bytes)": {
        "details": "See {IERC721-safeTransferFrom}."
      },
      "setApprovalForAll(address,bool)": {
        "details": "See {IERC721-setApprovalForAll}."
      },
      "supportsInterface(bytes4)": {
        "details": "See {IERC165-supportsInterface}. Time complexity O(1), guaranteed to always use less than 30 000 gas."
      },
      "symbol()": {
        "details": "See {IERC721Metadata-symbol}."
      },
      "tokenByIndex(uint256)": {
        "details": "See {IERC721Enumerable-tokenByIndex}."
      },
      "tokenOfOwnerByIndex(address,uint256)": {
        "details": "See {IERC721Enumerable-tokenOfOwnerByIndex}."
      },
      "tokenURI(uint256)": {
        "details": "See {IERC721Metadata-tokenURI}."
      },
      "totalSupply()": {
        "details": "See {IERC721Enumerable-totalSupply}."
      },
      "transferFrom(address,address,uint256)": {
        "details": "See {IERC721-transferFrom}."
      }
    },
    "stateVariables": {
      "OIR": {
        "details": "Mints `tokenId` and transfers it to `to`. WARNING: Usage of this method is discouraged, use {_safeMint} whenever possible Requirements: - `tokenId` must not exist. - `to` cannot be the zero address. Emits a {Transfer} event."
      }
    },
    "title": "ERC721 Non-Fungible Token Standard basic implementation",
    "version": 1
  },
  "userdoc": {
    "kind": "user",
    "methods": {
      "_mint(address,uint256,uint256,string[],string[],uint256,uint256,uint256,string)": {
        "notice": "Mint ERC721 tokens "
      }
    },
    "version": 1
  }
}