{
  "contractName": "MarketPlace",
  "abi": [
    {
      "inputs": [
        {
          "internalType": "address",
          "name": "deployed_erc20",
          "type": "address"
        },
        {
          "internalType": "address",
          "name": "property_deployed",
          "type": "address"
        }
      ],
      "stateMutability": "nonpayable",
      "type": "constructor"
    },
    {
      "inputs": [],
      "name": "__address",
      "outputs": [
        {
          "internalType": "address",
          "name": "",
          "type": "address"
        }
      ],
      "stateMutability": "view",
      "type": "function",
      "constant": true
    },
    {
      "inputs": [],
      "name": "_property",
      "outputs": [
        {
          "internalType": "contract Prop",
          "name": "",
          "type": "address"
        }
      ],
      "stateMutability": "view",
      "type": "function",
      "constant": true
    },
    {
      "inputs": [],
      "name": "owner_address",
      "outputs": [
        {
          "internalType": "address",
          "name": "",
          "type": "address"
        }
      ],
      "stateMutability": "view",
      "type": "function",
      "constant": true
    },
    {
      "inputs": [
        {
          "internalType": "uint256",
          "name": "",
          "type": "uint256"
        }
      ],
      "name": "properties_for_sell",
      "outputs": [
        {
          "internalType": "string",
          "name": "",
          "type": "string"
        }
      ],
      "stateMutability": "view",
      "type": "function",
      "constant": true
    },
    {
      "inputs": [
        {
          "internalType": "address",
          "name": "",
          "type": "address"
        },
        {
          "internalType": "uint256",
          "name": "",
          "type": "uint256"
        }
      ],
      "name": "token_details",
      "outputs": [
        {
          "internalType": "bool",
          "name": "is_available",
          "type": "bool"
        },
        {
          "internalType": "address",
          "name": "seller",
          "type": "address"
        },
        {
          "internalType": "uint256",
          "name": "property_id",
          "type": "uint256"
        },
        {
          "internalType": "uint256",
          "name": "quantity",
          "type": "uint256"
        }
      ],
      "stateMutability": "view",
      "type": "function",
      "constant": true
    },
    {
      "inputs": [
        {
          "internalType": "address",
          "name": "maketPlace",
          "type": "address"
        }
      ],
      "name": "setMarketContractAddress",
      "outputs": [],
      "stateMutability": "nonpayable",
      "type": "function"
    },
    {
      "inputs": [
        {
          "internalType": "uint256",
          "name": "amount_of_token",
          "type": "uint256"
        }
      ],
      "name": "purchaseVocherTokens",
      "outputs": [],
      "stateMutability": "payable",
      "type": "function",
      "payable": true
    },
    {
      "inputs": [
        {
          "internalType": "address",
          "name": "property_token_owner",
          "type": "address"
        },
        {
          "internalType": "uint256",
          "name": "property_id",
          "type": "uint256"
        },
        {
          "internalType": "uint256",
          "name": "quantity",
          "type": "uint256"
        }
      ],
      "name": "sellPropertyToken",
      "outputs": [],
      "stateMutability": "nonpayable",
      "type": "function"
    },
    {
      "inputs": [
        {
          "internalType": "address",
          "name": "buyer",
          "type": "address"
        },
        {
          "internalType": "uint256",
          "name": "voucher_token_offered",
          "type": "uint256"
        },
        {
          "internalType": "address",
          "name": "property_token_owner",
          "type": "address"
        },
        {
          "internalType": "uint256",
          "name": "property_id",
          "type": "uint256"
        }
      ],
      "name": "purchasePropertyTokens",
      "outputs": [],
      "stateMutability": "nonpayable",
      "type": "function"
    },
    {
      "inputs": [
        {
          "internalType": "address",
          "name": "user",
          "type": "address"
        }
      ],
      "name": "getVoucherBalance",
      "outputs": [
        {
          "internalType": "uint256",
          "name": "",
          "type": "uint256"
        }
      ],
      "stateMutability": "view",
      "type": "function",
      "constant": true
    },
    {
      "inputs": [
        {
          "internalType": "address",
          "name": "user",
          "type": "address"
        },
        {
          "internalType": "uint256",
          "name": "property_id",
          "type": "uint256"
        }
      ],
      "name": "getPropertyTokenBalance",
      "outputs": [
        {
          "internalType": "uint256",
          "name": "",
          "type": "uint256"
        }
      ],
      "stateMutability": "view",
      "type": "function",
      "constant": true
    }
  ],
  "bytecode": "0x608060405260006001553480156200001657600080fd5b5060405162001e7138038062001e7183398181016040528101906200003c91906200011d565b33600360006101000a81548173ffffffffffffffffffffffffffffffffffffffff021916908373ffffffffffffffffffffffffffffffffffffffff160217905550816000806101000a81548173ffffffffffffffffffffffffffffffffffffffff021916908373ffffffffffffffffffffffffffffffffffffffff16021790555080600260006101000a81548173ffffffffffffffffffffffffffffffffffffffff021916908373ffffffffffffffffffffffffffffffffffffffff1602179055505050620001ac565b600081519050620001178162000192565b92915050565b600080604083850312156200013157600080fd5b6000620001418582860162000106565b9250506020620001548582860162000106565b9150509250929050565b60006200016b8262000172565b9050919050565b600073ffffffffffffffffffffffffffffffffffffffff82169050919050565b6200019d816200015e565b8114620001a957600080fd5b50565b611cb580620001bc6000396000f3fe60806040526004361061009c5760003560e01c8063893894d611610064578063893894d61461019d5780639e8264c4146101da578063b89f9c7f14610205578063c73358de1461022e578063f79230ed14610257578063f8df1b7a146102945761009c565b806321166be6146100a15780632295394c146100e15780632ef6a75c1461010c57806348f7a36a1461013557806380edef8e14610172575b600080fd5b3480156100ad57600080fd5b506100c860048036038101906100c391906115ab565b6102b0565b6040516100d894939291906119f7565b60405180910390f35b3480156100ed57600080fd5b506100f661031a565b6040516101039190611a3c565b60405180910390f35b34801561011857600080fd5b50610133600480360381019061012e91906115e7565b610340565b005b34801561014157600080fd5b5061015c60048036038101906101579190611703565b610918565b6040516101699190611a57565b60405180910390f35b34801561017e57600080fd5b506101876109d1565b6040516101949190611923565b60405180910390f35b3480156101a957600080fd5b506101c460048036038101906101bf91906115ab565b6109f7565b6040516101d19190611ab9565b60405180910390f35b3480156101e657600080fd5b506101ef610aae565b6040516101fc9190611923565b60405180910390f35b34801561021157600080fd5b5061022c6004803603810190610227919061164a565b610ad4565b005b34801561023a57600080fd5b5061025560048036038101906102509190611559565b6110e4565b005b34801561026357600080fd5b5061027e60048036038101906102799190611559565b611128565b60405161028b9190611ab9565b60405180910390f35b6102ae60048036038101906102a99190611703565b6111db565b005b6004602052816000526040600020602052806000526040600020600091509150508060000160009054906101000a900460ff16908060000160019054906101000a900473ffffffffffffffffffffffffffffffffffffffff16908060010154908060020154905084565b600260009054906101000a900473ffffffffffffffffffffffffffffffffffffffff1681565b82600460008473ffffffffffffffffffffffffffffffffffffffff1673ffffffffffffffffffffffffffffffffffffffff16815260200190815260200160002060008381526020019081526020016000206002015410156103a057600080fd5b826103aa85611128565b10156103b557600080fd5b6000600260009054906101000a900473ffffffffffffffffffffffffffffffffffffffff1673ffffffffffffffffffffffffffffffffffffffff1663aef2d3d8836040518263ffffffff1660e01b81526004016104129190611ab9565b602060405180830381600087803b15801561042c57600080fd5b505af1158015610440573d6000803e3d6000fd5b505050506040513d601f19601f820116820180604052508101906104649190611582565b9050600260009054906101000a900473ffffffffffffffffffffffffffffffffffffffff1673ffffffffffffffffffffffffffffffffffffffff1663eaa12d6084846040518363ffffffff1660e01b81526004016104c39291906119ce565b60206040518083038186803b1580156104db57600080fd5b505afa1580156104ef573d6000803e3d6000fd5b505050506040513d601f19601f82011682018060405250810190610513919061172c565b84111561051f57600080fd5b60008054906101000a900473ffffffffffffffffffffffffffffffffffffffff1673ffffffffffffffffffffffffffffffffffffffff1663beabacc88685876040518463ffffffff1660e01b815260040161057c93929190611967565b602060405180830381600087803b15801561059657600080fd5b505af11580156105aa573d6000803e3d6000fd5b505050506040513d601f19601f820116820180604052508101906105ce9190611699565b508073ffffffffffffffffffffffffffffffffffffffff1663beabacc88487876040518463ffffffff1660e01b815260040161060c93929190611967565b602060405180830381600087803b15801561062657600080fd5b505af115801561063a573d6000803e3d6000fd5b505050506040513d601f19601f8201168201806040525081019061065e9190611699565b50600260009054906101000a900473ffffffffffffffffffffffffffffffffffffffff1673ffffffffffffffffffffffffffffffffffffffff1663f149146d86600260009054906101000a900473ffffffffffffffffffffffffffffffffffffffff1673ffffffffffffffffffffffffffffffffffffffff1663f7b10808600187036040518263ffffffff1660e01b81526004016106fc9190611ab9565b600060405180830381600087803b15801561071657600080fd5b505af115801561072a573d6000803e3d6000fd5b505050506040513d6000823e3d601f19601f8201168201806040525081019061075391906116c2565b6040518363ffffffff1660e01b815260040161077092919061199e565b600060405180830381600087803b15801561078a57600080fd5b505af115801561079e573d6000803e3d6000fd5b5050505083600460008573ffffffffffffffffffffffffffffffffffffffff1673ffffffffffffffffffffffffffffffffffffffff1681526020019081526020016000206000848152602001908152602001600020600201600082825403925050819055506000600460008573ffffffffffffffffffffffffffffffffffffffff1673ffffffffffffffffffffffffffffffffffffffff16815260200190815260200160002060008481526020019081526020016000206002015414156109115760076000815480929190600190039190505550600460008473ffffffffffffffffffffffffffffffffffffffff1673ffffffffffffffffffffffffffffffffffffffff1681526020019081526020016000206000838152602001908152602001600020600080820160006101000a81549060ff02191690556000820160016101000a81549073ffffffffffffffffffffffffffffffffffffffff02191690556001820160009055600282016000905550505b5050505050565b6005818154811061092557fe5b906000526020600020016000915090508054600181600116156101000203166002900480601f0160208091040260200160405190810160405280929190818152602001828054600181600116156101000203166002900480156109c95780601f1061099e576101008083540402835291602001916109c9565b820191906000526020600020905b8154815290600101906020018083116109ac57829003601f168201915b505050505081565b600360009054906101000a900473ffffffffffffffffffffffffffffffffffffffff1681565b6000600260009054906101000a900473ffffffffffffffffffffffffffffffffffffffff1673ffffffffffffffffffffffffffffffffffffffff1663eaa12d6084846040518363ffffffff1660e01b8152600401610a569291906119ce565b60206040518083038186803b158015610a6e57600080fd5b505afa158015610a82573d6000803e3d6000fd5b505050506040513d601f19601f82011682018060405250810190610aa6919061172c565b905092915050565b600660009054906101000a900473ffffffffffffffffffffffffffffffffffffffff1681565b600082118015610ae45750600081115b610aed57600080fd5b6060600260009054906101000a900473ffffffffffffffffffffffffffffffffffffffff1673ffffffffffffffffffffffffffffffffffffffff1663f7b10808600185036040518263ffffffff1660e01b8152600401610b4d9190611ab9565b600060405180830381600087803b158015610b6757600080fd5b505af1158015610b7b573d6000803e3d6000fd5b505050506040513d6000823e3d601f19601f82011682018060405250810190610ba491906116c2565b9050600260009054906101000a900473ffffffffffffffffffffffffffffffffffffffff1673ffffffffffffffffffffffffffffffffffffffff166386be4b8c85836040518363ffffffff1660e01b8152600401610c0392919061199e565b602060405180830381600087803b158015610c1d57600080fd5b505af1158015610c31573d6000803e3d6000fd5b505050506040513d601f19601f82011682018060405250810190610c559190611699565b610c94576040517f08c379a0000000000000000000000000000000000000000000000000000000008152600401610c8b90611a99565b60405180910390fd5b60609050600260009054906101000a900473ffffffffffffffffffffffffffffffffffffffff1673ffffffffffffffffffffffffffffffffffffffff1663eaa12d6085856040518363ffffffff1660e01b8152600401610cf59291906119ce565b60206040518083038186803b158015610d0d57600080fd5b505afa158015610d21573d6000803e3d6000fd5b505050506040513d601f19601f82011682018060405250810190610d45919061172c565b821115610d87576040517f08c379a0000000000000000000000000000000000000000000000000000000008152600401610d7e90611a79565b60405180910390fd5b610d8f6113bf565b600181600001901515908115158152505084816020019073ffffffffffffffffffffffffffffffffffffffff16908173ffffffffffffffffffffffffffffffffffffffff1681525050838160400181815250506000600460008773ffffffffffffffffffffffffffffffffffffffff1673ffffffffffffffffffffffffffffffffffffffff16815260200190815260200160002060008681526020019081526020016000206002015414610ea15782600460008773ffffffffffffffffffffffffffffffffffffffff1673ffffffffffffffffffffffffffffffffffffffff16815260200190815260200160002060008681526020019081526020016000206002015401816060018181525050610fd2565b8281606001818152505060076000815480929190600101919050555060608573ffffffffffffffffffffffffffffffffffffffff1673__Strings_______________________________6356ca623e90916040518263ffffffff1660e01b8152600401610f0e9190611908565b60006040518083038186803b158015610f2657600080fd5b505af4158015610f3a573d6000803e3d6000fd5b505050506040513d6000823e3d601f19601f82011682018060405250810190610f6391906116c2565b90506060610f7086611278565b905060058282604051602001610f879291906118d9565b604051602081830303815290604052908060018154018082558091505060019003906000526020600020016000909190919091509080519060200190610fce9291906113ff565b5050505b80600460008773ffffffffffffffffffffffffffffffffffffffff1673ffffffffffffffffffffffffffffffffffffffff168152602001908152602001600020600086815260200190815260200160002060008201518160000160006101000a81548160ff02191690831515021790555060208201518160000160016101000a81548173ffffffffffffffffffffffffffffffffffffffff021916908373ffffffffffffffffffffffffffffffffffffffff1602179055506040820151816001015560608201518160020155905050806000016000151581525080602001600073ffffffffffffffffffffffffffffffffffffffff168152508060400160008152508060600160008152505050505050565b80600660006101000a81548173ffffffffffffffffffffffffffffffffffffffff021916908373ffffffffffffffffffffffffffffffffffffffff16021790555050565b60008060009054906101000a900473ffffffffffffffffffffffffffffffffffffffff1673ffffffffffffffffffffffffffffffffffffffff166370a08231836040518263ffffffff1660e01b81526004016111849190611923565b60206040518083038186803b15801561119c57600080fd5b505afa1580156111b0573d6000803e3d6000fd5b505050506040513d601f19601f820116820180604052508101906111d4919061172c565b9050919050565b803410156111e857600080fd5b60008054906101000a900473ffffffffffffffffffffffffffffffffffffffff1673ffffffffffffffffffffffffffffffffffffffff166340894c9433836040518363ffffffff1660e01b815260040161124392919061193e565b600060405180830381600087803b15801561125d57600080fd5b505af1158015611271573d6000803e3d6000fd5b5050505050565b606060008214156112c0576040518060400160405280600181526020017f300000000000000000000000000000000000000000000000000000000000000081525090506113ba565b600082905060005b600082146112ea578080600101915050600a82816112e257fe5b0491506112c8565b60608167ffffffffffffffff8111801561130357600080fd5b506040519080825280601f01601f1916602001820160405280156113365781602001600182028036833780820191505090505b50905060006001830390508593505b600084146113b257600a848161135757fe5b0660300160f81b8282806001900393508151811061137157fe5b60200101907effffffffffffffffffffffffffffffffffffffffffffffffffffffffffffff1916908160001a905350600a84816113aa57fe5b049350611345565b819450505050505b919050565b6040518060800160405280600015158152602001600073ffffffffffffffffffffffffffffffffffffffff16815260200160008152602001600081525090565b828054600181600116156101000203166002900490600052602060002090601f016020900481019282601f1061144057805160ff191683800117855561146e565b8280016001018555821561146e579182015b8281111561146d578251825591602001919060010190611452565b5b50905061147b919061147f565b5090565b5b80821115611498576000816000905550600101611480565b5090565b6000813590506114ab81611c3a565b92915050565b6000815190506114c081611c3a565b92915050565b6000815190506114d581611c51565b92915050565b600082601f8301126114ec57600080fd5b81516114ff6114fa82611b01565b611ad4565b9150808252602083016020830185838301111561151b57600080fd5b611526838284611bf6565b50505092915050565b60008135905061153e81611c68565b92915050565b60008151905061155381611c68565b92915050565b60006020828403121561156b57600080fd5b60006115798482850161149c565b91505092915050565b60006020828403121561159457600080fd5b60006115a2848285016114b1565b91505092915050565b600080604083850312156115be57600080fd5b60006115cc8582860161149c565b92505060206115dd8582860161152f565b9150509250929050565b600080600080608085870312156115fd57600080fd5b600061160b8782880161149c565b945050602061161c8782880161152f565b935050604061162d8782880161149c565b925050606061163e8782880161152f565b91505092959194509250565b60008060006060848603121561165f57600080fd5b600061166d8682870161149c565b935050602061167e8682870161152f565b925050604061168f8682870161152f565b9150509250925092565b6000602082840312156116ab57600080fd5b60006116b9848285016114c6565b91505092915050565b6000602082840312156116d457600080fd5b600082015167ffffffffffffffff8111156116ee57600080fd5b6116fa848285016114db565b91505092915050565b60006020828403121561171557600080fd5b60006117238482850161152f565b91505092915050565b60006020828403121561173e57600080fd5b600061174c84828501611544565b91505092915050565b61175e81611b9c565b82525050565b61176d81611b54565b82525050565b61177c81611b54565b82525050565b61178b81611b66565b82525050565b61179a81611bae565b82525050565b60006117ab82611b2d565b6117b58185611b38565b93506117c5818560208601611bf6565b6117ce81611c29565b840191505092915050565b60006117e482611b2d565b6117ee8185611b49565b93506117fe818560208601611bf6565b80840191505092915050565b6000611817600f83611b38565b91507f6e6f7420656e6f7567682066756e6400000000000000000000000000000000006000830152602082019050919050565b6000611857600183611b49565b91507f21000000000000000000000000000000000000000000000000000000000000006000830152600182019050919050565b6000611897600983611b38565b91507f6e6f7420666f756e6400000000000000000000000000000000000000000000006000830152602082019050919050565b6118d381611b92565b82525050565b60006118e582856117d9565b91506118f08261184a565b91506118fc82846117d9565b91508190509392505050565b600060208201905061191d6000830184611773565b92915050565b60006020820190506119386000830184611764565b92915050565b60006040820190506119536000830185611755565b61196060208301846118ca565b9392505050565b600060608201905061197c6000830186611764565b6119896020830185611764565b61199660408301846118ca565b949350505050565b60006040820190506119b36000830185611764565b81810360208301526119c581846117a0565b90509392505050565b60006040820190506119e36000830185611764565b6119f060208301846118ca565b9392505050565b6000608082019050611a0c6000830187611782565b611a196020830186611764565b611a2660408301856118ca565b611a3360608301846118ca565b95945050505050565b6000602082019050611a516000830184611791565b92915050565b60006020820190508181036000830152611a7181846117a0565b905092915050565b60006020820190508181036000830152611a928161180a565b9050919050565b60006020820190508181036000830152611ab28161188a565b9050919050565b6000602082019050611ace60008301846118ca565b92915050565b6000604051905081810181811067ffffffffffffffff82111715611af757600080fd5b8060405250919050565b600067ffffffffffffffff821115611b1857600080fd5b601f19601f8301169050602081019050919050565b600081519050919050565b600082825260208201905092915050565b600081905092915050565b6000611b5f82611b72565b9050919050565b60008115159050919050565b600073ffffffffffffffffffffffffffffffffffffffff82169050919050565b6000819050919050565b6000611ba782611bd2565b9050919050565b6000611bb982611bc0565b9050919050565b6000611bcb82611b72565b9050919050565b6000611bdd82611be4565b9050919050565b6000611bef82611b72565b9050919050565b60005b83811015611c14578082015181840152602081019050611bf9565b83811115611c23576000848401525b50505050565b6000601f19601f8301169050919050565b611c4381611b54565b8114611c4e57600080fd5b50565b611c5a81611b66565b8114611c6557600080fd5b50565b611c7181611b92565b8114611c7c57600080fd5b5056fea2646970667358221220df6114064943edc504f512a74442c00f4efa32c126639b4a5d80481f3d1036cf64736f6c634300060c0033",
  "immutableReferences": {},
  "source": "// SPDX-License-Identifier: MIT\r\npragma solidity ^0.6.0;\r\npragma experimental ABIEncoderV2;\r\n\r\n\r\n\r\nimport \"./IERC20.sol\";\r\nimport \"./Strings.sol\";\r\n\r\ninterface Prop{\r\n    function searchPropertyOwner(address,string memory) external returns(bool);\r\n    \r\n    function properties(uint256) external returns(string memory);\r\n    \r\n    function Prop_token_deploy_address(uint256) external returns(address);\r\n    \r\n    function OwnedProperties(address) external returns(string[] memory);\r\n    \r\n    function addProperties(address,string memory) external;\r\n    \r\n    function PropertyTokenBalance(address user,uint256 property_id) external view returns(uint256);\r\n    \r\n}\r\n\r\ncontract MarketPlace {\r\n    \r\n    using Strings for address;\r\n    using Strings for uint256;\r\n    IERC20 erc;\r\n    \r\n    uint256 _id = 0;\r\n    \r\n    Prop public _property;\r\n\r\n    address public owner_address;\r\n\r\n    mapping(address => mapping(uint256 => token_sell_information)) public token_details;\r\n    string[] public properties_for_sell;\r\n\r\n\r\n    struct token_sell_information {\r\n        bool is_available;\r\n        address seller;\r\n        uint256 property_id;\r\n        uint256 quantity;\r\n    }\r\n\r\n\r\n    address public __address;\r\n\r\n    uint256 total_Properties_tokens_for_sell;\r\n\r\n    modifier onlyOwner {\r\n        require(msg.sender == owner_address);\r\n        _;\r\n    }\r\n\r\n    constructor(address deployed_erc20,address property_deployed) public {\r\n        owner_address = msg.sender;\r\n         erc = IERC20(deployed_erc20);\r\n         _property = Prop(property_deployed);\r\n\r\n    }\r\n\r\n\r\n    function setMarketContractAddress(address maketPlace) public {\r\n        // set market place address\r\n        __address = maketPlace;\r\n    }\r\n    \r\n \r\n    \r\n    //function to purchase voucher/Quest tokens  \r\n    function purchaseVocherTokens(uint256 amount_of_token) public payable{\r\n      require(msg.value>=amount_of_token);\r\n      erc.issuetoken(msg.sender,amount_of_token);\r\n    }\r\n\r\n    //function to sell property tokens of particular property_id\r\n    function sellPropertyToken(address property_token_owner,uint256 property_id,uint256 quantity) public {\r\n      \r\n      require(property_id>0 && quantity>0);\r\n      string memory property_name = _property.properties(property_id-1);\r\n      require(_property.searchPropertyOwner(property_token_owner,property_name),\"not found\");\r\n      delete property_name;\r\n      require(quantity<=_property.PropertyTokenBalance(property_token_owner,property_id),\"not enough fund\");\r\n      \r\n      token_sell_information memory  temp;\r\n      temp.is_available = true;\r\n      temp.seller = property_token_owner;\r\n      temp.property_id =property_id;\r\n           \r\n      if(token_details[property_token_owner][property_id].quantity != 0)\r\n      temp.quantity = token_details[property_token_owner][property_id].quantity + quantity;\r\n      else{\r\n      temp.quantity = quantity;\r\n      total_Properties_tokens_for_sell++;\r\n      string memory prop_owner = property_token_owner.toString();\r\n      string memory prop_id = property_id.uinttoString();\r\n      properties_for_sell.push(string(abi.encodePacked(prop_owner, \"!\", prop_id)));\r\n      }\r\n           \r\n      token_details[property_token_owner][property_id] = temp;\r\n          \r\n      delete temp.is_available;\r\n      delete temp.seller;\r\n      delete temp.property_id;\r\n      delete temp.quantity;\r\n      \r\n    }\r\n  \r\n    //function to buy property tokens availaible for selling\r\n    function purchasePropertyTokens(address buyer,uint voucher_token_offered,address property_token_owner,uint property_id) public {\r\n      \r\n      require(token_details[property_token_owner][property_id].quantity >= voucher_token_offered);\r\n      require(getVoucherBalance(buyer)>=voucher_token_offered);\r\n      \r\n      IERC20 erc_property;\r\n      erc_property = IERC20(_property.Prop_token_deploy_address(property_id));\r\n      require(voucher_token_offered <= _property.PropertyTokenBalance(property_token_owner,property_id));\r\n      \r\n      erc.transfer(buyer,property_token_owner,voucher_token_offered);        \r\n      erc_property.transfer(property_token_owner,buyer,voucher_token_offered);\r\n      \r\n      _property.addProperties(buyer,_property.properties(property_id-1));\r\n      token_details[property_token_owner][property_id].quantity -= voucher_token_offered;\r\n      \r\n\r\n    \r\n      if(token_details[property_token_owner][property_id].quantity == 0)\r\n      {\r\n      total_Properties_tokens_for_sell--;\r\n      delete token_details[property_token_owner][property_id];\r\n      }\r\n   \r\n    }\r\n  \r\n    //function to check how many voucher tokens user holds\r\n    function getVoucherBalance(address user) public view returns(uint256){\r\n      return erc.balanceOf(user);\r\n    }\r\n  \r\n    //function to check how many property tokens of a particular property user holds\r\n    function getPropertyTokenBalance(address user,uint256 property_id) public view returns(uint256){\r\n       return _property.PropertyTokenBalance(user,property_id);\r\n    }\r\n    \r\n\r\n}",
  "sourcePath": "C:/Users/Prerna/Desktop/QuestCrypt/QuestCrypto/src/contracts/quest_marketplace.sol",
  "compiler": {
    "name": "solc",
    "version": "0.6.12+commit.27d51765.Emscripten.clang"
  },
  "schemaVersion": "3.3.2",
  "updatedAt": "2020-12-17T04:48:27.316Z",
  "networkType": "ethereum",
  "devdoc": {
    "kind": "dev",
    "methods": {},
    "version": 1
  },
  "userdoc": {
    "kind": "user",
    "methods": {},
    "version": 1
  }
}