{
  "contractName": "newProp",
  "abi": [
    {
      "inputs": [
        {
          "internalType": "uint256",
          "name": "",
          "type": "uint256"
        }
      ],
      "name": "items",
      "outputs": [
        {
          "internalType": "string",
          "name": "",
          "type": "string"
        }
      ],
      "stateMutability": "view",
      "type": "function"
    },
    {
      "inputs": [
        {
          "internalType": "uint256",
          "name": "",
          "type": "uint256"
        }
      ],
      "name": "mydet",
      "outputs": [
        {
          "internalType": "string",
          "name": "name",
          "type": "string"
        },
        {
          "internalType": "uint256",
          "name": "age",
          "type": "uint256"
        }
      ],
      "stateMutability": "view",
      "type": "function"
    },
    {
      "inputs": [
        {
          "internalType": "uint256",
          "name": "",
          "type": "uint256"
        }
      ],
      "name": "prop",
      "outputs": [
        {
          "internalType": "uint256",
          "name": "Orig_Value",
          "type": "uint256"
        },
        {
          "internalType": "uint256",
          "name": "Curr_Value",
          "type": "uint256"
        },
        {
          "internalType": "uint256",
          "name": "Orig_Issue_Rate",
          "type": "uint256"
        },
        {
          "internalType": "string",
          "name": "next_reevaluation_date",
          "type": "string"
        },
        {
          "components": [
            {
              "internalType": "uint256",
              "name": "coin_issue",
              "type": "uint256"
            },
            {
              "internalType": "uint256",
              "name": "org_val",
              "type": "uint256"
            },
            {
              "internalType": "uint256",
              "name": "equity_at_issuance",
              "type": "uint256"
            },
            {
              "internalType": "uint256",
              "name": "curr_val",
              "type": "uint256"
            },
            {
              "internalType": "uint256",
              "name": "tot_curr_val",
              "type": "uint256"
            },
            {
              "internalType": "uint256",
              "name": "increase",
              "type": "uint256"
            }
          ],
          "internalType": "struct newProp.coinIssue",
          "name": "total_coins_issue",
          "type": "tuple"
        },
        {
          "internalType": "uint256",
          "name": "taxes",
          "type": "uint256"
        },
        {
          "internalType": "uint256",
          "name": "insurance",
          "type": "uint256"
        },
        {
          "internalType": "uint256",
          "name": "maintainence",
          "type": "uint256"
        },
        {
          "internalType": "uint256",
          "name": "total",
          "type": "uint256"
        },
        {
          "internalType": "uint256",
          "name": "monthly_hoa_payment",
          "type": "uint256"
        },
        {
          "internalType": "string",
          "name": "property_features",
          "type": "string"
        }
      ],
      "stateMutability": "view",
      "type": "function"
    },
    {
      "inputs": [],
      "name": "setdetail",
      "outputs": [
        {
          "components": [
            {
              "internalType": "string",
              "name": "name",
              "type": "string"
            },
            {
              "internalType": "uint256",
              "name": "age",
              "type": "uint256"
            }
          ],
          "internalType": "struct newProp.myDetail",
          "name": "",
          "type": "tuple"
        }
      ],
      "stateMutability": "nonpayable",
      "type": "function"
    },
    {
      "inputs": [],
      "name": "getdetail",
      "outputs": [
        {
          "components": [
            {
              "internalType": "string",
              "name": "name",
              "type": "string"
            },
            {
              "internalType": "uint256",
              "name": "age",
              "type": "uint256"
            }
          ],
          "internalType": "struct newProp.myDetail",
          "name": "",
          "type": "tuple"
        }
      ],
      "stateMutability": "view",
      "type": "function"
    },
    {
      "inputs": [
        {
          "internalType": "uint256",
          "name": "property_id",
          "type": "uint256"
        },
        {
          "internalType": "uint256",
          "name": "index",
          "type": "uint256"
        }
      ],
      "name": "getArray",
      "outputs": [
        {
          "components": [
            {
              "internalType": "uint256",
              "name": "coin_issue",
              "type": "uint256"
            },
            {
              "internalType": "uint256",
              "name": "org_val",
              "type": "uint256"
            },
            {
              "internalType": "uint256",
              "name": "equity_at_issuance",
              "type": "uint256"
            },
            {
              "internalType": "uint256",
              "name": "curr_val",
              "type": "uint256"
            },
            {
              "internalType": "uint256",
              "name": "tot_curr_val",
              "type": "uint256"
            },
            {
              "internalType": "uint256",
              "name": "increase",
              "type": "uint256"
            }
          ],
          "internalType": "struct newProp.coinIssue",
          "name": "",
          "type": "tuple"
        }
      ],
      "stateMutability": "view",
      "type": "function"
    },
    {
      "inputs": [
        {
          "internalType": "uint256",
          "name": "propertyid",
          "type": "uint256"
        }
      ],
      "name": "getMetaData",
      "outputs": [
        {
          "components": [
            {
              "internalType": "uint256",
              "name": "Orig_Value",
              "type": "uint256"
            },
            {
              "internalType": "uint256",
              "name": "Curr_Value",
              "type": "uint256"
            },
            {
              "internalType": "uint256",
              "name": "Orig_Issue_Rate",
              "type": "uint256"
            },
            {
              "internalType": "string",
              "name": "next_reevaluation_date",
              "type": "string"
            },
            {
              "components": [
                {
                  "internalType": "uint256",
                  "name": "coin_issue",
                  "type": "uint256"
                },
                {
                  "internalType": "uint256",
                  "name": "org_val",
                  "type": "uint256"
                },
                {
                  "internalType": "uint256",
                  "name": "equity_at_issuance",
                  "type": "uint256"
                },
                {
                  "internalType": "uint256",
                  "name": "curr_val",
                  "type": "uint256"
                },
                {
                  "internalType": "uint256",
                  "name": "tot_curr_val",
                  "type": "uint256"
                },
                {
                  "internalType": "uint256",
                  "name": "increase",
                  "type": "uint256"
                }
              ],
              "internalType": "struct newProp.coinIssue[]",
              "name": "coins_issue",
              "type": "tuple[]"
            },
            {
              "components": [
                {
                  "internalType": "uint256",
                  "name": "coin_issue",
                  "type": "uint256"
                },
                {
                  "internalType": "uint256",
                  "name": "org_val",
                  "type": "uint256"
                },
                {
                  "internalType": "uint256",
                  "name": "equity_at_issuance",
                  "type": "uint256"
                },
                {
                  "internalType": "uint256",
                  "name": "curr_val",
                  "type": "uint256"
                },
                {
                  "internalType": "uint256",
                  "name": "tot_curr_val",
                  "type": "uint256"
                },
                {
                  "internalType": "uint256",
                  "name": "increase",
                  "type": "uint256"
                }
              ],
              "internalType": "struct newProp.coinIssue",
              "name": "total_coins_issue",
              "type": "tuple"
            },
            {
              "internalType": "string[]",
              "name": "Property_images",
              "type": "string[]"
            },
            {
              "internalType": "string[]",
              "name": "Property_location",
              "type": "string[]"
            },
            {
              "internalType": "uint256",
              "name": "taxes",
              "type": "uint256"
            },
            {
              "internalType": "uint256",
              "name": "insurance",
              "type": "uint256"
            },
            {
              "internalType": "uint256",
              "name": "maintainence",
              "type": "uint256"
            },
            {
              "internalType": "uint256",
              "name": "total",
              "type": "uint256"
            },
            {
              "internalType": "uint256",
              "name": "monthly_hoa_payment",
              "type": "uint256"
            },
            {
              "internalType": "string",
              "name": "property_features",
              "type": "string"
            }
          ],
          "internalType": "struct newProp.Prop_Value_Details",
          "name": "",
          "type": "tuple"
        }
      ],
      "stateMutability": "view",
      "type": "function"
    },
    {
      "inputs": [
        {
          "internalType": "uint256",
          "name": "origVal",
          "type": "uint256"
        },
        {
          "internalType": "uint256",
          "name": "currVal",
          "type": "uint256"
        },
        {
          "internalType": "uint256",
          "name": "orig_rate",
          "type": "uint256"
        },
        {
          "internalType": "string",
          "name": "date",
          "type": "string"
        },
        {
          "internalType": "uint256",
          "name": "coins",
          "type": "uint256"
        },
        {
          "internalType": "string[]",
          "name": "pro_add_details",
          "type": "string[]"
        },
        {
          "internalType": "uint256",
          "name": "prop_tax",
          "type": "uint256"
        },
        {
          "internalType": "uint256",
          "name": "prop_insurance",
          "type": "uint256"
        },
        {
          "internalType": "uint256",
          "name": "prop_maintainence",
          "type": "uint256"
        },
        {
          "internalType": "string",
          "name": "features_prop",
          "type": "string"
        }
      ],
      "name": "setMetaData_of_Property",
      "outputs": [],
      "stateMutability": "nonpayable",
      "type": "function"
    },
    {
      "inputs": [
        {
          "internalType": "uint256",
          "name": "property_id",
          "type": "uint256"
        },
        {
          "internalType": "uint256",
          "name": "coins",
          "type": "uint256"
        }
      ],
      "name": "issue_coins_for_Property",
      "outputs": [],
      "stateMutability": "nonpayable",
      "type": "function"
    }
  ],
  "bytecode": "0x60806040526000805534801561001457600080fd5b50612873806100246000396000f3fe608060405234801561001057600080fd5b50600436106100935760003560e01c806375f68e3c1161006657806375f68e3c1461013c578063767631e51461015a5780637ab2bb2d14610176578063bfb231d2146101a7578063fc11989c146101d757610093565b8063190be8b1146100985780633724262c146100d25780633ac65bf7146100ee57806361eba5521461010c575b600080fd5b6100b260048036038101906100ad9190611ec0565b610207565b6040516100c99b9a999897969594939291906125ed565b60405180910390f35b6100ec60048036038101906100e79190611f25565b6103d7565b005b6100f661083c565b60405161010391906125cb565b60405180910390f35b61012660048036038101906101219190611ec0565b610913565b604051610133919061258e565b60405180910390f35b610144610d92565b60405161015191906125cb565b60405180910390f35b610174600480360381019061016f9190611ee9565b610ee5565b005b610190600480360381019061018b9190611ec0565b6116dd565b60405161019e92919061251e565b60405180910390f35b6101c160048036038101906101bc9190611ec0565b611799565b6040516101ce91906124fc565b60405180910390f35b6101f160048036038101906101ec9190611ee9565b611852565b6040516101fe91906125b0565b60405180910390f35b6002602052806000526040600020600091509050806000015490806001015490806002015490806003018054600181600116156101000203166002900480601f0160208091040260200160405190810160405280929190818152602001828054600181600116156101000203166002900480156102c55780601f1061029a576101008083540402835291602001916102c5565b820191906000526020600020905b8154815290600101906020018083116102a857829003601f168201915b505050505090806005016040518060c001604052908160008201548152602001600182015481526020016002820154815260200160038201548152602001600482015481526020016005820154815250509080600d01549080600e01549080600f015490806010015490806011015490806012018054600181600116156101000203166002900480601f0160208091040260200160405190810160405280929190818152602001828054600181600116156101000203166002900480156103cd5780601f106103a2576101008083540402835291602001916103cd565b820191906000526020600020905b8154815290600101906020018083116103b057829003601f168201915b505050505090508b565b6103df611aed565b8a6002600080548152602001908152602001600020600001819055508960026000805481526020019081526020016000206001018190555088600260008054815260200190815260200160002060020181905550876002600080548152602001908152602001600020600301908051906020019061045e929190611b23565b5086816000018181525050606481602001818152505061049a8b61048c60648a6118d890919063ffffffff16565b61194890919063ffffffff16565b81604001818152505060006104b88c8c61199290919063ffffffff16565b905060006104e28d6104d46064856118d890919063ffffffff16565b61194890919063ffffffff16565b90506104f86064826119dc90919063ffffffff16565b83606001818152505061052b606461051d8b86606001516118d890919063ffffffff16565b61194890919063ffffffff16565b8360800181815250506000836080015190506000610569606461055b8d88602001516118d890919063ffffffff16565b61194890919063ffffffff16565b90506105a481610596612710610588858761199290919063ffffffff16565b6118d890919063ffffffff16565b61194890919063ffffffff16565b8560a00181815250506002600080548152602001908152602001600020600401859080600181540180825580915050600190039060005260206000209060060201600090919091909150600082015181600001556020820151816001015560408201518160020155606082015181600301556080820151816004015560a082015181600501555050846002600080548152602001908152602001600020600501600082015181600001556020820151816001015560408201518160020155606082015181600301556080820151816004015560a0820151816005015590505060008090505b8a518110156106ee5760018b82815181106106a057fe5b60200260200101519080600181540180825580915050600190039060005260206000200160009091909190915090805190602001906106e0929190611b23565b508080600101915050610689565b5060016002600080548152602001908152602001600020600c01908054610716929190611ba3565b50600160006107259190611c13565b886002600080548152602001908152602001600020600d0181905550876002600080548152602001908152602001600020600e0181905550866002600080548152602001908152602001600020600f018190555061079e876107908a8c6119dc90919063ffffffff16565b6119dc90919063ffffffff16565b6002600080548152602001908152602001600020601001819055506107e4600c60026000805481526020019081526020016000206010015461194890919063ffffffff16565b600260008054815260200190815260200160002060110181905550856002600080548152602001908152602001600020601201908051906020019061082a929190611b23565b50505050505050505050505050505050565b610844611c34565b60036000808152602001908152602001600020604051806040016040529081600082018054600181600116156101000203166002900480601f0160208091040260200160405190810160405280929190818152602001828054600181600116156101000203166002900480156108fb5780601f106108d0576101008083540402835291602001916108fb565b820191906000526020600020905b8154815290600101906020018083116108de57829003601f168201915b50505050508152602001600182015481525050905090565b61091b611c4e565b60026000838152602001908152602001600020604051806101c0016040529081600082015481526020016001820154815260200160028201548152602001600382018054600181600116156101000203166002900480601f0160208091040260200160405190810160405280929190818152602001828054600181600116156101000203166002900480156109f15780601f106109c6576101008083540402835291602001916109f1565b820191906000526020600020905b8154815290600101906020018083116109d457829003601f168201915b5050505050815260200160048201805480602002602001604051908101604052809291908181526020016000905b82821015610a8d57838290600052602060002090600602016040518060c0016040529081600082015481526020016001820154815260200160028201548152602001600382015481526020016004820154815260200160058201548152505081526020019060010190610a1f565b505050508152602001600582016040518060c001604052908160008201548152602001600182015481526020016002820154815260200160038201548152602001600482015481526020016005820154815250508152602001600b8201805480602002602001604051908101604052809291908181526020016000905b82821015610bc6578382906000526020600020018054600181600116156101000203166002900480601f016020809104026020016040519081016040528092919081815260200182805460018160011615610100020316600290048015610bb25780601f10610b8757610100808354040283529160200191610bb2565b820191906000526020600020905b815481529060010190602001808311610b9557829003601f168201915b505050505081526020019060010190610b0a565b505050508152602001600c8201805480602002602001604051908101604052809291908181526020016000905b82821015610caf578382906000526020600020018054600181600116156101000203166002900480601f016020809104026020016040519081016040528092919081815260200182805460018160011615610100020316600290048015610c9b5780601f10610c7057610100808354040283529160200191610c9b565b820191906000526020600020905b815481529060010190602001808311610c7e57829003601f168201915b505050505081526020019060010190610bf3565b505050508152602001600d8201548152602001600e8201548152602001600f82015481526020016010820154815260200160118201548152602001601282018054600181600116156101000203166002900480601f016020809104026020016040519081016040528092919081815260200182805460018160011615610100020316600290048015610d825780601f10610d5757610100808354040283529160200191610d82565b820191906000526020600020905b815481529060010190602001808311610d6557829003601f168201915b5050505050815250509050919050565b610d9a611c34565b6040518060400160405280600381526020017f6162630000000000000000000000000000000000000000000000000000000000815250600360008081526020019081526020016000206000019080519060200190610df9929190611b23565b506015600360008081526020019081526020016000206001018190555060036000808152602001908152602001600020604051806040016040529081600082018054600181600116156101000203166002900480601f016020809104026020016040519081016040528092919081815260200182805460018160011615610100020316600290048015610ecd5780601f10610ea257610100808354040283529160200191610ecd565b820191906000526020600020905b815481529060010190602001808311610eb057829003601f168201915b50505050508152602001600182015481525050905090565b60016002600084815260200190815260200160002060040180549050106116d957610f0e611aed565b610f16611c4e565b60026000858152602001908152602001600020604051806101c0016040529081600082015481526020016001820154815260200160028201548152602001600382018054600181600116156101000203166002900480601f016020809104026020016040519081016040528092919081815260200182805460018160011615610100020316600290048015610fec5780601f10610fc157610100808354040283529160200191610fec565b820191906000526020600020905b815481529060010190602001808311610fcf57829003601f168201915b5050505050815260200160048201805480602002602001604051908101604052809291908181526020016000905b8282101561108857838290600052602060002090600602016040518060c001604052908160008201548152602001600182015481526020016002820154815260200160038201548152602001600482015481526020016005820154815250508152602001906001019061101a565b505050508152602001600582016040518060c001604052908160008201548152602001600182015481526020016002820154815260200160038201548152602001600482015481526020016005820154815250508152602001600b8201805480602002602001604051908101604052809291908181526020016000905b828210156111c1578382906000526020600020018054600181600116156101000203166002900480601f0160208091040260200160405190810160405280929190818152602001828054600181600116156101000203166002900480156111ad5780601f10611182576101008083540402835291602001916111ad565b820191906000526020600020905b81548152906001019060200180831161119057829003601f168201915b505050505081526020019060010190611105565b505050508152602001600c8201805480602002602001604051908101604052809291908181526020016000905b828210156112aa578382906000526020600020018054600181600116156101000203166002900480601f0160208091040260200160405190810160405280929190818152602001828054600181600116156101000203166002900480156112965780601f1061126b57610100808354040283529160200191611296565b820191906000526020600020905b81548152906001019060200180831161127957829003601f168201915b5050505050815260200190600101906111ee565b505050508152602001600d8201548152602001600e8201548152602001600f82015481526020016010820154815260200160118201548152602001601282018054600181600116156101000203166002900480601f01602080910402602001604051908101604052809291908181526020018280546001816001161561010002031660029004801561137d5780601f106113525761010080835404028352916020019161137d565b820191906000526020600020905b81548152906001019060200180831161136057829003601f168201915b50505050508152505090508282600001818152505060008160800151519050816080015160018203815181106113af57fe5b6020026020010151606001518360200181815250506113ee82600001516113e06064876118d890919063ffffffff16565b61194890919063ffffffff16565b83604001818152505060006114148360000151846020015161199290919063ffffffff16565b9050600061144284600001516114346064856118d890919063ffffffff16565b61194890919063ffffffff16565b90506114586064826119dc90919063ffffffff16565b85606001818152505061148b606461147d8888606001516118d890919063ffffffff16565b61194890919063ffffffff16565b85608001818152505060008560800151905060006114c960646114bb8a8a602001516118d890919063ffffffff16565b61194890919063ffffffff16565b9050611504816114f66127106114e8858761199290919063ffffffff16565b6118d890919063ffffffff16565b61194890919063ffffffff16565b8760a0018181525050600260008a8152602001908152602001600020600401879080600181540180825580915050600190039060005260206000209060060201600090919091909150600082015181600001556020820151816001015560408201518160020155606082015181600301556080820151816004015560a082015181600501555050611593611aed565b600260008b81526020019081526020016000206005016040518060c00160405290816000820154815260200160018201548152602001600282015481526020016003820154815260200160048201548152602001600582015481525050905061160d886000015182600001516119dc90919063ffffffff16565b816000018181525050876020015181602001818152505061163f886040015182604001516119dc90919063ffffffff16565b8160400181815250508760600151816060018181525050611671886080015182608001516119dc90919063ffffffff16565b81608001818152505080600260008c8152602001908152602001600020600501600082015181600001556020820151816001015560408201518160020155606082015181600301556080820151816004015560a0820151816005015590505050505050505050505b5050565b6003602052806000526040600020600091509050806000018054600181600116156101000203166002900480601f0160208091040260200160405190810160405280929190818152602001828054600181600116156101000203166002900480156117895780601f1061175e57610100808354040283529160200191611789565b820191906000526020600020905b81548152906001019060200180831161176c57829003601f168201915b5050505050908060010154905082565b600181815481106117a657fe5b906000526020600020016000915090508054600181600116156101000203166002900480601f01602080910402602001604051908101604052809291908181526020018280546001816001161561010002031660029004801561184a5780601f1061181f5761010080835404028352916020019161184a565b820191906000526020600020905b81548152906001019060200180831161182d57829003601f168201915b505050505081565b61185a611aed565b60026000848152602001908152602001600020600401828154811061187b57fe5b90600052602060002090600602016040518060c00160405290816000820154815260200160018201548152602001600282015481526020016003820154815260200160048201548152602001600582015481525050905092915050565b6000808314156118eb5760009050611942565b60008284029050828482816118fc57fe5b041461193d576040517f08c379a00000000000000000000000000000000000000000000000000000000081526004016119349061256e565b60405180910390fd5b809150505b92915050565b600061198a83836040518060400160405280601a81526020017f536166654d6174683a206469766973696f6e206279207a65726f000000000000815250611a31565b905092915050565b60006119d483836040518060400160405280601e81526020017f536166654d6174683a207375627472616374696f6e206f766572666c6f770000815250611a92565b905092915050565b600080828401905083811015611a27576040517f08c379a0000000000000000000000000000000000000000000000000000000008152600401611a1e9061254e565b60405180910390fd5b8091505092915050565b60008083118290611a78576040517f08c379a0000000000000000000000000000000000000000000000000000000008152600401611a6f91906124fc565b60405180910390fd5b506000838581611a8457fe5b049050809150509392505050565b6000838311158290611ada576040517f08c379a0000000000000000000000000000000000000000000000000000000008152600401611ad191906124fc565b60405180910390fd5b5060008385039050809150509392505050565b6040518060c001604052806000815260200160008152602001600081526020016000815260200160008152602001600081525090565b828054600181600116156101000203166002900490600052602060002090601f016020900481019282601f10611b6457805160ff1916838001178555611b92565b82800160010185558215611b92579182015b82811115611b91578251825591602001919060010190611b76565b5b509050611b9f9190611cc3565b5090565b828054828255906000526020600020908101928215611c025760005260206000209182015b82811115611c015782829080546001816001161561010002031660029004611bf1929190611ce8565b5091600101919060010190611bc8565b5b509050611c0f9190611d6f565b5090565b5080546000825590600052602060002090810190611c319190611d6f565b50565b604051806040016040528060608152602001600081525090565b604051806101c001604052806000815260200160008152602001600081526020016060815260200160608152602001611c85611aed565b815260200160608152602001606081526020016000815260200160008152602001600081526020016000815260200160008152602001606081525090565b611ce591905b80821115611ce1576000816000905550600101611cc9565b5090565b90565b828054600181600116156101000203166002900490600052602060002090601f016020900481019282601f10611d215780548555611d5e565b82800160010185558215611d5e57600052602060002091601f016020900482015b82811115611d5d578254825591600101919060010190611d42565b5b509050611d6b9190611cc3565b5090565b611d9891905b80821115611d945760008181611d8b9190611d9b565b50600101611d75565b5090565b90565b50805460018160011615610100020316600290046000825580601f10611dc15750611de0565b601f016020900490600052602060002090810190611ddf9190611cc3565b5b50565b600082601f830112611df457600080fd5b8135611e07611e02826126d6565b6126a9565b9150818183526020840193506020810190508360005b83811015611e4d5781358601611e338882611e57565b845260208401935060208301925050600181019050611e1d565b5050505092915050565b600082601f830112611e6857600080fd5b8135611e7b611e76826126fe565b6126a9565b91508082526020830160208301858383011115611e9757600080fd5b611ea28382846127d3565b50505092915050565b600081359050611eba81612826565b92915050565b600060208284031215611ed257600080fd5b6000611ee084828501611eab565b91505092915050565b60008060408385031215611efc57600080fd5b6000611f0a85828601611eab565b9250506020611f1b85828601611eab565b9150509250929050565b6000806000806000806000806000806101408b8d031215611f4557600080fd5b6000611f538d828e01611eab565b9a50506020611f648d828e01611eab565b9950506040611f758d828e01611eab565b98505060608b013567ffffffffffffffff811115611f9257600080fd5b611f9e8d828e01611e57565b9750506080611faf8d828e01611eab565b96505060a08b013567ffffffffffffffff811115611fcc57600080fd5b611fd88d828e01611de3565b95505060c0611fe98d828e01611eab565b94505060e0611ffa8d828e01611eab565b93505061010061200c8d828e01611eab565b9250506101208b013567ffffffffffffffff81111561202a57600080fd5b6120368d828e01611e57565b9150509295989b9194979a5092959850565b60006120548383612147565b905092915050565b600061206883836123ab565b60c08301905092915050565b600061207f8261274a565b6120898185612785565b93508360208202850161209b8561272a565b8060005b858110156120d757848403895281516120b88582612048565b94506120c38361276b565b925060208a0199505060018101905061209f565b50829750879550505050505092915050565b60006120f482612755565b6120fe8185612796565b93506121098361273a565b8060005b8381101561213a578151612121888261205c565b975061212c83612778565b92505060018101905061210d565b5085935050505092915050565b600061215282612760565b61215c81856127a7565b935061216c8185602086016127e2565b61217581612815565b840191505092915050565b600061218b82612760565b61219581856127b8565b93506121a58185602086016127e2565b6121ae81612815565b840191505092915050565b60006121c6601b836127b8565b91507f536166654d6174683a206164646974696f6e206f766572666c6f7700000000006000830152602082019050919050565b60006122066021836127b8565b91507f536166654d6174683a206d756c7469706c69636174696f6e206f766572666c6f60008301527f77000000000000000000000000000000000000000000000000000000000000006020830152604082019050919050565b60006102608301600083015161227860008601826124de565b50602083015161228b60208601826124de565b50604083015161229e60408601826124de565b50606083015184820360608601526122b68282612147565b915050608083015184820360808601526122d082826120e9565b91505060a08301516122e560a08601826123ab565b5060c08301518482036101608601526122fe8282612074565b91505060e08301518482036101808601526123198282612074565b9150506101008301516123306101a08601826124de565b506101208301516123456101c08601826124de565b5061014083015161235a6101e08601826124de565b5061016083015161236f6102008601826124de565b506101808301516123846102208601826124de565b506101a083015184820361024086015261239e8282612147565b9150508091505092915050565b60c0820160008201516123c160008501826124de565b5060208201516123d460208501826124de565b5060408201516123e760408501826124de565b5060608201516123fa60608501826124de565b50608082015161240d60808501826124de565b5060a082015161242060a08501826124de565b50505050565b60c08201600082015161243c60008501826124de565b50602082015161244f60208501826124de565b50604082015161246260408501826124de565b50606082015161247560608501826124de565b50608082015161248860808501826124de565b5060a082015161249b60a08501826124de565b50505050565b600060408301600083015184820360008601526124be8282612147565b91505060208301516124d360208601826124de565b508091505092915050565b6124e7816127c9565b82525050565b6124f6816127c9565b82525050565b600060208201905081810360008301526125168184612180565b905092915050565b600060408201905081810360008301526125388185612180565b905061254760208301846124ed565b9392505050565b60006020820190508181036000830152612567816121b9565b9050919050565b60006020820190508181036000830152612587816121f9565b9050919050565b600060208201905081810360008301526125a8818461225f565b905092915050565b600060c0820190506125c56000830184612426565b92915050565b600060208201905081810360008301526125e581846124a1565b905092915050565b600061020082019050612603600083018e6124ed565b612610602083018d6124ed565b61261d604083018c6124ed565b818103606083015261262f818b612180565b905061263e608083018a612426565b61264c6101408301896124ed565b61265a6101608301886124ed565b6126686101808301876124ed565b6126766101a08301866124ed565b6126846101c08301856124ed565b8181036101e08301526126978184612180565b90509c9b505050505050505050505050565b6000604051905081810181811067ffffffffffffffff821117156126cc57600080fd5b8060405250919050565b600067ffffffffffffffff8211156126ed57600080fd5b602082029050602081019050919050565b600067ffffffffffffffff82111561271557600080fd5b601f19601f8301169050602081019050919050565b6000819050602082019050919050565b6000819050602082019050919050565b600081519050919050565b600081519050919050565b600081519050919050565b6000602082019050919050565b6000602082019050919050565b600082825260208201905092915050565b600082825260208201905092915050565b600082825260208201905092915050565b600082825260208201905092915050565b6000819050919050565b82818337600083830152505050565b60005b838110156128005780820151818401526020810190506127e5565b8381111561280f576000848401525b50505050565b6000601f19601f8301169050919050565b61282f816127c9565b811461283a57600080fd5b5056fea2646970667358221220d15b9ee129f35ddc0d0e3aa658c0bbde99d31db2fab3f92d759a77188773fdd264736f6c63430006060033",
  "immutableReferences": {},
  "source": "pragma solidity ^0.6.0;\r\npragma experimental ABIEncoderV2;\r\nimport \"./SafeMath.sol\";\r\n\r\ncontract newProp{\r\n    using SafeMath for uint256;\r\n    uint id =0;\r\n    string[] public items;\r\n    struct coinIssue{\r\n        uint256 coin_issue;\r\n        uint256 org_val;\r\n        uint256 equity_at_issuance;\r\n        uint256 curr_val;\r\n        uint256 tot_curr_val;\r\n        uint256 increase;\r\n    \r\n    }\r\n    \r\n    struct Prop_Value_Details{\r\n        uint256 Orig_Value;\r\n        uint256 Curr_Value;\r\n        uint256 Orig_Issue_Rate;\r\n        string next_reevaluation_date;\r\n        coinIssue[] coins_issue;\r\n        coinIssue total_coins_issue;\r\n        string[] Property_images;\r\n        string[] Property_location;\r\n        uint256 taxes;\r\n        uint256 insurance;\r\n        uint256 maintainence;\r\n        uint256 total;\r\n        uint256 monthly_hoa_payment;\r\n        string property_features;\r\n        }\r\n        \r\n       struct myDetail{\r\n           string name;\r\n           uint age;\r\n       }\r\n        \r\n       \r\n        \r\n        mapping(uint256 => Prop_Value_Details) public prop;\r\n        mapping(uint256 => myDetail) public mydet;\r\n\r\n        function setdetail() public returns(myDetail memory){\r\n              mydet[0].name=\"abc\";\r\n              mydet[0].age=21;\r\n              return mydet[0];\r\n        }\r\n        \r\n        function getdetail() public view returns(myDetail memory){\r\n             return mydet[0];\r\n        }\r\n        \r\n        \r\n        function getArray(uint256 property_id,uint256 index) public view returns(coinIssue memory){\r\n            return prop[property_id].coins_issue[index];\r\n        }\r\n\r\n        function getMetaData(uint propertyid) public view returns(Prop_Value_Details memory){\r\n            return prop[propertyid];\r\n        }\r\n        \r\n        function setMetaData_of_Property(uint256 origVal,\r\n                                         uint256 currVal,\r\n                                         uint256 orig_rate,\r\n                                         string memory date,\r\n                                         uint256 coins,\r\n                                         string[] memory pro_add_details,\r\n                                         uint prop_tax,\r\n                                         uint prop_insurance,\r\n                                         uint prop_maintainence,\r\n                                         string memory features_prop) public {\r\n                                 \r\n\r\n         coinIssue memory coinsdetails;\r\n        \r\n        \r\n         prop[id].Orig_Value = origVal;\r\n         prop[id].Curr_Value = currVal;\r\n         prop[id].Orig_Issue_Rate = orig_rate;\r\n         prop[id].next_reevaluation_date = date;\r\n    \r\n         coinsdetails.coin_issue = coins;\r\n         coinsdetails.org_val = 100;\r\n         coinsdetails.equity_at_issuance =  (coins.mul(100)).div(origVal);\r\n         \r\n         uint temp = (currVal.sub(origVal));\r\n         uint temp1=  (temp.mul(100)).div(origVal);\r\n         \r\n         coinsdetails.curr_val = temp1.add(100);\r\n         coinsdetails.tot_curr_val = ((coinsdetails.curr_val).mul(coins)).div(100);\r\n        \r\n         uint curr = coinsdetails.tot_curr_val;\r\n         uint orig=  ((coinsdetails.org_val).mul(coins)).div(100);\r\n         coinsdetails.increase = ((curr.sub(orig)).mul(10000)).div(orig);\r\n        \r\n         prop[id].coins_issue.push(coinsdetails);\r\n         prop[id].total_coins_issue = coinsdetails;\r\n         \r\n         for(uint i=0;i<pro_add_details.length;i++){\r\n         items.push(pro_add_details[i]);\r\n         }\r\n         prop[id].Property_location = items;\r\n         delete items;\r\n         \r\n         prop[id].taxes = prop_tax;\r\n         prop[id].insurance = prop_insurance;\r\n         prop[id].maintainence = prop_maintainence;\r\n         \r\n         prop[id].total = (prop_tax.add(prop_insurance)).add(prop_maintainence);\r\n         prop[id].monthly_hoa_payment = (prop[id].total).div(12);\r\n         prop[id].property_features = features_prop;\r\n        //  return prop[id++];\r\n                                 \r\n        }\r\n    \r\n        \r\n         function issue_coins_for_Property(uint256 property_id,uint256 coins) public {\r\n                                 \r\n         if(prop[property_id].coins_issue.length >= 1)\r\n        {\r\n         coinIssue memory coinsdetails;\r\n        \r\n         Prop_Value_Details memory property_details;\r\n         \r\n         property_details = prop[property_id];\r\n    \r\n         coinsdetails.coin_issue = coins;\r\n         \r\n         uint len = property_details.coins_issue.length;\r\n         \r\n         coinsdetails.org_val = property_details.coins_issue[len-1].curr_val;\r\n         coinsdetails.equity_at_issuance =  (coins.mul(100)).div(property_details.Orig_Value);\r\n         \r\n         uint temp = (property_details.Curr_Value).sub((property_details.Orig_Value));\r\n         uint temp1=  (temp.mul(100)).div(property_details.Orig_Value);\r\n         \r\n         coinsdetails.curr_val = temp1.add(100);\r\n         coinsdetails.tot_curr_val = ((coinsdetails.curr_val).mul(coins)).div(100);\r\n        \r\n         uint curr = coinsdetails.tot_curr_val;\r\n         uint orig=  ((coinsdetails.org_val).mul(coins)).div(100);\r\n         coinsdetails.increase = ((curr.sub(orig)).mul(10000)).div(orig);\r\n        \r\n         prop[property_id].coins_issue.push(coinsdetails);\r\n         \r\n         \r\n         coinIssue memory c;\r\n         \r\n         c=prop[property_id].total_coins_issue;\r\n         \r\n         c.coin_issue=(c.coin_issue).add(coinsdetails.coin_issue);\r\n         c.org_val = coinsdetails.org_val;\r\n         c.equity_at_issuance=(c.equity_at_issuance).add(coinsdetails.equity_at_issuance);\r\n         c.curr_val =coinsdetails.curr_val;\r\n         c.tot_curr_val = (c.tot_curr_val).add(coinsdetails.tot_curr_val);\r\n         \r\n         prop[property_id].total_coins_issue = c;\r\n         \r\n        //  return prop[property_id];\r\n        }                         \r\n    }\r\n}",
  "sourcePath": "C:/MyProjects/Code2Learn/Quest/nft/src/contracts/newProp.sol",
  "compiler": {
    "name": "solc",
    "version": "0.6.6+commit.6c089d02.Emscripten.clang"
  },
  "schemaVersion": "3.3.1",
  "updatedAt": "2020-11-06T11:01:24.827Z",
  "devdoc": {
    "methods": {}
  },
  "userdoc": {
    "methods": {}
  }
}