{
  "contractName": "newProp",
  "abi": [
    {
      "inputs": [
        {
          "internalType": "uint256",
          "name": "",
          "type": "uint256"
        }
      ],
      "name": "items",
      "outputs": [
        {
          "internalType": "string",
          "name": "",
          "type": "string"
        }
      ],
      "stateMutability": "view",
      "type": "function"
    },
    {
      "inputs": [
        {
          "internalType": "uint256",
          "name": "",
          "type": "uint256"
        }
      ],
      "name": "mydet",
      "outputs": [
        {
          "internalType": "string",
          "name": "name",
          "type": "string"
        },
        {
          "internalType": "uint256",
          "name": "age",
          "type": "uint256"
        }
      ],
      "stateMutability": "view",
      "type": "function"
    },
    {
      "inputs": [
        {
          "internalType": "uint256",
          "name": "",
          "type": "uint256"
        }
      ],
      "name": "prop",
      "outputs": [
        {
          "internalType": "uint256",
          "name": "Orig_Value",
          "type": "uint256"
        },
        {
          "internalType": "uint256",
          "name": "Curr_Value",
          "type": "uint256"
        },
        {
          "internalType": "uint256",
          "name": "Orig_Issue_Rate",
          "type": "uint256"
        },
        {
          "internalType": "string",
          "name": "next_reevaluation_date",
          "type": "string"
        },
        {
          "components": [
            {
              "internalType": "uint256",
              "name": "coin_issue",
              "type": "uint256"
            },
            {
              "internalType": "uint256",
              "name": "org_val",
              "type": "uint256"
            },
            {
              "internalType": "uint256",
              "name": "equity_at_issuance",
              "type": "uint256"
            },
            {
              "internalType": "uint256",
              "name": "curr_val",
              "type": "uint256"
            },
            {
              "internalType": "uint256",
              "name": "tot_curr_val",
              "type": "uint256"
            },
            {
              "internalType": "uint256",
              "name": "increase",
              "type": "uint256"
            }
          ],
          "internalType": "struct newProp.coinIssue",
          "name": "total_coins_issue",
          "type": "tuple"
        },
        {
          "internalType": "uint256",
          "name": "taxes",
          "type": "uint256"
        },
        {
          "internalType": "uint256",
          "name": "insurance",
          "type": "uint256"
        },
        {
          "internalType": "uint256",
          "name": "maintainence",
          "type": "uint256"
        },
        {
          "internalType": "uint256",
          "name": "total",
          "type": "uint256"
        },
        {
          "internalType": "uint256",
          "name": "monthly_hoa_payment",
          "type": "uint256"
        },
        {
          "internalType": "string",
          "name": "property_features",
          "type": "string"
        }
      ],
      "stateMutability": "view",
      "type": "function"
    },
    {
      "inputs": [],
      "name": "setdetail",
      "outputs": [
        {
          "components": [
            {
              "internalType": "string",
              "name": "name",
              "type": "string"
            },
            {
              "internalType": "uint256",
              "name": "age",
              "type": "uint256"
            }
          ],
          "internalType": "struct newProp.myDetail",
          "name": "",
          "type": "tuple"
        }
      ],
      "stateMutability": "nonpayable",
      "type": "function"
    },
    {
      "inputs": [],
      "name": "getdetail",
      "outputs": [
        {
          "components": [
            {
              "internalType": "string",
              "name": "name",
              "type": "string"
            },
            {
              "internalType": "uint256",
              "name": "age",
              "type": "uint256"
            }
          ],
          "internalType": "struct newProp.myDetail",
          "name": "",
          "type": "tuple"
        }
      ],
      "stateMutability": "view",
      "type": "function"
    },
    {
      "inputs": [
        {
          "internalType": "uint256",
          "name": "property_id",
          "type": "uint256"
        },
        {
          "internalType": "uint256",
          "name": "index",
          "type": "uint256"
        }
      ],
      "name": "getArray",
      "outputs": [
        {
          "components": [
            {
              "internalType": "uint256",
              "name": "coin_issue",
              "type": "uint256"
            },
            {
              "internalType": "uint256",
              "name": "org_val",
              "type": "uint256"
            },
            {
              "internalType": "uint256",
              "name": "equity_at_issuance",
              "type": "uint256"
            },
            {
              "internalType": "uint256",
              "name": "curr_val",
              "type": "uint256"
            },
            {
              "internalType": "uint256",
              "name": "tot_curr_val",
              "type": "uint256"
            },
            {
              "internalType": "uint256",
              "name": "increase",
              "type": "uint256"
            }
          ],
          "internalType": "struct newProp.coinIssue",
          "name": "",
          "type": "tuple"
        }
      ],
      "stateMutability": "view",
      "type": "function"
    },
    {
      "inputs": [
        {
          "internalType": "uint256",
          "name": "propertyid",
          "type": "uint256"
        }
      ],
      "name": "getMetaData",
      "outputs": [
        {
          "components": [
            {
              "internalType": "uint256",
              "name": "Orig_Value",
              "type": "uint256"
            },
            {
              "internalType": "uint256",
              "name": "Curr_Value",
              "type": "uint256"
            },
            {
              "internalType": "uint256",
              "name": "Orig_Issue_Rate",
              "type": "uint256"
            },
            {
              "internalType": "string",
              "name": "next_reevaluation_date",
              "type": "string"
            },
            {
              "components": [
                {
                  "internalType": "uint256",
                  "name": "coin_issue",
                  "type": "uint256"
                },
                {
                  "internalType": "uint256",
                  "name": "org_val",
                  "type": "uint256"
                },
                {
                  "internalType": "uint256",
                  "name": "equity_at_issuance",
                  "type": "uint256"
                },
                {
                  "internalType": "uint256",
                  "name": "curr_val",
                  "type": "uint256"
                },
                {
                  "internalType": "uint256",
                  "name": "tot_curr_val",
                  "type": "uint256"
                },
                {
                  "internalType": "uint256",
                  "name": "increase",
                  "type": "uint256"
                }
              ],
              "internalType": "struct newProp.coinIssue[]",
              "name": "coins_issue",
              "type": "tuple[]"
            },
            {
              "components": [
                {
                  "internalType": "uint256",
                  "name": "coin_issue",
                  "type": "uint256"
                },
                {
                  "internalType": "uint256",
                  "name": "org_val",
                  "type": "uint256"
                },
                {
                  "internalType": "uint256",
                  "name": "equity_at_issuance",
                  "type": "uint256"
                },
                {
                  "internalType": "uint256",
                  "name": "curr_val",
                  "type": "uint256"
                },
                {
                  "internalType": "uint256",
                  "name": "tot_curr_val",
                  "type": "uint256"
                },
                {
                  "internalType": "uint256",
                  "name": "increase",
                  "type": "uint256"
                }
              ],
              "internalType": "struct newProp.coinIssue",
              "name": "total_coins_issue",
              "type": "tuple"
            },
            {
              "internalType": "string[]",
              "name": "Property_images",
              "type": "string[]"
            },
            {
              "internalType": "string[]",
              "name": "Property_location",
              "type": "string[]"
            },
            {
              "internalType": "uint256",
              "name": "taxes",
              "type": "uint256"
            },
            {
              "internalType": "uint256",
              "name": "insurance",
              "type": "uint256"
            },
            {
              "internalType": "uint256",
              "name": "maintainence",
              "type": "uint256"
            },
            {
              "internalType": "uint256",
              "name": "total",
              "type": "uint256"
            },
            {
              "internalType": "uint256",
              "name": "monthly_hoa_payment",
              "type": "uint256"
            },
            {
              "internalType": "string",
              "name": "property_features",
              "type": "string"
            }
          ],
          "internalType": "struct newProp.Prop_Value_Details",
          "name": "",
          "type": "tuple"
        }
      ],
      "stateMutability": "view",
      "type": "function"
    },
    {
      "inputs": [
        {
          "internalType": "uint256",
          "name": "origVal",
          "type": "uint256"
        },
        {
          "internalType": "uint256",
          "name": "currVal",
          "type": "uint256"
        },
        {
          "internalType": "uint256",
          "name": "orig_rate",
          "type": "uint256"
        },
        {
          "internalType": "string",
          "name": "date",
          "type": "string"
        },
        {
          "internalType": "uint256",
          "name": "coins",
          "type": "uint256"
        },
        {
          "internalType": "string[]",
          "name": "pro_add_details",
          "type": "string[]"
        },
        {
          "internalType": "uint256",
          "name": "prop_tax",
          "type": "uint256"
        },
        {
          "internalType": "uint256",
          "name": "prop_insurance",
          "type": "uint256"
        },
        {
          "internalType": "uint256",
          "name": "prop_maintainence",
          "type": "uint256"
        },
        {
          "internalType": "string",
          "name": "features_prop",
          "type": "string"
        }
      ],
      "name": "setMetaData_of_Property",
      "outputs": [],
      "stateMutability": "nonpayable",
      "type": "function"
    },
    {
      "inputs": [
        {
          "internalType": "uint256",
          "name": "property_id",
          "type": "uint256"
        },
        {
          "internalType": "uint256",
          "name": "coins",
          "type": "uint256"
        }
      ],
      "name": "issue_coins_for_Property",
      "outputs": [],
      "stateMutability": "nonpayable",
      "type": "function"
    }
  ],
  "bytecode": "0x60806040526000805534801561001457600080fd5b50612860806100246000396000f3fe608060405234801561001057600080fd5b50600436106100935760003560e01c806375f68e3c1161006657806375f68e3c1461013c578063767631e51461015a5780637ab2bb2d14610176578063bfb231d2146101a7578063fc11989c146101d757610093565b8063190be8b1146100985780633724262c146100d25780633ac65bf7146100ee57806361eba5521461010c575b600080fd5b6100b260048036038101906100ad9190611ead565b610207565b6040516100c99b9a999897969594939291906125da565b60405180910390f35b6100ec60048036038101906100e79190611f12565b6103d7565b005b6100f6610839565b60405161010391906125b8565b60405180910390f35b61012660048036038101906101219190611ead565b610910565b604051610133919061257b565b60405180910390f35b610144610d8f565b60405161015191906125b8565b60405180910390f35b610174600480360381019061016f9190611ed6565b610ee2565b005b610190600480360381019061018b9190611ead565b6116da565b60405161019e92919061250b565b60405180910390f35b6101c160048036038101906101bc9190611ead565b611796565b6040516101ce91906124e9565b60405180910390f35b6101f160048036038101906101ec9190611ed6565b61184f565b6040516101fe919061259d565b60405180910390f35b6002602052806000526040600020600091509050806000015490806001015490806002015490806003018054600181600116156101000203166002900480601f0160208091040260200160405190810160405280929190818152602001828054600181600116156101000203166002900480156102c55780601f1061029a576101008083540402835291602001916102c5565b820191906000526020600020905b8154815290600101906020018083116102a857829003601f168201915b505050505090806005016040518060c001604052908160008201548152602001600182015481526020016002820154815260200160038201548152602001600482015481526020016005820154815250509080600d01549080600e01549080600f015490806010015490806011015490806012018054600181600116156101000203166002900480601f0160208091040260200160405190810160405280929190818152602001828054600181600116156101000203166002900480156103cd5780601f106103a2576101008083540402835291602001916103cd565b820191906000526020600020905b8154815290600101906020018083116103b057829003601f168201915b505050505090508b565b6103df611aea565b8a6002600080548152602001908152602001600020600001819055508960026000805481526020019081526020016000206001018190555088600260008054815260200190815260200160002060020181905550876002600080548152602001908152602001600020600301908051906020019061045e929190611b20565b5086816000018181525050606481602001818152505061049a8b61048c60648a6118d590919063ffffffff16565b61194590919063ffffffff16565b81604001818152505060006104b88c8c61198f90919063ffffffff16565b905060006104e28d6104d46064856118d590919063ffffffff16565b61194590919063ffffffff16565b90506104f86064826119d990919063ffffffff16565b83606001818152505061052b606461051d8b86606001516118d590919063ffffffff16565b61194590919063ffffffff16565b8360800181815250506000836080015190506000610569606461055b8d88602001516118d590919063ffffffff16565b61194590919063ffffffff16565b90506105a481610596612710610588858761198f90919063ffffffff16565b6118d590919063ffffffff16565b61194590919063ffffffff16565b8560a00181815250506002600080548152602001908152602001600020600401859080600181540180825580915050600190039060005260206000209060060201600090919091909150600082015181600001556020820151816001015560408201518160020155606082015181600301556080820151816004015560a082015181600501555050846002600080548152602001908152602001600020600501600082015181600001556020820151816001015560408201518160020155606082015181600301556080820151816004015560a0820151816005015590505060005b8a518110156106eb5760018b828151811061069d57fe5b60200260200101519080600181540180825580915050600190039060005260206000200160009091909190915090805190602001906106dd929190611b20565b508080600101915050610686565b5060016002600080548152602001908152602001600020600c01908054610713929190611ba0565b50600160006107229190611c10565b886002600080548152602001908152602001600020600d0181905550876002600080548152602001908152602001600020600e0181905550866002600080548152602001908152602001600020600f018190555061079b8761078d8a8c6119d990919063ffffffff16565b6119d990919063ffffffff16565b6002600080548152602001908152602001600020601001819055506107e1600c60026000805481526020019081526020016000206010015461194590919063ffffffff16565b6002600080548152602001908152602001600020601101819055508560026000805481526020019081526020016000206012019080519060200190610827929190611b20565b50505050505050505050505050505050565b610841611c31565b60036000808152602001908152602001600020604051806040016040529081600082018054600181600116156101000203166002900480601f0160208091040260200160405190810160405280929190818152602001828054600181600116156101000203166002900480156108f85780601f106108cd576101008083540402835291602001916108f8565b820191906000526020600020905b8154815290600101906020018083116108db57829003601f168201915b50505050508152602001600182015481525050905090565b610918611c4b565b60026000838152602001908152602001600020604051806101c0016040529081600082015481526020016001820154815260200160028201548152602001600382018054600181600116156101000203166002900480601f0160208091040260200160405190810160405280929190818152602001828054600181600116156101000203166002900480156109ee5780601f106109c3576101008083540402835291602001916109ee565b820191906000526020600020905b8154815290600101906020018083116109d157829003601f168201915b5050505050815260200160048201805480602002602001604051908101604052809291908181526020016000905b82821015610a8a57838290600052602060002090600602016040518060c0016040529081600082015481526020016001820154815260200160028201548152602001600382015481526020016004820154815260200160058201548152505081526020019060010190610a1c565b505050508152602001600582016040518060c001604052908160008201548152602001600182015481526020016002820154815260200160038201548152602001600482015481526020016005820154815250508152602001600b8201805480602002602001604051908101604052809291908181526020016000905b82821015610bc3578382906000526020600020018054600181600116156101000203166002900480601f016020809104026020016040519081016040528092919081815260200182805460018160011615610100020316600290048015610baf5780601f10610b8457610100808354040283529160200191610baf565b820191906000526020600020905b815481529060010190602001808311610b9257829003601f168201915b505050505081526020019060010190610b07565b505050508152602001600c8201805480602002602001604051908101604052809291908181526020016000905b82821015610cac578382906000526020600020018054600181600116156101000203166002900480601f016020809104026020016040519081016040528092919081815260200182805460018160011615610100020316600290048015610c985780601f10610c6d57610100808354040283529160200191610c98565b820191906000526020600020905b815481529060010190602001808311610c7b57829003601f168201915b505050505081526020019060010190610bf0565b505050508152602001600d8201548152602001600e8201548152602001600f82015481526020016010820154815260200160118201548152602001601282018054600181600116156101000203166002900480601f016020809104026020016040519081016040528092919081815260200182805460018160011615610100020316600290048015610d7f5780601f10610d5457610100808354040283529160200191610d7f565b820191906000526020600020905b815481529060010190602001808311610d6257829003601f168201915b5050505050815250509050919050565b610d97611c31565b6040518060400160405280600381526020017f6162630000000000000000000000000000000000000000000000000000000000815250600360008081526020019081526020016000206000019080519060200190610df6929190611b20565b506015600360008081526020019081526020016000206001018190555060036000808152602001908152602001600020604051806040016040529081600082018054600181600116156101000203166002900480601f016020809104026020016040519081016040528092919081815260200182805460018160011615610100020316600290048015610eca5780601f10610e9f57610100808354040283529160200191610eca565b820191906000526020600020905b815481529060010190602001808311610ead57829003601f168201915b50505050508152602001600182015481525050905090565b60016002600084815260200190815260200160002060040180549050106116d657610f0b611aea565b610f13611c4b565b60026000858152602001908152602001600020604051806101c0016040529081600082015481526020016001820154815260200160028201548152602001600382018054600181600116156101000203166002900480601f016020809104026020016040519081016040528092919081815260200182805460018160011615610100020316600290048015610fe95780601f10610fbe57610100808354040283529160200191610fe9565b820191906000526020600020905b815481529060010190602001808311610fcc57829003601f168201915b5050505050815260200160048201805480602002602001604051908101604052809291908181526020016000905b8282101561108557838290600052602060002090600602016040518060c0016040529081600082015481526020016001820154815260200160028201548152602001600382015481526020016004820154815260200160058201548152505081526020019060010190611017565b505050508152602001600582016040518060c001604052908160008201548152602001600182015481526020016002820154815260200160038201548152602001600482015481526020016005820154815250508152602001600b8201805480602002602001604051908101604052809291908181526020016000905b828210156111be578382906000526020600020018054600181600116156101000203166002900480601f0160208091040260200160405190810160405280929190818152602001828054600181600116156101000203166002900480156111aa5780601f1061117f576101008083540402835291602001916111aa565b820191906000526020600020905b81548152906001019060200180831161118d57829003601f168201915b505050505081526020019060010190611102565b505050508152602001600c8201805480602002602001604051908101604052809291908181526020016000905b828210156112a7578382906000526020600020018054600181600116156101000203166002900480601f0160208091040260200160405190810160405280929190818152602001828054600181600116156101000203166002900480156112935780601f1061126857610100808354040283529160200191611293565b820191906000526020600020905b81548152906001019060200180831161127657829003601f168201915b5050505050815260200190600101906111eb565b505050508152602001600d8201548152602001600e8201548152602001600f82015481526020016010820154815260200160118201548152602001601282018054600181600116156101000203166002900480601f01602080910402602001604051908101604052809291908181526020018280546001816001161561010002031660029004801561137a5780601f1061134f5761010080835404028352916020019161137a565b820191906000526020600020905b81548152906001019060200180831161135d57829003601f168201915b50505050508152505090508282600001818152505060008160800151519050816080015160018203815181106113ac57fe5b6020026020010151606001518360200181815250506113eb82600001516113dd6064876118d590919063ffffffff16565b61194590919063ffffffff16565b83604001818152505060006114118360000151846020015161198f90919063ffffffff16565b9050600061143f84600001516114316064856118d590919063ffffffff16565b61194590919063ffffffff16565b90506114556064826119d990919063ffffffff16565b856060018181525050611488606461147a8888606001516118d590919063ffffffff16565b61194590919063ffffffff16565b85608001818152505060008560800151905060006114c660646114b88a8a602001516118d590919063ffffffff16565b61194590919063ffffffff16565b9050611501816114f36127106114e5858761198f90919063ffffffff16565b6118d590919063ffffffff16565b61194590919063ffffffff16565b8760a0018181525050600260008a8152602001908152602001600020600401879080600181540180825580915050600190039060005260206000209060060201600090919091909150600082015181600001556020820151816001015560408201518160020155606082015181600301556080820151816004015560a082015181600501555050611590611aea565b600260008b81526020019081526020016000206005016040518060c00160405290816000820154815260200160018201548152602001600282015481526020016003820154815260200160048201548152602001600582015481525050905061160a886000015182600001516119d990919063ffffffff16565b816000018181525050876020015181602001818152505061163c886040015182604001516119d990919063ffffffff16565b816040018181525050876060015181606001818152505061166e886080015182608001516119d990919063ffffffff16565b81608001818152505080600260008c8152602001908152602001600020600501600082015181600001556020820151816001015560408201518160020155606082015181600301556080820151816004015560a0820151816005015590505050505050505050505b5050565b6003602052806000526040600020600091509050806000018054600181600116156101000203166002900480601f0160208091040260200160405190810160405280929190818152602001828054600181600116156101000203166002900480156117865780601f1061175b57610100808354040283529160200191611786565b820191906000526020600020905b81548152906001019060200180831161176957829003601f168201915b5050505050908060010154905082565b600181815481106117a357fe5b906000526020600020016000915090508054600181600116156101000203166002900480601f0160208091040260200160405190810160405280929190818152602001828054600181600116156101000203166002900480156118475780601f1061181c57610100808354040283529160200191611847565b820191906000526020600020905b81548152906001019060200180831161182a57829003601f168201915b505050505081565b611857611aea565b60026000848152602001908152602001600020600401828154811061187857fe5b90600052602060002090600602016040518060c00160405290816000820154815260200160018201548152602001600282015481526020016003820154815260200160048201548152602001600582015481525050905092915050565b6000808314156118e8576000905061193f565b60008284029050828482816118f957fe5b041461193a576040517f08c379a00000000000000000000000000000000000000000000000000000000081526004016119319061255b565b60405180910390fd5b809150505b92915050565b600061198783836040518060400160405280601a81526020017f536166654d6174683a206469766973696f6e206279207a65726f000000000000815250611a2e565b905092915050565b60006119d183836040518060400160405280601e81526020017f536166654d6174683a207375627472616374696f6e206f766572666c6f770000815250611a8f565b905092915050565b600080828401905083811015611a24576040517f08c379a0000000000000000000000000000000000000000000000000000000008152600401611a1b9061253b565b60405180910390fd5b8091505092915050565b60008083118290611a75576040517f08c379a0000000000000000000000000000000000000000000000000000000008152600401611a6c91906124e9565b60405180910390fd5b506000838581611a8157fe5b049050809150509392505050565b6000838311158290611ad7576040517f08c379a0000000000000000000000000000000000000000000000000000000008152600401611ace91906124e9565b60405180910390fd5b5060008385039050809150509392505050565b6040518060c001604052806000815260200160008152602001600081526020016000815260200160008152602001600081525090565b828054600181600116156101000203166002900490600052602060002090601f016020900481019282601f10611b6157805160ff1916838001178555611b8f565b82800160010185558215611b8f579182015b82811115611b8e578251825591602001919060010190611b73565b5b509050611b9c9190611cc0565b5090565b828054828255906000526020600020908101928215611bff5760005260206000209182015b82811115611bfe5782829080546001816001161561010002031660029004611bee929190611cdd565b5091600101919060010190611bc5565b5b509050611c0c9190611d64565b5090565b5080546000825590600052602060002090810190611c2e9190611d64565b50565b604051806040016040528060608152602001600081525090565b604051806101c001604052806000815260200160008152602001600081526020016060815260200160608152602001611c82611aea565b815260200160608152602001606081526020016000815260200160008152602001600081526020016000815260200160008152602001606081525090565b5b80821115611cd9576000816000905550600101611cc1565b5090565b828054600181600116156101000203166002900490600052602060002090601f016020900481019282601f10611d165780548555611d53565b82800160010185558215611d5357600052602060002091601f016020900482015b82811115611d52578254825591600101919060010190611d37565b5b509050611d609190611cc0565b5090565b5b80821115611d845760008181611d7b9190611d88565b50600101611d65565b5090565b50805460018160011615610100020316600290046000825580601f10611dae5750611dcd565b601f016020900490600052602060002090810190611dcc9190611cc0565b5b50565b600082601f830112611de157600080fd5b8135611df4611def826126c3565b612696565b9150818183526020840193506020810190508360005b83811015611e3a5781358601611e208882611e44565b845260208401935060208301925050600181019050611e0a565b5050505092915050565b600082601f830112611e5557600080fd5b8135611e68611e63826126eb565b612696565b91508082526020830160208301858383011115611e8457600080fd5b611e8f8382846127c0565b50505092915050565b600081359050611ea781612813565b92915050565b600060208284031215611ebf57600080fd5b6000611ecd84828501611e98565b91505092915050565b60008060408385031215611ee957600080fd5b6000611ef785828601611e98565b9250506020611f0885828601611e98565b9150509250929050565b6000806000806000806000806000806101408b8d031215611f3257600080fd5b6000611f408d828e01611e98565b9a50506020611f518d828e01611e98565b9950506040611f628d828e01611e98565b98505060608b013567ffffffffffffffff811115611f7f57600080fd5b611f8b8d828e01611e44565b9750506080611f9c8d828e01611e98565b96505060a08b013567ffffffffffffffff811115611fb957600080fd5b611fc58d828e01611dd0565b95505060c0611fd68d828e01611e98565b94505060e0611fe78d828e01611e98565b935050610100611ff98d828e01611e98565b9250506101208b013567ffffffffffffffff81111561201757600080fd5b6120238d828e01611e44565b9150509295989b9194979a5092959850565b60006120418383612134565b905092915050565b60006120558383612398565b60c08301905092915050565b600061206c82612737565b6120768185612772565b93508360208202850161208885612717565b8060005b858110156120c457848403895281516120a58582612035565b94506120b083612758565b925060208a0199505060018101905061208c565b50829750879550505050505092915050565b60006120e182612742565b6120eb8185612783565b93506120f683612727565b8060005b8381101561212757815161210e8882612049565b975061211983612765565b9250506001810190506120fa565b5085935050505092915050565b600061213f8261274d565b6121498185612794565b93506121598185602086016127cf565b61216281612802565b840191505092915050565b60006121788261274d565b61218281856127a5565b93506121928185602086016127cf565b61219b81612802565b840191505092915050565b60006121b3601b836127a5565b91507f536166654d6174683a206164646974696f6e206f766572666c6f7700000000006000830152602082019050919050565b60006121f36021836127a5565b91507f536166654d6174683a206d756c7469706c69636174696f6e206f766572666c6f60008301527f77000000000000000000000000000000000000000000000000000000000000006020830152604082019050919050565b60006102608301600083015161226560008601826124cb565b50602083015161227860208601826124cb565b50604083015161228b60408601826124cb565b50606083015184820360608601526122a38282612134565b915050608083015184820360808601526122bd82826120d6565b91505060a08301516122d260a0860182612398565b5060c08301518482036101608601526122eb8282612061565b91505060e08301518482036101808601526123068282612061565b91505061010083015161231d6101a08601826124cb565b506101208301516123326101c08601826124cb565b506101408301516123476101e08601826124cb565b5061016083015161235c6102008601826124cb565b506101808301516123716102208601826124cb565b506101a083015184820361024086015261238b8282612134565b9150508091505092915050565b60c0820160008201516123ae60008501826124cb565b5060208201516123c160208501826124cb565b5060408201516123d460408501826124cb565b5060608201516123e760608501826124cb565b5060808201516123fa60808501826124cb565b5060a082015161240d60a08501826124cb565b50505050565b60c08201600082015161242960008501826124cb565b50602082015161243c60208501826124cb565b50604082015161244f60408501826124cb565b50606082015161246260608501826124cb565b50608082015161247560808501826124cb565b5060a082015161248860a08501826124cb565b50505050565b600060408301600083015184820360008601526124ab8282612134565b91505060208301516124c060208601826124cb565b508091505092915050565b6124d4816127b6565b82525050565b6124e3816127b6565b82525050565b60006020820190508181036000830152612503818461216d565b905092915050565b60006040820190508181036000830152612525818561216d565b905061253460208301846124da565b9392505050565b60006020820190508181036000830152612554816121a6565b9050919050565b60006020820190508181036000830152612574816121e6565b9050919050565b60006020820190508181036000830152612595818461224c565b905092915050565b600060c0820190506125b26000830184612413565b92915050565b600060208201905081810360008301526125d2818461248e565b905092915050565b6000610200820190506125f0600083018e6124da565b6125fd602083018d6124da565b61260a604083018c6124da565b818103606083015261261c818b61216d565b905061262b608083018a612413565b6126396101408301896124da565b6126476101608301886124da565b6126556101808301876124da565b6126636101a08301866124da565b6126716101c08301856124da565b8181036101e0830152612684818461216d565b90509c9b505050505050505050505050565b6000604051905081810181811067ffffffffffffffff821117156126b957600080fd5b8060405250919050565b600067ffffffffffffffff8211156126da57600080fd5b602082029050602081019050919050565b600067ffffffffffffffff82111561270257600080fd5b601f19601f8301169050602081019050919050565b6000819050602082019050919050565b6000819050602082019050919050565b600081519050919050565b600081519050919050565b600081519050919050565b6000602082019050919050565b6000602082019050919050565b600082825260208201905092915050565b600082825260208201905092915050565b600082825260208201905092915050565b600082825260208201905092915050565b6000819050919050565b82818337600083830152505050565b60005b838110156127ed5780820151818401526020810190506127d2565b838111156127fc576000848401525b50505050565b6000601f19601f8301169050919050565b61281c816127b6565b811461282757600080fd5b5056fea26469706673582212203560915158fae28f0f1f6f18a816e01e89433e1c3b9b3f794a01a31b68d3d1f664736f6c634300060c0033",
  "immutableReferences": {},
  "source": "// SPDX-License-Identifier: MIT\r\npragma solidity ^0.6.0;\r\npragma experimental ABIEncoderV2;\r\nimport \"./SafeMath.sol\";\r\n\r\ncontract newProp{\r\n    using SafeMath for uint256;\r\n    uint id =0;\r\n    string[] public items;\r\n    struct coinIssue{\r\n        uint256 coin_issue;\r\n        uint256 org_val;\r\n        uint256 equity_at_issuance;\r\n        uint256 curr_val;\r\n        uint256 tot_curr_val;\r\n        uint256 increase;\r\n    \r\n    }\r\n    \r\n    struct Prop_Value_Details{\r\n        uint256 Orig_Value;\r\n        uint256 Curr_Value;\r\n        uint256 Orig_Issue_Rate;\r\n        string next_reevaluation_date;\r\n        coinIssue[] coins_issue;\r\n        coinIssue total_coins_issue;\r\n        string[] Property_images;\r\n        string[] Property_location;\r\n        uint256 taxes;\r\n        uint256 insurance;\r\n        uint256 maintainence;\r\n        uint256 total;\r\n        uint256 monthly_hoa_payment;\r\n        string property_features;\r\n        }\r\n        \r\n       struct myDetail{\r\n           string name;\r\n           uint age;\r\n       }\r\n        \r\n       \r\n        \r\n        mapping(uint256 => Prop_Value_Details) public prop;\r\n        mapping(uint256 => myDetail) public mydet;\r\n\r\n        function setdetail() public returns(myDetail memory){\r\n              mydet[0].name=\"abc\";\r\n              mydet[0].age=21;\r\n              return mydet[0];\r\n        }\r\n        \r\n        function getdetail() public view returns(myDetail memory){\r\n             return mydet[0];\r\n        }\r\n        \r\n        \r\n        function getArray(uint256 property_id,uint256 index) public view returns(coinIssue memory){\r\n            return prop[property_id].coins_issue[index];\r\n        }\r\n\r\n        function getMetaData(uint propertyid) public view returns(Prop_Value_Details memory){\r\n            return prop[propertyid];\r\n        }\r\n        \r\n        function setMetaData_of_Property(uint256 origVal,\r\n                                         uint256 currVal,\r\n                                         uint256 orig_rate,\r\n                                         string memory date,\r\n                                         uint256 coins,\r\n                                         string[] memory pro_add_details,\r\n                                         uint prop_tax,\r\n                                         uint prop_insurance,\r\n                                         uint prop_maintainence,\r\n                                         string memory features_prop) public {\r\n                                 \r\n\r\n         coinIssue memory coinsdetails;\r\n        \r\n        \r\n         prop[id].Orig_Value = origVal;\r\n         prop[id].Curr_Value = currVal;\r\n         prop[id].Orig_Issue_Rate = orig_rate;\r\n         prop[id].next_reevaluation_date = date;\r\n    \r\n         coinsdetails.coin_issue = coins;\r\n         coinsdetails.org_val = 100;\r\n         coinsdetails.equity_at_issuance =  (coins.mul(100)).div(origVal);\r\n         \r\n         uint temp = (currVal.sub(origVal));\r\n         uint temp1=  (temp.mul(100)).div(origVal);\r\n         \r\n         coinsdetails.curr_val = temp1.add(100);\r\n         coinsdetails.tot_curr_val = ((coinsdetails.curr_val).mul(coins)).div(100);\r\n        \r\n         uint curr = coinsdetails.tot_curr_val;\r\n         uint orig=  ((coinsdetails.org_val).mul(coins)).div(100);\r\n         coinsdetails.increase = ((curr.sub(orig)).mul(10000)).div(orig);\r\n        \r\n         prop[id].coins_issue.push(coinsdetails);\r\n         prop[id].total_coins_issue = coinsdetails;\r\n         \r\n         for(uint i=0;i<pro_add_details.length;i++){\r\n         items.push(pro_add_details[i]);\r\n         }\r\n         prop[id].Property_location = items;\r\n         delete items;\r\n         \r\n         prop[id].taxes = prop_tax;\r\n         prop[id].insurance = prop_insurance;\r\n         prop[id].maintainence = prop_maintainence;\r\n         \r\n         prop[id].total = (prop_tax.add(prop_insurance)).add(prop_maintainence);\r\n         prop[id].monthly_hoa_payment = (prop[id].total).div(12);\r\n         prop[id].property_features = features_prop;\r\n        //  return prop[id++];\r\n                                 \r\n        }\r\n    \r\n        \r\n         function issue_coins_for_Property(uint256 property_id,uint256 coins) public {\r\n                                 \r\n         if(prop[property_id].coins_issue.length >= 1)\r\n        {\r\n         coinIssue memory coinsdetails;\r\n        \r\n         Prop_Value_Details memory property_details;\r\n         \r\n         property_details = prop[property_id];\r\n    \r\n         coinsdetails.coin_issue = coins;\r\n         \r\n         uint len = property_details.coins_issue.length;\r\n         \r\n         coinsdetails.org_val = property_details.coins_issue[len-1].curr_val;\r\n         coinsdetails.equity_at_issuance =  (coins.mul(100)).div(property_details.Orig_Value);\r\n         \r\n         uint temp = (property_details.Curr_Value).sub((property_details.Orig_Value));\r\n         uint temp1=  (temp.mul(100)).div(property_details.Orig_Value);\r\n         \r\n         coinsdetails.curr_val = temp1.add(100);\r\n         coinsdetails.tot_curr_val = ((coinsdetails.curr_val).mul(coins)).div(100);\r\n        \r\n         uint curr = coinsdetails.tot_curr_val;\r\n         uint orig=  ((coinsdetails.org_val).mul(coins)).div(100);\r\n         coinsdetails.increase = ((curr.sub(orig)).mul(10000)).div(orig);\r\n        \r\n         prop[property_id].coins_issue.push(coinsdetails);\r\n         \r\n         \r\n         coinIssue memory c;\r\n         \r\n         c=prop[property_id].total_coins_issue;\r\n         \r\n         c.coin_issue=(c.coin_issue).add(coinsdetails.coin_issue);\r\n         c.org_val = coinsdetails.org_val;\r\n         c.equity_at_issuance=(c.equity_at_issuance).add(coinsdetails.equity_at_issuance);\r\n         c.curr_val =coinsdetails.curr_val;\r\n         c.tot_curr_val = (c.tot_curr_val).add(coinsdetails.tot_curr_val);\r\n         \r\n         prop[property_id].total_coins_issue = c;\r\n         \r\n        //  return prop[property_id];\r\n        }                         \r\n    }\r\n}",
  "sourcePath": "C:/Users/Prerna/Desktop/QuestCrypt/Quest-Contracts/src/contracts/newProp.sol",
  "compiler": {
    "name": "solc",
    "version": "0.6.12+commit.27d51765.Emscripten.clang"
  },
  "schemaVersion": "3.3.1",
  "updatedAt": "2020-11-26T10:41:59.244Z",
  "devdoc": {
    "kind": "dev",
    "methods": {},
    "version": 1
  },
  "userdoc": {
    "kind": "user",
    "methods": {},
    "version": 1
  }
}