{
  "contractName": "Property",
  "abi": [
    {
      "inputs": [
        {
          "internalType": "address",
          "name": "ERC20contractAddress",
          "type": "address"
        },
        {
          "internalType": "address",
          "name": "ERC721ContractAddress",
          "type": "address"
        }
      ],
      "stateMutability": "nonpayable",
      "type": "constructor"
    },
    {
      "anonymous": false,
      "inputs": [
        {
          "indexed": false,
          "internalType": "address",
          "name": "tokenAddress",
          "type": "address"
        }
      ],
      "name": "TokenCreated",
      "type": "event"
    },
    {
      "inputs": [
        {
          "internalType": "address",
          "name": "",
          "type": "address"
        },
        {
          "internalType": "uint256",
          "name": "",
          "type": "uint256"
        }
      ],
      "name": "OwnedProperties",
      "outputs": [
        {
          "internalType": "string",
          "name": "",
          "type": "string"
        }
      ],
      "stateMutability": "view",
      "type": "function",
      "constant": true
    },
    {
      "inputs": [
        {
          "internalType": "uint256",
          "name": "",
          "type": "uint256"
        }
      ],
      "name": "Prop_token_deploy_address",
      "outputs": [
        {
          "internalType": "contract ERC20",
          "name": "",
          "type": "address"
        }
      ],
      "stateMutability": "view",
      "type": "function",
      "constant": true
    },
    {
      "inputs": [
        {
          "internalType": "address",
          "name": "",
          "type": "address"
        }
      ],
      "name": "_authorizedAccounts",
      "outputs": [
        {
          "internalType": "bool",
          "name": "",
          "type": "bool"
        }
      ],
      "stateMutability": "view",
      "type": "function",
      "constant": true
    },
    {
      "inputs": [
        {
          "internalType": "uint256",
          "name": "",
          "type": "uint256"
        }
      ],
      "name": "properties",
      "outputs": [
        {
          "internalType": "string",
          "name": "",
          "type": "string"
        }
      ],
      "stateMutability": "view",
      "type": "function",
      "constant": true
    },
    {
      "inputs": [],
      "name": "proptest",
      "outputs": [
        {
          "internalType": "address",
          "name": "",
          "type": "address"
        }
      ],
      "stateMutability": "view",
      "type": "function",
      "constant": true
    },
    {
      "inputs": [
        {
          "internalType": "string",
          "name": "_property",
          "type": "string"
        },
        {
          "internalType": "uint256",
          "name": "origVal",
          "type": "uint256"
        },
        {
          "internalType": "uint256",
          "name": "coins",
          "type": "uint256"
        },
        {
          "internalType": "string[]",
          "name": "property_images",
          "type": "string[]"
        },
        {
          "internalType": "string[]",
          "name": "pro_add_details",
          "type": "string[]"
        },
        {
          "internalType": "uint256",
          "name": "prop_tax",
          "type": "uint256"
        },
        {
          "internalType": "uint256",
          "name": "prop_insurance",
          "type": "uint256"
        },
        {
          "internalType": "uint256",
          "name": "prop_maintainence",
          "type": "uint256"
        },
        {
          "internalType": "string",
          "name": "features_prop",
          "type": "string"
        }
      ],
      "name": "mint",
      "outputs": [],
      "stateMutability": "nonpayable",
      "type": "function"
    },
    {
      "inputs": [
        {
          "internalType": "address",
          "name": "user",
          "type": "address"
        },
        {
          "internalType": "uint256",
          "name": "property_id",
          "type": "uint256"
        }
      ],
      "name": "PropertyTokenBalance",
      "outputs": [
        {
          "internalType": "uint256",
          "name": "",
          "type": "uint256"
        }
      ],
      "stateMutability": "view",
      "type": "function",
      "constant": true
    },
    {
      "inputs": [
        {
          "internalType": "address",
          "name": "property_owner",
          "type": "address"
        },
        {
          "internalType": "string",
          "name": "property_name",
          "type": "string"
        }
      ],
      "name": "searchPropertyOwner",
      "outputs": [
        {
          "internalType": "bool",
          "name": "",
          "type": "bool"
        }
      ],
      "stateMutability": "view",
      "type": "function",
      "constant": true
    },
    {
      "inputs": [
        {
          "internalType": "address",
          "name": "owner",
          "type": "address"
        }
      ],
      "name": "getOwnerProperties",
      "outputs": [
        {
          "internalType": "string[]",
          "name": "",
          "type": "string[]"
        }
      ],
      "stateMutability": "view",
      "type": "function",
      "constant": true
    },
    {
      "inputs": [
        {
          "internalType": "address",
          "name": "buyer",
          "type": "address"
        },
        {
          "internalType": "string",
          "name": "property_name",
          "type": "string"
        }
      ],
      "name": "addProperties",
      "outputs": [],
      "stateMutability": "nonpayable",
      "type": "function"
    },
    {
      "inputs": [
        {
          "internalType": "uint256",
          "name": "_index",
          "type": "uint256"
        }
      ],
      "name": "getProperties",
      "outputs": [
        {
          "internalType": "string",
          "name": "",
          "type": "string"
        }
      ],
      "stateMutability": "view",
      "type": "function",
      "constant": true
    },
    {
      "inputs": [],
      "name": "totalProperties",
      "outputs": [
        {
          "internalType": "uint256",
          "name": "",
          "type": "uint256"
        }
      ],
      "stateMutability": "view",
      "type": "function",
      "constant": true
    }
  ],
  "bytecode": "0x60806040523480156200001157600080fd5b506040516200370c3803806200370c833981810160405281019062000037919062000130565b6001600660003373ffffffffffffffffffffffffffffffffffffffff1673ffffffffffffffffffffffffffffffffffffffff16815260200190815260200160002060006101000a81548160ff02191690831515021790555080600160006101000a81548173ffffffffffffffffffffffffffffffffffffffff021916908373ffffffffffffffffffffffffffffffffffffffff16021790555081600260006101000a81548173ffffffffffffffffffffffffffffffffffffffff021916908373ffffffffffffffffffffffffffffffffffffffff1602179055505050620001bf565b6000815190506200012a81620001a5565b92915050565b600080604083850312156200014457600080fd5b6000620001548582860162000119565b9250506020620001678582860162000119565b9150509250929050565b60006200017e8262000185565b9050919050565b600073ffffffffffffffffffffffffffffffffffffffff82169050919050565b620001b08162000171565b8114620001bc57600080fd5b50565b61353d80620001cf6000396000f3fe60806040523480156200001157600080fd5b5060043610620000c45760003560e01c8063aef2d3d8116200007b578063aef2d3d814620001cf578063cb6448971462000205578063da8ce3c0146200023b578063eaa12d601462000271578063f149146d14620002a7578063f7b1080814620002c757620000c4565b80630b3bce2014620000c95780631b8ca21714620000eb578063750510b214620001215780638111e857146200014357806386be4b8c1462000163578063a08b69f21462000199575b600080fd5b620000d3620002fd565b604051620000e2919062001b5b565b60405180910390f35b6200010960048036038101906200010391906200165d565b6200030f565b60405162000118919062001ab8565b60405180910390f35b6200012b620003cd565b6040516200013a919062001938565b60405180910390f35b6200016160048036038101906200015b919062001520565b620003f3565b005b6200018160048036038101906200017b919062001440565b6200078d565b60405162000190919062001a5a565b60405180910390f35b620001b76004803603810190620001b1919062001414565b62000911565b604051620001c6919062001a5a565b60405180910390f35b620001ed6004803603810190620001e791906200165d565b62000931565b604051620001fc919062001a77565b60405180910390f35b6200022360048036038101906200021d919062001414565b62000964565b60405162000232919062001a36565b60405180910390f35b6200025960048036038101906200025391906200149a565b62000a92565b60405162000268919062001ab8565b60405180910390f35b6200028f60048036038101906200028991906200149a565b62000b5d565b6040516200029e919062001b5b565b60405180910390f35b620002c56004803603810190620002bf919062001440565b62000c2e565b005b620002e56004803603810190620002df91906200165d565b62000cad565b604051620002f4919062001ab8565b60405180910390f35b60008060038054905090508091505090565b6060600382815481106200031f57fe5b906000526020600020018054600181600116156101000203166002900480601f016020809104026020016040519081016040528092919081815260200182805460018160011615610100020316600290048015620003c15780601f106200039557610100808354040283529160200191620003c1565b820191906000526020600020905b815481529060010190602001808311620003a357829003601f168201915b50505050509050919050565b600460009054906101000a900473ffffffffffffffffffffffffffffffffffffffff1681565b8873__Strings_______________________________63447d7a1d90916040518263ffffffff1660e01b81526004016200042e919062001a94565b60006040518083038186803b1580156200044757600080fd5b505af41580156200045c573d6000803e3d6000fd5b505050506040513d6000823e3d601f19601f82011682018060405250810190620004879190620014db565b98506005896040516200049b91906200191f565b908152602001604051809103902060009054906101000a900460ff1615620004c257600080fd5b600660003373ffffffffffffffffffffffffffffffffffffffff1673ffffffffffffffffffffffffffffffffffffffff16815260200190815260200160002060009054906101000a900460ff1662000551576040517f08c379a0000000000000000000000000000000000000000000000000000000008152600401620005489062001b39565b60405180910390fd5b8688101562000597576040517f08c379a00000000000000000000000000000000000000000000000000000000081526004016200058e9062001b17565b60405180910390fd5b600389908060018154018082558091505060019003906000526020600020016000909190919091509080519060200190620005d4929190620011e6565b50600160009054906101000a900473ffffffffffffffffffffffffffffffffffffffff1673ffffffffffffffffffffffffffffffffffffffff16635a736c7b338a8a8a8a8a8a8a8a6040518a63ffffffff1660e01b8152600401620006429998979695949392919062001982565b600060405180830381600087803b1580156200065d57600080fd5b505af115801562000672573d6000803e3d6000fd5b50505050600160058a6040516200068a91906200191f565b908152602001604051809103902060006101000a81548160ff021916908315150217905550600860003373ffffffffffffffffffffffffffffffffffffffff1673ffffffffffffffffffffffffffffffffffffffff1681526020019081526020016000208990806001815401808255809150506001900390600052602060002001600090919091909150908051906020019062000729929190620011e6565b5062000776896040518060400160405280600381526020017f51535400000000000000000000000000000000000000000000000000000000008152508a62000770620002fd565b62000d6b565b50620007828862000f6e565b505050505050505050565b600080600090505b600860008573ffffffffffffffffffffffffffffffffffffffff1673ffffffffffffffffffffffffffffffffffffffff168152602001908152602001600020805490508110156200090557620008e683600860008773ffffffffffffffffffffffffffffffffffffffff1673ffffffffffffffffffffffffffffffffffffffff16815260200190815260200160002083815481106200083057fe5b906000526020600020018054600181600116156101000203166002900480601f016020809104026020016040519081016040528092919081815260200182805460018160011615610100020316600290048015620008d25780601f10620008a657610100808354040283529160200191620008d2565b820191906000526020600020905b815481529060010190602001808311620008b457829003601f168201915b50505050506200100490919063ffffffff16565b15620008f75760019150506200090b565b808060010191505062000795565b50600090505b92915050565b60066020528060005260406000206000915054906101000a900460ff1681565b60076020528060005260406000206000915054906101000a900473ffffffffffffffffffffffffffffffffffffffff1681565b6060600860008373ffffffffffffffffffffffffffffffffffffffff1673ffffffffffffffffffffffffffffffffffffffff168152602001908152602001600020805480602002602001604051908101604052809291908181526020016000905b8282101562000a87578382906000526020600020018054600181600116156101000203166002900480601f01602080910402602001604051908101604052809291908181526020018280546001816001161561010002031660029004801562000a725780601f1062000a465761010080835404028352916020019162000a72565b820191906000526020600020905b81548152906001019060200180831162000a5457829003601f168201915b505050505081526020019060010190620009c5565b505050509050919050565b6008602052816000526040600020818154811062000aac57fe5b90600052602060002001600091509150508054600181600116156101000203166002900480601f01602080910402602001604051908101604052809291908181526020018280546001816001161561010002031660029004801562000b555780601f1062000b295761010080835404028352916020019162000b55565b820191906000526020600020905b81548152906001019060200180831162000b3757829003601f168201915b505050505081565b6000806007600084815260200190815260200160002060009054906101000a900473ffffffffffffffffffffffffffffffffffffffff1690508073ffffffffffffffffffffffffffffffffffffffff166370a08231856040518263ffffffff1660e01b815260040162000bd1919062001938565b60206040518083038186803b15801562000bea57600080fd5b505afa15801562000bff573d6000803e3d6000fd5b505050506040513d601f19601f8201168201806040525081019062000c25919062001689565b91505092915050565b600860008373ffffffffffffffffffffffffffffffffffffffff1673ffffffffffffffffffffffffffffffffffffffff1681526020019081526020016000208190806001815401808255809150506001900390600052602060002001600090919091909150908051906020019062000ca8929190620011e6565b505050565b6003818154811062000cbb57fe5b906000526020600020016000915090508054600181600116156101000203166002900480601f01602080910402602001604051908101604052809291908181526020018280546001816001161561010002031660029004801562000d635780601f1062000d375761010080835404028352916020019162000d63565b820191906000526020600020905b81548152906001019060200180831162000d4557829003601f168201915b505050505081565b6000848460405162000d7d906200126d565b62000d8a92919062001adc565b604051809103906000f08015801562000da7573d6000803e3d6000fd5b506000806101000a81548173ffffffffffffffffffffffffffffffffffffffff021916908373ffffffffffffffffffffffffffffffffffffffff16021790555060008054906101000a900473ffffffffffffffffffffffffffffffffffffffff166007600084815260200190815260200160002060006101000a81548173ffffffffffffffffffffffffffffffffffffffff021916908373ffffffffffffffffffffffffffffffffffffffff16021790555060008054906101000a900473ffffffffffffffffffffffffffffffffffffffff1673ffffffffffffffffffffffffffffffffffffffff166340894c9433856040518363ffffffff1660e01b815260040162000eb692919062001955565b600060405180830381600087803b15801562000ed157600080fd5b505af115801562000ee6573d6000803e3d6000fd5b505050507f2e2b3f61b70d2d131b2a807371103cc98d51adcaa5e9a8f9c32658ad8426e74e60008054906101000a900473ffffffffffffffffffffffffffffffffffffffff1660405162000f3b919062001938565b60405180910390a160008054906101000a900473ffffffffffffffffffffffffffffffffffffffff169050949350505050565b600260009054906101000a900473ffffffffffffffffffffffffffffffffffffffff1673ffffffffffffffffffffffffffffffffffffffff166340894c9433836040518363ffffffff1660e01b815260040162000fcd92919062001955565b600060405180830381600087803b15801562000fe857600080fd5b505af115801562000ffd573d6000803e3d6000fd5b5050505050565b6000806200101384846200101c565b14905092915050565b60006060839050606083905060008251905080825110156200103d57815190505b60005b8181101562001188578281815181106200105657fe5b602001015160f81c60f81b7effffffffffffffffffffffffffffffffffffffffffffffffffffffffffffff19168482815181106200109057fe5b602001015160f81c60f81b7effffffffffffffffffffffffffffffffffffffffffffffffffffffffffffff19161015620010f1577fffffffffffffffffffffffffffffffffffffffffffffffffffffffffffffffff945050505050620011e0565b828181518110620010fe57fe5b602001015160f81c60f81b7effffffffffffffffffffffffffffffffffffffffffffffffffffffffffffff19168482815181106200113857fe5b602001015160f81c60f81b7effffffffffffffffffffffffffffffffffffffffffffffffffffffffffffff191611156200117a576001945050505050620011e0565b808060010191505062001040565b50815183511015620011c0577fffffffffffffffffffffffffffffffffffffffffffffffffffffffffffffffff9350505050620011e0565b815183511115620011d85760019350505050620011e0565b600093505050505b92915050565b828054600181600116156101000203166002900490600052602060002090601f016020900481019282601f106200122957805160ff19168380011785556200125a565b828001600101855582156200125a579182015b82811115620012595782518255916020019190600101906200123c565b5b5090506200126991906200127b565b5090565b6117518062001db783390190565b5b80821115620012965760008160009055506001016200127c565b5090565b600081359050620012ab8162001d82565b92915050565b600082601f830112620012c357600080fd5b8135620012da620012d48262001ba6565b62001b78565b9150818183526020840193506020810190508360005b838110156200132457813586016200130988826200132e565b845260208401935060208301925050600181019050620012f0565b5050505092915050565b600082601f8301126200134057600080fd5b813562001357620013518262001bcf565b62001b78565b915080825260208301602083018583830111156200137457600080fd5b6200138183828462001d2c565b50505092915050565b600082601f8301126200139c57600080fd5b8151620013b3620013ad8262001bcf565b62001b78565b91508082526020830160208301858383011115620013d057600080fd5b620013dd83828462001d3b565b50505092915050565b600081359050620013f78162001d9c565b92915050565b6000815190506200140e8162001d9c565b92915050565b6000602082840312156200142757600080fd5b600062001437848285016200129a565b91505092915050565b600080604083850312156200145457600080fd5b600062001464858286016200129a565b925050602083013567ffffffffffffffff8111156200148257600080fd5b62001490858286016200132e565b9150509250929050565b60008060408385031215620014ae57600080fd5b6000620014be858286016200129a565b9250506020620014d185828601620013e6565b9150509250929050565b600060208284031215620014ee57600080fd5b600082015167ffffffffffffffff8111156200150957600080fd5b62001517848285016200138a565b91505092915050565b60008060008060008060008060006101208a8c0312156200154057600080fd5b60008a013567ffffffffffffffff8111156200155b57600080fd5b620015698c828d016200132e565b99505060206200157c8c828d01620013e6565b98505060406200158f8c828d01620013e6565b97505060608a013567ffffffffffffffff811115620015ad57600080fd5b620015bb8c828d01620012b1565b96505060808a013567ffffffffffffffff811115620015d957600080fd5b620015e78c828d01620012b1565b95505060a0620015fa8c828d01620013e6565b94505060c06200160d8c828d01620013e6565b93505060e0620016208c828d01620013e6565b9250506101008a013567ffffffffffffffff8111156200163f57600080fd5b6200164d8c828d016200132e565b9150509295985092959850929598565b6000602082840312156200167057600080fd5b60006200168084828501620013e6565b91505092915050565b6000602082840312156200169c57600080fd5b6000620016ac84828501620013fd565b91505092915050565b6000620016c3838362001790565b905092915050565b620016d68162001cc8565b82525050565b620016e78162001c7e565b82525050565b6000620016fa8262001c0c565b62001706818562001c2f565b9350836020820285016200171a8562001bfc565b8060005b858110156200175c57848403895281516200173a8582620016b5565b9450620017478362001c22565b925060208a019950506001810190506200171e565b50829750879550505050505092915050565b620017798162001c92565b82525050565b6200178a8162001cdc565b82525050565b60006200179d8262001c17565b620017a9818562001c40565b9350620017bb81856020860162001d3b565b620017c68162001d71565b840191505092915050565b6000620017de8262001c17565b620017ea818562001c51565b9350620017fc81856020860162001d3b565b620018078162001d71565b840191505092915050565b60006200181f8262001c17565b6200182b818562001c62565b93506200183d81856020860162001d3b565b620018488162001d71565b840191505092915050565b6000620018608262001c17565b6200186c818562001c73565b93506200187e81856020860162001d3b565b80840191505092915050565b600062001899600d8362001c51565b91507f496e76616c696420496e707574000000000000000000000000000000000000006000830152602082019050919050565b6000620018db60148362001c51565b91507f556e617574686f72697a6564204163636f756e740000000000000000000000006000830152602082019050919050565b620019198162001cbe565b82525050565b60006200192d828462001853565b915081905092915050565b60006020820190506200194f6000830184620016dc565b92915050565b60006040820190506200196c6000830185620016cb565b6200197b60208301846200190e565b9392505050565b6000610120820190506200199a600083018c620016cb565b620019a9602083018b6200190e565b620019b8604083018a6200190e565b8181036060830152620019cc8189620016ed565b90508181036080830152620019e28188620016ed565b9050620019f360a08301876200190e565b62001a0260c08301866200190e565b62001a1160e08301856200190e565b81810361010083015262001a268184620017d1565b90509a9950505050505050505050565b6000602082019050818103600083015262001a528184620016ed565b905092915050565b600060208201905062001a7160008301846200176e565b92915050565b600060208201905062001a8e60008301846200177f565b92915050565b6000602082019050818103600083015262001ab0818462001812565b905092915050565b6000602082019050818103600083015262001ad48184620017d1565b905092915050565b6000604082019050818103600083015262001af88185620017d1565b9050818103602083015262001b0e8184620017d1565b90509392505050565b6000602082019050818103600083015262001b32816200188a565b9050919050565b6000602082019050818103600083015262001b5481620018cc565b9050919050565b600060208201905062001b7260008301846200190e565b92915050565b6000604051905081810181811067ffffffffffffffff8211171562001b9c57600080fd5b8060405250919050565b600067ffffffffffffffff82111562001bbe57600080fd5b602082029050602081019050919050565b600067ffffffffffffffff82111562001be757600080fd5b601f19601f8301169050602081019050919050565b6000819050602082019050919050565b600081519050919050565b600081519050919050565b6000602082019050919050565b600082825260208201905092915050565b600082825260208201905092915050565b600082825260208201905092915050565b600082825260208201905092915050565b600081905092915050565b600062001c8b8262001c9e565b9050919050565b60008115159050919050565b600073ffffffffffffffffffffffffffffffffffffffff82169050919050565b6000819050919050565b600062001cd58262001d04565b9050919050565b600062001ce98262001cf0565b9050919050565b600062001cfd8262001c9e565b9050919050565b600062001d118262001d18565b9050919050565b600062001d258262001c9e565b9050919050565b82818337600083830152505050565b60005b8381101562001d5b57808201518184015260208101905062001d3e565b8381111562001d6b576000848401525b50505050565b6000601f19601f8301169050919050565b62001d8d8162001c7e565b811462001d9957600080fd5b50565b62001da78162001cbe565b811462001db357600080fd5b5056fe60806040523480156200001157600080fd5b506040516200175138038062001751833981810160405260408110156200003757600080fd5b81019080805160405193929190846401000000008211156200005857600080fd5b838201915060208201858111156200006f57600080fd5b82518660018202830111640100000000821117156200008d57600080fd5b8083526020830192505050908051906020019080838360005b83811015620000c3578082015181840152602081019050620000a6565b50505050905090810190601f168015620000f15780820380516001836020036101000a031916815260200191505b50604052602001805160405193929190846401000000008211156200011557600080fd5b838201915060208201858111156200012c57600080fd5b82518660018202830111640100000000821117156200014a57600080fd5b8083526020830192505050908051906020019080838360005b838110156200018057808201518184015260208101905062000163565b50505050905090810190601f168015620001ae5780820380516001836020036101000a031916815260200191505b506040525050508160039080519060200190620001cd9291906200020b565b508060049080519060200190620001e69291906200020b565b506012600560006101000a81548160ff021916908360ff1602179055505050620002b1565b828054600181600116156101000203166002900490600052602060002090601f016020900481019282601f106200024e57805160ff19168380011785556200027f565b828001600101855582156200027f579182015b828111156200027e57825182559160200191906001019062000261565b5b5090506200028e919062000292565b5090565b5b80821115620002ad57600081600090555060010162000293565b5090565b61149080620002c16000396000f3fe608060405234801561001057600080fd5b50600436106100f55760003560e01c80633eaaf86b1161009757806395d89b411161006657806395d89b411461049c578063a457c2d71461051f578063beabacc814610583578063dd62ed3e14610607576100f5565b80633eaaf86b1461038057806340894c941461039e5780636ebcf607146103ec57806370a0823114610444576100f5565b806318160ddd116100d357806318160ddd1461025957806323b872dd14610277578063313ce567146102fb578063395093511461031c576100f5565b8063024c2ddd146100fa57806306fdde0314610172578063095ea7b3146101f5575b600080fd5b61015c6004803603604081101561011057600080fd5b81019080803573ffffffffffffffffffffffffffffffffffffffff169060200190929190803573ffffffffffffffffffffffffffffffffffffffff16906020019092919050505061067f565b6040518082815260200191505060405180910390f35b61017a6106a4565b6040518080602001828103825283818151815260200191508051906020019080838360005b838110156101ba57808201518184015260208101905061019f565b50505050905090810190601f1680156101e75780820380516001836020036101000a031916815260200191505b509250505060405180910390f35b6102416004803603604081101561020b57600080fd5b81019080803573ffffffffffffffffffffffffffffffffffffffff16906020019092919080359060200190929190505050610746565b60405180821515815260200191505060405180910390f35b610261610764565b6040518082815260200191505060405180910390f35b6102e36004803603606081101561028d57600080fd5b81019080803573ffffffffffffffffffffffffffffffffffffffff169060200190929190803573ffffffffffffffffffffffffffffffffffffffff1690602001909291908035906020019092919050505061076e565b60405180821515815260200191505060405180910390f35b610303610847565b604051808260ff16815260200191505060405180910390f35b6103686004803603604081101561033257600080fd5b81019080803573ffffffffffffffffffffffffffffffffffffffff1690602001909291908035906020019092919050505061085e565b60405180821515815260200191505060405180910390f35b610388610911565b6040518082815260200191505060405180910390f35b6103ea600480360360408110156103b457600080fd5b81019080803573ffffffffffffffffffffffffffffffffffffffff16906020019092919080359060200190929190505050610917565b005b61042e6004803603602081101561040257600080fd5b81019080803573ffffffffffffffffffffffffffffffffffffffff169060200190929190505050610ade565b6040518082815260200191505060405180910390f35b6104866004803603602081101561045a57600080fd5b81019080803573ffffffffffffffffffffffffffffffffffffffff169060200190929190505050610af6565b6040518082815260200191505060405180910390f35b6104a4610b3e565b6040518080602001828103825283818151815260200191508051906020019080838360005b838110156104e45780820151818401526020810190506104c9565b50505050905090810190601f1680156105115780820380516001836020036101000a031916815260200191505b509250505060405180910390f35b61056b6004803603604081101561053557600080fd5b81019080803573ffffffffffffffffffffffffffffffffffffffff16906020019092919080359060200190929190505050610be0565b60405180821515815260200191505060405180910390f35b6105ef6004803603606081101561059957600080fd5b81019080803573ffffffffffffffffffffffffffffffffffffffff169060200190929190803573ffffffffffffffffffffffffffffffffffffffff16906020019092919080359060200190929190505050610cad565b60405180821515815260200191505060405180910390f35b6106696004803603604081101561061d57600080fd5b81019080803573ffffffffffffffffffffffffffffffffffffffff169060200190929190803573ffffffffffffffffffffffffffffffffffffffff169060200190929190505050610cc5565b6040518082815260200191505060405180910390f35b6001602052816000526040600020602052806000526040600020600091509150505481565b606060038054600181600116156101000203166002900480601f01602080910402602001604051908101604052809291908181526020018280546001816001161561010002031660029004801561073c5780601f106107115761010080835404028352916020019161073c565b820191906000526020600020905b81548152906001019060200180831161071f57829003601f168201915b5050505050905090565b600061075a610753610d4c565b8484610d54565b6001905092915050565b6000600254905090565b600061077b848484610f4b565b61083c84610787610d4c565b610837856040518060600160405280602881526020016113c560289139600160008b73ffffffffffffffffffffffffffffffffffffffff1673ffffffffffffffffffffffffffffffffffffffff16815260200190815260200160002060006107ed610d4c565b73ffffffffffffffffffffffffffffffffffffffff1673ffffffffffffffffffffffffffffffffffffffff1681526020019081526020016000205461120c9092919063ffffffff16565b610d54565b600190509392505050565b6000600560009054906101000a900460ff16905090565b600061090761086b610d4c565b84610902856001600061087c610d4c565b73ffffffffffffffffffffffffffffffffffffffff1673ffffffffffffffffffffffffffffffffffffffff16815260200190815260200160002060008973ffffffffffffffffffffffffffffffffffffffff1673ffffffffffffffffffffffffffffffffffffffff168152602001908152602001600020546112cc90919063ffffffff16565b610d54565b6001905092915050565b60025481565b600073ffffffffffffffffffffffffffffffffffffffff168273ffffffffffffffffffffffffffffffffffffffff1614156109ba576040517f08c379a000000000000000000000000000000000000000000000000000000000815260040180806020018281038252601f8152602001807f45524332303a206d696e7420746f20746865207a65726f20616464726573730081525060200191505060405180910390fd5b6109c660008383611354565b6109db816002546112cc90919063ffffffff16565b600281905550610a32816000808573ffffffffffffffffffffffffffffffffffffffff1673ffffffffffffffffffffffffffffffffffffffff168152602001908152602001600020546112cc90919063ffffffff16565b6000808473ffffffffffffffffffffffffffffffffffffffff1673ffffffffffffffffffffffffffffffffffffffff168152602001908152602001600020819055508173ffffffffffffffffffffffffffffffffffffffff16600073ffffffffffffffffffffffffffffffffffffffff167fddf252ad1be2c89b69c2b068fc378daa952ba7f163c4a11628f55a4df523b3ef836040518082815260200191505060405180910390a35050565b60006020528060005260406000206000915090505481565b60008060008373ffffffffffffffffffffffffffffffffffffffff1673ffffffffffffffffffffffffffffffffffffffff168152602001908152602001600020549050919050565b606060048054600181600116156101000203166002900480601f016020809104026020016040519081016040528092919081815260200182805460018160011615610100020316600290048015610bd65780601f10610bab57610100808354040283529160200191610bd6565b820191906000526020600020905b815481529060010190602001808311610bb957829003601f168201915b5050505050905090565b6000610ca3610bed610d4c565b84610c9e856040518060600160405280602581526020016114366025913960016000610c17610d4c565b73ffffffffffffffffffffffffffffffffffffffff1673ffffffffffffffffffffffffffffffffffffffff16815260200190815260200160002060008a73ffffffffffffffffffffffffffffffffffffffff1673ffffffffffffffffffffffffffffffffffffffff1681526020019081526020016000205461120c9092919063ffffffff16565b610d54565b6001905092915050565b6000610cba848484610f4b565b600190509392505050565b6000600160008473ffffffffffffffffffffffffffffffffffffffff1673ffffffffffffffffffffffffffffffffffffffff16815260200190815260200160002060008373ffffffffffffffffffffffffffffffffffffffff1673ffffffffffffffffffffffffffffffffffffffff16815260200190815260200160002054905092915050565b600033905090565b600073ffffffffffffffffffffffffffffffffffffffff168373ffffffffffffffffffffffffffffffffffffffff161415610dda576040517f08c379a00000000000000000000000000000000000000000000000000000000081526004018080602001828103825260248152602001806114126024913960400191505060405180910390fd5b600073ffffffffffffffffffffffffffffffffffffffff168273ffffffffffffffffffffffffffffffffffffffff161415610e60576040517f08c379a000000000000000000000000000000000000000000000000000000000815260040180806020018281038252602281526020018061137d6022913960400191505060405180910390fd5b80600160008573ffffffffffffffffffffffffffffffffffffffff1673ffffffffffffffffffffffffffffffffffffffff16815260200190815260200160002060008473ffffffffffffffffffffffffffffffffffffffff1673ffffffffffffffffffffffffffffffffffffffff168152602001908152602001600020819055508173ffffffffffffffffffffffffffffffffffffffff168373ffffffffffffffffffffffffffffffffffffffff167f8c5be1e5ebec7d5bd14f71427d1e84f3dd0314c0f7b2291e5b200ac8c7c3b925836040518082815260200191505060405180910390a3505050565b600073ffffffffffffffffffffffffffffffffffffffff168373ffffffffffffffffffffffffffffffffffffffff161415610fd1576040517f08c379a00000000000000000000000000000000000000000000000000000000081526004018080602001828103825260258152602001806113ed6025913960400191505060405180910390fd5b600073ffffffffffffffffffffffffffffffffffffffff168273ffffffffffffffffffffffffffffffffffffffff161415611057576040517f08c379a000000000000000000000000000000000000000000000000000000000815260040180806020018281038252602381526020018061135a6023913960400191505060405180910390fd5b611062838383611354565b6110cd8160405180606001604052806026815260200161139f602691396000808773ffffffffffffffffffffffffffffffffffffffff1673ffffffffffffffffffffffffffffffffffffffff1681526020019081526020016000205461120c9092919063ffffffff16565b6000808573ffffffffffffffffffffffffffffffffffffffff1673ffffffffffffffffffffffffffffffffffffffff16815260200190815260200160002081905550611160816000808573ffffffffffffffffffffffffffffffffffffffff1673ffffffffffffffffffffffffffffffffffffffff168152602001908152602001600020546112cc90919063ffffffff16565b6000808473ffffffffffffffffffffffffffffffffffffffff1673ffffffffffffffffffffffffffffffffffffffff168152602001908152602001600020819055508173ffffffffffffffffffffffffffffffffffffffff168373ffffffffffffffffffffffffffffffffffffffff167fddf252ad1be2c89b69c2b068fc378daa952ba7f163c4a11628f55a4df523b3ef836040518082815260200191505060405180910390a3505050565b60008383111582906112b9576040517f08c379a00000000000000000000000000000000000000000000000000000000081526004018080602001828103825283818151815260200191508051906020019080838360005b8381101561127e578082015181840152602081019050611263565b50505050905090810190601f1680156112ab5780820380516001836020036101000a031916815260200191505b509250505060405180910390fd5b5060008385039050809150509392505050565b60008082840190508381101561134a576040517f08c379a000000000000000000000000000000000000000000000000000000000815260040180806020018281038252601b8152602001807f536166654d6174683a206164646974696f6e206f766572666c6f77000000000081525060200191505060405180910390fd5b8091505092915050565b50505056fe45524332303a207472616e7366657220746f20746865207a65726f206164647265737345524332303a20617070726f766520746f20746865207a65726f206164647265737345524332303a207472616e7366657220616d6f756e7420657863656564732062616c616e636545524332303a207472616e7366657220616d6f756e74206578636565647320616c6c6f77616e636545524332303a207472616e736665722066726f6d20746865207a65726f206164647265737345524332303a20617070726f76652066726f6d20746865207a65726f206164647265737345524332303a2064656372656173656420616c6c6f77616e63652062656c6f77207a65726fa2646970667358221220a0d12ccddf0b5d3db26a42a39e4cae0f3193f72a859df6075b735f8dd790179564736f6c634300060c0033a264697066735822122062d1207fe933b579af6e0f4152346b05c44cbd790999d6be61012e79f3b5407764736f6c634300060c0033",
  "immutableReferences": {},
  "source": "// SPDX-License-Identifier: MIT\r\npragma solidity ^0.6.0;\r\npragma experimental ABIEncoderV2;\r\n\r\nimport \"./IERC721.sol\";\r\nimport \"./IERC20.sol\";\r\nimport \"./ERC20.sol\";\r\nimport \"./Strings.sol\";\r\n\r\ncontract Property {\r\n  using Strings for string; \r\n  ERC20 QuestEquity;\r\n  IERC721 PropertyNFT;\r\n  IERC20 UtilityTokens;\r\n  string[] public properties;\r\n  address public proptest;\r\n  mapping(string => bool) _propertyExists;\r\n  mapping(address => bool) public _authorizedAccounts;\r\n  mapping(uint256 => ERC20) public Prop_token_deploy_address;\r\n  \r\n  mapping(address => string[]) public OwnedProperties;\r\n\r\n  \r\n  constructor(address ERC20contractAddress, address ERC721ContractAddress)  public{\r\n      \r\n      _authorizedAccounts[msg.sender] = true;\r\n      PropertyNFT = IERC721(ERC721ContractAddress);\r\n      UtilityTokens = IERC20(ERC20contractAddress);\r\n      \r\n  }\r\n  function mint(string memory _property,uint256 origVal,\r\n                                     uint256 coins,\r\n                                     string[] memory property_images,\r\n                                     string[] memory pro_add_details,\r\n                                     uint256 prop_tax,\r\n                                     uint256 prop_insurance,\r\n                                     uint256 prop_maintainence,\r\n                                     string memory features_prop) public {\r\n    _property = _property._toLower();                                     \r\n   require(!_propertyExists[_property]);\r\n   require(_authorizedAccounts[msg.sender], \"Unauthorized Account\");\r\n   require(origVal >= coins, \"Invalid Input\");\r\n   properties.push(_property);\r\n    \r\n    PropertyNFT._mint(msg.sender,origVal,coins,property_images,pro_add_details,prop_tax,prop_insurance,prop_maintainence,features_prop);\r\n    _propertyExists[_property] = true;\r\n    OwnedProperties[msg.sender].push(_property);\r\n    deployNewToken(_property, \"QST\",origVal,totalProperties());\r\n    origVal = origVal;\r\n   IncreaseUtilityTokenSupply(origVal);\r\n  } \r\n  event TokenCreated(address tokenAddress);\r\n  \r\n  function deployNewToken(string memory name, string memory symbol,uint256 no_of_token,uint property_id) internal returns (address) {\r\n       QuestEquity = new ERC20( name, symbol);\r\n       Prop_token_deploy_address[property_id] = QuestEquity;\r\n       QuestEquity.issuetoken(msg.sender,no_of_token);\r\n       emit TokenCreated(address(QuestEquity));\r\n       return address(QuestEquity);\r\n       \r\n  }\r\n  function IncreaseUtilityTokenSupply(uint256 no_of_token) internal  {\r\n         UtilityTokens.issuetoken(msg.sender,no_of_token);\r\n       \r\n  }\r\n  \r\n  \r\n  function PropertyTokenBalance(address user,uint256 property_id) public view returns(uint256){\r\n       IERC20 erc_property;\r\n       erc_property = IERC20(Prop_token_deploy_address[property_id]);\r\n       return erc_property.balanceOf(user);\r\n  }\r\n\r\n\r\n  /*-------------------------Search Property belongs to caller or not---------------------------*/\r\nfunction searchPropertyOwner(address property_owner,string memory property_name) view public returns(bool){\r\n   \r\n  for(uint256 i=0;i<OwnedProperties[property_owner].length;i++){\r\n   \r\n    if((OwnedProperties[property_owner][i]).equal(property_name))\r\n    return true;\r\n   \r\n  }\r\n  return false;\r\n   \r\n}\r\n\r\n\r\n  function getOwnerProperties(address owner) public view returns(string[] memory){\r\n       return OwnedProperties[owner];\r\n  }\r\n  \r\n  \r\n  function addProperties(address buyer,string memory property_name) public{\r\n     OwnedProperties[buyer].push(property_name);\r\n} \r\n\r\n\r\n  function getProperties(uint _index) public view returns(string memory){\r\n   \r\n  return properties[_index];\r\n  \r\n}\r\n\r\n    function totalProperties()public view returns(uint256){\r\n    uint256 len = properties.length;\r\n    \r\n    return len;\r\n    \r\n}\r\n    \r\n    \r\n\r\n}\r\n\r\n",
  "sourcePath": "C:/Users/Prerna/Desktop/QuestCrypt/QuestCrypto/src/contracts/Property.sol",
  "compiler": {
    "name": "solc",
    "version": "0.6.12+commit.27d51765.Emscripten.clang"
  },
  "schemaVersion": "3.3.2",
  "updatedAt": "2020-12-17T04:48:27.225Z",
  "networkType": "ethereum",
  "devdoc": {
    "kind": "dev",
    "methods": {},
    "version": 1
  },
  "userdoc": {
    "kind": "user",
    "methods": {},
    "version": 1
  }
}