{
  "contractName": "Property",
  "abi": [
    {
      "inputs": [],
      "stateMutability": "nonpayable",
      "type": "constructor"
    },
    {
      "anonymous": false,
      "inputs": [
        {
          "indexed": true,
          "internalType": "address",
          "name": "owner",
          "type": "address"
        },
        {
          "indexed": true,
          "internalType": "address",
          "name": "approved",
          "type": "address"
        },
        {
          "indexed": true,
          "internalType": "uint256",
          "name": "tokenId",
          "type": "uint256"
        }
      ],
      "name": "Approval",
      "type": "event"
    },
    {
      "anonymous": false,
      "inputs": [
        {
          "indexed": true,
          "internalType": "address",
          "name": "owner",
          "type": "address"
        },
        {
          "indexed": true,
          "internalType": "address",
          "name": "operator",
          "type": "address"
        },
        {
          "indexed": false,
          "internalType": "bool",
          "name": "approved",
          "type": "bool"
        }
      ],
      "name": "ApprovalForAll",
      "type": "event"
    },
    {
      "anonymous": false,
      "inputs": [
        {
          "indexed": false,
          "internalType": "address",
          "name": "tokenAddress",
          "type": "address"
        }
      ],
      "name": "TokenCreated",
      "type": "event"
    },
    {
      "anonymous": false,
      "inputs": [
        {
          "indexed": true,
          "internalType": "address",
          "name": "from",
          "type": "address"
        },
        {
          "indexed": true,
          "internalType": "address",
          "name": "to",
          "type": "address"
        },
        {
          "indexed": true,
          "internalType": "uint256",
          "name": "tokenId",
          "type": "uint256"
        }
      ],
      "name": "Transfer",
      "type": "event"
    },
    {
      "inputs": [
        {
          "internalType": "uint256",
          "name": "",
          "type": "uint256"
        }
      ],
      "name": "EligibleEmp",
      "outputs": [
        {
          "internalType": "address",
          "name": "",
          "type": "address"
        }
      ],
      "stateMutability": "view",
      "type": "function"
    },
    {
      "inputs": [
        {
          "internalType": "uint256",
          "name": "",
          "type": "uint256"
        }
      ],
      "name": "_propertyValue",
      "outputs": [
        {
          "internalType": "uint256",
          "name": "OrginalValue",
          "type": "uint256"
        },
        {
          "internalType": "uint256",
          "name": "CurrentValue",
          "type": "uint256"
        },
        {
          "internalType": "uint256",
          "name": "OriginalIssuanceRate",
          "type": "uint256"
        }
      ],
      "stateMutability": "view",
      "type": "function"
    },
    {
      "inputs": [
        {
          "internalType": "address",
          "name": "to",
          "type": "address"
        },
        {
          "internalType": "uint256",
          "name": "tokenId",
          "type": "uint256"
        }
      ],
      "name": "approve",
      "outputs": [],
      "stateMutability": "nonpayable",
      "type": "function"
    },
    {
      "inputs": [
        {
          "internalType": "address",
          "name": "owner",
          "type": "address"
        }
      ],
      "name": "balanceOf",
      "outputs": [
        {
          "internalType": "uint256",
          "name": "",
          "type": "uint256"
        }
      ],
      "stateMutability": "view",
      "type": "function"
    },
    {
      "inputs": [],
      "name": "baseURI",
      "outputs": [
        {
          "internalType": "string",
          "name": "",
          "type": "string"
        }
      ],
      "stateMutability": "view",
      "type": "function"
    },
    {
      "inputs": [],
      "name": "contractOwner",
      "outputs": [
        {
          "internalType": "address",
          "name": "",
          "type": "address"
        }
      ],
      "stateMutability": "view",
      "type": "function"
    },
    {
      "inputs": [
        {
          "internalType": "uint256",
          "name": "tokenId",
          "type": "uint256"
        }
      ],
      "name": "getApproved",
      "outputs": [
        {
          "internalType": "address",
          "name": "",
          "type": "address"
        }
      ],
      "stateMutability": "view",
      "type": "function"
    },
    {
      "inputs": [
        {
          "internalType": "address",
          "name": "owner",
          "type": "address"
        },
        {
          "internalType": "address",
          "name": "operator",
          "type": "address"
        }
      ],
      "name": "isApprovedForAll",
      "outputs": [
        {
          "internalType": "bool",
          "name": "",
          "type": "bool"
        }
      ],
      "stateMutability": "view",
      "type": "function"
    },
    {
      "inputs": [],
      "name": "name",
      "outputs": [
        {
          "internalType": "string",
          "name": "",
          "type": "string"
        }
      ],
      "stateMutability": "view",
      "type": "function"
    },
    {
      "inputs": [
        {
          "internalType": "uint256",
          "name": "tokenId",
          "type": "uint256"
        }
      ],
      "name": "ownerOf",
      "outputs": [
        {
          "internalType": "address",
          "name": "",
          "type": "address"
        }
      ],
      "stateMutability": "view",
      "type": "function"
    },
    {
      "inputs": [
        {
          "internalType": "uint256",
          "name": "",
          "type": "uint256"
        }
      ],
      "name": "prop",
      "outputs": [
        {
          "internalType": "uint256",
          "name": "Orig_Value",
          "type": "uint256"
        },
        {
          "internalType": "uint256",
          "name": "Curr_Value",
          "type": "uint256"
        },
        {
          "internalType": "uint256",
          "name": "next_reevaluation_date",
          "type": "uint256"
        },
        {
          "components": [
            {
              "internalType": "uint256",
              "name": "coin_issue",
              "type": "uint256"
            },
            {
              "internalType": "uint256",
              "name": "org_val",
              "type": "uint256"
            },
            {
              "internalType": "uint256",
              "name": "equity_at_issuance",
              "type": "uint256"
            },
            {
              "internalType": "uint256",
              "name": "curr_val",
              "type": "uint256"
            },
            {
              "internalType": "uint256",
              "name": "tot_curr_val",
              "type": "uint256"
            },
            {
              "internalType": "uint256",
              "name": "increase",
              "type": "uint256"
            }
          ],
          "internalType": "struct ERC721.Property_coins_generated_till_now",
          "name": "total_coins_issue",
          "type": "tuple"
        },
        {
          "internalType": "uint256",
          "name": "taxes",
          "type": "uint256"
        },
        {
          "internalType": "uint256",
          "name": "insurance",
          "type": "uint256"
        },
        {
          "internalType": "uint256",
          "name": "maintainence",
          "type": "uint256"
        },
        {
          "internalType": "uint256",
          "name": "total",
          "type": "uint256"
        },
        {
          "internalType": "uint256",
          "name": "monthly_hoa_payment",
          "type": "uint256"
        },
        {
          "internalType": "string",
          "name": "property_features",
          "type": "string"
        }
      ],
      "stateMutability": "view",
      "type": "function"
    },
    {
      "inputs": [
        {
          "internalType": "uint256",
          "name": "",
          "type": "uint256"
        }
      ],
      "name": "properties",
      "outputs": [
        {
          "internalType": "string",
          "name": "",
          "type": "string"
        }
      ],
      "stateMutability": "view",
      "type": "function"
    },
    {
      "inputs": [],
      "name": "proptest",
      "outputs": [
        {
          "internalType": "address",
          "name": "",
          "type": "address"
        }
      ],
      "stateMutability": "view",
      "type": "function"
    },
    {
      "inputs": [
        {
          "internalType": "address",
          "name": "from",
          "type": "address"
        },
        {
          "internalType": "address",
          "name": "to",
          "type": "address"
        },
        {
          "internalType": "uint256",
          "name": "tokenId",
          "type": "uint256"
        }
      ],
      "name": "safeTransferFrom",
      "outputs": [],
      "stateMutability": "nonpayable",
      "type": "function"
    },
    {
      "inputs": [
        {
          "internalType": "address",
          "name": "from",
          "type": "address"
        },
        {
          "internalType": "address",
          "name": "to",
          "type": "address"
        },
        {
          "internalType": "uint256",
          "name": "tokenId",
          "type": "uint256"
        },
        {
          "internalType": "bytes",
          "name": "_data",
          "type": "bytes"
        }
      ],
      "name": "safeTransferFrom",
      "outputs": [],
      "stateMutability": "nonpayable",
      "type": "function"
    },
    {
      "inputs": [
        {
          "internalType": "address",
          "name": "operator",
          "type": "address"
        },
        {
          "internalType": "bool",
          "name": "approved",
          "type": "bool"
        }
      ],
      "name": "setApprovalForAll",
      "outputs": [],
      "stateMutability": "nonpayable",
      "type": "function"
    },
    {
      "inputs": [
        {
          "internalType": "bytes4",
          "name": "interfaceId",
          "type": "bytes4"
        }
      ],
      "name": "supportsInterface",
      "outputs": [
        {
          "internalType": "bool",
          "name": "",
          "type": "bool"
        }
      ],
      "stateMutability": "view",
      "type": "function"
    },
    {
      "inputs": [],
      "name": "symbol",
      "outputs": [
        {
          "internalType": "string",
          "name": "",
          "type": "string"
        }
      ],
      "stateMutability": "view",
      "type": "function"
    },
    {
      "inputs": [
        {
          "internalType": "uint256",
          "name": "index",
          "type": "uint256"
        }
      ],
      "name": "tokenByIndex",
      "outputs": [
        {
          "internalType": "uint256",
          "name": "",
          "type": "uint256"
        }
      ],
      "stateMutability": "view",
      "type": "function"
    },
    {
      "inputs": [
        {
          "internalType": "address",
          "name": "owner",
          "type": "address"
        },
        {
          "internalType": "uint256",
          "name": "index",
          "type": "uint256"
        }
      ],
      "name": "tokenOfOwnerByIndex",
      "outputs": [
        {
          "internalType": "uint256",
          "name": "",
          "type": "uint256"
        }
      ],
      "stateMutability": "view",
      "type": "function"
    },
    {
      "inputs": [
        {
          "internalType": "uint256",
          "name": "tokenId",
          "type": "uint256"
        }
      ],
      "name": "tokenURI",
      "outputs": [
        {
          "internalType": "string",
          "name": "",
          "type": "string"
        }
      ],
      "stateMutability": "view",
      "type": "function"
    },
    {
      "inputs": [],
      "name": "tot_no_of_prop_onplatform",
      "outputs": [
        {
          "internalType": "uint256",
          "name": "",
          "type": "uint256"
        }
      ],
      "stateMutability": "view",
      "type": "function"
    },
    {
      "inputs": [],
      "name": "totalSupply",
      "outputs": [
        {
          "internalType": "uint256",
          "name": "",
          "type": "uint256"
        }
      ],
      "stateMutability": "view",
      "type": "function"
    },
    {
      "inputs": [
        {
          "internalType": "address",
          "name": "from",
          "type": "address"
        },
        {
          "internalType": "address",
          "name": "to",
          "type": "address"
        },
        {
          "internalType": "uint256",
          "name": "tokenId",
          "type": "uint256"
        }
      ],
      "name": "transferFrom",
      "outputs": [],
      "stateMutability": "nonpayable",
      "type": "function"
    },
    {
      "inputs": [
        {
          "internalType": "string",
          "name": "_property",
          "type": "string"
        },
        {
          "internalType": "uint256",
          "name": "origVal",
          "type": "uint256"
        },
        {
          "internalType": "uint256",
          "name": "coins",
          "type": "uint256"
        },
        {
          "internalType": "string[]",
          "name": "property_images",
          "type": "string[]"
        },
        {
          "internalType": "string[]",
          "name": "pro_add_details",
          "type": "string[]"
        },
        {
          "internalType": "uint256",
          "name": "prop_tax",
          "type": "uint256"
        },
        {
          "internalType": "uint256",
          "name": "prop_insurance",
          "type": "uint256"
        },
        {
          "internalType": "uint256",
          "name": "prop_maintainence",
          "type": "uint256"
        },
        {
          "internalType": "string",
          "name": "features_prop",
          "type": "string"
        }
      ],
      "name": "mint",
      "outputs": [],
      "stateMutability": "nonpayable",
      "type": "function"
    },
    {
      "inputs": [
        {
          "internalType": "string",
          "name": "name",
          "type": "string"
        },
        {
          "internalType": "string",
          "name": "symbol",
          "type": "string"
        }
      ],
      "name": "deployNewToken",
      "outputs": [
        {
          "internalType": "address",
          "name": "",
          "type": "address"
        }
      ],
      "stateMutability": "nonpayable",
      "type": "function"
    },
    {
      "inputs": [
        {
          "internalType": "uint256",
          "name": "_index",
          "type": "uint256"
        }
      ],
      "name": "getProperties",
      "outputs": [
        {
          "internalType": "string",
          "name": "",
          "type": "string"
        }
      ],
      "stateMutability": "view",
      "type": "function"
    }
  ],
  "bytecode": "0x608060405260006001556000600d553480156200001b57600080fd5b506040518060400160405280600881526020017f50726f70657274790000000000000000000000000000000000000000000000008152506040518060400160405280600781526020017f5153545f544b4e00000000000000000000000000000000000000000000000000815250620000a06301ffc9a760e01b6200012260201b60201c565b8160079080519060200190620000b8929190620001fa565b508060089080519060200190620000d1929190620001fa565b50620000ea6380ac58cd60e01b6200012260201b60201c565b62000102635b5e139f60e01b6200012260201b60201c565b6200011a63780e9d6360e01b6200012260201b60201c565b505062000315565b63ffffffff60e01b817bffffffffffffffffffffffffffffffffffffffffffffffffffffffff191614156200018e576040517f08c379a00000000000000000000000000000000000000000000000000000000081526004016200018590620002e2565b60405180910390fd5b6001600080837bffffffffffffffffffffffffffffffffffffffffffffffffffffffff19167bffffffffffffffffffffffffffffffffffffffffffffffffffffffff1916815260200190815260200160002060006101000a81548160ff02191690831515021790555050565b828054600181600116156101000203166002900490600052602060002090601f016020900481019282601f106200023d57805160ff19168380011785556200026e565b828001600101855582156200026e579182015b828111156200026d57825182559160200191906001019062000250565b5b5090506200027d919062000281565b5090565b5b808211156200029c57600081600090555060010162000282565b5090565b6000620002af601c8362000304565b91507f4552433136353a20696e76616c696420696e74657266616365206964000000006000830152602082019050919050565b60006020820190508181036000830152620002fd81620002a0565b9050919050565b600082825260208201905092915050565b6159d580620003256000396000f3fe60806040523480156200001157600080fd5b5060043610620001d25760003560e01c80636352211e1162000111578063b88d4fde11620000a5578063e06e0688116200007b578063e06e068814620005aa578063e985e9c514620005e0578063f5cc77131462000616578063f7b10808146200064e57620001d2565b8063b88d4fde1462000532578063c87b56dd1462000552578063ce606ee0146200058857620001d2565b8063750510b211620000e7578063750510b214620004ae5780638111e85714620004d057806395d89b4114620004f0578063a22cb465146200051257620001d2565b80636352211e14620004205780636c0360eb146200045657806370a08231146200047857620001d2565b80631b8ca21711620001895780632f745c59116200015f5780632f745c59146200035e5780633c37cd08146200039457806342842e0e14620003ca5780634f6ccce714620003ea57620001d2565b80631b8ca21714620002e657806323b872dd146200031c5780632e9edf35146200033c57620001d2565b806301ffc9a714620001d757806306fdde03146200020d578063081812fc146200022f578063095ea7b3146200026557806318160ddd1462000285578063190be8b114620002a7575b600080fd5b620001f56004803603810190620001ef919062002e59565b62000684565b60405162000204919062003a72565b60405180910390f35b62000217620006eb565b60405162000226919062003a8f565b60405180910390f35b6200024d600480360381019062000247919062003061565b62000791565b6040516200025c919062003a01565b60405180910390f35b6200028360048036038101906200027d919062002e18565b6200081b565b005b6200028f62000944565b6040516200029e919062003d72565b60405180910390f35b620002c56004803603810190620002bf919062003061565b62000957565b604051620002dd9a9998979695949392919062003dcc565b60405180910390f35b620003046004803603810190620002fe919062003061565b62000a8d565b60405162000313919062003a8f565b60405180910390f35b6200033a600480360381019062000334919062002cfc565b62000b4b565b005b6200034662000bb4565b60405162000355919062003d72565b60405180910390f35b6200037c600480360381019062000376919062002e18565b62000bba565b6040516200038b919062003d72565b60405180910390f35b620003b26004803603810190620003ac919062002eb1565b62000c17565b604051620003c1919062003a01565b60405180910390f35b620003e86004803603810190620003e2919062002cfc565b62000cde565b005b62000408600480360381019062000402919062003061565b62000d00565b60405162000417919062003d72565b60405180910390f35b6200043e600480360381019062000438919062003061565b62000d25565b6040516200044d919062003a01565b60405180910390f35b6200046062000d5f565b6040516200046f919062003a8f565b60405180910390f35b62000496600480360381019062000490919062002c8f565b62000e05565b604051620004a5919062003d72565b60405180910390f35b620004b862000ec9565b604051620004c7919062003a01565b60405180910390f35b620004ee6004803603810190620004e8919062002f24565b62000eef565b005b620004fa62001033565b60405162000509919062003a8f565b60405180910390f35b6200053060048036038101906200052a919062002dd7565b620010d9565b005b6200055060048036038101906200054a919062002d52565b62001265565b005b6200057060048036038101906200056a919062003061565b620012d0565b6040516200057f919062003a8f565b60405180910390f35b620005926200146e565b604051620005a1919062003a01565b60405180910390f35b620005c86004803603810190620005c2919062003061565b62001494565b604051620005d7919062003a01565b60405180910390f35b620005fe6004803603810190620005f8919062002cbb565b620014d1565b6040516200060d919062003a72565b60405180910390f35b6200063460048036038101906200062e919062003061565b62001565565b604051620006459392919062003d8f565b60405180910390f35b6200066c600480360381019062000666919062003061565b6200158f565b6040516200067b919062003a8f565b60405180910390f35b6000806000837bffffffffffffffffffffffffffffffffffffffffffffffffffffffff19167bffffffffffffffffffffffffffffffffffffffffffffffffffffffff1916815260200190815260200160002060009054906101000a900460ff169050919050565b606060078054600181600116156101000203166002900480601f016020809104026020016040519081016040528092919081815260200182805460018160011615610100020316600290048015620007875780601f106200075b5761010080835404028352916020019162000787565b820191906000526020600020905b8154815290600101906020018083116200076957829003601f168201915b5050505050905090565b60006200079e826200164d565b620007e0576040517f08c379a0000000000000000000000000000000000000000000000000000000008152600401620007d79062003ca6565b60405180910390fd5b6005600083815260200190815260200160002060009054906101000a900473ffffffffffffffffffffffffffffffffffffffff169050919050565b6000620008288262000d25565b90508073ffffffffffffffffffffffffffffffffffffffff168373ffffffffffffffffffffffffffffffffffffffff1614156200089c576040517f08c379a0000000000000000000000000000000000000000000000000000000008152600401620008939062003d0c565b60405180910390fd5b8073ffffffffffffffffffffffffffffffffffffffff16620008bd6200166c565b73ffffffffffffffffffffffffffffffffffffffff161480620008f15750620008f081620008ea6200166c565b620014d1565b5b62000933576040517f08c379a00000000000000000000000000000000000000000000000000000000081526004016200092a9062003c1e565b60405180910390fd5b6200093f838362001674565b505050565b60006200095260036200172f565b905090565b600e602052806000526040600020600091509050806000015490806001015490806002015490806004016040518060c001604052908160008201548152602001600182015481526020016002820154815260200160038201548152602001600482015481526020016005820154815250509080600c01549080600d01549080600e01549080600f015490806010015490806011018054600181600116156101000203166002900480601f01602080910402602001604051908101604052809291908181526020018280546001816001161561010002031660029004801562000a835780601f1062000a575761010080835404028352916020019162000a83565b820191906000526020600020905b81548152906001019060200180831162000a6557829003601f168201915b505050505090508a565b60606011828154811062000a9d57fe5b906000526020600020018054600181600116156101000203166002900480601f01602080910402602001604051908101604052809291908181526020018280546001816001161561010002031660029004801562000b3f5780601f1062000b135761010080835404028352916020019162000b3f565b820191906000526020600020905b81548152906001019060200180831162000b2157829003601f168201915b50505050509050919050565b62000b6062000b596200166c565b8262001746565b62000ba2576040517f08c379a000000000000000000000000000000000000000000000000000000000815260040162000b999062003d2e565b60405180910390fd5b62000baf83838362001831565b505050565b600d5481565b600062000c0f82600260008673ffffffffffffffffffffffffffffffffffffffff1673ffffffffffffffffffffffffffffffffffffffff16815260200190815260200160002062001a5a90919063ffffffff16565b905092915050565b60008083833361271060405162000c2e9062002922565b62000c3d949392919062003ab3565b604051809103906000f08015801562000c5a573d6000803e3d6000fd5b50905080601260006101000a81548173ffffffffffffffffffffffffffffffffffffffff021916908373ffffffffffffffffffffffffffffffffffffffff1602179055507f2e2b3f61b70d2d131b2a807371103cc98d51adcaa5e9a8f9c32658ad8426e74e8160405162000ccf919062003a01565b60405180910390a15092915050565b62000cfb8383836040518060200160405280600081525062001265565b505050565b60008062000d1983600362001a7690919063ffffffff16565b50905080915050919050565b600062000d58826040518060600160405280602981526020016200597760299139600362001aa49092919063ffffffff16565b9050919050565b606060108054600181600116156101000203166002900480601f01602080910402602001604051908101604052809291908181526020018280546001816001161561010002031660029004801562000dfb5780601f1062000dcf5761010080835404028352916020019162000dfb565b820191906000526020600020905b81548152906001019060200180831162000ddd57829003601f168201915b5050505050905090565b60008073ffffffffffffffffffffffffffffffffffffffff168273ffffffffffffffffffffffffffffffffffffffff16141562000e79576040517f08c379a000000000000000000000000000000000000000000000000000000000815260040162000e709062003c40565b60405180910390fd5b62000ec2600260008473ffffffffffffffffffffffffffffffffffffffff1673ffffffffffffffffffffffffffffffffffffffff16815260200190815260200160002062001ac5565b9050919050565b601260009054906101000a900473ffffffffffffffffffffffffffffffffffffffff1681565b60138960405162000f019190620039c0565b908152602001604051809103902060009054906101000a900460ff161562000f2857600080fd5b60118990806001815401808255809150506001900390600052602060002001600090919091909150908051906020019062000f6592919062002930565b5062000f78888888888888888862001adc565b600160138a60405162000f8c9190620039c0565b908152602001604051809103902060006101000a81548160ff021916908315150217905550620010276040518060400160405280600581526020017f70726f70310000000000000000000000000000000000000000000000000000008152506040518060400160405280600381526020017f515354000000000000000000000000000000000000000000000000000000000081525062000c17565b50505050505050505050565b606060088054600181600116156101000203166002900480601f016020809104026020016040519081016040528092919081815260200182805460018160011615610100020316600290048015620010cf5780601f10620010a357610100808354040283529160200191620010cf565b820191906000526020600020905b815481529060010190602001808311620010b157829003601f168201915b5050505050905090565b620010e36200166c565b73ffffffffffffffffffffffffffffffffffffffff168273ffffffffffffffffffffffffffffffffffffffff16141562001154576040517f08c379a00000000000000000000000000000000000000000000000000000000081526004016200114b9062003bb8565b60405180910390fd5b8060066000620011636200166c565b73ffffffffffffffffffffffffffffffffffffffff1673ffffffffffffffffffffffffffffffffffffffff16815260200190815260200160002060008473ffffffffffffffffffffffffffffffffffffffff1673ffffffffffffffffffffffffffffffffffffffff16815260200190815260200160002060006101000a81548160ff0219169083151502179055508173ffffffffffffffffffffffffffffffffffffffff16620012126200166c565b73ffffffffffffffffffffffffffffffffffffffff167f17307eab39ab6107e8899845ad3d59bd9653f200f220920489ca2b5937696c318360405162001259919062003a72565b60405180910390a35050565b6200127a620012736200166c565b8362001746565b620012bc576040517f08c379a0000000000000000000000000000000000000000000000000000000008152600401620012b39062003d2e565b60405180910390fd5b620012ca8484848462001f22565b50505050565b6060620012dd826200164d565b6200131f576040517f08c379a0000000000000000000000000000000000000000000000000000000008152600401620013169062003cea565b60405180910390fd5b6060600960008481526020019081526020016000208054600181600116156101000203166002900480601f016020809104026020016040519081016040528092919081815260200182805460018160011615610100020316600290048015620013cc5780601f10620013a057610100808354040283529160200191620013cc565b820191906000526020600020905b815481529060010190602001808311620013ae57829003601f168201915b50505050509050600060108054600181600116156101000203166002900490501415620013fd578091505062001469565b60008151111562001436576010816040516020016200141e929190620039d9565b60405160208183030381529060405291505062001469565b6010620014438462001f85565b60405160200162001456929190620039d9565b6040516020818303038152906040529150505b919050565b600b60009054906101000a900473ffffffffffffffffffffffffffffffffffffffff1681565b600a8181548110620014a257fe5b906000526020600020016000915054906101000a900473ffffffffffffffffffffffffffffffffffffffff1681565b6000600660008473ffffffffffffffffffffffffffffffffffffffff1673ffffffffffffffffffffffffffffffffffffffff16815260200190815260200160002060008373ffffffffffffffffffffffffffffffffffffffff1673ffffffffffffffffffffffffffffffffffffffff16815260200190815260200160002060009054906101000a900460ff16905092915050565b600f6020528060005260406000206000915090508060000154908060010154908060020154905083565b601181815481106200159d57fe5b906000526020600020016000915090508054600181600116156101000203166002900480601f016020809104026020016040519081016040528092919081815260200182805460018160011615610100020316600290048015620016455780601f10620016195761010080835404028352916020019162001645565b820191906000526020600020905b8154815290600101906020018083116200162757829003601f168201915b505050505081565b600062001665826003620020d890919063ffffffff16565b9050919050565b600033905090565b816005600083815260200190815260200160002060006101000a81548173ffffffffffffffffffffffffffffffffffffffff021916908373ffffffffffffffffffffffffffffffffffffffff160217905550808273ffffffffffffffffffffffffffffffffffffffff16620016e98362000d25565b73ffffffffffffffffffffffffffffffffffffffff167f8c5be1e5ebec7d5bd14f71427d1e84f3dd0314c0f7b2291e5b200ac8c7c3b92560405160405180910390a45050565b60006200173f82600001620020f4565b9050919050565b600062001753826200164d565b62001795576040517f08c379a00000000000000000000000000000000000000000000000000000000081526004016200178c9062003bfc565b60405180910390fd5b6000620017a28362000d25565b90508073ffffffffffffffffffffffffffffffffffffffff168473ffffffffffffffffffffffffffffffffffffffff1614806200181457508373ffffffffffffffffffffffffffffffffffffffff16620017fc8462000791565b73ffffffffffffffffffffffffffffffffffffffff16145b80620018285750620018278185620014d1565b5b91505092915050565b8273ffffffffffffffffffffffffffffffffffffffff16620018538262000d25565b73ffffffffffffffffffffffffffffffffffffffff1614620018ac576040517f08c379a0000000000000000000000000000000000000000000000000000000008152600401620018a39062003cc8565b60405180910390fd5b600073ffffffffffffffffffffffffffffffffffffffff168273ffffffffffffffffffffffffffffffffffffffff1614156200191f576040517f08c379a0000000000000000000000000000000000000000000000000000000008152600401620019169062003b96565b60405180910390fd5b6200192c83838362002105565b6200193960008262001674565b6200198c81600260008673ffffffffffffffffffffffffffffffffffffffff1673ffffffffffffffffffffffffffffffffffffffff1681526020019081526020016000206200210a90919063ffffffff16565b50620019e081600260008573ffffffffffffffffffffffffffffffffffffffff1673ffffffffffffffffffffffffffffffffffffffff1681526020019081526020016000206200212690919063ffffffff16565b50620019f981836003620021429092919063ffffffff16565b50808273ffffffffffffffffffffffffffffffffffffffff168473ffffffffffffffffffffffffffffffffffffffff167fddf252ad1be2c89b69c2b068fc378daa952ba7f163c4a11628f55a4df523b3ef60405160405180910390a4505050565b600062001a6b836000018362002179565b60001c905092915050565b60008060008062001a8b8660000186620021ea565b915091508160001c8160001c9350935050509250929050565b600062001ab9846000018460001b8462002271565b60001c90509392505050565b600062001ad58260000162002306565b9050919050565b60006001549050600160008154809291906001019190505550600073ffffffffffffffffffffffffffffffffffffffff163373ffffffffffffffffffffffffffffffffffffffff16141562001b68576040517f08c379a000000000000000000000000000000000000000000000000000000000815260040162001b5f9062003c84565b60405180910390fd5b62001b73816200164d565b1562001bb6576040517f08c379a000000000000000000000000000000000000000000000000000000000815260040162001bad9062003b52565b60405180910390fd5b62001bc46000338362002105565b62001c1781600260003373ffffffffffffffffffffffffffffffffffffffff1673ffffffffffffffffffffffffffffffffffffffff1681526020019081526020016000206200212690919063ffffffff16565b5062001c3081336003620021429092919063ffffffff16565b5062001c3b620029b7565b8881600001818152505089816020018181525050600081604001818152505060018160600181815250508981608001818152505060008160a001818152505089600e60008481526020019081526020016000206000018190555089600e60008481526020019081526020016000206001018190555042600e60008481526020019081526020016000206002018190555087600e6000848152602001908152602001600020600a01908051906020019062001cf7929190620029ed565b5086600e6000848152602001908152602001600020600b01908051906020019062001d24929190620029ed565b50600e6000838152602001908152602001600020600301819080600181540180825580915050600190039060005260206000209060060201600090919091909150600082015181600001556020820151816001015560408201518160020155606082015181600301556080820151816004015560a08201518160050155505080600e6000848152602001908152602001600020600401600082015181600001556020820151816001015560408201518160020155606082015181600301556080820151816004015560a0820151816005015590505085600e6000848152602001908152602001600020600c018190555084600e6000848152602001908152602001600020600d018190555083600e6000848152602001908152602001600020600e018190555062001e738462001e6487896200231790919063ffffffff16565b6200231790919063ffffffff16565b600e6000848152602001908152602001600020600f018190555082600e6000848152602001908152602001600020601101908051906020019062001eb992919062002930565b50813373ffffffffffffffffffffffffffffffffffffffff16600073ffffffffffffffffffffffffffffffffffffffff167fddf252ad1be2c89b69c2b068fc378daa952ba7f163c4a11628f55a4df523b3ef60405160405180910390a450505050505050505050565b62001f2f84848462001831565b62001f3d848484846200236f565b62001f7f576040517f08c379a000000000000000000000000000000000000000000000000000000000815260040162001f769062003b30565b60405180910390fd5b50505050565b6060600082141562001fcf576040518060400160405280600181526020017f30000000000000000000000000000000000000000000000000000000000000008152509050620020d3565b600082905060005b6000821462001ffc578080600101915050600a828162001ff357fe5b04915062001fd7565b60608167ffffffffffffffff811180156200201657600080fd5b506040519080825280601f01601f1916602001820160405280156200204a5781602001600182028036833780820191505090505b50905060006001830390508593505b60008414620020cb57600a84816200206d57fe5b0660300160f81b828280600190039350815181106200208857fe5b60200101907effffffffffffffffffffffffffffffffffffffffffffffffffffffffffffff1916908160001a905350600a8481620020c257fe5b04935062002059565b819450505050505b919050565b6000620020ec836000018360001b620024e0565b905092915050565b600081600001805490509050919050565b505050565b60006200211e836000018360001b62002503565b905092915050565b60006200213a836000018360001b620025f0565b905092915050565b600062002170846000018460001b8473ffffffffffffffffffffffffffffffffffffffff1660001b62002664565b90509392505050565b600081836000018054905011620021c7576040517f08c379a0000000000000000000000000000000000000000000000000000000008152600401620021be9062003b0e565b60405180910390fd5b826000018281548110620021d757fe5b9060005260206000200154905092915050565b6000808284600001805490501162002239576040517f08c379a0000000000000000000000000000000000000000000000000000000008152600401620022309062003c62565b60405180910390fd5b60008460000184815481106200224b57fe5b906000526020600020906002020190508060000154816001015492509250509250929050565b60008084600101600085815260200190815260200160002054905060008114158390620022d6576040517f08c379a0000000000000000000000000000000000000000000000000000000008152600401620022cd919062003a8f565b60405180910390fd5b50846000016001820381548110620022ea57fe5b9060005260206000209060020201600101549150509392505050565b600081600001805490509050919050565b60008082840190508381101562002365576040517f08c379a00000000000000000000000000000000000000000000000000000000081526004016200235c9062003b74565b60405180910390fd5b8091505092915050565b6000620023928473ffffffffffffffffffffffffffffffffffffffff1662002743565b620023a15760019050620024d8565b60606200246f63150b7a0260e01b620023b96200166c565b888787604051602401620023d1949392919062003a1e565b604051602081830303815290604052907bffffffffffffffffffffffffffffffffffffffffffffffffffffffff19166020820180517bffffffffffffffffffffffffffffffffffffffffffffffffffffffff838183161783525050505060405180606001604052806032815260200162005945603291398773ffffffffffffffffffffffffffffffffffffffff16620027569092919063ffffffff16565b905060008180602001905181019062002489919062002e85565b905063150b7a0260e01b7bffffffffffffffffffffffffffffffffffffffffffffffffffffffff1916817bffffffffffffffffffffffffffffffffffffffffffffffffffffffff191614925050505b949350505050565b600080836001016000848152602001908152602001600020541415905092915050565b60008083600101600084815260200190815260200160002054905060008114620025e457600060018203905060006001866000018054905003905060008660000182815481106200255057fe5b90600052602060002001549050808760000184815481106200256e57fe5b9060005260206000200181905550600183018760010160008381526020019081526020016000208190555086600001805480620025a757fe5b60019003818190600052602060002001600090559055866001016000878152602001908152602001600020600090556001945050505050620025ea565b60009150505b92915050565b6000620025fe838362002770565b620026595782600001829080600181540180825580915050600190039060005260206000200160009091909190915055826000018054905083600101600084815260200190815260200160002081905550600190506200265e565b600090505b92915050565b60008084600101600085815260200190815260200160002054905060008114156200270d578460000160405180604001604052808681526020018581525090806001815401808255809150506001900390600052602060002090600202016000909190919091506000820151816000015560208201518160010155505084600001805490508560010160008681526020019081526020016000208190555060019150506200273c565b828560000160018303815481106200272157fe5b90600052602060002090600202016001018190555060009150505b9392505050565b600080823b905060008111915050919050565b606062002767848460008562002793565b90509392505050565b600080836001016000848152602001908152602001600020541415905092915050565b606082471015620027db576040517f08c379a0000000000000000000000000000000000000000000000000000000008152600401620027d29062003bda565b60405180910390fd5b620027e68562002743565b62002828576040517f08c379a00000000000000000000000000000000000000000000000000000000081526004016200281f9062003d50565b60405180910390fd5b600060608673ffffffffffffffffffffffffffffffffffffffff168587604051620028549190620039a7565b60006040518083038185875af1925050503d806000811462002893576040519150601f19603f3d011682016040523d82523d6000602084013e62002898565b606091505b5091509150620028aa828286620028b6565b92505050949350505050565b60608315620028c8578290506200291b565b600083511115620028dc5782518084602001fd5b816040517f08c379a000000000000000000000000000000000000000000000000000000000815260040162002912919062003a8f565b60405180910390fd5b9392505050565b611811806200413483390190565b828054600181600116156101000203166002900490600052602060002090601f016020900481019282601f106200297357805160ff1916838001178555620029a4565b82800160010185558215620029a4579182015b82811115620029a357825182559160200191906001019062002986565b5b509050620029b3919062002a54565b5090565b6040518060c001604052806000815260200160008152602001600081526020016000815260200160008152602001600081525090565b82805482825590600052602060002090810192821562002a41579160200282015b8281111562002a4057825182908051906020019062002a2f92919062002930565b509160200191906001019062002a0e565b5b50905062002a50919062002a73565b5090565b5b8082111562002a6f57600081600090555060010162002a55565b5090565b5b8082111562002a97576000818162002a8d919062002a9b565b5060010162002a74565b5090565b50805460018160011615610100020316600290046000825580601f1062002ac3575062002ae4565b601f01602090049060005260206000209081019062002ae3919062002a54565b5b50565b60008135905062002af881620040cb565b92915050565b600082601f83011262002b1057600080fd5b813562002b2762002b218262003eb5565b62003e87565b9150818183526020840193506020810190508360005b8381101562002b71578135860162002b56888262002c1c565b84526020840193506020830192505060018101905062002b3d565b5050505092915050565b60008135905062002b8c81620040e5565b92915050565b60008135905062002ba381620040ff565b92915050565b60008151905062002bba81620040ff565b92915050565b600082601f83011262002bd257600080fd5b813562002be962002be38262003ede565b62003e87565b9150808252602083016020830185838301111562002c0657600080fd5b62002c1383828462004075565b50505092915050565b600082601f83011262002c2e57600080fd5b813562002c4562002c3f8262003f0b565b62003e87565b9150808252602083016020830185838301111562002c6257600080fd5b62002c6f83828462004075565b50505092915050565b60008135905062002c898162004119565b92915050565b60006020828403121562002ca257600080fd5b600062002cb28482850162002ae7565b91505092915050565b6000806040838503121562002ccf57600080fd5b600062002cdf8582860162002ae7565b925050602062002cf28582860162002ae7565b9150509250929050565b60008060006060848603121562002d1257600080fd5b600062002d228682870162002ae7565b935050602062002d358682870162002ae7565b925050604062002d488682870162002c78565b9150509250925092565b6000806000806080858703121562002d6957600080fd5b600062002d798782880162002ae7565b945050602062002d8c8782880162002ae7565b935050604062002d9f8782880162002c78565b925050606085013567ffffffffffffffff81111562002dbd57600080fd5b62002dcb8782880162002bc0565b91505092959194509250565b6000806040838503121562002deb57600080fd5b600062002dfb8582860162002ae7565b925050602062002e0e8582860162002b7b565b9150509250929050565b6000806040838503121562002e2c57600080fd5b600062002e3c8582860162002ae7565b925050602062002e4f8582860162002c78565b9150509250929050565b60006020828403121562002e6c57600080fd5b600062002e7c8482850162002b92565b91505092915050565b60006020828403121562002e9857600080fd5b600062002ea88482850162002ba9565b91505092915050565b6000806040838503121562002ec557600080fd5b600083013567ffffffffffffffff81111562002ee057600080fd5b62002eee8582860162002c1c565b925050602083013567ffffffffffffffff81111562002f0c57600080fd5b62002f1a8582860162002c1c565b9150509250929050565b60008060008060008060008060006101208a8c03121562002f4457600080fd5b60008a013567ffffffffffffffff81111562002f5f57600080fd5b62002f6d8c828d0162002c1c565b995050602062002f808c828d0162002c78565b985050604062002f938c828d0162002c78565b97505060608a013567ffffffffffffffff81111562002fb157600080fd5b62002fbf8c828d0162002afe565b96505060808a013567ffffffffffffffff81111562002fdd57600080fd5b62002feb8c828d0162002afe565b95505060a062002ffe8c828d0162002c78565b94505060c0620030118c828d0162002c78565b93505060e0620030248c828d0162002c78565b9250506101008a013567ffffffffffffffff8111156200304357600080fd5b620030518c828d0162002c1c565b9150509295985092959850929598565b6000602082840312156200307457600080fd5b6000620030848482850162002c78565b91505092915050565b620030988162004025565b82525050565b620030a98162003faf565b82525050565b620030ba8162003f9b565b82525050565b620030cb8162003fc3565b82525050565b6000620030de8262003f4d565b620030ea818562003f63565b9350620030fc81856020860162004084565b6200310781620040ba565b840191505092915050565b60006200311f8262003f4d565b6200312b818562003f74565b93506200313d81856020860162004084565b80840191505092915050565b620031548162004039565b82525050565b6000620031678262003f58565b62003173818562003f7f565b93506200318581856020860162004084565b6200319081620040ba565b840191505092915050565b6000620031a88262003f58565b620031b4818562003f90565b9350620031c681856020860162004084565b80840191505092915050565b600081546001811660008114620031f257600181146200321a5762003264565b607f600283041662003205818762003f90565b955060ff198316865280860193505062003264565b600282046200322a818762003f90565b9550620032378562003f38565b60005b828110156200325b578154818901526001820191506020810190506200323a565b82880195505050505b505092915050565b60006200327b60228362003f7f565b91507f456e756d657261626c655365743a20696e646578206f7574206f6620626f756e60008301527f64730000000000000000000000000000000000000000000000000000000000006020830152604082019050919050565b6000620032e360328362003f7f565b91507f4552433732313a207472616e7366657220746f206e6f6e20455243373231526560008301527f63656976657220696d706c656d656e74657200000000000000000000000000006020830152604082019050919050565b60006200334b601c8362003f7f565b91507f4552433732313a20746f6b656e20616c7265616479206d696e746564000000006000830152602082019050919050565b60006200338d601b8362003f7f565b91507f536166654d6174683a206164646974696f6e206f766572666c6f7700000000006000830152602082019050919050565b6000620033cf60248362003f7f565b91507f4552433732313a207472616e7366657220746f20746865207a65726f2061646460008301527f72657373000000000000000000000000000000000000000000000000000000006020830152604082019050919050565b60006200343760198362003f7f565b91507f4552433732313a20617070726f766520746f2063616c6c6572000000000000006000830152602082019050919050565b60006200347960268362003f7f565b91507f416464726573733a20696e73756666696369656e742062616c616e636520666f60008301527f722063616c6c00000000000000000000000000000000000000000000000000006020830152604082019050919050565b6000620034e1602c8362003f7f565b91507f4552433732313a206f70657261746f7220717565727920666f72206e6f6e657860008301527f697374656e7420746f6b656e00000000000000000000000000000000000000006020830152604082019050919050565b60006200354960388362003f7f565b91507f4552433732313a20617070726f76652063616c6c6572206973206e6f74206f7760008301527f6e6572206e6f7220617070726f76656420666f7220616c6c00000000000000006020830152604082019050919050565b6000620035b1602a8362003f7f565b91507f4552433732313a2062616c616e636520717565727920666f7220746865207a6560008301527f726f2061646472657373000000000000000000000000000000000000000000006020830152604082019050919050565b60006200361960228362003f7f565b91507f456e756d657261626c654d61703a20696e646578206f7574206f6620626f756e60008301527f64730000000000000000000000000000000000000000000000000000000000006020830152604082019050919050565b60006200368160208362003f7f565b91507f4552433732313a206d696e7420746f20746865207a65726f20616464726573736000830152602082019050919050565b6000620036c3602c8362003f7f565b91507f4552433732313a20617070726f76656420717565727920666f72206e6f6e657860008301527f697374656e7420746f6b656e00000000000000000000000000000000000000006020830152604082019050919050565b60006200372b60298362003f7f565b91507f4552433732313a207472616e73666572206f6620746f6b656e2074686174206960008301527f73206e6f74206f776e00000000000000000000000000000000000000000000006020830152604082019050919050565b600062003793602f8362003f7f565b91507f4552433732314d657461646174613a2055524920717565727920666f72206e6f60008301527f6e6578697374656e7420746f6b656e00000000000000000000000000000000006020830152604082019050919050565b6000620037fb60218362003f7f565b91507f4552433732313a20617070726f76616c20746f2063757272656e74206f776e6560008301527f72000000000000000000000000000000000000000000000000000000000000006020830152604082019050919050565b60006200386360318362003f7f565b91507f4552433732313a207472616e736665722063616c6c6572206973206e6f74206f60008301527f776e6572206e6f7220617070726f7665640000000000000000000000000000006020830152604082019050919050565b6000620038cb601d8362003f7f565b91507f416464726573733a2063616c6c20746f206e6f6e2d636f6e74726163740000006000830152602082019050919050565b60c08201600082015162003916600085018262003985565b5060208201516200392b602085018262003985565b50604082015162003940604085018262003985565b50606082015162003955606085018262003985565b5060808201516200396a608085018262003985565b5060a08201516200397f60a085018262003985565b50505050565b62003990816200401b565b82525050565b620039a1816200401b565b82525050565b6000620039b5828462003112565b915081905092915050565b6000620039ce82846200319b565b915081905092915050565b6000620039e78285620031d2565b9150620039f582846200319b565b91508190509392505050565b600060208201905062003a186000830184620030af565b92915050565b600060808201905062003a3560008301876200309e565b62003a446020830186620030af565b62003a53604083018562003996565b818103606083015262003a678184620030d1565b905095945050505050565b600060208201905062003a896000830184620030c0565b92915050565b6000602082019050818103600083015262003aab81846200315a565b905092915050565b6000608082019050818103600083015262003acf81876200315a565b9050818103602083015262003ae581866200315a565b905062003af660408301856200308d565b62003b05606083018462003149565b95945050505050565b6000602082019050818103600083015262003b29816200326c565b9050919050565b6000602082019050818103600083015262003b4b81620032d4565b9050919050565b6000602082019050818103600083015262003b6d816200333c565b9050919050565b6000602082019050818103600083015262003b8f816200337e565b9050919050565b6000602082019050818103600083015262003bb181620033c0565b9050919050565b6000602082019050818103600083015262003bd38162003428565b9050919050565b6000602082019050818103600083015262003bf5816200346a565b9050919050565b6000602082019050818103600083015262003c1781620034d2565b9050919050565b6000602082019050818103600083015262003c39816200353a565b9050919050565b6000602082019050818103600083015262003c5b81620035a2565b9050919050565b6000602082019050818103600083015262003c7d816200360a565b9050919050565b6000602082019050818103600083015262003c9f8162003672565b9050919050565b6000602082019050818103600083015262003cc181620036b4565b9050919050565b6000602082019050818103600083015262003ce3816200371c565b9050919050565b6000602082019050818103600083015262003d058162003784565b9050919050565b6000602082019050818103600083015262003d2781620037ec565b9050919050565b6000602082019050818103600083015262003d498162003854565b9050919050565b6000602082019050818103600083015262003d6b81620038bc565b9050919050565b600060208201905062003d89600083018462003996565b92915050565b600060608201905062003da6600083018662003996565b62003db5602083018562003996565b62003dc4604083018462003996565b949350505050565b60006101e08201905062003de4600083018d62003996565b62003df3602083018c62003996565b62003e02604083018b62003996565b62003e11606083018a620038fe565b62003e2161012083018962003996565b62003e3161014083018862003996565b62003e4161016083018762003996565b62003e5161018083018662003996565b62003e616101a083018562003996565b8181036101c083015262003e7681846200315a565b90509b9a5050505050505050505050565b6000604051905081810181811067ffffffffffffffff8211171562003eab57600080fd5b8060405250919050565b600067ffffffffffffffff82111562003ecd57600080fd5b602082029050602081019050919050565b600067ffffffffffffffff82111562003ef657600080fd5b601f19601f8301169050602081019050919050565b600067ffffffffffffffff82111562003f2357600080fd5b601f19601f8301169050602081019050919050565b60008190508160005260206000209050919050565b600081519050919050565b600081519050919050565b600082825260208201905092915050565b600081905092915050565b600082825260208201905092915050565b600081905092915050565b600062003fa88262003ffb565b9050919050565b600062003fbc8262003ffb565b9050919050565b60008115159050919050565b60007fffffffff0000000000000000000000000000000000000000000000000000000082169050919050565b600073ffffffffffffffffffffffffffffffffffffffff82169050919050565b6000819050919050565b600062004032826200404d565b9050919050565b600062004046826200401b565b9050919050565b60006200405a8262004061565b9050919050565b60006200406e8262003ffb565b9050919050565b82818337600083830152505050565b60005b83811015620040a457808201518184015260208101905062004087565b83811115620040b4576000848401525b50505050565b6000601f19601f8301169050919050565b620040d68162003f9b565b8114620040e257600080fd5b50565b620040f08162003fc3565b8114620040fc57600080fd5b50565b6200410a8162003fcf565b81146200411657600080fd5b50565b62004124816200401b565b81146200413057600080fd5b5056fe60806040523480156200001157600080fd5b506040516200181138038062001811833981810160405260808110156200003757600080fd5b81019080805160405193929190846401000000008211156200005857600080fd5b838201915060208201858111156200006f57600080fd5b82518660018202830111640100000000821117156200008d57600080fd5b8083526020830192505050908051906020019080838360005b83811015620000c3578082015181840152602081019050620000a6565b50505050905090810190601f168015620000f15780820380516001836020036101000a031916815260200191505b50604052602001805160405193929190846401000000008211156200011557600080fd5b838201915060208201858111156200012c57600080fd5b82518660018202830111640100000000821117156200014a57600080fd5b8083526020830192505050908051906020019080838360005b838110156200018057808201518184015260208101905062000163565b50505050905090810190601f168015620001ae5780820380516001836020036101000a031916815260200191505b5060405260200180519060200190929190805190602001909291905050508360039080519060200190620001e492919062000505565b508260049080519060200190620001fd92919062000505565b506012600560006101000a81548160ff021916908360ff16021790555081600560016101000a81548173ffffffffffffffffffffffffffffffffffffffff021916908373ffffffffffffffffffffffffffffffffffffffff1602179055506200028f600560019054906101000a900473ffffffffffffffffffffffffffffffffffffffff16826200029960201b60201c565b50505050620005ab565b600073ffffffffffffffffffffffffffffffffffffffff168273ffffffffffffffffffffffffffffffffffffffff1614156200033d576040517f08c379a000000000000000000000000000000000000000000000000000000000815260040180806020018281038252601f8152602001807f45524332303a206d696e7420746f20746865207a65726f20616464726573730081525060200191505060405180910390fd5b62000351600083836200047760201b60201c565b6200036d816002546200047c60201b62000b121790919060201c565b600281905550620003cb816000808573ffffffffffffffffffffffffffffffffffffffff1673ffffffffffffffffffffffffffffffffffffffff168152602001908152602001600020546200047c60201b62000b121790919060201c565b6000808473ffffffffffffffffffffffffffffffffffffffff1673ffffffffffffffffffffffffffffffffffffffff168152602001908152602001600020819055508173ffffffffffffffffffffffffffffffffffffffff16600073ffffffffffffffffffffffffffffffffffffffff167fddf252ad1be2c89b69c2b068fc378daa952ba7f163c4a11628f55a4df523b3ef836040518082815260200191505060405180910390a35050565b505050565b600080828401905083811015620004fb576040517f08c379a000000000000000000000000000000000000000000000000000000000815260040180806020018281038252601b8152602001807f536166654d6174683a206164646974696f6e206f766572666c6f77000000000081525060200191505060405180910390fd5b8091505092915050565b828054600181600116156101000203166002900490600052602060002090601f016020900481019282601f106200054857805160ff191683800117855562000579565b8280016001018555821562000579579182015b82811115620005785782518255916020019190600101906200055b565b5b5090506200058891906200058c565b5090565b5b80821115620005a75760008160009055506001016200058d565b5090565b61125680620005bb6000396000f3fe608060405234801561001057600080fd5b50600436106100ea5760003560e01c80633eaaf86b1161008c57806395d89b411161006657806395d89b4114610443578063a457c2d7146104c6578063a9059cbb1461052a578063dd62ed3e1461058e576100ea565b80633eaaf86b146103755780636ebcf6071461039357806370a08231146103eb576100ea565b806318160ddd116100c857806318160ddd1461024e57806323b872dd1461026c578063313ce567146102f05780633950935114610311576100ea565b8063024c2ddd146100ef57806306fdde0314610167578063095ea7b3146101ea575b600080fd5b6101516004803603604081101561010557600080fd5b81019080803573ffffffffffffffffffffffffffffffffffffffff169060200190929190803573ffffffffffffffffffffffffffffffffffffffff169060200190929190505050610606565b6040518082815260200191505060405180910390f35b61016f61062b565b6040518080602001828103825283818151815260200191508051906020019080838360005b838110156101af578082015181840152602081019050610194565b50505050905090810190601f1680156101dc5780820380516001836020036101000a031916815260200191505b509250505060405180910390f35b6102366004803603604081101561020057600080fd5b81019080803573ffffffffffffffffffffffffffffffffffffffff169060200190929190803590602001909291905050506106cd565b60405180821515815260200191505060405180910390f35b6102566106eb565b6040518082815260200191505060405180910390f35b6102d86004803603606081101561028257600080fd5b81019080803573ffffffffffffffffffffffffffffffffffffffff169060200190929190803573ffffffffffffffffffffffffffffffffffffffff169060200190929190803590602001909291905050506106f5565b60405180821515815260200191505060405180910390f35b6102f86107ce565b604051808260ff16815260200191505060405180910390f35b61035d6004803603604081101561032757600080fd5b81019080803573ffffffffffffffffffffffffffffffffffffffff169060200190929190803590602001909291905050506107e5565b60405180821515815260200191505060405180910390f35b61037d610898565b6040518082815260200191505060405180910390f35b6103d5600480360360208110156103a957600080fd5b81019080803573ffffffffffffffffffffffffffffffffffffffff16906020019092919050505061089e565b6040518082815260200191505060405180910390f35b61042d6004803603602081101561040157600080fd5b81019080803573ffffffffffffffffffffffffffffffffffffffff1690602001909291905050506108b6565b6040518082815260200191505060405180910390f35b61044b6108fe565b6040518080602001828103825283818151815260200191508051906020019080838360005b8381101561048b578082015181840152602081019050610470565b50505050905090810190601f1680156104b85780820380516001836020036101000a031916815260200191505b509250505060405180910390f35b610512600480360360408110156104dc57600080fd5b81019080803573ffffffffffffffffffffffffffffffffffffffff169060200190929190803590602001909291905050506109a0565b60405180821515815260200191505060405180910390f35b6105766004803603604081101561054057600080fd5b81019080803573ffffffffffffffffffffffffffffffffffffffff16906020019092919080359060200190929190505050610a6d565b60405180821515815260200191505060405180910390f35b6105f0600480360360408110156105a457600080fd5b81019080803573ffffffffffffffffffffffffffffffffffffffff169060200190929190803573ffffffffffffffffffffffffffffffffffffffff169060200190929190505050610a8b565b6040518082815260200191505060405180910390f35b6001602052816000526040600020602052806000526040600020600091509150505481565b606060038054600181600116156101000203166002900480601f0160208091040260200160405190810160405280929190818152602001828054600181600116156101000203166002900480156106c35780601f10610698576101008083540402835291602001916106c3565b820191906000526020600020905b8154815290600101906020018083116106a657829003601f168201915b5050505050905090565b60006106e16106da610b9a565b8484610ba2565b6001905092915050565b6000600254905090565b6000610702848484610d99565b6107c38461070e610b9a565b6107be8560405180606001604052806028815260200161118b60289139600160008b73ffffffffffffffffffffffffffffffffffffffff1673ffffffffffffffffffffffffffffffffffffffff1681526020019081526020016000206000610774610b9a565b73ffffffffffffffffffffffffffffffffffffffff1673ffffffffffffffffffffffffffffffffffffffff1681526020019081526020016000205461105a9092919063ffffffff16565b610ba2565b600190509392505050565b6000600560009054906101000a900460ff16905090565b600061088e6107f2610b9a565b846108898560016000610803610b9a565b73ffffffffffffffffffffffffffffffffffffffff1673ffffffffffffffffffffffffffffffffffffffff16815260200190815260200160002060008973ffffffffffffffffffffffffffffffffffffffff1673ffffffffffffffffffffffffffffffffffffffff16815260200190815260200160002054610b1290919063ffffffff16565b610ba2565b6001905092915050565b60025481565b60006020528060005260406000206000915090505481565b60008060008373ffffffffffffffffffffffffffffffffffffffff1673ffffffffffffffffffffffffffffffffffffffff168152602001908152602001600020549050919050565b606060048054600181600116156101000203166002900480601f0160208091040260200160405190810160405280929190818152602001828054600181600116156101000203166002900480156109965780601f1061096b57610100808354040283529160200191610996565b820191906000526020600020905b81548152906001019060200180831161097957829003601f168201915b5050505050905090565b6000610a636109ad610b9a565b84610a5e856040518060600160405280602581526020016111fc60259139600160006109d7610b9a565b73ffffffffffffffffffffffffffffffffffffffff1673ffffffffffffffffffffffffffffffffffffffff16815260200190815260200160002060008a73ffffffffffffffffffffffffffffffffffffffff1673ffffffffffffffffffffffffffffffffffffffff1681526020019081526020016000205461105a9092919063ffffffff16565b610ba2565b6001905092915050565b6000610a81610a7a610b9a565b8484610d99565b6001905092915050565b6000600160008473ffffffffffffffffffffffffffffffffffffffff1673ffffffffffffffffffffffffffffffffffffffff16815260200190815260200160002060008373ffffffffffffffffffffffffffffffffffffffff1673ffffffffffffffffffffffffffffffffffffffff16815260200190815260200160002054905092915050565b600080828401905083811015610b90576040517f08c379a000000000000000000000000000000000000000000000000000000000815260040180806020018281038252601b8152602001807f536166654d6174683a206164646974696f6e206f766572666c6f77000000000081525060200191505060405180910390fd5b8091505092915050565b600033905090565b600073ffffffffffffffffffffffffffffffffffffffff168373ffffffffffffffffffffffffffffffffffffffff161415610c28576040517f08c379a00000000000000000000000000000000000000000000000000000000081526004018080602001828103825260248152602001806111d86024913960400191505060405180910390fd5b600073ffffffffffffffffffffffffffffffffffffffff168273ffffffffffffffffffffffffffffffffffffffff161415610cae576040517f08c379a00000000000000000000000000000000000000000000000000000000081526004018080602001828103825260228152602001806111436022913960400191505060405180910390fd5b80600160008573ffffffffffffffffffffffffffffffffffffffff1673ffffffffffffffffffffffffffffffffffffffff16815260200190815260200160002060008473ffffffffffffffffffffffffffffffffffffffff1673ffffffffffffffffffffffffffffffffffffffff168152602001908152602001600020819055508173ffffffffffffffffffffffffffffffffffffffff168373ffffffffffffffffffffffffffffffffffffffff167f8c5be1e5ebec7d5bd14f71427d1e84f3dd0314c0f7b2291e5b200ac8c7c3b925836040518082815260200191505060405180910390a3505050565b600073ffffffffffffffffffffffffffffffffffffffff168373ffffffffffffffffffffffffffffffffffffffff161415610e1f576040517f08c379a00000000000000000000000000000000000000000000000000000000081526004018080602001828103825260258152602001806111b36025913960400191505060405180910390fd5b600073ffffffffffffffffffffffffffffffffffffffff168273ffffffffffffffffffffffffffffffffffffffff161415610ea5576040517f08c379a00000000000000000000000000000000000000000000000000000000081526004018080602001828103825260238152602001806111206023913960400191505060405180910390fd5b610eb083838361111a565b610f1b81604051806060016040528060268152602001611165602691396000808773ffffffffffffffffffffffffffffffffffffffff1673ffffffffffffffffffffffffffffffffffffffff1681526020019081526020016000205461105a9092919063ffffffff16565b6000808573ffffffffffffffffffffffffffffffffffffffff1673ffffffffffffffffffffffffffffffffffffffff16815260200190815260200160002081905550610fae816000808573ffffffffffffffffffffffffffffffffffffffff1673ffffffffffffffffffffffffffffffffffffffff16815260200190815260200160002054610b1290919063ffffffff16565b6000808473ffffffffffffffffffffffffffffffffffffffff1673ffffffffffffffffffffffffffffffffffffffff168152602001908152602001600020819055508173ffffffffffffffffffffffffffffffffffffffff168373ffffffffffffffffffffffffffffffffffffffff167fddf252ad1be2c89b69c2b068fc378daa952ba7f163c4a11628f55a4df523b3ef836040518082815260200191505060405180910390a3505050565b6000838311158290611107576040517f08c379a00000000000000000000000000000000000000000000000000000000081526004018080602001828103825283818151815260200191508051906020019080838360005b838110156110cc5780820151818401526020810190506110b1565b50505050905090810190601f1680156110f95780820380516001836020036101000a031916815260200191505b509250505060405180910390fd5b5060008385039050809150509392505050565b50505056fe45524332303a207472616e7366657220746f20746865207a65726f206164647265737345524332303a20617070726f766520746f20746865207a65726f206164647265737345524332303a207472616e7366657220616d6f756e7420657863656564732062616c616e636545524332303a207472616e7366657220616d6f756e74206578636565647320616c6c6f77616e636545524332303a207472616e736665722066726f6d20746865207a65726f206164647265737345524332303a20617070726f76652066726f6d20746865207a65726f206164647265737345524332303a2064656372656173656420616c6c6f77616e63652062656c6f77207a65726fa264697066735822122067daadbe5825742165aff348c489dc5c4d2550a605d5ca2cef4ead0a8625610464736f6c634300060c00334552433732313a207472616e7366657220746f206e6f6e20455243373231526563656976657220696d706c656d656e7465724552433732313a206f776e657220717565727920666f72206e6f6e6578697374656e7420746f6b656ea26469706673582212209e346e5fe8f281a5f36946ed87f8ddc0ad000c172758c9c826039e9ef04f3e6164736f6c634300060c0033",
  "immutableReferences": {},
  "source": "// SPDX-License-Identifier: MIT\r\npragma solidity ^0.6.0;\r\npragma experimental ABIEncoderV2;\r\n\r\nimport \"./ERC721.sol\";\r\nimport \"./ERC20.sol\";\r\n\r\ncontract Property is ERC721 {\r\n  string[] public properties;\r\n  address public proptest;\r\n  mapping(string => bool) _propertyExists;\r\n  \r\n\r\n  constructor() ERC721(\"Property\",\"QST_TKN\") public{\r\n      \r\n  }\r\n  \r\n      event TokenCreated(address tokenAddress);\r\n  function mint(string memory _property,uint256 origVal,\r\n                                     uint256 coins,\r\n                                     string[] memory property_images,\r\n                                     string[] memory pro_add_details,\r\n                                     uint256 prop_tax,\r\n                                     uint256 prop_insurance,\r\n                                     uint256 prop_maintainence,\r\n                                     string memory features_prop) public {\r\n   require(!_propertyExists[_property]);\r\n    properties.push(_property);\r\n    // uint _id = properties.length; \r\n    \r\n    _mint(origVal,coins,property_images,pro_add_details,prop_tax,prop_insurance,prop_maintainence,features_prop);\r\n    _propertyExists[_property] = true;\r\n    \r\n    \r\n    deployNewToken(\"prop1\", \"QST\");\r\n     \r\n\r\n     \r\n   \r\n    \r\n  } \r\n  \r\n  function deployNewToken(string memory name, string memory symbol) public returns (address) {\r\n       ERC20 t = new ERC20( name, symbol, msg.sender,10000);\r\n       proptest = address(t);\r\n       emit TokenCreated(address(t));\r\n       \r\n   }\r\n  \r\n  \r\n\r\n  function getProperties(uint _index) public view returns(string memory){\r\n   \r\n  return properties[_index];\r\n  \r\n} \r\n    \r\n\r\n}\r\n\r\n",
  "sourcePath": "C:/MyProjects/Code2Learn/Quest/nft/src/contracts/Property.sol",
  "compiler": {
    "name": "solc",
    "version": "0.6.12+commit.27d51765.Emscripten.clang"
  },
  "schemaVersion": "3.3.1",
  "updatedAt": "2020-11-19T12:40:45.033Z",
  "devdoc": {
    "kind": "dev",
    "methods": {
      "approve(address,uint256)": {
        "details": "See {IERC721-approve}."
      },
      "balanceOf(address)": {
        "details": "See {IERC721-balanceOf}."
      },
      "baseURI()": {
        "details": "Returns the base URI set via {_setBaseURI}. This will be automatically added as a prefix in {tokenURI} to each token's URI, or to the token ID if no specific URI is set for that token ID."
      },
      "getApproved(uint256)": {
        "details": "See {IERC721-getApproved}."
      },
      "isApprovedForAll(address,address)": {
        "details": "See {IERC721-isApprovedForAll}."
      },
      "name()": {
        "details": "See {IERC721Metadata-name}."
      },
      "ownerOf(uint256)": {
        "details": "See {IERC721-ownerOf}."
      },
      "safeTransferFrom(address,address,uint256)": {
        "details": "See {IERC721-safeTransferFrom}."
      },
      "safeTransferFrom(address,address,uint256,bytes)": {
        "details": "See {IERC721-safeTransferFrom}."
      },
      "setApprovalForAll(address,bool)": {
        "details": "See {IERC721-setApprovalForAll}."
      },
      "supportsInterface(bytes4)": {
        "details": "See {IERC165-supportsInterface}. Time complexity O(1), guaranteed to always use less than 30 000 gas."
      },
      "symbol()": {
        "details": "See {IERC721Metadata-symbol}."
      },
      "tokenByIndex(uint256)": {
        "details": "See {IERC721Enumerable-tokenByIndex}."
      },
      "tokenOfOwnerByIndex(address,uint256)": {
        "details": "See {IERC721Enumerable-tokenOfOwnerByIndex}."
      },
      "tokenURI(uint256)": {
        "details": "See {IERC721Metadata-tokenURI}."
      },
      "totalSupply()": {
        "details": "See {IERC721Enumerable-totalSupply}."
      },
      "transferFrom(address,address,uint256)": {
        "details": "See {IERC721-transferFrom}."
      }
    },
    "version": 1
  },
  "userdoc": {
    "kind": "user",
    "methods": {},
    "version": 1
  }
}