{
  "contractName": "Property",
  "abi": [
    {
      "inputs": [
        {
          "internalType": "address",
          "name": "deployed_erc721",
          "type": "address"
        },
        {
          "internalType": "address",
          "name": "deployed_erc20",
          "type": "address"
        }
      ],
      "stateMutability": "nonpayable",
      "type": "constructor"
    },
    {
      "anonymous": false,
      "inputs": [
        {
          "indexed": false,
          "internalType": "address",
          "name": "tokenAddress",
          "type": "address"
        }
      ],
      "name": "TokenCreated",
      "type": "event"
    },
    {
      "inputs": [
        {
          "internalType": "uint256",
          "name": "",
          "type": "uint256"
        }
      ],
      "name": "property_Array",
      "outputs": [
        {
          "internalType": "string",
          "name": "name",
          "type": "string"
        },
        {
          "internalType": "address",
          "name": "deployed_Token",
          "type": "address"
        }
      ],
      "stateMutability": "view",
      "type": "function",
      "constant": true
    },
    {
      "inputs": [
        {
          "internalType": "string",
          "name": "_property",
          "type": "string"
        },
        {
          "internalType": "uint256",
          "name": "origVal",
          "type": "uint256"
        },
        {
          "internalType": "uint256",
          "name": "coins",
          "type": "uint256"
        },
        {
          "internalType": "string",
          "name": "property_images_hash",
          "type": "string"
        },
        {
          "internalType": "string[]",
          "name": "pro_add_details",
          "type": "string[]"
        },
        {
          "internalType": "uint256",
          "name": "prop_tax",
          "type": "uint256"
        },
        {
          "internalType": "uint256",
          "name": "prop_insurance",
          "type": "uint256"
        },
        {
          "internalType": "uint256",
          "name": "prop_maintainence",
          "type": "uint256"
        },
        {
          "internalType": "string",
          "name": "features_prop",
          "type": "string"
        }
      ],
      "name": "mint",
      "outputs": [],
      "stateMutability": "nonpayable",
      "type": "function"
    },
    {
      "inputs": [
        {
          "internalType": "uint256",
          "name": "amount_of_token",
          "type": "uint256"
        }
      ],
      "name": "purchaseVocherTokens",
      "outputs": [],
      "stateMutability": "payable",
      "type": "function",
      "payable": true
    },
    {
      "inputs": [
        {
          "internalType": "address",
          "name": "owner",
          "type": "address"
        }
      ],
      "name": "getOwnerProperties",
      "outputs": [
        {
          "internalType": "string[]",
          "name": "",
          "type": "string[]"
        }
      ],
      "stateMutability": "view",
      "type": "function",
      "constant": true
    },
    {
      "inputs": [
        {
          "internalType": "uint256",
          "name": "_index",
          "type": "uint256"
        }
      ],
      "name": "getProperties",
      "outputs": [
        {
          "internalType": "string",
          "name": "",
          "type": "string"
        }
      ],
      "stateMutability": "view",
      "type": "function",
      "constant": true
    },
    {
      "inputs": [],
      "name": "totalProperties",
      "outputs": [
        {
          "internalType": "uint256",
          "name": "",
          "type": "uint256"
        }
      ],
      "stateMutability": "view",
      "type": "function",
      "constant": true
    }
  ],
  "bytecode": "0x60806040523480156200001157600080fd5b5060405162002f9b38038062002f9b8339818101604052810190620000379190620000d8565b81600260006101000a81548173ffffffffffffffffffffffffffffffffffffffff021916908373ffffffffffffffffffffffffffffffffffffffff16021790555080600360006101000a81548173ffffffffffffffffffffffffffffffffffffffff021916908373ffffffffffffffffffffffffffffffffffffffff160217905550505062000167565b600081519050620000d2816200014d565b92915050565b60008060408385031215620000ec57600080fd5b6000620000fc85828601620000c1565b92505060206200010f85828601620000c1565b9150509250929050565b600062000126826200012d565b9050919050565b600073ffffffffffffffffffffffffffffffffffffffff82169050919050565b620001588162000119565b81146200016457600080fd5b50565b612e2480620001776000396000f3fe6080604052600436106200005c5760003560e01c80630b3bce2014620000615780631b8ca21714620000915780637d2f167914620000d5578063cb6448971462000103578063eb6eba9c1462000147578063f8df1b7a146200018c575b600080fd5b3480156200006e57600080fd5b5062000079620001ac565b604051620000889190620013dc565b60405180910390f35b3480156200009e57600080fd5b50620000bd6004803603810190620000b79190620010ae565b620001b9565b604051620000cc919062001349565b60405180910390f35b348015620000e257600080fd5b50620001016004803603810190620000fb919062000f71565b62000277565b005b3480156200011057600080fd5b506200012f600480360381019062000129919062000f00565b620006cf565b6040516200013e919062001301565b60405180910390f35b3480156200015457600080fd5b506200017360048036038101906200016d9190620010ae565b620007fd565b604051620001839291906200136d565b60405180910390f35b620001aa6004803603810190620001a49190620010ae565b620008eb565b005b6000600480549050905090565b606060048281548110620001c957fe5b906000526020600020018054600181600116156101000203166002900480601f0160208091040260200160405190810160405280929190818152602001828054600181600116156101000203166002900480156200026b5780601f106200023f576101008083540402835291602001916200026b565b820191906000526020600020905b8154815290600101906020018083116200024d57829003601f168201915b50505050509050919050565b8873__Strings_______________________________63447d7a1d90916040518263ffffffff1660e01b8152600401620002b2919062001325565b60006040518083038186803b158015620002cb57600080fd5b505af4158015620002e0573d6000803e3d6000fd5b505050506040513d6000823e3d601f19601f820116820180604052508101906200030b919062000f2c565b98506005896040516200031f91906200129e565b908152602001604051809103902060009054906101000a900460ff16156200034657600080fd5b6200035062000cb9565b60048a9080600181540180825580915050600190039060005260206000200160009091909190915090805190602001906200038d92919062000ce9565b50600260009054906101000a900473ffffffffffffffffffffffffffffffffffffffff1673ffffffffffffffffffffffffffffffffffffffff1663027ee8588a338b8b8b8b8b8b8b6040518a63ffffffff1660e01b8152600401620003fb99989796959493929190620013f9565b600060405180830381600087803b1580156200041657600080fd5b505af11580156200042b573d6000803e3d6000fd5b50505050600160058b6040516200044391906200129e565b908152602001604051809103902060006101000a81548160ff021916908315150217905550600660003373ffffffffffffffffffffffffffffffffffffffff1673ffffffffffffffffffffffffffffffffffffffff1681526020019081526020016000208a908060018154018082558091505060019003906000526020600020016000909190919091509080519060200190620004e292919062000ce9565b50898160000181905250620005636040518060400160405280600581526020017f70726f70310000000000000000000000000000000000000000000000000000008152506040518060400160405280600381526020017f51535400000000000000000000000000000000000000000000000000000000008152508b62000992565b816020019073ffffffffffffffffffffffffffffffffffffffff16908173ffffffffffffffffffffffffffffffffffffffff168152505060648960550281620005a857fe5b049850620006226040518060400160405280600781526020017f564f5543484552000000000000000000000000000000000000000000000000008152506040518060400160405280600381526020017f2a562a00000000000000000000000000000000000000000000000000000000008152508b62000b22565b50600781908060018154018082558091505060019003906000526020600020906002020160009091909190915060008201518160000190805190602001906200066d92919062000ce9565b5060208201518160010160006101000a81548173ffffffffffffffffffffffffffffffffffffffff021916908373ffffffffffffffffffffffffffffffffffffffff1602179055505050620006c162000cb9565b905050505050505050505050565b6060600660008373ffffffffffffffffffffffffffffffffffffffff1673ffffffffffffffffffffffffffffffffffffffff168152602001908152602001600020805480602002602001604051908101604052809291908181526020016000905b82821015620007f2578382906000526020600020018054600181600116156101000203166002900480601f016020809104026020016040519081016040528092919081815260200182805460018160011615610100020316600290048015620007dd5780601f10620007b157610100808354040283529160200191620007dd565b820191906000526020600020905b815481529060010190602001808311620007bf57829003601f168201915b50505050508152602001906001019062000730565b505050509050919050565b600781815481106200080b57fe5b9060005260206000209060020201600091509050806000018054600181600116156101000203166002900480601f016020809104026020016040519081016040528092919081815260200182805460018160011615610100020316600290048015620008bb5780601f106200088f57610100808354040283529160200191620008bb565b820191906000526020600020905b8154815290600101906020018083116200089d57829003601f168201915b5050505050908060010160009054906101000a900473ffffffffffffffffffffffffffffffffffffffff16905082565b600a8102341015620008fc57600080fd5b600360009054906101000a900473ffffffffffffffffffffffffffffffffffffffff1673ffffffffffffffffffffffffffffffffffffffff166340894c9433836040518363ffffffff1660e01b81526004016200095b929190620012d4565b600060405180830381600087803b1580156200097657600080fd5b505af11580156200098b573d6000803e3d6000fd5b5050505050565b60008383604051620009a49062000d70565b620009b1929190620013a1565b604051809103906000f080158015620009ce573d6000803e3d6000fd5b506000806101000a81548173ffffffffffffffffffffffffffffffffffffffff021916908373ffffffffffffffffffffffffffffffffffffffff16021790555060008054906101000a900473ffffffffffffffffffffffffffffffffffffffff1673ffffffffffffffffffffffffffffffffffffffff166340894c9433846040518363ffffffff1660e01b815260040162000a6b929190620012d4565b600060405180830381600087803b15801562000a8657600080fd5b505af115801562000a9b573d6000803e3d6000fd5b505050507f2e2b3f61b70d2d131b2a807371103cc98d51adcaa5e9a8f9c32658ad8426e74e60008054906101000a900473ffffffffffffffffffffffffffffffffffffffff1660405162000af09190620012b7565b60405180910390a160008054906101000a900473ffffffffffffffffffffffffffffffffffffffff1690509392505050565b6000838360405162000b349062000d70565b62000b41929190620013a1565b604051809103906000f08015801562000b5e573d6000803e3d6000fd5b50600160006101000a81548173ffffffffffffffffffffffffffffffffffffffff021916908373ffffffffffffffffffffffffffffffffffffffff160217905550600160009054906101000a900473ffffffffffffffffffffffffffffffffffffffff1673ffffffffffffffffffffffffffffffffffffffff166340894c9433846040518363ffffffff1660e01b815260040162000bfe929190620012d4565b600060405180830381600087803b15801562000c1957600080fd5b505af115801562000c2e573d6000803e3d6000fd5b505050507f2e2b3f61b70d2d131b2a807371103cc98d51adcaa5e9a8f9c32658ad8426e74e600160009054906101000a900473ffffffffffffffffffffffffffffffffffffffff1660405162000c859190620012b7565b60405180910390a1600160009054906101000a900473ffffffffffffffffffffffffffffffffffffffff1690509392505050565b604051806040016040528060608152602001600073ffffffffffffffffffffffffffffffffffffffff1681525090565b828054600181600116156101000203166002900490600052602060002090601f016020900481019282601f1062000d2c57805160ff191683800117855562000d5d565b8280016001018555821562000d5d579182015b8281111562000d5c57825182559160200191906001019062000d3f565b5b50905062000d6c919062000d7e565b5090565b61173780620016b883390190565b5b8082111562000d9957600081600090555060010162000d7f565b5090565b60008135905062000dae8162001683565b92915050565b600082601f83011262000dc657600080fd5b813562000ddd62000dd782620014db565b620014ad565b9150818183526020840193506020810190508360005b8381101562000e27578135860162000e0c888262000e31565b84526020840193506020830192505060018101905062000df3565b5050505092915050565b600082601f83011262000e4357600080fd5b813562000e5a62000e548262001504565b620014ad565b9150808252602083016020830185838301111562000e7757600080fd5b62000e848382846200162d565b50505092915050565b600082601f83011262000e9f57600080fd5b815162000eb662000eb08262001504565b620014ad565b9150808252602083016020830185838301111562000ed357600080fd5b62000ee08382846200163c565b50505092915050565b60008135905062000efa816200169d565b92915050565b60006020828403121562000f1357600080fd5b600062000f238482850162000d9d565b91505092915050565b60006020828403121562000f3f57600080fd5b600082015167ffffffffffffffff81111562000f5a57600080fd5b62000f688482850162000e8d565b91505092915050565b60008060008060008060008060006101208a8c03121562000f9157600080fd5b60008a013567ffffffffffffffff81111562000fac57600080fd5b62000fba8c828d0162000e31565b995050602062000fcd8c828d0162000ee9565b985050604062000fe08c828d0162000ee9565b97505060608a013567ffffffffffffffff81111562000ffe57600080fd5b6200100c8c828d0162000e31565b96505060808a013567ffffffffffffffff8111156200102a57600080fd5b620010388c828d0162000db4565b95505060a06200104b8c828d0162000ee9565b94505060c06200105e8c828d0162000ee9565b93505060e0620010718c828d0162000ee9565b9250506101008a013567ffffffffffffffff8111156200109057600080fd5b6200109e8c828d0162000e31565b9150509295985092959850929598565b600060208284031215620010c157600080fd5b6000620010d18482850162000ee9565b91505092915050565b6000620010e8838362001193565b905092915050565b620010fb81620015f1565b82525050565b6200110c81620015b3565b82525050565b60006200111f8262001541565b6200112b818562001564565b9350836020820285016200113f8562001531565b8060005b858110156200118157848403895281516200115f8582620010da565b94506200116c8362001557565b925060208a0199505060018101905062001143565b50829750879550505050505092915050565b6000620011a0826200154c565b620011ac818562001575565b9350620011be8185602086016200163c565b620011c98162001672565b840191505092915050565b6000620011e1826200154c565b620011ed818562001586565b9350620011ff8185602086016200163c565b6200120a8162001672565b840191505092915050565b600062001222826200154c565b6200122e818562001597565b9350620012408185602086016200163c565b6200124b8162001672565b840191505092915050565b600062001263826200154c565b6200126f8185620015a8565b9350620012818185602086016200163c565b80840191505092915050565b6200129881620015e7565b82525050565b6000620012ac828462001256565b915081905092915050565b6000602082019050620012ce600083018462001101565b92915050565b6000604082019050620012eb6000830185620010f0565b620012fa60208301846200128d565b9392505050565b600060208201905081810360008301526200131d818462001112565b905092915050565b6000602082019050818103600083015262001341818462001215565b905092915050565b60006020820190508181036000830152620013658184620011d4565b905092915050565b60006040820190508181036000830152620013898185620011d4565b90506200139a602083018462001101565b9392505050565b60006040820190508181036000830152620013bd8185620011d4565b90508181036020830152620013d38184620011d4565b90509392505050565b6000602082019050620013f360008301846200128d565b92915050565b60006101208201905062001411600083018c6200128d565b62001420602083018b620010f0565b6200142f604083018a6200128d565b8181036060830152620014438189620011d4565b9050818103608083015262001459818862001112565b90506200146a60a08301876200128d565b6200147960c08301866200128d565b6200148860e08301856200128d565b8181036101008301526200149d8184620011d4565b90509a9950505050505050505050565b6000604051905081810181811067ffffffffffffffff82111715620014d157600080fd5b8060405250919050565b600067ffffffffffffffff821115620014f357600080fd5b602082029050602081019050919050565b600067ffffffffffffffff8211156200151c57600080fd5b601f19601f8301169050602081019050919050565b6000819050602082019050919050565b600081519050919050565b600081519050919050565b6000602082019050919050565b600082825260208201905092915050565b600082825260208201905092915050565b600082825260208201905092915050565b600082825260208201905092915050565b600081905092915050565b6000620015c082620015c7565b9050919050565b600073ffffffffffffffffffffffffffffffffffffffff82169050919050565b6000819050919050565b6000620015fe8262001605565b9050919050565b6000620016128262001619565b9050919050565b60006200162682620015c7565b9050919050565b82818337600083830152505050565b60005b838110156200165c5780820151818401526020810190506200163f565b838111156200166c576000848401525b50505050565b6000601f19601f8301169050919050565b6200168e81620015b3565b81146200169a57600080fd5b50565b620016a881620015e7565b8114620016b457600080fd5b5056fe60806040523480156200001157600080fd5b506040516200173738038062001737833981810160405260408110156200003757600080fd5b81019080805160405193929190846401000000008211156200005857600080fd5b838201915060208201858111156200006f57600080fd5b82518660018202830111640100000000821117156200008d57600080fd5b8083526020830192505050908051906020019080838360005b83811015620000c3578082015181840152602081019050620000a6565b50505050905090810190601f168015620000f15780820380516001836020036101000a031916815260200191505b50604052602001805160405193929190846401000000008211156200011557600080fd5b838201915060208201858111156200012c57600080fd5b82518660018202830111640100000000821117156200014a57600080fd5b8083526020830192505050908051906020019080838360005b838110156200018057808201518184015260208101905062000163565b50505050905090810190601f168015620001ae5780820380516001836020036101000a031916815260200191505b506040525050508160039080519060200190620001cd9291906200020b565b508060049080519060200190620001e69291906200020b565b506012600560006101000a81548160ff021916908360ff1602179055505050620002b1565b828054600181600116156101000203166002900490600052602060002090601f016020900481019282601f106200024e57805160ff19168380011785556200027f565b828001600101855582156200027f579182015b828111156200027e57825182559160200191906001019062000261565b5b5090506200028e919062000292565b5090565b5b80821115620002ad57600081600090555060010162000293565b5090565b61147680620002c16000396000f3fe608060405234801561001057600080fd5b50600436106100f55760003560e01c80633eaaf86b1161009757806395d89b411161006657806395d89b411461049c578063a457c2d71461051f578063a9059cbb14610583578063dd62ed3e146105e7576100f5565b80633eaaf86b1461038057806340894c941461039e5780636ebcf607146103ec57806370a0823114610444576100f5565b806318160ddd116100d357806318160ddd1461025957806323b872dd14610277578063313ce567146102fb578063395093511461031c576100f5565b8063024c2ddd146100fa57806306fdde0314610172578063095ea7b3146101f5575b600080fd5b61015c6004803603604081101561011057600080fd5b81019080803573ffffffffffffffffffffffffffffffffffffffff169060200190929190803573ffffffffffffffffffffffffffffffffffffffff16906020019092919050505061065f565b6040518082815260200191505060405180910390f35b61017a610684565b6040518080602001828103825283818151815260200191508051906020019080838360005b838110156101ba57808201518184015260208101905061019f565b50505050905090810190601f1680156101e75780820380516001836020036101000a031916815260200191505b509250505060405180910390f35b6102416004803603604081101561020b57600080fd5b81019080803573ffffffffffffffffffffffffffffffffffffffff16906020019092919080359060200190929190505050610726565b60405180821515815260200191505060405180910390f35b610261610744565b6040518082815260200191505060405180910390f35b6102e36004803603606081101561028d57600080fd5b81019080803573ffffffffffffffffffffffffffffffffffffffff169060200190929190803573ffffffffffffffffffffffffffffffffffffffff1690602001909291908035906020019092919050505061074e565b60405180821515815260200191505060405180910390f35b610303610827565b604051808260ff16815260200191505060405180910390f35b6103686004803603604081101561033257600080fd5b81019080803573ffffffffffffffffffffffffffffffffffffffff1690602001909291908035906020019092919050505061083e565b60405180821515815260200191505060405180910390f35b6103886108f1565b6040518082815260200191505060405180910390f35b6103ea600480360360408110156103b457600080fd5b81019080803573ffffffffffffffffffffffffffffffffffffffff169060200190929190803590602001909291905050506108f7565b005b61042e6004803603602081101561040257600080fd5b81019080803573ffffffffffffffffffffffffffffffffffffffff169060200190929190505050610abe565b6040518082815260200191505060405180910390f35b6104866004803603602081101561045a57600080fd5b81019080803573ffffffffffffffffffffffffffffffffffffffff169060200190929190505050610ad6565b6040518082815260200191505060405180910390f35b6104a4610b1e565b6040518080602001828103825283818151815260200191508051906020019080838360005b838110156104e45780820151818401526020810190506104c9565b50505050905090810190601f1680156105115780820380516001836020036101000a031916815260200191505b509250505060405180910390f35b61056b6004803603604081101561053557600080fd5b81019080803573ffffffffffffffffffffffffffffffffffffffff16906020019092919080359060200190929190505050610bc0565b60405180821515815260200191505060405180910390f35b6105cf6004803603604081101561059957600080fd5b81019080803573ffffffffffffffffffffffffffffffffffffffff16906020019092919080359060200190929190505050610c8d565b60405180821515815260200191505060405180910390f35b610649600480360360408110156105fd57600080fd5b81019080803573ffffffffffffffffffffffffffffffffffffffff169060200190929190803573ffffffffffffffffffffffffffffffffffffffff169060200190929190505050610cab565b6040518082815260200191505060405180910390f35b6001602052816000526040600020602052806000526040600020600091509150505481565b606060038054600181600116156101000203166002900480601f01602080910402602001604051908101604052809291908181526020018280546001816001161561010002031660029004801561071c5780601f106106f15761010080835404028352916020019161071c565b820191906000526020600020905b8154815290600101906020018083116106ff57829003601f168201915b5050505050905090565b600061073a610733610d32565b8484610d3a565b6001905092915050565b6000600254905090565b600061075b848484610f31565b61081c84610767610d32565b610817856040518060600160405280602881526020016113ab60289139600160008b73ffffffffffffffffffffffffffffffffffffffff1673ffffffffffffffffffffffffffffffffffffffff16815260200190815260200160002060006107cd610d32565b73ffffffffffffffffffffffffffffffffffffffff1673ffffffffffffffffffffffffffffffffffffffff168152602001908152602001600020546111f29092919063ffffffff16565b610d3a565b600190509392505050565b6000600560009054906101000a900460ff16905090565b60006108e761084b610d32565b846108e2856001600061085c610d32565b73ffffffffffffffffffffffffffffffffffffffff1673ffffffffffffffffffffffffffffffffffffffff16815260200190815260200160002060008973ffffffffffffffffffffffffffffffffffffffff1673ffffffffffffffffffffffffffffffffffffffff168152602001908152602001600020546112b290919063ffffffff16565b610d3a565b6001905092915050565b60025481565b600073ffffffffffffffffffffffffffffffffffffffff168273ffffffffffffffffffffffffffffffffffffffff16141561099a576040517f08c379a000000000000000000000000000000000000000000000000000000000815260040180806020018281038252601f8152602001807f45524332303a206d696e7420746f20746865207a65726f20616464726573730081525060200191505060405180910390fd5b6109a66000838361133a565b6109bb816002546112b290919063ffffffff16565b600281905550610a12816000808573ffffffffffffffffffffffffffffffffffffffff1673ffffffffffffffffffffffffffffffffffffffff168152602001908152602001600020546112b290919063ffffffff16565b6000808473ffffffffffffffffffffffffffffffffffffffff1673ffffffffffffffffffffffffffffffffffffffff168152602001908152602001600020819055508173ffffffffffffffffffffffffffffffffffffffff16600073ffffffffffffffffffffffffffffffffffffffff167fddf252ad1be2c89b69c2b068fc378daa952ba7f163c4a11628f55a4df523b3ef836040518082815260200191505060405180910390a35050565b60006020528060005260406000206000915090505481565b60008060008373ffffffffffffffffffffffffffffffffffffffff1673ffffffffffffffffffffffffffffffffffffffff168152602001908152602001600020549050919050565b606060048054600181600116156101000203166002900480601f016020809104026020016040519081016040528092919081815260200182805460018160011615610100020316600290048015610bb65780601f10610b8b57610100808354040283529160200191610bb6565b820191906000526020600020905b815481529060010190602001808311610b9957829003601f168201915b5050505050905090565b6000610c83610bcd610d32565b84610c7e8560405180606001604052806025815260200161141c6025913960016000610bf7610d32565b73ffffffffffffffffffffffffffffffffffffffff1673ffffffffffffffffffffffffffffffffffffffff16815260200190815260200160002060008a73ffffffffffffffffffffffffffffffffffffffff1673ffffffffffffffffffffffffffffffffffffffff168152602001908152602001600020546111f29092919063ffffffff16565b610d3a565b6001905092915050565b6000610ca1610c9a610d32565b8484610f31565b6001905092915050565b6000600160008473ffffffffffffffffffffffffffffffffffffffff1673ffffffffffffffffffffffffffffffffffffffff16815260200190815260200160002060008373ffffffffffffffffffffffffffffffffffffffff1673ffffffffffffffffffffffffffffffffffffffff16815260200190815260200160002054905092915050565b600033905090565b600073ffffffffffffffffffffffffffffffffffffffff168373ffffffffffffffffffffffffffffffffffffffff161415610dc0576040517f08c379a00000000000000000000000000000000000000000000000000000000081526004018080602001828103825260248152602001806113f86024913960400191505060405180910390fd5b600073ffffffffffffffffffffffffffffffffffffffff168273ffffffffffffffffffffffffffffffffffffffff161415610e46576040517f08c379a00000000000000000000000000000000000000000000000000000000081526004018080602001828103825260228152602001806113636022913960400191505060405180910390fd5b80600160008573ffffffffffffffffffffffffffffffffffffffff1673ffffffffffffffffffffffffffffffffffffffff16815260200190815260200160002060008473ffffffffffffffffffffffffffffffffffffffff1673ffffffffffffffffffffffffffffffffffffffff168152602001908152602001600020819055508173ffffffffffffffffffffffffffffffffffffffff168373ffffffffffffffffffffffffffffffffffffffff167f8c5be1e5ebec7d5bd14f71427d1e84f3dd0314c0f7b2291e5b200ac8c7c3b925836040518082815260200191505060405180910390a3505050565b600073ffffffffffffffffffffffffffffffffffffffff168373ffffffffffffffffffffffffffffffffffffffff161415610fb7576040517f08c379a00000000000000000000000000000000000000000000000000000000081526004018080602001828103825260258152602001806113d36025913960400191505060405180910390fd5b600073ffffffffffffffffffffffffffffffffffffffff168273ffffffffffffffffffffffffffffffffffffffff16141561103d576040517f08c379a00000000000000000000000000000000000000000000000000000000081526004018080602001828103825260238152602001806113406023913960400191505060405180910390fd5b61104883838361133a565b6110b381604051806060016040528060268152602001611385602691396000808773ffffffffffffffffffffffffffffffffffffffff1673ffffffffffffffffffffffffffffffffffffffff168152602001908152602001600020546111f29092919063ffffffff16565b6000808573ffffffffffffffffffffffffffffffffffffffff1673ffffffffffffffffffffffffffffffffffffffff16815260200190815260200160002081905550611146816000808573ffffffffffffffffffffffffffffffffffffffff1673ffffffffffffffffffffffffffffffffffffffff168152602001908152602001600020546112b290919063ffffffff16565b6000808473ffffffffffffffffffffffffffffffffffffffff1673ffffffffffffffffffffffffffffffffffffffff168152602001908152602001600020819055508173ffffffffffffffffffffffffffffffffffffffff168373ffffffffffffffffffffffffffffffffffffffff167fddf252ad1be2c89b69c2b068fc378daa952ba7f163c4a11628f55a4df523b3ef836040518082815260200191505060405180910390a3505050565b600083831115829061129f576040517f08c379a00000000000000000000000000000000000000000000000000000000081526004018080602001828103825283818151815260200191508051906020019080838360005b83811015611264578082015181840152602081019050611249565b50505050905090810190601f1680156112915780820380516001836020036101000a031916815260200191505b509250505060405180910390fd5b5060008385039050809150509392505050565b600080828401905083811015611330576040517f08c379a000000000000000000000000000000000000000000000000000000000815260040180806020018281038252601b8152602001807f536166654d6174683a206164646974696f6e206f766572666c6f77000000000081525060200191505060405180910390fd5b8091505092915050565b50505056fe45524332303a207472616e7366657220746f20746865207a65726f206164647265737345524332303a20617070726f766520746f20746865207a65726f206164647265737345524332303a207472616e7366657220616d6f756e7420657863656564732062616c616e636545524332303a207472616e7366657220616d6f756e74206578636565647320616c6c6f77616e636545524332303a207472616e736665722066726f6d20746865207a65726f206164647265737345524332303a20617070726f76652066726f6d20746865207a65726f206164647265737345524332303a2064656372656173656420616c6c6f77616e63652062656c6f77207a65726fa2646970667358221220f3b6ffadd20d3e1525f39f2a08ecea9f869bc21346d9bb697ae84d138f24c05f64736f6c634300060c0033a264697066735822122039333c0ce6dd9445ac73961e20d8cdb036bc46d0fdb6e5d95f43b2745cbe43a264736f6c634300060c0033",
  "immutableReferences": {},
  "source": "// SPDX-License-Identifier: MIT\r\npragma solidity ^0.6.0;\r\npragma experimental ABIEncoderV2;\r\n\r\nimport \"./ERC20.sol\";\r\nimport \"./Strings.sol\";\r\nimport \"./IERC721.sol\";\r\nimport \"./IERC20.sol\";\r\ncontract Property {\r\n  ERC20 erc20property;\r\n  ERC20 erc20voucher;\r\n  IERC721 nft;\r\n  IERC20 erc;\r\n  \r\n  using Strings for string; \r\n  string[] properties;  //store all enlisted properties name\r\n  mapping(string => bool) _propertyExists;\r\n  mapping(address => string[]) OwnedProperties;\r\n  \r\n  struct property_Details{\r\n      string name;\r\n      address deployed_Token;\r\n  }\r\n  property_Details[] public property_Array;\r\n\r\n  constructor(address deployed_erc721,address deployed_erc20)  public{\r\n      nft = IERC721(deployed_erc721);\r\n      erc = IERC20(deployed_erc20);\r\n  }\r\n  \r\n      event TokenCreated(address tokenAddress);\r\n  function mint(string memory _property,\r\n                                     uint256 origVal,\r\n                                     uint256 coins,\r\n                                     string memory property_images_hash,\r\n                                     string[] memory pro_add_details,\r\n                                     uint256 prop_tax,\r\n                                     uint256 prop_insurance,\r\n                                     uint256 prop_maintainence,\r\n                                     string memory features_prop) public {\r\n   _property = _property._toLower();                                         \r\n   require(!_propertyExists[_property]);\r\n   property_Details memory temp;\r\n   properties.push(_property);\r\n   nft._mint(origVal,msg.sender,coins,property_images_hash,pro_add_details,prop_tax,prop_insurance,prop_maintainence,features_prop);\r\n   _propertyExists[_property] = true;\r\n   OwnedProperties[msg.sender].push(_property);\r\n   temp.name = _property;\r\n   temp.deployed_Token = deployNewToken(\"prop1\", \"QST\",origVal);\r\n   \r\n   origVal = (85*origVal)/100;\r\n   deployNewVoucherToken(\"VOUCHER\",\"*V*\",origVal);\r\n    \r\n   property_Array.push(temp);\r\n   delete temp;\r\n    \r\n  } \r\n  \r\n  function deployNewToken(string memory name, string memory symbol,uint256 no_of_token) internal returns (address) {\r\n       erc20property = new ERC20( name, symbol);\r\n       erc20property.issuetoken(msg.sender,no_of_token);\r\n       emit TokenCreated(address(erc20property));\r\n       return address(erc20property);\r\n       \r\n  }\r\n  function deployNewVoucherToken(string memory name, string memory symbol,uint256 no_of_token) internal returns (address) {\r\n       erc20voucher = new ERC20( name, symbol);\r\n       erc20voucher.issuetoken(msg.sender,no_of_token);\r\n       emit TokenCreated(address(erc20voucher));\r\n       return address(erc20voucher);\r\n       \r\n  }\r\n  \r\n  function purchaseVocherTokens(uint256 amount_of_token) public payable{\r\n      require(msg.value>=amount_of_token*10);\r\n      erc.issuetoken(msg.sender,amount_of_token);\r\n  }\r\n   \r\n   \r\n  function getOwnerProperties(address owner) public view returns(string[] memory){\r\n       return OwnedProperties[owner];\r\n  }\r\n   \r\n   \r\n  function getProperties(uint _index) public view returns(string memory){\r\n   \r\n  return properties[_index];\r\n  \r\n  } \r\n\r\n  function totalProperties()public view returns(uint256){\r\n    \r\n    return properties.length;\r\n  }\r\n    \r\n\r\n}\r\n\r\n",
  "sourcePath": "C:/Users/Prerna/Desktop/QuestCrypt/Quest-Contracts/src/contracts/Property.sol",
  "compiler": {
    "name": "solc",
    "version": "0.6.12+commit.27d51765.Emscripten.clang"
  },
  "schemaVersion": "3.3.1",
  "updatedAt": "2020-11-30T05:53:07.103Z",
  "networkType": "ethereum",
  "devdoc": {
    "kind": "dev",
    "methods": {},
    "version": 1
  },
  "userdoc": {
    "kind": "user",
    "methods": {},
    "version": 1
  }
}