{
  "contractName": "Property",
  "abi": [
    {
      "inputs": [],
      "stateMutability": "nonpayable",
      "type": "constructor"
    },
    {
      "anonymous": false,
      "inputs": [
        {
          "indexed": true,
          "internalType": "address",
          "name": "owner",
          "type": "address"
        },
        {
          "indexed": true,
          "internalType": "address",
          "name": "approved",
          "type": "address"
        },
        {
          "indexed": true,
          "internalType": "uint256",
          "name": "tokenId",
          "type": "uint256"
        }
      ],
      "name": "Approval",
      "type": "event"
    },
    {
      "anonymous": false,
      "inputs": [
        {
          "indexed": true,
          "internalType": "address",
          "name": "owner",
          "type": "address"
        },
        {
          "indexed": true,
          "internalType": "address",
          "name": "operator",
          "type": "address"
        },
        {
          "indexed": false,
          "internalType": "bool",
          "name": "approved",
          "type": "bool"
        }
      ],
      "name": "ApprovalForAll",
      "type": "event"
    },
    {
      "anonymous": false,
      "inputs": [
        {
          "indexed": false,
          "internalType": "address",
          "name": "tokenAddress",
          "type": "address"
        }
      ],
      "name": "TokenCreated",
      "type": "event"
    },
    {
      "anonymous": false,
      "inputs": [
        {
          "indexed": true,
          "internalType": "address",
          "name": "from",
          "type": "address"
        },
        {
          "indexed": true,
          "internalType": "address",
          "name": "to",
          "type": "address"
        },
        {
          "indexed": true,
          "internalType": "uint256",
          "name": "tokenId",
          "type": "uint256"
        }
      ],
      "name": "Transfer",
      "type": "event"
    },
    {
      "inputs": [
        {
          "internalType": "uint256",
          "name": "",
          "type": "uint256"
        }
      ],
      "name": "EligibleEmp",
      "outputs": [
        {
          "internalType": "address",
          "name": "",
          "type": "address"
        }
      ],
      "stateMutability": "view",
      "type": "function"
    },
    {
      "inputs": [
        {
          "internalType": "uint256",
          "name": "",
          "type": "uint256"
        }
      ],
      "name": "_propertyValue",
      "outputs": [
        {
          "internalType": "uint256",
          "name": "OrginalValue",
          "type": "uint256"
        },
        {
          "internalType": "uint256",
          "name": "CurrentValue",
          "type": "uint256"
        },
        {
          "internalType": "uint256",
          "name": "OriginalIssuanceRate",
          "type": "uint256"
        }
      ],
      "stateMutability": "view",
      "type": "function"
    },
    {
      "inputs": [
        {
          "internalType": "address",
          "name": "to",
          "type": "address"
        },
        {
          "internalType": "uint256",
          "name": "tokenId",
          "type": "uint256"
        }
      ],
      "name": "approve",
      "outputs": [],
      "stateMutability": "nonpayable",
      "type": "function"
    },
    {
      "inputs": [
        {
          "internalType": "address",
          "name": "owner",
          "type": "address"
        }
      ],
      "name": "balanceOf",
      "outputs": [
        {
          "internalType": "uint256",
          "name": "",
          "type": "uint256"
        }
      ],
      "stateMutability": "view",
      "type": "function"
    },
    {
      "inputs": [],
      "name": "baseURI",
      "outputs": [
        {
          "internalType": "string",
          "name": "",
          "type": "string"
        }
      ],
      "stateMutability": "view",
      "type": "function"
    },
    {
      "inputs": [],
      "name": "contractOwner",
      "outputs": [
        {
          "internalType": "address",
          "name": "",
          "type": "address"
        }
      ],
      "stateMutability": "view",
      "type": "function"
    },
    {
      "inputs": [
        {
          "internalType": "uint256",
          "name": "tokenId",
          "type": "uint256"
        }
      ],
      "name": "getApproved",
      "outputs": [
        {
          "internalType": "address",
          "name": "",
          "type": "address"
        }
      ],
      "stateMutability": "view",
      "type": "function"
    },
    {
      "inputs": [
        {
          "internalType": "address",
          "name": "owner",
          "type": "address"
        },
        {
          "internalType": "address",
          "name": "operator",
          "type": "address"
        }
      ],
      "name": "isApprovedForAll",
      "outputs": [
        {
          "internalType": "bool",
          "name": "",
          "type": "bool"
        }
      ],
      "stateMutability": "view",
      "type": "function"
    },
    {
      "inputs": [],
      "name": "name",
      "outputs": [
        {
          "internalType": "string",
          "name": "",
          "type": "string"
        }
      ],
      "stateMutability": "view",
      "type": "function"
    },
    {
      "inputs": [
        {
          "internalType": "uint256",
          "name": "tokenId",
          "type": "uint256"
        }
      ],
      "name": "ownerOf",
      "outputs": [
        {
          "internalType": "address",
          "name": "",
          "type": "address"
        }
      ],
      "stateMutability": "view",
      "type": "function"
    },
    {
      "inputs": [
        {
          "internalType": "uint256",
          "name": "",
          "type": "uint256"
        }
      ],
      "name": "prop",
      "outputs": [
        {
          "internalType": "uint256",
          "name": "Orig_Value",
          "type": "uint256"
        },
        {
          "internalType": "uint256",
          "name": "Curr_Value",
          "type": "uint256"
        },
        {
          "internalType": "uint256",
          "name": "next_reevaluation_date",
          "type": "uint256"
        },
        {
          "components": [
            {
              "internalType": "uint256",
              "name": "coin_issue",
              "type": "uint256"
            },
            {
              "internalType": "uint256",
              "name": "org_val",
              "type": "uint256"
            },
            {
              "internalType": "uint256",
              "name": "equity_at_issuance",
              "type": "uint256"
            },
            {
              "internalType": "uint256",
              "name": "curr_val",
              "type": "uint256"
            },
            {
              "internalType": "uint256",
              "name": "tot_curr_val",
              "type": "uint256"
            },
            {
              "internalType": "uint256",
              "name": "increase",
              "type": "uint256"
            }
          ],
          "internalType": "struct ERC721.Property_coins_generated_till_now",
          "name": "total_coins_issue",
          "type": "tuple"
        },
        {
          "internalType": "uint256",
          "name": "taxes",
          "type": "uint256"
        },
        {
          "internalType": "uint256",
          "name": "insurance",
          "type": "uint256"
        },
        {
          "internalType": "uint256",
          "name": "maintainence",
          "type": "uint256"
        },
        {
          "internalType": "uint256",
          "name": "total",
          "type": "uint256"
        },
        {
          "internalType": "uint256",
          "name": "monthly_hoa_payment",
          "type": "uint256"
        },
        {
          "internalType": "string",
          "name": "property_features",
          "type": "string"
        }
      ],
      "stateMutability": "view",
      "type": "function"
    },
    {
      "inputs": [
        {
          "internalType": "uint256",
          "name": "",
          "type": "uint256"
        }
      ],
      "name": "properties",
      "outputs": [
        {
          "internalType": "string",
          "name": "",
          "type": "string"
        }
      ],
      "stateMutability": "view",
      "type": "function"
    },
    {
      "inputs": [],
      "name": "proptest",
      "outputs": [
        {
          "internalType": "address",
          "name": "",
          "type": "address"
        }
      ],
      "stateMutability": "view",
      "type": "function"
    },
    {
      "inputs": [
        {
          "internalType": "address",
          "name": "from",
          "type": "address"
        },
        {
          "internalType": "address",
          "name": "to",
          "type": "address"
        },
        {
          "internalType": "uint256",
          "name": "tokenId",
          "type": "uint256"
        }
      ],
      "name": "safeTransferFrom",
      "outputs": [],
      "stateMutability": "nonpayable",
      "type": "function"
    },
    {
      "inputs": [
        {
          "internalType": "address",
          "name": "from",
          "type": "address"
        },
        {
          "internalType": "address",
          "name": "to",
          "type": "address"
        },
        {
          "internalType": "uint256",
          "name": "tokenId",
          "type": "uint256"
        },
        {
          "internalType": "bytes",
          "name": "_data",
          "type": "bytes"
        }
      ],
      "name": "safeTransferFrom",
      "outputs": [],
      "stateMutability": "nonpayable",
      "type": "function"
    },
    {
      "inputs": [
        {
          "internalType": "address",
          "name": "operator",
          "type": "address"
        },
        {
          "internalType": "bool",
          "name": "approved",
          "type": "bool"
        }
      ],
      "name": "setApprovalForAll",
      "outputs": [],
      "stateMutability": "nonpayable",
      "type": "function"
    },
    {
      "inputs": [
        {
          "internalType": "bytes4",
          "name": "interfaceId",
          "type": "bytes4"
        }
      ],
      "name": "supportsInterface",
      "outputs": [
        {
          "internalType": "bool",
          "name": "",
          "type": "bool"
        }
      ],
      "stateMutability": "view",
      "type": "function"
    },
    {
      "inputs": [],
      "name": "symbol",
      "outputs": [
        {
          "internalType": "string",
          "name": "",
          "type": "string"
        }
      ],
      "stateMutability": "view",
      "type": "function"
    },
    {
      "inputs": [
        {
          "internalType": "uint256",
          "name": "index",
          "type": "uint256"
        }
      ],
      "name": "tokenByIndex",
      "outputs": [
        {
          "internalType": "uint256",
          "name": "",
          "type": "uint256"
        }
      ],
      "stateMutability": "view",
      "type": "function"
    },
    {
      "inputs": [
        {
          "internalType": "address",
          "name": "owner",
          "type": "address"
        },
        {
          "internalType": "uint256",
          "name": "index",
          "type": "uint256"
        }
      ],
      "name": "tokenOfOwnerByIndex",
      "outputs": [
        {
          "internalType": "uint256",
          "name": "",
          "type": "uint256"
        }
      ],
      "stateMutability": "view",
      "type": "function"
    },
    {
      "inputs": [
        {
          "internalType": "uint256",
          "name": "tokenId",
          "type": "uint256"
        }
      ],
      "name": "tokenURI",
      "outputs": [
        {
          "internalType": "string",
          "name": "",
          "type": "string"
        }
      ],
      "stateMutability": "view",
      "type": "function"
    },
    {
      "inputs": [],
      "name": "tot_no_of_prop_onplatform",
      "outputs": [
        {
          "internalType": "uint256",
          "name": "",
          "type": "uint256"
        }
      ],
      "stateMutability": "view",
      "type": "function"
    },
    {
      "inputs": [],
      "name": "totalSupply",
      "outputs": [
        {
          "internalType": "uint256",
          "name": "",
          "type": "uint256"
        }
      ],
      "stateMutability": "view",
      "type": "function"
    },
    {
      "inputs": [
        {
          "internalType": "address",
          "name": "from",
          "type": "address"
        },
        {
          "internalType": "address",
          "name": "to",
          "type": "address"
        },
        {
          "internalType": "uint256",
          "name": "tokenId",
          "type": "uint256"
        }
      ],
      "name": "transferFrom",
      "outputs": [],
      "stateMutability": "nonpayable",
      "type": "function"
    },
    {
      "inputs": [
        {
          "internalType": "string",
          "name": "_property",
          "type": "string"
        },
        {
          "internalType": "uint256",
          "name": "origVal",
          "type": "uint256"
        },
        {
          "internalType": "uint256",
          "name": "coins",
          "type": "uint256"
        },
        {
          "internalType": "string[]",
          "name": "property_images",
          "type": "string[]"
        },
        {
          "internalType": "string[]",
          "name": "pro_add_details",
          "type": "string[]"
        },
        {
          "internalType": "uint256",
          "name": "prop_tax",
          "type": "uint256"
        },
        {
          "internalType": "uint256",
          "name": "prop_insurance",
          "type": "uint256"
        },
        {
          "internalType": "uint256",
          "name": "prop_maintainence",
          "type": "uint256"
        },
        {
          "internalType": "string",
          "name": "features_prop",
          "type": "string"
        }
      ],
      "name": "mint",
      "outputs": [],
      "stateMutability": "nonpayable",
      "type": "function"
    },
    {
      "inputs": [
        {
          "internalType": "string",
          "name": "name",
          "type": "string"
        },
        {
          "internalType": "string",
          "name": "symbol",
          "type": "string"
        }
      ],
      "name": "deployNewToken",
      "outputs": [
        {
          "internalType": "address",
          "name": "",
          "type": "address"
        }
      ],
      "stateMutability": "nonpayable",
      "type": "function"
    },
    {
      "inputs": [
        {
          "internalType": "uint256",
          "name": "_index",
          "type": "uint256"
        }
      ],
      "name": "getProperties",
      "outputs": [
        {
          "internalType": "string",
          "name": "",
          "type": "string"
        }
      ],
      "stateMutability": "view",
      "type": "function"
    },
    {
      "inputs": [],
      "name": "totalProperties",
      "outputs": [
        {
          "internalType": "uint256",
          "name": "",
          "type": "uint256"
        }
      ],
      "stateMutability": "view",
      "type": "function"
    }
  ],
  "bytecode": "0x6080604052600180556000600d553480156200001a57600080fd5b506040518060400160405280600881526020017f50726f70657274790000000000000000000000000000000000000000000000008152506040518060400160405280600781526020017f5153545f544b4e000000000000000000000000000000000000000000000000008152506200009f6301ffc9a760e01b6200012160201b60201c565b8160079080519060200190620000b7929190620001f9565b508060089080519060200190620000d0929190620001f9565b50620000e96380ac58cd60e01b6200012160201b60201c565b62000101635b5e139f60e01b6200012160201b60201c565b6200011963780e9d6360e01b6200012160201b60201c565b505062000314565b63ffffffff60e01b817bffffffffffffffffffffffffffffffffffffffffffffffffffffffff191614156200018d576040517f08c379a00000000000000000000000000000000000000000000000000000000081526004016200018490620002e1565b60405180910390fd5b6001600080837bffffffffffffffffffffffffffffffffffffffffffffffffffffffff19167bffffffffffffffffffffffffffffffffffffffffffffffffffffffff1916815260200190815260200160002060006101000a81548160ff02191690831515021790555050565b828054600181600116156101000203166002900490600052602060002090601f016020900481019282601f106200023c57805160ff19168380011785556200026d565b828001600101855582156200026d579182015b828111156200026c5782518255916020019190600101906200024f565b5b5090506200027c919062000280565b5090565b5b808211156200029b57600081600090555060010162000281565b5090565b6000620002ae601c8362000303565b91507f4552433136353a20696e76616c696420696e74657266616365206964000000006000830152602082019050919050565b60006020820190508181036000830152620002fc816200029f565b9050919050565b600082825260208201905092915050565b615a2d80620003246000396000f3fe60806040523480156200001157600080fd5b5060043610620001f05760003560e01c80636352211e1162000111578063b88d4fde11620000a5578063e06e0688116200007b578063e06e068814620005ea578063e985e9c51462000620578063f5cc77131462000656578063f7b10808146200068e57620001f0565b8063b88d4fde1462000572578063c87b56dd1462000592578063ce606ee014620005c857620001f0565b8063750510b211620000e7578063750510b214620004ee5780638111e857146200051057806395d89b411462000530578063a22cb465146200055257620001f0565b80636352211e14620004605780636c0360eb146200049657806370a0823114620004b857620001f0565b80631b8ca21711620001895780632f745c59116200015f5780632f745c59146200039e5780633c37cd0814620003d457806342842e0e146200040a5780634f6ccce7146200042a57620001f0565b80631b8ca217146200032657806323b872dd146200035c5780632e9edf35146200037c57620001f0565b8063095ea7b311620001cb578063095ea7b314620002835780630b3bce2014620002a357806318160ddd14620002c5578063190be8b114620002e757620001f0565b806301ffc9a714620001f557806306fdde03146200022b578063081812fc146200024d575b600080fd5b6200021360048036038101906200020d919062002eb1565b620006c4565b60405162000222919062003aca565b60405180910390f35b620002356200072b565b60405162000244919062003ae7565b60405180910390f35b6200026b6004803603810190620002659190620030b9565b620007d1565b6040516200027a919062003a59565b60405180910390f35b620002a160048036038101906200029b919062002e70565b6200085b565b005b620002ad62000984565b604051620002bc919062003dca565b60405180910390f35b620002cf62000996565b604051620002de919062003dca565b60405180910390f35b620003056004803603810190620002ff9190620030b9565b620009a9565b6040516200031d9a9998979695949392919062003e24565b60405180910390f35b6200034460048036038101906200033e9190620030b9565b62000adf565b60405162000353919062003ae7565b60405180910390f35b6200037a600480360381019062000374919062002d54565b62000b9d565b005b6200038662000c06565b60405162000395919062003dca565b60405180910390f35b620003bc6004803603810190620003b6919062002e70565b62000c0c565b604051620003cb919062003dca565b60405180910390f35b620003f26004803603810190620003ec919062002f09565b62000c69565b60405162000401919062003a59565b60405180910390f35b62000428600480360381019062000422919062002d54565b62000d30565b005b620004486004803603810190620004429190620030b9565b62000d52565b60405162000457919062003dca565b60405180910390f35b6200047e6004803603810190620004789190620030b9565b62000d77565b6040516200048d919062003a59565b60405180910390f35b620004a062000db1565b604051620004af919062003ae7565b60405180910390f35b620004d66004803603810190620004d0919062002ce7565b62000e57565b604051620004e5919062003dca565b60405180910390f35b620004f862000f1b565b60405162000507919062003a59565b60405180910390f35b6200052e600480360381019062000528919062002f7c565b62000f41565b005b6200053a62001085565b60405162000549919062003ae7565b60405180910390f35b6200057060048036038101906200056a919062002e2f565b6200112b565b005b6200059060048036038101906200058a919062002daa565b620012b7565b005b620005b06004803603810190620005aa9190620030b9565b62001322565b604051620005bf919062003ae7565b60405180910390f35b620005d2620014c0565b604051620005e1919062003a59565b60405180910390f35b620006086004803603810190620006029190620030b9565b620014e6565b60405162000617919062003a59565b60405180910390f35b6200063e600480360381019062000638919062002d13565b62001523565b6040516200064d919062003aca565b60405180910390f35b6200067460048036038101906200066e9190620030b9565b620015b7565b604051620006859392919062003de7565b60405180910390f35b620006ac6004803603810190620006a69190620030b9565b620015e1565b604051620006bb919062003ae7565b60405180910390f35b6000806000837bffffffffffffffffffffffffffffffffffffffffffffffffffffffff19167bffffffffffffffffffffffffffffffffffffffffffffffffffffffff1916815260200190815260200160002060009054906101000a900460ff169050919050565b606060078054600181600116156101000203166002900480601f016020809104026020016040519081016040528092919081815260200182805460018160011615610100020316600290048015620007c75780601f106200079b57610100808354040283529160200191620007c7565b820191906000526020600020905b815481529060010190602001808311620007a957829003601f168201915b5050505050905090565b6000620007de826200169f565b62000820576040517f08c379a0000000000000000000000000000000000000000000000000000000008152600401620008179062003cfe565b60405180910390fd5b6005600083815260200190815260200160002060009054906101000a900473ffffffffffffffffffffffffffffffffffffffff169050919050565b6000620008688262000d77565b90508073ffffffffffffffffffffffffffffffffffffffff168373ffffffffffffffffffffffffffffffffffffffff161415620008dc576040517f08c379a0000000000000000000000000000000000000000000000000000000008152600401620008d39062003d64565b60405180910390fd5b8073ffffffffffffffffffffffffffffffffffffffff16620008fd620016be565b73ffffffffffffffffffffffffffffffffffffffff16148062000931575062000930816200092a620016be565b62001523565b5b62000973576040517f08c379a00000000000000000000000000000000000000000000000000000000081526004016200096a9062003c76565b60405180910390fd5b6200097f8383620016c6565b505050565b60008060118054905090508091505090565b6000620009a4600362001781565b905090565b600e602052806000526040600020600091509050806000015490806001015490806002015490806004016040518060c001604052908160008201548152602001600182015481526020016002820154815260200160038201548152602001600482015481526020016005820154815250509080600c01549080600d01549080600e01549080600f015490806010015490806011018054600181600116156101000203166002900480601f01602080910402602001604051908101604052809291908181526020018280546001816001161561010002031660029004801562000ad55780601f1062000aa95761010080835404028352916020019162000ad5565b820191906000526020600020905b81548152906001019060200180831162000ab757829003601f168201915b505050505090508a565b60606011828154811062000aef57fe5b906000526020600020018054600181600116156101000203166002900480601f01602080910402602001604051908101604052809291908181526020018280546001816001161561010002031660029004801562000b915780601f1062000b655761010080835404028352916020019162000b91565b820191906000526020600020905b81548152906001019060200180831162000b7357829003601f168201915b50505050509050919050565b62000bb262000bab620016be565b8262001798565b62000bf4576040517f08c379a000000000000000000000000000000000000000000000000000000000815260040162000beb9062003d86565b60405180910390fd5b62000c0183838362001883565b505050565b600d5481565b600062000c6182600260008673ffffffffffffffffffffffffffffffffffffffff1673ffffffffffffffffffffffffffffffffffffffff16815260200190815260200160002062001aac90919063ffffffff16565b905092915050565b60008083833361271060405162000c80906200297a565b62000c8f949392919062003b0b565b604051809103906000f08015801562000cac573d6000803e3d6000fd5b50905080601260006101000a81548173ffffffffffffffffffffffffffffffffffffffff021916908373ffffffffffffffffffffffffffffffffffffffff1602179055507f2e2b3f61b70d2d131b2a807371103cc98d51adcaa5e9a8f9c32658ad8426e74e8160405162000d21919062003a59565b60405180910390a15092915050565b62000d4d83838360405180602001604052806000815250620012b7565b505050565b60008062000d6b83600362001ac890919063ffffffff16565b50905080915050919050565b600062000daa82604051806060016040528060298152602001620059cf60299139600362001af69092919063ffffffff16565b9050919050565b606060108054600181600116156101000203166002900480601f01602080910402602001604051908101604052809291908181526020018280546001816001161561010002031660029004801562000e4d5780601f1062000e215761010080835404028352916020019162000e4d565b820191906000526020600020905b81548152906001019060200180831162000e2f57829003601f168201915b5050505050905090565b60008073ffffffffffffffffffffffffffffffffffffffff168273ffffffffffffffffffffffffffffffffffffffff16141562000ecb576040517f08c379a000000000000000000000000000000000000000000000000000000000815260040162000ec29062003c98565b60405180910390fd5b62000f14600260008473ffffffffffffffffffffffffffffffffffffffff1673ffffffffffffffffffffffffffffffffffffffff16815260200190815260200160002062001b17565b9050919050565b601260009054906101000a900473ffffffffffffffffffffffffffffffffffffffff1681565b60138960405162000f53919062003a18565b908152602001604051809103902060009054906101000a900460ff161562000f7a57600080fd5b60118990806001815401808255809150506001900390600052602060002001600090919091909150908051906020019062000fb792919062002988565b5062000fca888888888888888862001b2e565b600160138a60405162000fde919062003a18565b908152602001604051809103902060006101000a81548160ff021916908315150217905550620010796040518060400160405280600581526020017f70726f70310000000000000000000000000000000000000000000000000000008152506040518060400160405280600381526020017f515354000000000000000000000000000000000000000000000000000000000081525062000c69565b50505050505050505050565b606060088054600181600116156101000203166002900480601f016020809104026020016040519081016040528092919081815260200182805460018160011615610100020316600290048015620011215780601f10620010f55761010080835404028352916020019162001121565b820191906000526020600020905b8154815290600101906020018083116200110357829003601f168201915b5050505050905090565b62001135620016be565b73ffffffffffffffffffffffffffffffffffffffff168273ffffffffffffffffffffffffffffffffffffffff161415620011a6576040517f08c379a00000000000000000000000000000000000000000000000000000000081526004016200119d9062003c10565b60405180910390fd5b8060066000620011b5620016be565b73ffffffffffffffffffffffffffffffffffffffff1673ffffffffffffffffffffffffffffffffffffffff16815260200190815260200160002060008473ffffffffffffffffffffffffffffffffffffffff1673ffffffffffffffffffffffffffffffffffffffff16815260200190815260200160002060006101000a81548160ff0219169083151502179055508173ffffffffffffffffffffffffffffffffffffffff1662001264620016be565b73ffffffffffffffffffffffffffffffffffffffff167f17307eab39ab6107e8899845ad3d59bd9653f200f220920489ca2b5937696c3183604051620012ab919062003aca565b60405180910390a35050565b620012cc620012c5620016be565b8362001798565b6200130e576040517f08c379a0000000000000000000000000000000000000000000000000000000008152600401620013059062003d86565b60405180910390fd5b6200131c8484848462001f7a565b50505050565b60606200132f826200169f565b62001371576040517f08c379a0000000000000000000000000000000000000000000000000000000008152600401620013689062003d42565b60405180910390fd5b6060600960008481526020019081526020016000208054600181600116156101000203166002900480601f0160208091040260200160405190810160405280929190818152602001828054600181600116156101000203166002900480156200141e5780601f10620013f2576101008083540402835291602001916200141e565b820191906000526020600020905b8154815290600101906020018083116200140057829003601f168201915b505050505090506000601080546001816001161561010002031660029004905014156200144f5780915050620014bb565b60008151111562001488576010816040516020016200147092919062003a31565b604051602081830303815290604052915050620014bb565b6010620014958462001fdd565b604051602001620014a892919062003a31565b6040516020818303038152906040529150505b919050565b600b60009054906101000a900473ffffffffffffffffffffffffffffffffffffffff1681565b600a8181548110620014f457fe5b906000526020600020016000915054906101000a900473ffffffffffffffffffffffffffffffffffffffff1681565b6000600660008473ffffffffffffffffffffffffffffffffffffffff1673ffffffffffffffffffffffffffffffffffffffff16815260200190815260200160002060008373ffffffffffffffffffffffffffffffffffffffff1673ffffffffffffffffffffffffffffffffffffffff16815260200190815260200160002060009054906101000a900460ff16905092915050565b600f6020528060005260406000206000915090508060000154908060010154908060020154905083565b60118181548110620015ef57fe5b906000526020600020016000915090508054600181600116156101000203166002900480601f016020809104026020016040519081016040528092919081815260200182805460018160011615610100020316600290048015620016975780601f106200166b5761010080835404028352916020019162001697565b820191906000526020600020905b8154815290600101906020018083116200167957829003601f168201915b505050505081565b6000620016b78260036200213090919063ffffffff16565b9050919050565b600033905090565b816005600083815260200190815260200160002060006101000a81548173ffffffffffffffffffffffffffffffffffffffff021916908373ffffffffffffffffffffffffffffffffffffffff160217905550808273ffffffffffffffffffffffffffffffffffffffff166200173b8362000d77565b73ffffffffffffffffffffffffffffffffffffffff167f8c5be1e5ebec7d5bd14f71427d1e84f3dd0314c0f7b2291e5b200ac8c7c3b92560405160405180910390a45050565b600062001791826000016200214c565b9050919050565b6000620017a5826200169f565b620017e7576040517f08c379a0000000000000000000000000000000000000000000000000000000008152600401620017de9062003c54565b60405180910390fd5b6000620017f48362000d77565b90508073ffffffffffffffffffffffffffffffffffffffff168473ffffffffffffffffffffffffffffffffffffffff1614806200186657508373ffffffffffffffffffffffffffffffffffffffff166200184e84620007d1565b73ffffffffffffffffffffffffffffffffffffffff16145b806200187a575062001879818562001523565b5b91505092915050565b8273ffffffffffffffffffffffffffffffffffffffff16620018a58262000d77565b73ffffffffffffffffffffffffffffffffffffffff1614620018fe576040517f08c379a0000000000000000000000000000000000000000000000000000000008152600401620018f59062003d20565b60405180910390fd5b600073ffffffffffffffffffffffffffffffffffffffff168273ffffffffffffffffffffffffffffffffffffffff16141562001971576040517f08c379a0000000000000000000000000000000000000000000000000000000008152600401620019689062003bee565b60405180910390fd5b6200197e8383836200215d565b6200198b600082620016c6565b620019de81600260008673ffffffffffffffffffffffffffffffffffffffff1673ffffffffffffffffffffffffffffffffffffffff1681526020019081526020016000206200216290919063ffffffff16565b5062001a3281600260008573ffffffffffffffffffffffffffffffffffffffff1673ffffffffffffffffffffffffffffffffffffffff1681526020019081526020016000206200217e90919063ffffffff16565b5062001a4b818360036200219a9092919063ffffffff16565b50808273ffffffffffffffffffffffffffffffffffffffff168473ffffffffffffffffffffffffffffffffffffffff167fddf252ad1be2c89b69c2b068fc378daa952ba7f163c4a11628f55a4df523b3ef60405160405180910390a4505050565b600062001abd8360000183620021d1565b60001c905092915050565b60008060008062001add866000018662002242565b915091508160001c8160001c9350935050509250929050565b600062001b0b846000018460001b84620022c9565b60001c90509392505050565b600062001b27826000016200235e565b9050919050565b60006001549050600160008154809291906001019190505550600073ffffffffffffffffffffffffffffffffffffffff163373ffffffffffffffffffffffffffffffffffffffff16141562001bba576040517f08c379a000000000000000000000000000000000000000000000000000000000815260040162001bb19062003cdc565b60405180910390fd5b62001bc5816200169f565b1562001c08576040517f08c379a000000000000000000000000000000000000000000000000000000000815260040162001bff9062003baa565b60405180910390fd5b62001c16600033836200215d565b62001c6981600260003373ffffffffffffffffffffffffffffffffffffffff1673ffffffffffffffffffffffffffffffffffffffff1681526020019081526020016000206200217e90919063ffffffff16565b5062001c82813360036200219a9092919063ffffffff16565b5062001c8d62002a0f565b8881600001818152505089816020018181525050600081604001818152505060018160600181815250508981608001818152505060008160a001818152505089600e60008481526020019081526020016000206000018190555089600e60008481526020019081526020016000206001018190555042600e60008481526020019081526020016000206002018190555087600e6000848152602001908152602001600020600a01908051906020019062001d4992919062002a45565b5086600e6000848152602001908152602001600020600b01908051906020019062001d7692919062002a45565b50600e6000838152602001908152602001600020600301819080600181540180825580915050600190039060005260206000209060060201600090919091909150600082015181600001556020820151816001015560408201518160020155606082015181600301556080820151816004015560a08201518160050155505080600e6000848152602001908152602001600020600401600082015181600001556020820151816001015560408201518160020155606082015181600301556080820151816004015560a0820151816005015590505085600e6000848152602001908152602001600020600c018190555084600e6000848152602001908152602001600020600d018190555083600e6000848152602001908152602001600020600e018190555062001ec58462001eb687896200236f90919063ffffffff16565b6200236f90919063ffffffff16565b600e6000848152602001908152602001600020600f018190555082600e6000848152602001908152602001600020601101908051906020019062001f0b92919062002988565b506000339050828173ffffffffffffffffffffffffffffffffffffffff16600073ffffffffffffffffffffffffffffffffffffffff167fddf252ad1be2c89b69c2b068fc378daa952ba7f163c4a11628f55a4df523b3ef60405160405180910390a45050505050505050505050565b62001f8784848462001883565b62001f9584848484620023c7565b62001fd7576040517f08c379a000000000000000000000000000000000000000000000000000000000815260040162001fce9062003b88565b60405180910390fd5b50505050565b6060600082141562002027576040518060400160405280600181526020017f300000000000000000000000000000000000000000000000000000000000000081525090506200212b565b600082905060005b6000821462002054578080600101915050600a82816200204b57fe5b0491506200202f565b60608167ffffffffffffffff811180156200206e57600080fd5b506040519080825280601f01601f191660200182016040528015620020a25781602001600182028036833780820191505090505b50905060006001830390508593505b600084146200212357600a8481620020c557fe5b0660300160f81b82828060019003935081518110620020e057fe5b60200101907effffffffffffffffffffffffffffffffffffffffffffffffffffffffffffff1916908160001a905350600a84816200211a57fe5b049350620020b1565b819450505050505b919050565b600062002144836000018360001b62002538565b905092915050565b600081600001805490509050919050565b505050565b600062002176836000018360001b6200255b565b905092915050565b600062002192836000018360001b62002648565b905092915050565b6000620021c8846000018460001b8473ffffffffffffffffffffffffffffffffffffffff1660001b620026bc565b90509392505050565b6000818360000180549050116200221f576040517f08c379a0000000000000000000000000000000000000000000000000000000008152600401620022169062003b66565b60405180910390fd5b8260000182815481106200222f57fe5b9060005260206000200154905092915050565b6000808284600001805490501162002291576040517f08c379a0000000000000000000000000000000000000000000000000000000008152600401620022889062003cba565b60405180910390fd5b6000846000018481548110620022a357fe5b906000526020600020906002020190508060000154816001015492509250509250929050565b600080846001016000858152602001908152602001600020549050600081141583906200232e576040517f08c379a000000000000000000000000000000000000000000000000000000000815260040162002325919062003ae7565b60405180910390fd5b508460000160018203815481106200234257fe5b9060005260206000209060020201600101549150509392505050565b600081600001805490509050919050565b600080828401905083811015620023bd576040517f08c379a0000000000000000000000000000000000000000000000000000000008152600401620023b49062003bcc565b60405180910390fd5b8091505092915050565b6000620023ea8473ffffffffffffffffffffffffffffffffffffffff166200279b565b620023f9576001905062002530565b6060620024c763150b7a0260e01b62002411620016be565b88878760405160240162002429949392919062003a76565b604051602081830303815290604052907bffffffffffffffffffffffffffffffffffffffffffffffffffffffff19166020820180517bffffffffffffffffffffffffffffffffffffffffffffffffffffffff83818316178352505050506040518060600160405280603281526020016200599d603291398773ffffffffffffffffffffffffffffffffffffffff16620027ae9092919063ffffffff16565b9050600081806020019051810190620024e1919062002edd565b905063150b7a0260e01b7bffffffffffffffffffffffffffffffffffffffffffffffffffffffff1916817bffffffffffffffffffffffffffffffffffffffffffffffffffffffff191614925050505b949350505050565b600080836001016000848152602001908152602001600020541415905092915050565b600080836001016000848152602001908152602001600020549050600081146200263c5760006001820390506000600186600001805490500390506000866000018281548110620025a857fe5b9060005260206000200154905080876000018481548110620025c657fe5b9060005260206000200181905550600183018760010160008381526020019081526020016000208190555086600001805480620025ff57fe5b6001900381819060005260206000200160009055905586600101600087815260200190815260200160002060009055600194505050505062002642565b60009150505b92915050565b6000620026568383620027c8565b620026b1578260000182908060018154018082558091505060019003906000526020600020016000909190919091505582600001805490508360010160008481526020019081526020016000208190555060019050620026b6565b600090505b92915050565b6000808460010160008581526020019081526020016000205490506000811415620027655784600001604051806040016040528086815260200185815250908060018154018082558091505060019003906000526020600020906002020160009091909190915060008201518160000155602082015181600101555050846000018054905085600101600086815260200190815260200160002081905550600191505062002794565b828560000160018303815481106200277957fe5b90600052602060002090600202016001018190555060009150505b9392505050565b600080823b905060008111915050919050565b6060620027bf8484600085620027eb565b90509392505050565b600080836001016000848152602001908152602001600020541415905092915050565b60608247101562002833576040517f08c379a00000000000000000000000000000000000000000000000000000000081526004016200282a9062003c32565b60405180910390fd5b6200283e856200279b565b62002880576040517f08c379a0000000000000000000000000000000000000000000000000000000008152600401620028779062003da8565b60405180910390fd5b600060608673ffffffffffffffffffffffffffffffffffffffff168587604051620028ac9190620039ff565b60006040518083038185875af1925050503d8060008114620028eb576040519150601f19603f3d011682016040523d82523d6000602084013e620028f0565b606091505b5091509150620029028282866200290e565b92505050949350505050565b60608315620029205782905062002973565b600083511115620029345782518084602001fd5b816040517f08c379a00000000000000000000000000000000000000000000000000000000081526004016200296a919062003ae7565b60405180910390fd5b9392505050565b611811806200418c83390190565b828054600181600116156101000203166002900490600052602060002090601f016020900481019282601f10620029cb57805160ff1916838001178555620029fc565b82800160010185558215620029fc579182015b82811115620029fb578251825591602001919060010190620029de565b5b50905062002a0b919062002aac565b5090565b6040518060c001604052806000815260200160008152602001600081526020016000815260200160008152602001600081525090565b82805482825590600052602060002090810192821562002a99579160200282015b8281111562002a9857825182908051906020019062002a8792919062002988565b509160200191906001019062002a66565b5b50905062002aa8919062002acb565b5090565b5b8082111562002ac757600081600090555060010162002aad565b5090565b5b8082111562002aef576000818162002ae5919062002af3565b5060010162002acc565b5090565b50805460018160011615610100020316600290046000825580601f1062002b1b575062002b3c565b601f01602090049060005260206000209081019062002b3b919062002aac565b5b50565b60008135905062002b508162004123565b92915050565b600082601f83011262002b6857600080fd5b813562002b7f62002b798262003f0d565b62003edf565b9150818183526020840193506020810190508360005b8381101562002bc9578135860162002bae888262002c74565b84526020840193506020830192505060018101905062002b95565b5050505092915050565b60008135905062002be4816200413d565b92915050565b60008135905062002bfb8162004157565b92915050565b60008151905062002c128162004157565b92915050565b600082601f83011262002c2a57600080fd5b813562002c4162002c3b8262003f36565b62003edf565b9150808252602083016020830185838301111562002c5e57600080fd5b62002c6b838284620040cd565b50505092915050565b600082601f83011262002c8657600080fd5b813562002c9d62002c978262003f63565b62003edf565b9150808252602083016020830185838301111562002cba57600080fd5b62002cc7838284620040cd565b50505092915050565b60008135905062002ce18162004171565b92915050565b60006020828403121562002cfa57600080fd5b600062002d0a8482850162002b3f565b91505092915050565b6000806040838503121562002d2757600080fd5b600062002d378582860162002b3f565b925050602062002d4a8582860162002b3f565b9150509250929050565b60008060006060848603121562002d6a57600080fd5b600062002d7a8682870162002b3f565b935050602062002d8d8682870162002b3f565b925050604062002da08682870162002cd0565b9150509250925092565b6000806000806080858703121562002dc157600080fd5b600062002dd18782880162002b3f565b945050602062002de48782880162002b3f565b935050604062002df78782880162002cd0565b925050606085013567ffffffffffffffff81111562002e1557600080fd5b62002e238782880162002c18565b91505092959194509250565b6000806040838503121562002e4357600080fd5b600062002e538582860162002b3f565b925050602062002e668582860162002bd3565b9150509250929050565b6000806040838503121562002e8457600080fd5b600062002e948582860162002b3f565b925050602062002ea78582860162002cd0565b9150509250929050565b60006020828403121562002ec457600080fd5b600062002ed48482850162002bea565b91505092915050565b60006020828403121562002ef057600080fd5b600062002f008482850162002c01565b91505092915050565b6000806040838503121562002f1d57600080fd5b600083013567ffffffffffffffff81111562002f3857600080fd5b62002f468582860162002c74565b925050602083013567ffffffffffffffff81111562002f6457600080fd5b62002f728582860162002c74565b9150509250929050565b60008060008060008060008060006101208a8c03121562002f9c57600080fd5b60008a013567ffffffffffffffff81111562002fb757600080fd5b62002fc58c828d0162002c74565b995050602062002fd88c828d0162002cd0565b985050604062002feb8c828d0162002cd0565b97505060608a013567ffffffffffffffff8111156200300957600080fd5b620030178c828d0162002b56565b96505060808a013567ffffffffffffffff8111156200303557600080fd5b620030438c828d0162002b56565b95505060a0620030568c828d0162002cd0565b94505060c0620030698c828d0162002cd0565b93505060e06200307c8c828d0162002cd0565b9250506101008a013567ffffffffffffffff8111156200309b57600080fd5b620030a98c828d0162002c74565b9150509295985092959850929598565b600060208284031215620030cc57600080fd5b6000620030dc8482850162002cd0565b91505092915050565b620030f0816200407d565b82525050565b620031018162004007565b82525050565b620031128162003ff3565b82525050565b62003123816200401b565b82525050565b6000620031368262003fa5565b62003142818562003fbb565b935062003154818560208601620040dc565b6200315f8162004112565b840191505092915050565b6000620031778262003fa5565b62003183818562003fcc565b935062003195818560208601620040dc565b80840191505092915050565b620031ac8162004091565b82525050565b6000620031bf8262003fb0565b620031cb818562003fd7565b9350620031dd818560208601620040dc565b620031e88162004112565b840191505092915050565b6000620032008262003fb0565b6200320c818562003fe8565b93506200321e818560208601620040dc565b80840191505092915050565b6000815460018116600081146200324a57600181146200327257620032bc565b607f60028304166200325d818762003fe8565b955060ff1983168652808601935050620032bc565b6002820462003282818762003fe8565b95506200328f8562003f90565b60005b82811015620032b35781548189015260018201915060208101905062003292565b82880195505050505b505092915050565b6000620032d360228362003fd7565b91507f456e756d657261626c655365743a20696e646578206f7574206f6620626f756e60008301527f64730000000000000000000000000000000000000000000000000000000000006020830152604082019050919050565b60006200333b60328362003fd7565b91507f4552433732313a207472616e7366657220746f206e6f6e20455243373231526560008301527f63656976657220696d706c656d656e74657200000000000000000000000000006020830152604082019050919050565b6000620033a3601c8362003fd7565b91507f4552433732313a20746f6b656e20616c7265616479206d696e746564000000006000830152602082019050919050565b6000620033e5601b8362003fd7565b91507f536166654d6174683a206164646974696f6e206f766572666c6f7700000000006000830152602082019050919050565b60006200342760248362003fd7565b91507f4552433732313a207472616e7366657220746f20746865207a65726f2061646460008301527f72657373000000000000000000000000000000000000000000000000000000006020830152604082019050919050565b60006200348f60198362003fd7565b91507f4552433732313a20617070726f766520746f2063616c6c6572000000000000006000830152602082019050919050565b6000620034d160268362003fd7565b91507f416464726573733a20696e73756666696369656e742062616c616e636520666f60008301527f722063616c6c00000000000000000000000000000000000000000000000000006020830152604082019050919050565b600062003539602c8362003fd7565b91507f4552433732313a206f70657261746f7220717565727920666f72206e6f6e657860008301527f697374656e7420746f6b656e00000000000000000000000000000000000000006020830152604082019050919050565b6000620035a160388362003fd7565b91507f4552433732313a20617070726f76652063616c6c6572206973206e6f74206f7760008301527f6e6572206e6f7220617070726f76656420666f7220616c6c00000000000000006020830152604082019050919050565b600062003609602a8362003fd7565b91507f4552433732313a2062616c616e636520717565727920666f7220746865207a6560008301527f726f2061646472657373000000000000000000000000000000000000000000006020830152604082019050919050565b60006200367160228362003fd7565b91507f456e756d657261626c654d61703a20696e646578206f7574206f6620626f756e60008301527f64730000000000000000000000000000000000000000000000000000000000006020830152604082019050919050565b6000620036d960208362003fd7565b91507f4552433732313a206d696e7420746f20746865207a65726f20616464726573736000830152602082019050919050565b60006200371b602c8362003fd7565b91507f4552433732313a20617070726f76656420717565727920666f72206e6f6e657860008301527f697374656e7420746f6b656e00000000000000000000000000000000000000006020830152604082019050919050565b60006200378360298362003fd7565b91507f4552433732313a207472616e73666572206f6620746f6b656e2074686174206960008301527f73206e6f74206f776e00000000000000000000000000000000000000000000006020830152604082019050919050565b6000620037eb602f8362003fd7565b91507f4552433732314d657461646174613a2055524920717565727920666f72206e6f60008301527f6e6578697374656e7420746f6b656e00000000000000000000000000000000006020830152604082019050919050565b60006200385360218362003fd7565b91507f4552433732313a20617070726f76616c20746f2063757272656e74206f776e6560008301527f72000000000000000000000000000000000000000000000000000000000000006020830152604082019050919050565b6000620038bb60318362003fd7565b91507f4552433732313a207472616e736665722063616c6c6572206973206e6f74206f60008301527f776e6572206e6f7220617070726f7665640000000000000000000000000000006020830152604082019050919050565b600062003923601d8362003fd7565b91507f416464726573733a2063616c6c20746f206e6f6e2d636f6e74726163740000006000830152602082019050919050565b60c0820160008201516200396e6000850182620039dd565b506020820151620039836020850182620039dd565b506040820151620039986040850182620039dd565b506060820151620039ad6060850182620039dd565b506080820151620039c26080850182620039dd565b5060a0820151620039d760a0850182620039dd565b50505050565b620039e88162004073565b82525050565b620039f98162004073565b82525050565b600062003a0d82846200316a565b915081905092915050565b600062003a268284620031f3565b915081905092915050565b600062003a3f82856200322a565b915062003a4d8284620031f3565b91508190509392505050565b600060208201905062003a70600083018462003107565b92915050565b600060808201905062003a8d6000830187620030f6565b62003a9c602083018662003107565b62003aab6040830185620039ee565b818103606083015262003abf818462003129565b905095945050505050565b600060208201905062003ae1600083018462003118565b92915050565b6000602082019050818103600083015262003b038184620031b2565b905092915050565b6000608082019050818103600083015262003b278187620031b2565b9050818103602083015262003b3d8186620031b2565b905062003b4e6040830185620030e5565b62003b5d6060830184620031a1565b95945050505050565b6000602082019050818103600083015262003b8181620032c4565b9050919050565b6000602082019050818103600083015262003ba3816200332c565b9050919050565b6000602082019050818103600083015262003bc58162003394565b9050919050565b6000602082019050818103600083015262003be781620033d6565b9050919050565b6000602082019050818103600083015262003c098162003418565b9050919050565b6000602082019050818103600083015262003c2b8162003480565b9050919050565b6000602082019050818103600083015262003c4d81620034c2565b9050919050565b6000602082019050818103600083015262003c6f816200352a565b9050919050565b6000602082019050818103600083015262003c918162003592565b9050919050565b6000602082019050818103600083015262003cb381620035fa565b9050919050565b6000602082019050818103600083015262003cd58162003662565b9050919050565b6000602082019050818103600083015262003cf781620036ca565b9050919050565b6000602082019050818103600083015262003d19816200370c565b9050919050565b6000602082019050818103600083015262003d3b8162003774565b9050919050565b6000602082019050818103600083015262003d5d81620037dc565b9050919050565b6000602082019050818103600083015262003d7f8162003844565b9050919050565b6000602082019050818103600083015262003da181620038ac565b9050919050565b6000602082019050818103600083015262003dc38162003914565b9050919050565b600060208201905062003de16000830184620039ee565b92915050565b600060608201905062003dfe6000830186620039ee565b62003e0d6020830185620039ee565b62003e1c6040830184620039ee565b949350505050565b60006101e08201905062003e3c600083018d620039ee565b62003e4b602083018c620039ee565b62003e5a604083018b620039ee565b62003e69606083018a62003956565b62003e79610120830189620039ee565b62003e89610140830188620039ee565b62003e99610160830187620039ee565b62003ea9610180830186620039ee565b62003eb96101a0830185620039ee565b8181036101c083015262003ece8184620031b2565b90509b9a5050505050505050505050565b6000604051905081810181811067ffffffffffffffff8211171562003f0357600080fd5b8060405250919050565b600067ffffffffffffffff82111562003f2557600080fd5b602082029050602081019050919050565b600067ffffffffffffffff82111562003f4e57600080fd5b601f19601f8301169050602081019050919050565b600067ffffffffffffffff82111562003f7b57600080fd5b601f19601f8301169050602081019050919050565b60008190508160005260206000209050919050565b600081519050919050565b600081519050919050565b600082825260208201905092915050565b600081905092915050565b600082825260208201905092915050565b600081905092915050565b6000620040008262004053565b9050919050565b6000620040148262004053565b9050919050565b60008115159050919050565b60007fffffffff0000000000000000000000000000000000000000000000000000000082169050919050565b600073ffffffffffffffffffffffffffffffffffffffff82169050919050565b6000819050919050565b60006200408a82620040a5565b9050919050565b60006200409e8262004073565b9050919050565b6000620040b282620040b9565b9050919050565b6000620040c68262004053565b9050919050565b82818337600083830152505050565b60005b83811015620040fc578082015181840152602081019050620040df565b838111156200410c576000848401525b50505050565b6000601f19601f8301169050919050565b6200412e8162003ff3565b81146200413a57600080fd5b50565b62004148816200401b565b81146200415457600080fd5b50565b620041628162004027565b81146200416e57600080fd5b50565b6200417c8162004073565b81146200418857600080fd5b5056fe60806040523480156200001157600080fd5b506040516200181138038062001811833981810160405260808110156200003757600080fd5b81019080805160405193929190846401000000008211156200005857600080fd5b838201915060208201858111156200006f57600080fd5b82518660018202830111640100000000821117156200008d57600080fd5b8083526020830192505050908051906020019080838360005b83811015620000c3578082015181840152602081019050620000a6565b50505050905090810190601f168015620000f15780820380516001836020036101000a031916815260200191505b50604052602001805160405193929190846401000000008211156200011557600080fd5b838201915060208201858111156200012c57600080fd5b82518660018202830111640100000000821117156200014a57600080fd5b8083526020830192505050908051906020019080838360005b838110156200018057808201518184015260208101905062000163565b50505050905090810190601f168015620001ae5780820380516001836020036101000a031916815260200191505b5060405260200180519060200190929190805190602001909291905050508360039080519060200190620001e492919062000505565b508260049080519060200190620001fd92919062000505565b506012600560006101000a81548160ff021916908360ff16021790555081600560016101000a81548173ffffffffffffffffffffffffffffffffffffffff021916908373ffffffffffffffffffffffffffffffffffffffff1602179055506200028f600560019054906101000a900473ffffffffffffffffffffffffffffffffffffffff16826200029960201b60201c565b50505050620005ab565b600073ffffffffffffffffffffffffffffffffffffffff168273ffffffffffffffffffffffffffffffffffffffff1614156200033d576040517f08c379a000000000000000000000000000000000000000000000000000000000815260040180806020018281038252601f8152602001807f45524332303a206d696e7420746f20746865207a65726f20616464726573730081525060200191505060405180910390fd5b62000351600083836200047760201b60201c565b6200036d816002546200047c60201b62000b121790919060201c565b600281905550620003cb816000808573ffffffffffffffffffffffffffffffffffffffff1673ffffffffffffffffffffffffffffffffffffffff168152602001908152602001600020546200047c60201b62000b121790919060201c565b6000808473ffffffffffffffffffffffffffffffffffffffff1673ffffffffffffffffffffffffffffffffffffffff168152602001908152602001600020819055508173ffffffffffffffffffffffffffffffffffffffff16600073ffffffffffffffffffffffffffffffffffffffff167f326c533e50cfc585aa7e8847ae315e621effa98328d4f961484a7b271c159904836040518082815260200191505060405180910390a35050565b505050565b600080828401905083811015620004fb576040517f08c379a000000000000000000000000000000000000000000000000000000000815260040180806020018281038252601b8152602001807f536166654d6174683a206164646974696f6e206f766572666c6f77000000000081525060200191505060405180910390fd5b8091505092915050565b828054600181600116156101000203166002900490600052602060002090601f016020900481019282601f106200054857805160ff191683800117855562000579565b8280016001018555821562000579579182015b82811115620005785782518255916020019190600101906200055b565b5b5090506200058891906200058c565b5090565b5b80821115620005a75760008160009055506001016200058d565b5090565b61125680620005bb6000396000f3fe608060405234801561001057600080fd5b50600436106100ea5760003560e01c80633eaaf86b1161008c57806395d89b411161006657806395d89b4114610443578063a457c2d7146104c6578063a9059cbb1461052a578063dd62ed3e1461058e576100ea565b80633eaaf86b146103755780636ebcf6071461039357806370a08231146103eb576100ea565b806318160ddd116100c857806318160ddd1461024e57806323b872dd1461026c578063313ce567146102f05780633950935114610311576100ea565b8063024c2ddd146100ef57806306fdde0314610167578063095ea7b3146101ea575b600080fd5b6101516004803603604081101561010557600080fd5b81019080803573ffffffffffffffffffffffffffffffffffffffff169060200190929190803573ffffffffffffffffffffffffffffffffffffffff169060200190929190505050610606565b6040518082815260200191505060405180910390f35b61016f61062b565b6040518080602001828103825283818151815260200191508051906020019080838360005b838110156101af578082015181840152602081019050610194565b50505050905090810190601f1680156101dc5780820380516001836020036101000a031916815260200191505b509250505060405180910390f35b6102366004803603604081101561020057600080fd5b81019080803573ffffffffffffffffffffffffffffffffffffffff169060200190929190803590602001909291905050506106cd565b60405180821515815260200191505060405180910390f35b6102566106eb565b6040518082815260200191505060405180910390f35b6102d86004803603606081101561028257600080fd5b81019080803573ffffffffffffffffffffffffffffffffffffffff169060200190929190803573ffffffffffffffffffffffffffffffffffffffff169060200190929190803590602001909291905050506106f5565b60405180821515815260200191505060405180910390f35b6102f86107ce565b604051808260ff16815260200191505060405180910390f35b61035d6004803603604081101561032757600080fd5b81019080803573ffffffffffffffffffffffffffffffffffffffff169060200190929190803590602001909291905050506107e5565b60405180821515815260200191505060405180910390f35b61037d610898565b6040518082815260200191505060405180910390f35b6103d5600480360360208110156103a957600080fd5b81019080803573ffffffffffffffffffffffffffffffffffffffff16906020019092919050505061089e565b6040518082815260200191505060405180910390f35b61042d6004803603602081101561040157600080fd5b81019080803573ffffffffffffffffffffffffffffffffffffffff1690602001909291905050506108b6565b6040518082815260200191505060405180910390f35b61044b6108fe565b6040518080602001828103825283818151815260200191508051906020019080838360005b8381101561048b578082015181840152602081019050610470565b50505050905090810190601f1680156104b85780820380516001836020036101000a031916815260200191505b509250505060405180910390f35b610512600480360360408110156104dc57600080fd5b81019080803573ffffffffffffffffffffffffffffffffffffffff169060200190929190803590602001909291905050506109a0565b60405180821515815260200191505060405180910390f35b6105766004803603604081101561054057600080fd5b81019080803573ffffffffffffffffffffffffffffffffffffffff16906020019092919080359060200190929190505050610a6d565b60405180821515815260200191505060405180910390f35b6105f0600480360360408110156105a457600080fd5b81019080803573ffffffffffffffffffffffffffffffffffffffff169060200190929190803573ffffffffffffffffffffffffffffffffffffffff169060200190929190505050610a8b565b6040518082815260200191505060405180910390f35b6001602052816000526040600020602052806000526040600020600091509150505481565b606060038054600181600116156101000203166002900480601f0160208091040260200160405190810160405280929190818152602001828054600181600116156101000203166002900480156106c35780601f10610698576101008083540402835291602001916106c3565b820191906000526020600020905b8154815290600101906020018083116106a657829003601f168201915b5050505050905090565b60006106e16106da610b9a565b8484610ba2565b6001905092915050565b6000600254905090565b6000610702848484610d99565b6107c38461070e610b9a565b6107be8560405180606001604052806028815260200161118b60289139600160008b73ffffffffffffffffffffffffffffffffffffffff1673ffffffffffffffffffffffffffffffffffffffff1681526020019081526020016000206000610774610b9a565b73ffffffffffffffffffffffffffffffffffffffff1673ffffffffffffffffffffffffffffffffffffffff1681526020019081526020016000205461105a9092919063ffffffff16565b610ba2565b600190509392505050565b6000600560009054906101000a900460ff16905090565b600061088e6107f2610b9a565b846108898560016000610803610b9a565b73ffffffffffffffffffffffffffffffffffffffff1673ffffffffffffffffffffffffffffffffffffffff16815260200190815260200160002060008973ffffffffffffffffffffffffffffffffffffffff1673ffffffffffffffffffffffffffffffffffffffff16815260200190815260200160002054610b1290919063ffffffff16565b610ba2565b6001905092915050565b60025481565b60006020528060005260406000206000915090505481565b60008060008373ffffffffffffffffffffffffffffffffffffffff1673ffffffffffffffffffffffffffffffffffffffff168152602001908152602001600020549050919050565b606060048054600181600116156101000203166002900480601f0160208091040260200160405190810160405280929190818152602001828054600181600116156101000203166002900480156109965780601f1061096b57610100808354040283529160200191610996565b820191906000526020600020905b81548152906001019060200180831161097957829003601f168201915b5050505050905090565b6000610a636109ad610b9a565b84610a5e856040518060600160405280602581526020016111fc60259139600160006109d7610b9a565b73ffffffffffffffffffffffffffffffffffffffff1673ffffffffffffffffffffffffffffffffffffffff16815260200190815260200160002060008a73ffffffffffffffffffffffffffffffffffffffff1673ffffffffffffffffffffffffffffffffffffffff1681526020019081526020016000205461105a9092919063ffffffff16565b610ba2565b6001905092915050565b6000610a81610a7a610b9a565b8484610d99565b6001905092915050565b6000600160008473ffffffffffffffffffffffffffffffffffffffff1673ffffffffffffffffffffffffffffffffffffffff16815260200190815260200160002060008373ffffffffffffffffffffffffffffffffffffffff1673ffffffffffffffffffffffffffffffffffffffff16815260200190815260200160002054905092915050565b600080828401905083811015610b90576040517f08c379a000000000000000000000000000000000000000000000000000000000815260040180806020018281038252601b8152602001807f536166654d6174683a206164646974696f6e206f766572666c6f77000000000081525060200191505060405180910390fd5b8091505092915050565b600033905090565b600073ffffffffffffffffffffffffffffffffffffffff168373ffffffffffffffffffffffffffffffffffffffff161415610c28576040517f08c379a00000000000000000000000000000000000000000000000000000000081526004018080602001828103825260248152602001806111d86024913960400191505060405180910390fd5b600073ffffffffffffffffffffffffffffffffffffffff168273ffffffffffffffffffffffffffffffffffffffff161415610cae576040517f08c379a00000000000000000000000000000000000000000000000000000000081526004018080602001828103825260228152602001806111436022913960400191505060405180910390fd5b80600160008573ffffffffffffffffffffffffffffffffffffffff1673ffffffffffffffffffffffffffffffffffffffff16815260200190815260200160002060008473ffffffffffffffffffffffffffffffffffffffff1673ffffffffffffffffffffffffffffffffffffffff168152602001908152602001600020819055508173ffffffffffffffffffffffffffffffffffffffff168373ffffffffffffffffffffffffffffffffffffffff167f8c5be1e5ebec7d5bd14f71427d1e84f3dd0314c0f7b2291e5b200ac8c7c3b925836040518082815260200191505060405180910390a3505050565b600073ffffffffffffffffffffffffffffffffffffffff168373ffffffffffffffffffffffffffffffffffffffff161415610e1f576040517f08c379a00000000000000000000000000000000000000000000000000000000081526004018080602001828103825260258152602001806111b36025913960400191505060405180910390fd5b600073ffffffffffffffffffffffffffffffffffffffff168273ffffffffffffffffffffffffffffffffffffffff161415610ea5576040517f08c379a00000000000000000000000000000000000000000000000000000000081526004018080602001828103825260238152602001806111206023913960400191505060405180910390fd5b610eb083838361111a565b610f1b81604051806060016040528060268152602001611165602691396000808773ffffffffffffffffffffffffffffffffffffffff1673ffffffffffffffffffffffffffffffffffffffff1681526020019081526020016000205461105a9092919063ffffffff16565b6000808573ffffffffffffffffffffffffffffffffffffffff1673ffffffffffffffffffffffffffffffffffffffff16815260200190815260200160002081905550610fae816000808573ffffffffffffffffffffffffffffffffffffffff1673ffffffffffffffffffffffffffffffffffffffff16815260200190815260200160002054610b1290919063ffffffff16565b6000808473ffffffffffffffffffffffffffffffffffffffff1673ffffffffffffffffffffffffffffffffffffffff168152602001908152602001600020819055508173ffffffffffffffffffffffffffffffffffffffff168373ffffffffffffffffffffffffffffffffffffffff167f326c533e50cfc585aa7e8847ae315e621effa98328d4f961484a7b271c159904836040518082815260200191505060405180910390a3505050565b6000838311158290611107576040517f08c379a00000000000000000000000000000000000000000000000000000000081526004018080602001828103825283818151815260200191508051906020019080838360005b838110156110cc5780820151818401526020810190506110b1565b50505050905090810190601f1680156110f95780820380516001836020036101000a031916815260200191505b509250505060405180910390fd5b5060008385039050809150509392505050565b50505056fe45524332303a207472616e7366657220746f20746865207a65726f206164647265737345524332303a20617070726f766520746f20746865207a65726f206164647265737345524332303a207472616e7366657220616d6f756e7420657863656564732062616c616e636545524332303a207472616e7366657220616d6f756e74206578636565647320616c6c6f77616e636545524332303a207472616e736665722066726f6d20746865207a65726f206164647265737345524332303a20617070726f76652066726f6d20746865207a65726f206164647265737345524332303a2064656372656173656420616c6c6f77616e63652062656c6f77207a65726fa2646970667358221220ea8d7872ad8f57ba6cd4a6f27e95ff81a288f2a8e926cd5444d14b092e939b4464736f6c634300060c00334552433732313a207472616e7366657220746f206e6f6e20455243373231526563656976657220696d706c656d656e7465724552433732313a206f776e657220717565727920666f72206e6f6e6578697374656e7420746f6b656ea2646970667358221220fcdbfd4b5ef983804a543ac0f82ab6b05f9164d25fa29f000e47424921b95a0d64736f6c634300060c0033",
  "immutableReferences": {},
  "source": "// SPDX-License-Identifier: MIT\r\npragma solidity ^0.6.0;\r\npragma experimental ABIEncoderV2;\r\n\r\nimport \"./ERC721.sol\";\r\nimport \"./ERC20.sol\";\r\n\r\ncontract Property is ERC721 {\r\n  string[] public properties;\r\n  address public proptest;\r\n  mapping(string => bool) _propertyExists;\r\n  \r\n\r\n  constructor() ERC721(\"Property\",\"QST_TKN\") public{\r\n      \r\n  }\r\n  \r\n      event TokenCreated(address tokenAddress);\r\n  function mint(string memory _property,uint256 origVal,\r\n                                     uint256 coins,\r\n                                     string[] memory property_images,\r\n                                     string[] memory pro_add_details,\r\n                                     uint256 prop_tax,\r\n                                     uint256 prop_insurance,\r\n                                     uint256 prop_maintainence,\r\n                                     string memory features_prop) public {\r\n   require(!_propertyExists[_property]);\r\n    properties.push(_property);\r\n    // uint _id = properties.length; \r\n    \r\n    _mint(origVal,coins,property_images,pro_add_details,prop_tax,prop_insurance,prop_maintainence,features_prop);\r\n    _propertyExists[_property] = true;\r\n    \r\n    \r\n    deployNewToken(\"prop1\", \"QST\");\r\n     \r\n  } \r\n  \r\n  function deployNewToken(string memory name, string memory symbol) public returns (address) {\r\n       ERC20 t = new ERC20( name, symbol, msg.sender,10000);\r\n       proptest = address(t);\r\n       emit TokenCreated(address(t));\r\n       \r\n   } \r\n  \r\n  \r\n\r\n  function getProperties(uint _index) public view returns(string memory){\r\n   \r\n  return properties[_index];\r\n  \r\n} \r\n\r\n    function totalProperties()public view returns(uint256){\r\n    uint256 len = properties.length;\r\n    return len;\r\n}\r\n    \r\n\r\n} \r\n\r\n",
  "sourcePath": "C:/MyProjects/Code2Learn/Quest/nft/src/contracts/Property.sol",
  "compiler": {
    "name": "solc",
    "version": "0.6.12+commit.27d51765.Emscripten.clang"
  },
  "schemaVersion": "3.3.1",
  "updatedAt": "2021-01-12T12:47:13.556Z",
  "devdoc": {
    "kind": "dev",
    "methods": {
      "approve(address,uint256)": {
        "details": "See {IERC721-approve}."
      },
      "balanceOf(address)": {
        "details": "See {IERC721-balanceOf}."
      },
      "baseURI()": {
        "details": "Returns the base URI set via {_setBaseURI}. This will be automatically added as a prefix in {tokenURI} to each token's URI, or to the token ID if no specific URI is set for that token ID."
      },
      "getApproved(uint256)": {
        "details": "See {IERC721-getApproved}."
      },
      "isApprovedForAll(address,address)": {
        "details": "See {IERC721-isApprovedForAll}."
      },
      "name()": {
        "details": "See {IERC721Metadata-name}."
      },
      "ownerOf(uint256)": {
        "details": "See {IERC721-ownerOf}."
      },
      "safeTransferFrom(address,address,uint256)": {
        "details": "See {IERC721-safeTransferFrom}."
      },
      "safeTransferFrom(address,address,uint256,bytes)": {
        "details": "See {IERC721-safeTransferFrom}."
      },
      "setApprovalForAll(address,bool)": {
        "details": "See {IERC721-setApprovalForAll}."
      },
      "supportsInterface(bytes4)": {
        "details": "See {IERC165-supportsInterface}. Time complexity O(1), guaranteed to always use less than 30 000 gas."
      },
      "symbol()": {
        "details": "See {IERC721Metadata-symbol}."
      },
      "tokenByIndex(uint256)": {
        "details": "See {IERC721Enumerable-tokenByIndex}."
      },
      "tokenOfOwnerByIndex(address,uint256)": {
        "details": "See {IERC721Enumerable-tokenOfOwnerByIndex}."
      },
      "tokenURI(uint256)": {
        "details": "See {IERC721Metadata-tokenURI}."
      },
      "totalSupply()": {
        "details": "See {IERC721Enumerable-totalSupply}."
      },
      "transferFrom(address,address,uint256)": {
        "details": "See {IERC721-transferFrom}."
      }
    },
    "version": 1
  },
  "userdoc": {
    "kind": "user",
    "methods": {},
    "version": 1
  }
}