{
  "contractName": "Property",
  "abi": [
    {
      "inputs": [
        {
          "internalType": "address",
          "name": "deployed_erc721",
          "type": "address"
        },
        {
          "internalType": "address",
          "name": "deployed_erc20",
          "type": "address"
        }
      ],
      "stateMutability": "nonpayable",
      "type": "constructor"
    },
    {
      "anonymous": false,
      "inputs": [
        {
          "indexed": false,
          "internalType": "address",
          "name": "tokenAddress",
          "type": "address"
        }
      ],
      "name": "TokenCreated",
      "type": "event"
    },
    {
      "inputs": [
        {
          "internalType": "uint256",
          "name": "",
          "type": "uint256"
        }
      ],
      "name": "property_Array",
      "outputs": [
        {
          "internalType": "string",
          "name": "name",
          "type": "string"
        },
        {
          "internalType": "address",
          "name": "deployed_Token",
          "type": "address"
        }
      ],
      "stateMutability": "view",
      "type": "function",
      "constant": true
    },
    {
      "inputs": [
        {
          "internalType": "address",
          "name": "",
          "type": "address"
        },
        {
          "internalType": "uint256",
          "name": "",
          "type": "uint256"
        }
      ],
      "name": "token_prop",
      "outputs": [
        {
          "internalType": "contract ERC20",
          "name": "",
          "type": "address"
        }
      ],
      "stateMutability": "view",
      "type": "function",
      "constant": true
    },
    {
      "inputs": [
        {
          "internalType": "string",
          "name": "_property",
          "type": "string"
        },
        {
          "internalType": "uint256",
          "name": "origVal",
          "type": "uint256"
        },
        {
          "internalType": "uint256",
          "name": "coins",
          "type": "uint256"
        },
        {
          "internalType": "string",
          "name": "property_images_hash",
          "type": "string"
        },
        {
          "internalType": "string[]",
          "name": "pro_add_details",
          "type": "string[]"
        },
        {
          "internalType": "uint256",
          "name": "prop_tax",
          "type": "uint256"
        },
        {
          "internalType": "uint256",
          "name": "prop_insurance",
          "type": "uint256"
        },
        {
          "internalType": "uint256",
          "name": "prop_maintainence",
          "type": "uint256"
        },
        {
          "internalType": "string",
          "name": "features_prop",
          "type": "string"
        }
      ],
      "name": "mint",
      "outputs": [],
      "stateMutability": "nonpayable",
      "type": "function"
    },
    {
      "inputs": [
        {
          "internalType": "uint256",
          "name": "amount_of_token",
          "type": "uint256"
        }
      ],
      "name": "purchaseVocherTokens",
      "outputs": [],
      "stateMutability": "payable",
      "type": "function",
      "payable": true
    },
    {
      "inputs": [
        {
          "internalType": "uint256",
          "name": "voucher_token_offered",
          "type": "uint256"
        },
        {
          "internalType": "address",
          "name": "property_token_owner",
          "type": "address"
        },
        {
          "internalType": "uint256",
          "name": "property_id",
          "type": "uint256"
        }
      ],
      "name": "purchasePropertyTokens",
      "outputs": [],
      "stateMutability": "nonpayable",
      "type": "function"
    },
    {
      "inputs": [
        {
          "internalType": "address",
          "name": "user",
          "type": "address"
        }
      ],
      "name": "getVoucherBalance",
      "outputs": [
        {
          "internalType": "uint256",
          "name": "",
          "type": "uint256"
        }
      ],
      "stateMutability": "view",
      "type": "function",
      "constant": true
    },
    {
      "inputs": [
        {
          "internalType": "address",
          "name": "user",
          "type": "address"
        }
      ],
      "name": "getPropertyTokenBalance",
      "outputs": [
        {
          "internalType": "uint256",
          "name": "",
          "type": "uint256"
        }
      ],
      "stateMutability": "view",
      "type": "function",
      "constant": true
    },
    {
      "inputs": [
        {
          "internalType": "address",
          "name": "owner",
          "type": "address"
        }
      ],
      "name": "getOwnerProperties",
      "outputs": [
        {
          "internalType": "string[]",
          "name": "",
          "type": "string[]"
        }
      ],
      "stateMutability": "view",
      "type": "function",
      "constant": true
    },
    {
      "inputs": [
        {
          "internalType": "uint256",
          "name": "_index",
          "type": "uint256"
        }
      ],
      "name": "getProperties",
      "outputs": [
        {
          "internalType": "string",
          "name": "",
          "type": "string"
        }
      ],
      "stateMutability": "view",
      "type": "function",
      "constant": true
    },
    {
      "inputs": [],
      "name": "totalProperties",
      "outputs": [
        {
          "internalType": "uint256",
          "name": "",
          "type": "uint256"
        }
      ],
      "stateMutability": "view",
      "type": "function",
      "constant": true
    }
  ],
  "bytecode": "0x60806040523480156200001157600080fd5b5060405162003840380380620038408339818101604052810190620000379190620000d8565b81600260006101000a81548173ffffffffffffffffffffffffffffffffffffffff021916908373ffffffffffffffffffffffffffffffffffffffff16021790555080600360006101000a81548173ffffffffffffffffffffffffffffffffffffffff021916908373ffffffffffffffffffffffffffffffffffffffff160217905550505062000167565b600081519050620000d2816200014d565b92915050565b60008060408385031215620000ec57600080fd5b6000620000fc85828601620000c1565b92505060206200010f85828601620000c1565b9150509250929050565b600062000126826200012d565b9050919050565b600073ffffffffffffffffffffffffffffffffffffffff82169050919050565b620001588162000119565b81146200016457600080fd5b50565b6136c980620001776000396000f3fe6080604052600436106200009e5760003560e01c8063bc2f21cb1162000061578063bc2f21cb14620001b7578063cb64489714620001fb578063eb6eba9c146200023f578063f79230ed1462000284578063f8df1b7a14620002c8576200009e565b80630b3bce2014620000a35780630b6f269214620000d35780631b8ca21714620001175780635e2a8b8a146200015b5780637d2f16791462000189575b600080fd5b348015620000b057600080fd5b50620000bb620002e8565b604051620000ca919062001c19565b60405180910390f35b348015620000e057600080fd5b50620000ff6004803603810190620000f99190620015d2565b620002f5565b6040516200010e919062001b45565b60405180910390f35b3480156200012457600080fd5b506200014360048036038101906200013d9190620017c1565b62000337565b60405162000152919062001b86565b60405180910390f35b3480156200016857600080fd5b5062000187600480360381019062000181919062001819565b620003f5565b005b3480156200019657600080fd5b50620001b56004803603810190620001af919062001684565b620007a2565b005b348015620001c457600080fd5b50620001e36004803603810190620001dd9190620015a6565b62000b97565b604051620001f2919062001c19565b60405180910390f35b3480156200020857600080fd5b50620002276004803603810190620002219190620015a6565b62000c50565b60405162000236919062001b21565b60405180910390f35b3480156200024c57600080fd5b506200026b6004803603810190620002659190620017c1565b62000d7e565b6040516200027b92919062001baa565b60405180910390f35b3480156200029157600080fd5b50620002b06004803603810190620002aa9190620015a6565b62000e6c565b604051620002bf919062001c19565b60405180910390f35b620002e66004803603810190620002e09190620017c1565b62000f26565b005b6000600480549050905090565b60076020528160005260406000206020528060005260406000206000915091509054906101000a900473ffffffffffffffffffffffffffffffffffffffff1681565b6060600482815481106200034757fe5b906000526020600020018054600181600116156101000203166002900480601f016020809104026020016040519081016040528092919081815260200182805460018160011615610100020316600290048015620003e95780601f10620003bd57610100808354040283529160200191620003e9565b820191906000526020600020905b815481529060010190602001808311620003cb57829003601f168201915b50505050509050919050565b82620004013362000e6c565b10156200040d57600080fd5b6000600760008473ffffffffffffffffffffffffffffffffffffffff1673ffffffffffffffffffffffffffffffffffffffff168152602001908152602001600020600083815260200190815260200160002060009054906101000a900473ffffffffffffffffffffffffffffffffffffffff1690508073ffffffffffffffffffffffffffffffffffffffff16636ebcf607846040518263ffffffff1660e01b8152600401620004bd919062001a5d565b60206040518083038186803b158015620004d657600080fd5b505afa158015620004eb573d6000803e3d6000fd5b505050506040513d601f19601f82011682018060405250810190620005119190620017ed565b8411156200051e57600080fd5b600360009054906101000a900473ffffffffffffffffffffffffffffffffffffffff1673ffffffffffffffffffffffffffffffffffffffff1663beabacc83385876040518463ffffffff1660e01b81526004016200057f9392919062001a7a565b602060405180830381600087803b1580156200059a57600080fd5b505af1158015620005af573d6000803e3d6000fd5b505050506040513d601f19601f82011682018060405250810190620005d5919062001613565b508073ffffffffffffffffffffffffffffffffffffffff1663beabacc88433876040518463ffffffff1660e01b8152600401620006159392919062001ae4565b602060405180830381600087803b1580156200063057600080fd5b505af115801562000645573d6000803e3d6000fd5b505050506040513d601f19601f820116820180604052508101906200066b919062001613565b50600660003373ffffffffffffffffffffffffffffffffffffffff1673ffffffffffffffffffffffffffffffffffffffff16815260200190815260200160002060046001840381548110620006bc57fe5b906000526020600020019080600181540180825580915050600190039060005260206000200160009091909190915090805460018160011615610100020316600290046200070c929190620012a3565b5080600760003373ffffffffffffffffffffffffffffffffffffffff1673ffffffffffffffffffffffffffffffffffffffff168152602001908152602001600020600084815260200190815260200160002060006101000a81548173ffffffffffffffffffffffffffffffffffffffff021916908373ffffffffffffffffffffffffffffffffffffffff16021790555050505050565b8873__Strings_______________________________63447d7a1d90916040518263ffffffff1660e01b8152600401620007dd919062001b62565b60006040518083038186803b158015620007f657600080fd5b505af41580156200080b573d6000803e3d6000fd5b505050506040513d6000823e3d601f19601f820116820180604052508101906200083691906200163f565b98506005896040516200084a919062001a44565b908152602001604051809103902060009054906101000a900460ff16156200087157600080fd5b6200087b62001331565b60048a908060018154018082558091505060019003906000526020600020016000909190919091509080519060200190620008b892919062001361565b50600260009054906101000a900473ffffffffffffffffffffffffffffffffffffffff1673ffffffffffffffffffffffffffffffffffffffff1663027ee8588a338b8b8b8b8b8b8b6040518a63ffffffff1660e01b8152600401620009269998979695949392919062001c36565b600060405180830381600087803b1580156200094157600080fd5b505af115801562000956573d6000803e3d6000fd5b50505050600160058b6040516200096e919062001a44565b908152602001604051809103902060006101000a81548160ff021916908315150217905550600660003373ffffffffffffffffffffffffffffffffffffffff1673ffffffffffffffffffffffffffffffffffffffff1681526020019081526020016000208a90806001815401808255809150506001900390600052602060002001600090919091909150908051906020019062000a0d92919062001361565b5089816000018190525062000a986040518060400160405280600581526020017f70726f70310000000000000000000000000000000000000000000000000000008152506040518060400160405280600381526020017f51535400000000000000000000000000000000000000000000000000000000008152508b62000a92620002e8565b62000fcd565b816020019073ffffffffffffffffffffffffffffffffffffffff16908173ffffffffffffffffffffffffffffffffffffffff16815250506064896055028162000add57fe5b04985062000aeb896200120d565b6008819080600181540180825580915050600190039060005260206000209060020201600090919091909150600082015181600001908051906020019062000b3592919062001361565b5060208201518160010160006101000a81548173ffffffffffffffffffffffffffffffffffffffff021916908373ffffffffffffffffffffffffffffffffffffffff160217905550505062000b8962001331565b905050505050505050505050565b60008060009054906101000a900473ffffffffffffffffffffffffffffffffffffffff1673ffffffffffffffffffffffffffffffffffffffff16636ebcf607836040518263ffffffff1660e01b815260040162000bf5919062001a5d565b60206040518083038186803b15801562000c0e57600080fd5b505afa15801562000c23573d6000803e3d6000fd5b505050506040513d601f19601f8201168201806040525081019062000c499190620017ed565b9050919050565b6060600660008373ffffffffffffffffffffffffffffffffffffffff1673ffffffffffffffffffffffffffffffffffffffff168152602001908152602001600020805480602002602001604051908101604052809291908181526020016000905b8282101562000d73578382906000526020600020018054600181600116156101000203166002900480601f01602080910402602001604051908101604052809291908181526020018280546001816001161561010002031660029004801562000d5e5780601f1062000d325761010080835404028352916020019162000d5e565b820191906000526020600020905b81548152906001019060200180831162000d4057829003601f168201915b50505050508152602001906001019062000cb1565b505050509050919050565b6008818154811062000d8c57fe5b9060005260206000209060020201600091509050806000018054600181600116156101000203166002900480601f01602080910402602001604051908101604052809291908181526020018280546001816001161561010002031660029004801562000e3c5780601f1062000e105761010080835404028352916020019162000e3c565b820191906000526020600020905b81548152906001019060200180831162000e1e57829003601f168201915b5050505050908060010160009054906101000a900473ffffffffffffffffffffffffffffffffffffffff16905082565b6000600360009054906101000a900473ffffffffffffffffffffffffffffffffffffffff1673ffffffffffffffffffffffffffffffffffffffff166370a08231836040518263ffffffff1660e01b815260040162000ecb919062001a5d565b60206040518083038186803b15801562000ee457600080fd5b505afa15801562000ef9573d6000803e3d6000fd5b505050506040513d601f19601f8201168201806040525081019062000f1f9190620017ed565b9050919050565b600a810234101562000f3757600080fd5b600360009054906101000a900473ffffffffffffffffffffffffffffffffffffffff1673ffffffffffffffffffffffffffffffffffffffff166340894c9433836040518363ffffffff1660e01b815260040162000f9692919062001ab7565b600060405180830381600087803b15801562000fb157600080fd5b505af115801562000fc6573d6000803e3d6000fd5b5050505050565b6000848460405162000fdf90620013e8565b62000fec92919062001bde565b604051809103906000f08015801562001009573d6000803e3d6000fd5b506000806101000a81548173ffffffffffffffffffffffffffffffffffffffff021916908373ffffffffffffffffffffffffffffffffffffffff16021790555060008054906101000a900473ffffffffffffffffffffffffffffffffffffffff16600760003373ffffffffffffffffffffffffffffffffffffffff1673ffffffffffffffffffffffffffffffffffffffff168152602001908152602001600020600084815260200190815260200160002060006101000a81548173ffffffffffffffffffffffffffffffffffffffff021916908373ffffffffffffffffffffffffffffffffffffffff16021790555060008054906101000a900473ffffffffffffffffffffffffffffffffffffffff1673ffffffffffffffffffffffffffffffffffffffff166340894c9433856040518363ffffffff1660e01b81526004016200115592919062001ab7565b600060405180830381600087803b1580156200117057600080fd5b505af115801562001185573d6000803e3d6000fd5b505050507f2e2b3f61b70d2d131b2a807371103cc98d51adcaa5e9a8f9c32658ad8426e74e60008054906101000a900473ffffffffffffffffffffffffffffffffffffffff16604051620011da919062001a5d565b60405180910390a160008054906101000a900473ffffffffffffffffffffffffffffffffffffffff169050949350505050565b600360009054906101000a900473ffffffffffffffffffffffffffffffffffffffff1673ffffffffffffffffffffffffffffffffffffffff166340894c9433836040518363ffffffff1660e01b81526004016200126c92919062001ab7565b600060405180830381600087803b1580156200128757600080fd5b505af11580156200129c573d6000803e3d6000fd5b5050505050565b828054600181600116156101000203166002900490600052602060002090601f016020900481019282601f10620012de57805485556200131e565b828001600101855582156200131e57600052602060002091601f016020900482015b828111156200131d57825482559160010191906001019062001300565b5b5090506200132d9190620013f6565b5090565b604051806040016040528060608152602001600073ffffffffffffffffffffffffffffffffffffffff1681525090565b828054600181600116156101000203166002900490600052602060002090601f016020900481019282601f10620013a457805160ff1916838001178555620013d5565b82800160010185558215620013d5579182015b82811115620013d4578251825591602001919060010190620013b7565b5b509050620013e49190620013f6565b5090565b6117518062001f4383390190565b5b8082111562001411576000816000905550600101620013f7565b5090565b600081359050620014268162001ef4565b92915050565b600082601f8301126200143e57600080fd5b8135620014556200144f8262001d18565b62001cea565b9150818183526020840193506020810190508360005b838110156200149f5781358601620014848882620014c0565b8452602084019350602083019250506001810190506200146b565b5050505092915050565b600081519050620014ba8162001f0e565b92915050565b600082601f830112620014d257600080fd5b8135620014e9620014e38262001d41565b62001cea565b915080825260208301602083018583830111156200150657600080fd5b6200151383828462001e9e565b50505092915050565b600082601f8301126200152e57600080fd5b8151620015456200153f8262001d41565b62001cea565b915080825260208301602083018583830111156200156257600080fd5b6200156f83828462001ead565b50505092915050565b600081359050620015898162001f28565b92915050565b600081519050620015a08162001f28565b92915050565b600060208284031215620015b957600080fd5b6000620015c98482850162001415565b91505092915050565b60008060408385031215620015e657600080fd5b6000620015f68582860162001415565b9250506020620016098582860162001578565b9150509250929050565b6000602082840312156200162657600080fd5b60006200163684828501620014a9565b91505092915050565b6000602082840312156200165257600080fd5b600082015167ffffffffffffffff8111156200166d57600080fd5b6200167b848285016200151c565b91505092915050565b60008060008060008060008060006101208a8c031215620016a457600080fd5b60008a013567ffffffffffffffff811115620016bf57600080fd5b620016cd8c828d01620014c0565b9950506020620016e08c828d0162001578565b9850506040620016f38c828d0162001578565b97505060608a013567ffffffffffffffff8111156200171157600080fd5b6200171f8c828d01620014c0565b96505060808a013567ffffffffffffffff8111156200173d57600080fd5b6200174b8c828d016200142c565b95505060a06200175e8c828d0162001578565b94505060c0620017718c828d0162001578565b93505060e0620017848c828d0162001578565b9250506101008a013567ffffffffffffffff811115620017a357600080fd5b620017b18c828d01620014c0565b9150509295985092959850929598565b600060208284031215620017d457600080fd5b6000620017e48482850162001578565b91505092915050565b6000602082840312156200180057600080fd5b600062001810848285016200158f565b91505092915050565b6000806000606084860312156200182f57600080fd5b60006200183f8682870162001578565b9350506020620018528682870162001415565b9250506040620018658682870162001578565b9150509250925092565b60006200187d838362001939565b905092915050565b620018908162001e3a565b82525050565b620018a18162001df0565b82525050565b6000620018b48262001d7e565b620018c0818562001da1565b935083602082028501620018d48562001d6e565b8060005b85811015620019165784840389528151620018f485826200186f565b9450620019018362001d94565b925060208a01995050600181019050620018d8565b50829750879550505050505092915050565b620019338162001e4e565b82525050565b6000620019468262001d89565b62001952818562001db2565b93506200196481856020860162001ead565b6200196f8162001ee3565b840191505092915050565b6000620019878262001d89565b62001993818562001dc3565b9350620019a581856020860162001ead565b620019b08162001ee3565b840191505092915050565b6000620019c88262001d89565b620019d4818562001dd4565b9350620019e681856020860162001ead565b620019f18162001ee3565b840191505092915050565b600062001a098262001d89565b62001a15818562001de5565b935062001a2781856020860162001ead565b80840191505092915050565b62001a3e8162001e30565b82525050565b600062001a528284620019fc565b915081905092915050565b600060208201905062001a74600083018462001896565b92915050565b600060608201905062001a91600083018662001885565b62001aa0602083018562001896565b62001aaf604083018462001a33565b949350505050565b600060408201905062001ace600083018562001885565b62001add602083018462001a33565b9392505050565b600060608201905062001afb600083018662001896565b62001b0a602083018562001885565b62001b19604083018462001a33565b949350505050565b6000602082019050818103600083015262001b3d8184620018a7565b905092915050565b600060208201905062001b5c600083018462001928565b92915050565b6000602082019050818103600083015262001b7e8184620019bb565b905092915050565b6000602082019050818103600083015262001ba281846200197a565b905092915050565b6000604082019050818103600083015262001bc681856200197a565b905062001bd7602083018462001896565b9392505050565b6000604082019050818103600083015262001bfa81856200197a565b9050818103602083015262001c1081846200197a565b90509392505050565b600060208201905062001c30600083018462001a33565b92915050565b60006101208201905062001c4e600083018c62001a33565b62001c5d602083018b62001885565b62001c6c604083018a62001a33565b818103606083015262001c8081896200197a565b9050818103608083015262001c968188620018a7565b905062001ca760a083018762001a33565b62001cb660c083018662001a33565b62001cc560e083018562001a33565b81810361010083015262001cda81846200197a565b90509a9950505050505050505050565b6000604051905081810181811067ffffffffffffffff8211171562001d0e57600080fd5b8060405250919050565b600067ffffffffffffffff82111562001d3057600080fd5b602082029050602081019050919050565b600067ffffffffffffffff82111562001d5957600080fd5b601f19601f8301169050602081019050919050565b6000819050602082019050919050565b600081519050919050565b600081519050919050565b6000602082019050919050565b600082825260208201905092915050565b600082825260208201905092915050565b600082825260208201905092915050565b600082825260208201905092915050565b600081905092915050565b600062001dfd8262001e10565b9050919050565b60008115159050919050565b600073ffffffffffffffffffffffffffffffffffffffff82169050919050565b6000819050919050565b600062001e478262001e76565b9050919050565b600062001e5b8262001e62565b9050919050565b600062001e6f8262001e10565b9050919050565b600062001e838262001e8a565b9050919050565b600062001e978262001e10565b9050919050565b82818337600083830152505050565b60005b8381101562001ecd57808201518184015260208101905062001eb0565b8381111562001edd576000848401525b50505050565b6000601f19601f8301169050919050565b62001eff8162001df0565b811462001f0b57600080fd5b50565b62001f198162001e04565b811462001f2557600080fd5b50565b62001f338162001e30565b811462001f3f57600080fd5b5056fe60806040523480156200001157600080fd5b506040516200175138038062001751833981810160405260408110156200003757600080fd5b81019080805160405193929190846401000000008211156200005857600080fd5b838201915060208201858111156200006f57600080fd5b82518660018202830111640100000000821117156200008d57600080fd5b8083526020830192505050908051906020019080838360005b83811015620000c3578082015181840152602081019050620000a6565b50505050905090810190601f168015620000f15780820380516001836020036101000a031916815260200191505b50604052602001805160405193929190846401000000008211156200011557600080fd5b838201915060208201858111156200012c57600080fd5b82518660018202830111640100000000821117156200014a57600080fd5b8083526020830192505050908051906020019080838360005b838110156200018057808201518184015260208101905062000163565b50505050905090810190601f168015620001ae5780820380516001836020036101000a031916815260200191505b506040525050508160039080519060200190620001cd9291906200020b565b508060049080519060200190620001e69291906200020b565b506012600560006101000a81548160ff021916908360ff1602179055505050620002b1565b828054600181600116156101000203166002900490600052602060002090601f016020900481019282601f106200024e57805160ff19168380011785556200027f565b828001600101855582156200027f579182015b828111156200027e57825182559160200191906001019062000261565b5b5090506200028e919062000292565b5090565b5b80821115620002ad57600081600090555060010162000293565b5090565b61149080620002c16000396000f3fe608060405234801561001057600080fd5b50600436106100f55760003560e01c80633eaaf86b1161009757806395d89b411161006657806395d89b411461049c578063a457c2d71461051f578063beabacc814610583578063dd62ed3e14610607576100f5565b80633eaaf86b1461038057806340894c941461039e5780636ebcf607146103ec57806370a0823114610444576100f5565b806318160ddd116100d357806318160ddd1461025957806323b872dd14610277578063313ce567146102fb578063395093511461031c576100f5565b8063024c2ddd146100fa57806306fdde0314610172578063095ea7b3146101f5575b600080fd5b61015c6004803603604081101561011057600080fd5b81019080803573ffffffffffffffffffffffffffffffffffffffff169060200190929190803573ffffffffffffffffffffffffffffffffffffffff16906020019092919050505061067f565b6040518082815260200191505060405180910390f35b61017a6106a4565b6040518080602001828103825283818151815260200191508051906020019080838360005b838110156101ba57808201518184015260208101905061019f565b50505050905090810190601f1680156101e75780820380516001836020036101000a031916815260200191505b509250505060405180910390f35b6102416004803603604081101561020b57600080fd5b81019080803573ffffffffffffffffffffffffffffffffffffffff16906020019092919080359060200190929190505050610746565b60405180821515815260200191505060405180910390f35b610261610764565b6040518082815260200191505060405180910390f35b6102e36004803603606081101561028d57600080fd5b81019080803573ffffffffffffffffffffffffffffffffffffffff169060200190929190803573ffffffffffffffffffffffffffffffffffffffff1690602001909291908035906020019092919050505061076e565b60405180821515815260200191505060405180910390f35b610303610847565b604051808260ff16815260200191505060405180910390f35b6103686004803603604081101561033257600080fd5b81019080803573ffffffffffffffffffffffffffffffffffffffff1690602001909291908035906020019092919050505061085e565b60405180821515815260200191505060405180910390f35b610388610911565b6040518082815260200191505060405180910390f35b6103ea600480360360408110156103b457600080fd5b81019080803573ffffffffffffffffffffffffffffffffffffffff16906020019092919080359060200190929190505050610917565b005b61042e6004803603602081101561040257600080fd5b81019080803573ffffffffffffffffffffffffffffffffffffffff169060200190929190505050610ade565b6040518082815260200191505060405180910390f35b6104866004803603602081101561045a57600080fd5b81019080803573ffffffffffffffffffffffffffffffffffffffff169060200190929190505050610af6565b6040518082815260200191505060405180910390f35b6104a4610b3e565b6040518080602001828103825283818151815260200191508051906020019080838360005b838110156104e45780820151818401526020810190506104c9565b50505050905090810190601f1680156105115780820380516001836020036101000a031916815260200191505b509250505060405180910390f35b61056b6004803603604081101561053557600080fd5b81019080803573ffffffffffffffffffffffffffffffffffffffff16906020019092919080359060200190929190505050610be0565b60405180821515815260200191505060405180910390f35b6105ef6004803603606081101561059957600080fd5b81019080803573ffffffffffffffffffffffffffffffffffffffff169060200190929190803573ffffffffffffffffffffffffffffffffffffffff16906020019092919080359060200190929190505050610cad565b60405180821515815260200191505060405180910390f35b6106696004803603604081101561061d57600080fd5b81019080803573ffffffffffffffffffffffffffffffffffffffff169060200190929190803573ffffffffffffffffffffffffffffffffffffffff169060200190929190505050610cc5565b6040518082815260200191505060405180910390f35b6001602052816000526040600020602052806000526040600020600091509150505481565b606060038054600181600116156101000203166002900480601f01602080910402602001604051908101604052809291908181526020018280546001816001161561010002031660029004801561073c5780601f106107115761010080835404028352916020019161073c565b820191906000526020600020905b81548152906001019060200180831161071f57829003601f168201915b5050505050905090565b600061075a610753610d4c565b8484610d54565b6001905092915050565b6000600254905090565b600061077b848484610f4b565b61083c84610787610d4c565b610837856040518060600160405280602881526020016113c560289139600160008b73ffffffffffffffffffffffffffffffffffffffff1673ffffffffffffffffffffffffffffffffffffffff16815260200190815260200160002060006107ed610d4c565b73ffffffffffffffffffffffffffffffffffffffff1673ffffffffffffffffffffffffffffffffffffffff1681526020019081526020016000205461120c9092919063ffffffff16565b610d54565b600190509392505050565b6000600560009054906101000a900460ff16905090565b600061090761086b610d4c565b84610902856001600061087c610d4c565b73ffffffffffffffffffffffffffffffffffffffff1673ffffffffffffffffffffffffffffffffffffffff16815260200190815260200160002060008973ffffffffffffffffffffffffffffffffffffffff1673ffffffffffffffffffffffffffffffffffffffff168152602001908152602001600020546112cc90919063ffffffff16565b610d54565b6001905092915050565b60025481565b600073ffffffffffffffffffffffffffffffffffffffff168273ffffffffffffffffffffffffffffffffffffffff1614156109ba576040517f08c379a000000000000000000000000000000000000000000000000000000000815260040180806020018281038252601f8152602001807f45524332303a206d696e7420746f20746865207a65726f20616464726573730081525060200191505060405180910390fd5b6109c660008383611354565b6109db816002546112cc90919063ffffffff16565b600281905550610a32816000808573ffffffffffffffffffffffffffffffffffffffff1673ffffffffffffffffffffffffffffffffffffffff168152602001908152602001600020546112cc90919063ffffffff16565b6000808473ffffffffffffffffffffffffffffffffffffffff1673ffffffffffffffffffffffffffffffffffffffff168152602001908152602001600020819055508173ffffffffffffffffffffffffffffffffffffffff16600073ffffffffffffffffffffffffffffffffffffffff167fddf252ad1be2c89b69c2b068fc378daa952ba7f163c4a11628f55a4df523b3ef836040518082815260200191505060405180910390a35050565b60006020528060005260406000206000915090505481565b60008060008373ffffffffffffffffffffffffffffffffffffffff1673ffffffffffffffffffffffffffffffffffffffff168152602001908152602001600020549050919050565b606060048054600181600116156101000203166002900480601f016020809104026020016040519081016040528092919081815260200182805460018160011615610100020316600290048015610bd65780601f10610bab57610100808354040283529160200191610bd6565b820191906000526020600020905b815481529060010190602001808311610bb957829003601f168201915b5050505050905090565b6000610ca3610bed610d4c565b84610c9e856040518060600160405280602581526020016114366025913960016000610c17610d4c565b73ffffffffffffffffffffffffffffffffffffffff1673ffffffffffffffffffffffffffffffffffffffff16815260200190815260200160002060008a73ffffffffffffffffffffffffffffffffffffffff1673ffffffffffffffffffffffffffffffffffffffff1681526020019081526020016000205461120c9092919063ffffffff16565b610d54565b6001905092915050565b6000610cba848484610f4b565b600190509392505050565b6000600160008473ffffffffffffffffffffffffffffffffffffffff1673ffffffffffffffffffffffffffffffffffffffff16815260200190815260200160002060008373ffffffffffffffffffffffffffffffffffffffff1673ffffffffffffffffffffffffffffffffffffffff16815260200190815260200160002054905092915050565b600033905090565b600073ffffffffffffffffffffffffffffffffffffffff168373ffffffffffffffffffffffffffffffffffffffff161415610dda576040517f08c379a00000000000000000000000000000000000000000000000000000000081526004018080602001828103825260248152602001806114126024913960400191505060405180910390fd5b600073ffffffffffffffffffffffffffffffffffffffff168273ffffffffffffffffffffffffffffffffffffffff161415610e60576040517f08c379a000000000000000000000000000000000000000000000000000000000815260040180806020018281038252602281526020018061137d6022913960400191505060405180910390fd5b80600160008573ffffffffffffffffffffffffffffffffffffffff1673ffffffffffffffffffffffffffffffffffffffff16815260200190815260200160002060008473ffffffffffffffffffffffffffffffffffffffff1673ffffffffffffffffffffffffffffffffffffffff168152602001908152602001600020819055508173ffffffffffffffffffffffffffffffffffffffff168373ffffffffffffffffffffffffffffffffffffffff167f8c5be1e5ebec7d5bd14f71427d1e84f3dd0314c0f7b2291e5b200ac8c7c3b925836040518082815260200191505060405180910390a3505050565b600073ffffffffffffffffffffffffffffffffffffffff168373ffffffffffffffffffffffffffffffffffffffff161415610fd1576040517f08c379a00000000000000000000000000000000000000000000000000000000081526004018080602001828103825260258152602001806113ed6025913960400191505060405180910390fd5b600073ffffffffffffffffffffffffffffffffffffffff168273ffffffffffffffffffffffffffffffffffffffff161415611057576040517f08c379a000000000000000000000000000000000000000000000000000000000815260040180806020018281038252602381526020018061135a6023913960400191505060405180910390fd5b611062838383611354565b6110cd8160405180606001604052806026815260200161139f602691396000808773ffffffffffffffffffffffffffffffffffffffff1673ffffffffffffffffffffffffffffffffffffffff1681526020019081526020016000205461120c9092919063ffffffff16565b6000808573ffffffffffffffffffffffffffffffffffffffff1673ffffffffffffffffffffffffffffffffffffffff16815260200190815260200160002081905550611160816000808573ffffffffffffffffffffffffffffffffffffffff1673ffffffffffffffffffffffffffffffffffffffff168152602001908152602001600020546112cc90919063ffffffff16565b6000808473ffffffffffffffffffffffffffffffffffffffff1673ffffffffffffffffffffffffffffffffffffffff168152602001908152602001600020819055508173ffffffffffffffffffffffffffffffffffffffff168373ffffffffffffffffffffffffffffffffffffffff167fddf252ad1be2c89b69c2b068fc378daa952ba7f163c4a11628f55a4df523b3ef836040518082815260200191505060405180910390a3505050565b60008383111582906112b9576040517f08c379a00000000000000000000000000000000000000000000000000000000081526004018080602001828103825283818151815260200191508051906020019080838360005b8381101561127e578082015181840152602081019050611263565b50505050905090810190601f1680156112ab5780820380516001836020036101000a031916815260200191505b509250505060405180910390fd5b5060008385039050809150509392505050565b60008082840190508381101561134a576040517f08c379a000000000000000000000000000000000000000000000000000000000815260040180806020018281038252601b8152602001807f536166654d6174683a206164646974696f6e206f766572666c6f77000000000081525060200191505060405180910390fd5b8091505092915050565b50505056fe45524332303a207472616e7366657220746f20746865207a65726f206164647265737345524332303a20617070726f766520746f20746865207a65726f206164647265737345524332303a207472616e7366657220616d6f756e7420657863656564732062616c616e636545524332303a207472616e7366657220616d6f756e74206578636565647320616c6c6f77616e636545524332303a207472616e736665722066726f6d20746865207a65726f206164647265737345524332303a20617070726f76652066726f6d20746865207a65726f206164647265737345524332303a2064656372656173656420616c6c6f77616e63652062656c6f77207a65726fa26469706673582212208f082defab474b57e5192fb01e141400ff031fb46f992585eb4ee13eb3f589d464736f6c634300060c0033a2646970667358221220d1f0193ac0dc66649df5d22d5f068aac2e8d97fe70c81c2e4695fdfec99c387a64736f6c634300060c0033",
  "immutableReferences": {},
  "source": "// SPDX-License-Identifier: MIT\r\npragma solidity ^0.6.0;\r\npragma experimental ABIEncoderV2;\r\n\r\nimport \"./ERC20.sol\";\r\nimport \"./Strings.sol\";\r\nimport \"./IERC721.sol\";\r\nimport \"./IERC20.sol\";\r\ncontract Property {\r\n  ERC20 erc20property;\r\n  ERC20 erc20voucher;\r\n  IERC721 nft;\r\n  IERC20 erc;\r\n  \r\n  using Strings for string; \r\n  string[] properties;  //store all enlisted properties name\r\n  mapping(string => bool) _propertyExists;\r\n  mapping(address => string[]) OwnedProperties;\r\n  mapping(address => mapping(uint256 => ERC20)) public token_prop;\r\n  struct property_Details{\r\n      string name;\r\n      address deployed_Token;\r\n  }\r\n  property_Details[] public property_Array;\r\n\r\n  constructor(address deployed_erc721,address deployed_erc20)  public{\r\n      nft = IERC721(deployed_erc721);\r\n      erc = IERC20(deployed_erc20);\r\n  }\r\n  \r\n      event TokenCreated(address tokenAddress);\r\n  function mint(string memory _property,\r\n                                     uint256 origVal,\r\n                                     uint256 coins,\r\n                                     string memory property_images_hash,\r\n                                     string[] memory pro_add_details,\r\n                                     uint256 prop_tax,\r\n                                     uint256 prop_insurance,\r\n                                     uint256 prop_maintainence,\r\n                                     string memory features_prop) public {\r\n   _property = _property._toLower();                                         \r\n   require(!_propertyExists[_property]);\r\n   property_Details memory temp;\r\n   properties.push(_property);\r\n   nft._mint(origVal,msg.sender,coins,property_images_hash,pro_add_details,prop_tax,prop_insurance,prop_maintainence,features_prop);\r\n   _propertyExists[_property] = true;\r\n   OwnedProperties[msg.sender].push(_property);\r\n   temp.name = _property;\r\n   temp.deployed_Token = deployNewToken(\"prop1\", \"QST\",origVal,totalProperties());\r\n   \r\n   origVal = (85*origVal)/100;\r\n   deployNewVoucherToken(origVal);\r\n    \r\n   property_Array.push(temp);\r\n   delete temp;\r\n    \r\n  } \r\n  \r\n  function deployNewToken(string memory name, string memory symbol,uint256 no_of_token,uint property_id) internal returns (address) {\r\n       erc20property = new ERC20( name, symbol);\r\n       token_prop[msg.sender][property_id] = erc20property;\r\n       erc20property.issuetoken(msg.sender,no_of_token);\r\n       emit TokenCreated(address(erc20property));\r\n       return address(erc20property);\r\n       \r\n  }\r\n  function deployNewVoucherToken(uint256 no_of_token) internal {\r\n       erc.issuetoken(msg.sender,no_of_token);   \r\n  }\r\n  \r\n  function purchaseVocherTokens(uint256 amount_of_token) public payable{\r\n      require(msg.value>=amount_of_token*10);\r\n      erc.issuetoken(msg.sender,amount_of_token);\r\n  }\r\n  \r\n  \r\n  function purchasePropertyTokens(uint voucher_token_offered,address property_token_owner,uint property_id) public {\r\n      require(getVoucherBalance(msg.sender)>=voucher_token_offered);\r\n      ERC20 _erc20_property_token_instance = token_prop[property_token_owner][property_id];\r\n      require(voucher_token_offered <= _erc20_property_token_instance._balances(property_token_owner));\r\n      erc.transfer(msg.sender,property_token_owner,voucher_token_offered);\r\n      _erc20_property_token_instance.transfer(property_token_owner,msg.sender,voucher_token_offered);\r\n      OwnedProperties[msg.sender].push(properties[property_id-1]);\r\n       token_prop[msg.sender][property_id] = _erc20_property_token_instance;\r\n      \r\n  }\r\n  \r\n  function getVoucherBalance(address user) public view returns(uint256){\r\n      return erc.balanceOf(user);\r\n  }\r\n  \r\n  function getPropertyTokenBalance(address user) public view returns(uint256){\r\n      return erc20property._balances(user);\r\n  }\r\n   \r\n   \r\n  function getOwnerProperties(address owner) public view returns(string[] memory){\r\n       return OwnedProperties[owner];\r\n  }\r\n   \r\n   \r\n  function getProperties(uint _index) public view returns(string memory){\r\n   \r\n  return properties[_index];\r\n  \r\n  } \r\n\r\n  function totalProperties()public view returns(uint256){\r\n    \r\n    return properties.length;\r\n  }\r\n    \r\n\r\n}\r\n\r\n",
  "sourcePath": "C:/Users/Prerna/Desktop/QuestCrypt/Quest-Contracts/src/contracts/Property.sol",
  "compiler": {
    "name": "solc",
    "version": "0.6.12+commit.27d51765.Emscripten.clang"
  },
  "schemaVersion": "3.3.2",
  "updatedAt": "2020-12-01T08:59:11.897Z",
  "networkType": "ethereum",
  "devdoc": {
    "kind": "dev",
    "methods": {},
    "version": 1
  },
  "userdoc": {
    "kind": "user",
    "methods": {},
    "version": 1
  }
}