{
  "contractName": "Property",
  "abi": [
    {
      "inputs": [],
      "stateMutability": "nonpayable",
      "type": "constructor"
    },
    {
      "anonymous": false,
      "inputs": [
        {
          "indexed": true,
          "internalType": "address",
          "name": "owner",
          "type": "address"
        },
        {
          "indexed": true,
          "internalType": "address",
          "name": "approved",
          "type": "address"
        },
        {
          "indexed": true,
          "internalType": "uint256",
          "name": "tokenId",
          "type": "uint256"
        }
      ],
      "name": "Approval",
      "type": "event"
    },
    {
      "anonymous": false,
      "inputs": [
        {
          "indexed": true,
          "internalType": "address",
          "name": "owner",
          "type": "address"
        },
        {
          "indexed": true,
          "internalType": "address",
          "name": "operator",
          "type": "address"
        },
        {
          "indexed": false,
          "internalType": "bool",
          "name": "approved",
          "type": "bool"
        }
      ],
      "name": "ApprovalForAll",
      "type": "event"
    },
    {
      "anonymous": false,
      "inputs": [
        {
          "indexed": false,
          "internalType": "address",
          "name": "tokenAddress",
          "type": "address"
        }
      ],
      "name": "TokenCreated",
      "type": "event"
    },
    {
      "anonymous": false,
      "inputs": [
        {
          "indexed": true,
          "internalType": "address",
          "name": "from",
          "type": "address"
        },
        {
          "indexed": true,
          "internalType": "address",
          "name": "to",
          "type": "address"
        },
        {
          "indexed": true,
          "internalType": "uint256",
          "name": "tokenId",
          "type": "uint256"
        }
      ],
      "name": "Transfer",
      "type": "event"
    },
    {
      "inputs": [
        {
          "internalType": "uint256",
          "name": "",
          "type": "uint256"
        }
      ],
      "name": "EligibleEmp",
      "outputs": [
        {
          "internalType": "address",
          "name": "",
          "type": "address"
        }
      ],
      "stateMutability": "view",
      "type": "function"
    },
    {
      "inputs": [
        {
          "internalType": "uint256",
          "name": "",
          "type": "uint256"
        }
      ],
      "name": "_propertyValue",
      "outputs": [
        {
          "internalType": "uint256",
          "name": "OrginalValue",
          "type": "uint256"
        },
        {
          "internalType": "uint256",
          "name": "CurrentValue",
          "type": "uint256"
        },
        {
          "internalType": "uint256",
          "name": "OriginalIssuanceRate",
          "type": "uint256"
        }
      ],
      "stateMutability": "view",
      "type": "function"
    },
    {
      "inputs": [
        {
          "internalType": "address",
          "name": "to",
          "type": "address"
        },
        {
          "internalType": "uint256",
          "name": "tokenId",
          "type": "uint256"
        }
      ],
      "name": "approve",
      "outputs": [],
      "stateMutability": "nonpayable",
      "type": "function"
    },
    {
      "inputs": [
        {
          "internalType": "address",
          "name": "owner",
          "type": "address"
        }
      ],
      "name": "balanceOf",
      "outputs": [
        {
          "internalType": "uint256",
          "name": "",
          "type": "uint256"
        }
      ],
      "stateMutability": "view",
      "type": "function"
    },
    {
      "inputs": [],
      "name": "baseURI",
      "outputs": [
        {
          "internalType": "string",
          "name": "",
          "type": "string"
        }
      ],
      "stateMutability": "view",
      "type": "function"
    },
    {
      "inputs": [],
      "name": "contractOwner",
      "outputs": [
        {
          "internalType": "address",
          "name": "",
          "type": "address"
        }
      ],
      "stateMutability": "view",
      "type": "function"
    },
    {
      "inputs": [
        {
          "internalType": "uint256",
          "name": "tokenId",
          "type": "uint256"
        }
      ],
      "name": "getApproved",
      "outputs": [
        {
          "internalType": "address",
          "name": "",
          "type": "address"
        }
      ],
      "stateMutability": "view",
      "type": "function"
    },
    {
      "inputs": [
        {
          "internalType": "address",
          "name": "owner",
          "type": "address"
        },
        {
          "internalType": "address",
          "name": "operator",
          "type": "address"
        }
      ],
      "name": "isApprovedForAll",
      "outputs": [
        {
          "internalType": "bool",
          "name": "",
          "type": "bool"
        }
      ],
      "stateMutability": "view",
      "type": "function"
    },
    {
      "inputs": [],
      "name": "name",
      "outputs": [
        {
          "internalType": "string",
          "name": "",
          "type": "string"
        }
      ],
      "stateMutability": "view",
      "type": "function"
    },
    {
      "inputs": [
        {
          "internalType": "uint256",
          "name": "tokenId",
          "type": "uint256"
        }
      ],
      "name": "ownerOf",
      "outputs": [
        {
          "internalType": "address",
          "name": "",
          "type": "address"
        }
      ],
      "stateMutability": "view",
      "type": "function"
    },
    {
      "inputs": [
        {
          "internalType": "uint256",
          "name": "",
          "type": "uint256"
        }
      ],
      "name": "prop",
      "outputs": [
        {
          "internalType": "uint256",
          "name": "Orig_Value",
          "type": "uint256"
        },
        {
          "internalType": "uint256",
          "name": "Curr_Value",
          "type": "uint256"
        },
        {
          "internalType": "uint256",
          "name": "next_reevaluation_date",
          "type": "uint256"
        },
        {
          "components": [
            {
              "internalType": "uint256",
              "name": "coin_issue",
              "type": "uint256"
            },
            {
              "internalType": "uint256",
              "name": "org_val",
              "type": "uint256"
            },
            {
              "internalType": "uint256",
              "name": "equity_at_issuance",
              "type": "uint256"
            },
            {
              "internalType": "uint256",
              "name": "curr_val",
              "type": "uint256"
            },
            {
              "internalType": "uint256",
              "name": "tot_curr_val",
              "type": "uint256"
            },
            {
              "internalType": "uint256",
              "name": "increase",
              "type": "uint256"
            }
          ],
          "internalType": "struct ERC721.Property_coins_generated_till_now",
          "name": "total_coins_issue",
          "type": "tuple"
        },
        {
          "internalType": "string",
          "name": "Property_images_hash",
          "type": "string"
        },
        {
          "internalType": "uint256",
          "name": "taxes",
          "type": "uint256"
        },
        {
          "internalType": "uint256",
          "name": "insurance",
          "type": "uint256"
        },
        {
          "internalType": "uint256",
          "name": "maintainence",
          "type": "uint256"
        },
        {
          "internalType": "uint256",
          "name": "total",
          "type": "uint256"
        },
        {
          "internalType": "uint256",
          "name": "monthly_hoa_payment",
          "type": "uint256"
        },
        {
          "internalType": "string",
          "name": "property_features",
          "type": "string"
        }
      ],
      "stateMutability": "view",
      "type": "function"
    },
    {
      "inputs": [
        {
          "internalType": "uint256",
          "name": "",
          "type": "uint256"
        }
      ],
      "name": "properties",
      "outputs": [
        {
          "internalType": "string",
          "name": "",
          "type": "string"
        }
      ],
      "stateMutability": "view",
      "type": "function"
    },
    {
      "inputs": [
        {
          "internalType": "uint256",
          "name": "",
          "type": "uint256"
        }
      ],
      "name": "property_Array",
      "outputs": [
        {
          "internalType": "string",
          "name": "name",
          "type": "string"
        },
        {
          "internalType": "address",
          "name": "deployed_Token",
          "type": "address"
        }
      ],
      "stateMutability": "view",
      "type": "function"
    },
    {
      "inputs": [],
      "name": "proptest",
      "outputs": [
        {
          "internalType": "address",
          "name": "",
          "type": "address"
        }
      ],
      "stateMutability": "view",
      "type": "function"
    },
    {
      "inputs": [
        {
          "internalType": "address",
          "name": "from",
          "type": "address"
        },
        {
          "internalType": "address",
          "name": "to",
          "type": "address"
        },
        {
          "internalType": "uint256",
          "name": "tokenId",
          "type": "uint256"
        }
      ],
      "name": "safeTransferFrom",
      "outputs": [],
      "stateMutability": "nonpayable",
      "type": "function"
    },
    {
      "inputs": [
        {
          "internalType": "address",
          "name": "from",
          "type": "address"
        },
        {
          "internalType": "address",
          "name": "to",
          "type": "address"
        },
        {
          "internalType": "uint256",
          "name": "tokenId",
          "type": "uint256"
        },
        {
          "internalType": "bytes",
          "name": "_data",
          "type": "bytes"
        }
      ],
      "name": "safeTransferFrom",
      "outputs": [],
      "stateMutability": "nonpayable",
      "type": "function"
    },
    {
      "inputs": [
        {
          "internalType": "address",
          "name": "operator",
          "type": "address"
        },
        {
          "internalType": "bool",
          "name": "approved",
          "type": "bool"
        }
      ],
      "name": "setApprovalForAll",
      "outputs": [],
      "stateMutability": "nonpayable",
      "type": "function"
    },
    {
      "inputs": [
        {
          "internalType": "bytes4",
          "name": "interfaceId",
          "type": "bytes4"
        }
      ],
      "name": "supportsInterface",
      "outputs": [
        {
          "internalType": "bool",
          "name": "",
          "type": "bool"
        }
      ],
      "stateMutability": "view",
      "type": "function"
    },
    {
      "inputs": [],
      "name": "symbol",
      "outputs": [
        {
          "internalType": "string",
          "name": "",
          "type": "string"
        }
      ],
      "stateMutability": "view",
      "type": "function"
    },
    {
      "inputs": [
        {
          "internalType": "uint256",
          "name": "index",
          "type": "uint256"
        }
      ],
      "name": "tokenByIndex",
      "outputs": [
        {
          "internalType": "uint256",
          "name": "",
          "type": "uint256"
        }
      ],
      "stateMutability": "view",
      "type": "function"
    },
    {
      "inputs": [
        {
          "internalType": "address",
          "name": "owner",
          "type": "address"
        },
        {
          "internalType": "uint256",
          "name": "index",
          "type": "uint256"
        }
      ],
      "name": "tokenOfOwnerByIndex",
      "outputs": [
        {
          "internalType": "uint256",
          "name": "",
          "type": "uint256"
        }
      ],
      "stateMutability": "view",
      "type": "function"
    },
    {
      "inputs": [
        {
          "internalType": "uint256",
          "name": "tokenId",
          "type": "uint256"
        }
      ],
      "name": "tokenURI",
      "outputs": [
        {
          "internalType": "string",
          "name": "",
          "type": "string"
        }
      ],
      "stateMutability": "view",
      "type": "function"
    },
    {
      "inputs": [],
      "name": "tot_no_of_prop_onplatform",
      "outputs": [
        {
          "internalType": "uint256",
          "name": "",
          "type": "uint256"
        }
      ],
      "stateMutability": "view",
      "type": "function"
    },
    {
      "inputs": [],
      "name": "totalSupply",
      "outputs": [
        {
          "internalType": "uint256",
          "name": "",
          "type": "uint256"
        }
      ],
      "stateMutability": "view",
      "type": "function"
    },
    {
      "inputs": [
        {
          "internalType": "address",
          "name": "from",
          "type": "address"
        },
        {
          "internalType": "address",
          "name": "to",
          "type": "address"
        },
        {
          "internalType": "uint256",
          "name": "tokenId",
          "type": "uint256"
        }
      ],
      "name": "transferFrom",
      "outputs": [],
      "stateMutability": "nonpayable",
      "type": "function"
    },
    {
      "inputs": [
        {
          "internalType": "string",
          "name": "_property",
          "type": "string"
        },
        {
          "internalType": "uint256",
          "name": "origVal",
          "type": "uint256"
        },
        {
          "internalType": "uint256",
          "name": "coins",
          "type": "uint256"
        },
        {
          "internalType": "string",
          "name": "property_images_hash",
          "type": "string"
        },
        {
          "internalType": "string[]",
          "name": "pro_add_details",
          "type": "string[]"
        },
        {
          "internalType": "uint256",
          "name": "prop_tax",
          "type": "uint256"
        },
        {
          "internalType": "uint256",
          "name": "prop_insurance",
          "type": "uint256"
        },
        {
          "internalType": "uint256",
          "name": "prop_maintainence",
          "type": "uint256"
        },
        {
          "internalType": "string",
          "name": "features_prop",
          "type": "string"
        }
      ],
      "name": "mint",
      "outputs": [],
      "stateMutability": "nonpayable",
      "type": "function"
    },
    {
      "inputs": [
        {
          "internalType": "string",
          "name": "name",
          "type": "string"
        },
        {
          "internalType": "string",
          "name": "symbol",
          "type": "string"
        },
        {
          "internalType": "uint256",
          "name": "no_of_token",
          "type": "uint256"
        }
      ],
      "name": "deployNewToken",
      "outputs": [
        {
          "internalType": "address",
          "name": "",
          "type": "address"
        }
      ],
      "stateMutability": "nonpayable",
      "type": "function"
    },
    {
      "inputs": [
        {
          "internalType": "uint256",
          "name": "_index",
          "type": "uint256"
        }
      ],
      "name": "getProperties",
      "outputs": [
        {
          "internalType": "string",
          "name": "",
          "type": "string"
        }
      ],
      "stateMutability": "view",
      "type": "function"
    },
    {
      "inputs": [],
      "name": "totalProperties",
      "outputs": [
        {
          "internalType": "uint256",
          "name": "",
          "type": "uint256"
        }
      ],
      "stateMutability": "view",
      "type": "function"
    }
  ],
  "bytecode": "0x6080604052600180556000600d553480156200001a57600080fd5b506040518060400160405280600881526020017f50726f70657274790000000000000000000000000000000000000000000000008152506040518060400160405280600781526020017f5153545f544b4e000000000000000000000000000000000000000000000000008152506200009f6301ffc9a760e01b6200012160201b60201c565b8160079080519060200190620000b7929190620001f9565b508060089080519060200190620000d0929190620001f9565b50620000e96380ac58cd60e01b6200012160201b60201c565b62000101635b5e139f60e01b6200012160201b60201c565b6200011963780e9d6360e01b6200012160201b60201c565b505062000314565b63ffffffff60e01b817bffffffffffffffffffffffffffffffffffffffffffffffffffffffff191614156200018d576040517f08c379a00000000000000000000000000000000000000000000000000000000081526004016200018490620002e1565b60405180910390fd5b6001600080837bffffffffffffffffffffffffffffffffffffffffffffffffffffffff19167bffffffffffffffffffffffffffffffffffffffffffffffffffffffff1916815260200190815260200160002060006101000a81548160ff02191690831515021790555050565b828054600181600116156101000203166002900490600052602060002090601f016020900481019282601f106200023c57805160ff19168380011785556200026d565b828001600101855582156200026d579182015b828111156200026c5782518255916020019190600101906200024f565b5b5090506200027c919062000280565b5090565b5b808211156200029b57600081600090555060010162000281565b5090565b6000620002ae601c8362000303565b91507f4552433136353a20696e76616c696420696e74657266616365206964000000006000830152602082019050919050565b60006020820190508181036000830152620002fc816200029f565b9050919050565b600082825260208201905092915050565b615de980620003246000396000f3fe60806040523480156200001157600080fd5b5060043610620001fc5760003560e01c80636c0360eb116200011d578063b8b9ebeb11620000b1578063e985e9c5116200007b578063e985e9c5146200062d578063eb6eba9c1462000663578063f5cc7713146200069a578063f7b1080814620006d257620001fc565b8063b8b9ebeb1462000569578063c87b56dd146200059f578063ce606ee014620005d5578063e06e068814620005f757620001fc565b80637d2f167911620000f35780637d2f167914620004e757806395d89b411462000507578063a22cb4651462000529578063b88d4fde146200054957620001fc565b80636c0360eb146200046d57806370a08231146200048f578063750510b214620004c557620001fc565b80631b8ca21711620001955780632f745c59116200016b5780632f745c5914620003ab57806342842e0e14620003e15780634f6ccce714620004015780636352211e146200043757620001fc565b80631b8ca217146200033357806323b872dd14620003695780632e9edf35146200038957620001fc565b8063095ea7b311620001d7578063095ea7b3146200028f5780630b3bce2014620002af57806318160ddd14620002d1578063190be8b114620002f357620001fc565b806301ffc9a7146200020157806306fdde031462000237578063081812fc1462000259575b600080fd5b6200021f600480360381019062000219919062003231565b62000708565b6040516200022e919062003e4e565b60405180910390f35b620002416200076f565b60405162000250919062003e6b565b60405180910390f35b6200027760048036038101906200027191906200344e565b62000815565b60405162000286919062003ddd565b60405180910390f35b620002ad6004803603810190620002a79190620031f0565b6200089f565b005b620002b9620009c8565b604051620002c8919062004182565b60405180910390f35b620002db620009d5565b604051620002ea919062004182565b60405180910390f35b6200031160048036038101906200030b91906200344e565b620009e8565b6040516200032a9b9a99989796959493929190620041dc565b60405180910390f35b6200035160048036038101906200034b91906200344e565b62000bc0565b60405162000360919062003e6b565b60405180910390f35b620003876004803603810190620003819190620030d4565b62000c7e565b005b6200039362000ce7565b604051620003a2919062004182565b60405180910390f35b620003c96004803603810190620003c39190620031f0565b62000ced565b604051620003d8919062004182565b60405180910390f35b620003ff6004803603810190620003f99190620030d4565b62000d4a565b005b6200041f60048036038101906200041991906200344e565b62000d6c565b6040516200042e919062004182565b60405180910390f35b6200045560048036038101906200044f91906200344e565b62000d91565b60405162000464919062003ddd565b60405180910390f35b6200047762000dcb565b60405162000486919062003e6b565b60405180910390f35b620004ad6004803603810190620004a7919062003067565b62000e71565b604051620004bc919062004182565b60405180910390f35b620004cf62000f35565b604051620004de919062003ddd565b60405180910390f35b620005056004803603810190620004ff919062003311565b62000f5b565b005b6200051162001202565b60405162000520919062003e6b565b60405180910390f35b620005476004803603810190620005419190620031af565b620012a8565b005b6200056760048036038101906200056191906200312a565b62001434565b005b62000587600480360381019062000581919062003289565b6200149f565b60405162000596919062003ddd565b60405180910390f35b620005bd6004803603810190620005b791906200344e565b6200158a565b604051620005cc919062003e6b565b60405180910390f35b620005df62001728565b604051620005ee919062003ddd565b60405180910390f35b6200061560048036038101906200060f91906200344e565b6200174e565b60405162000624919062003ddd565b60405180910390f35b6200064b600480360381019062000645919062003093565b6200178b565b6040516200065a919062003e4e565b60405180910390f35b6200068160048036038101906200067b91906200344e565b6200181f565b6040516200069192919062003e8f565b60405180910390f35b620006b86004803603810190620006b291906200344e565b6200190d565b604051620006c9939291906200419f565b60405180910390f35b620006f06004803603810190620006ea91906200344e565b62001937565b604051620006ff919062003e6b565b60405180910390f35b6000806000837bffffffffffffffffffffffffffffffffffffffffffffffffffffffff19167bffffffffffffffffffffffffffffffffffffffffffffffffffffffff1916815260200190815260200160002060009054906101000a900460ff169050919050565b606060078054600181600116156101000203166002900480601f0160208091040260200160405190810160405280929190818152602001828054600181600116156101000203166002900480156200080b5780601f10620007df576101008083540402835291602001916200080b565b820191906000526020600020905b815481529060010190602001808311620007ed57829003601f168201915b5050505050905090565b60006200082282620019f5565b62000864576040517f08c379a00000000000000000000000000000000000000000000000000000000081526004016200085b90620040b6565b60405180910390fd5b6005600083815260200190815260200160002060009054906101000a900473ffffffffffffffffffffffffffffffffffffffff169050919050565b6000620008ac8262000d91565b90508073ffffffffffffffffffffffffffffffffffffffff168373ffffffffffffffffffffffffffffffffffffffff16141562000920576040517f08c379a000000000000000000000000000000000000000000000000000000000815260040162000917906200411c565b60405180910390fd5b8073ffffffffffffffffffffffffffffffffffffffff166200094162001a14565b73ffffffffffffffffffffffffffffffffffffffff16148062000975575062000974816200096e62001a14565b6200178b565b5b620009b7576040517f08c379a0000000000000000000000000000000000000000000000000000000008152600401620009ae906200402e565b60405180910390fd5b620009c3838362001a1c565b505050565b6000601180549050905090565b6000620009e3600362001ad7565b905090565b600e602052806000526040600020600091509050806000015490806001015490806002015490806004016040518060c001604052908160008201548152602001600182015481526020016002820154815260200160038201548152602001600482015481526020016005820154815250509080600a018054600181600116156101000203166002900480601f01602080910402602001604051908101604052809291908181526020018280546001816001161561010002031660029004801562000af65780601f1062000aca5761010080835404028352916020019162000af6565b820191906000526020600020905b81548152906001019060200180831162000ad857829003601f168201915b50505050509080600c01549080600d01549080600e01549080600f015490806010015490806011018054600181600116156101000203166002900480601f01602080910402602001604051908101604052809291908181526020018280546001816001161561010002031660029004801562000bb65780601f1062000b8a5761010080835404028352916020019162000bb6565b820191906000526020600020905b81548152906001019060200180831162000b9857829003601f168201915b505050505090508b565b60606011828154811062000bd057fe5b906000526020600020018054600181600116156101000203166002900480601f01602080910402602001604051908101604052809291908181526020018280546001816001161561010002031660029004801562000c725780601f1062000c465761010080835404028352916020019162000c72565b820191906000526020600020905b81548152906001019060200180831162000c5457829003601f168201915b50505050509050919050565b62000c9362000c8c62001a14565b8262001aee565b62000cd5576040517f08c379a000000000000000000000000000000000000000000000000000000000815260040162000ccc906200413e565b60405180910390fd5b62000ce283838362001bd9565b505050565b600d5481565b600062000d4282600260008673ffffffffffffffffffffffffffffffffffffffff1673ffffffffffffffffffffffffffffffffffffffff16815260200190815260200160002062001e0290919063ffffffff16565b905092915050565b62000d678383836040518060200160405280600081525062001434565b505050565b60008062000d8583600362001e1e90919063ffffffff16565b50905080915050919050565b600062000dc48260405180606001604052806029815260200162005d8b60299139600362001e4c9092919063ffffffff16565b9050919050565b606060108054600181600116156101000203166002900480601f01602080910402602001604051908101604052809291908181526020018280546001816001161561010002031660029004801562000e675780601f1062000e3b5761010080835404028352916020019162000e67565b820191906000526020600020905b81548152906001019060200180831162000e4957829003601f168201915b5050505050905090565b60008073ffffffffffffffffffffffffffffffffffffffff168273ffffffffffffffffffffffffffffffffffffffff16141562000ee5576040517f08c379a000000000000000000000000000000000000000000000000000000000815260040162000edc9062004050565b60405180910390fd5b62000f2e600260008473ffffffffffffffffffffffffffffffffffffffff1673ffffffffffffffffffffffffffffffffffffffff16815260200190815260200160002062001e6d565b9050919050565b601260009054906101000a900473ffffffffffffffffffffffffffffffffffffffff1681565b60138960405162000f6d919062003d9c565b908152602001604051809103902060009054906101000a900460ff161562000f9457600080fd5b62000f9e62002cca565b60118a90806001815401808255809150506001900390600052602060002001600090919091909150908051906020019062000fdb92919062002cfa565b5062000fee898989898989898962001e84565b600160138b60405162001002919062003d9c565b908152602001604051809103902060006101000a81548160ff021916908315150217905550898160000181905250620010a76040518060400160405280600581526020017f70726f70310000000000000000000000000000000000000000000000000000008152506040518060400160405280600381526020017f51535400000000000000000000000000000000000000000000000000000000008152508b6200149f565b816020019073ffffffffffffffffffffffffffffffffffffffff16908173ffffffffffffffffffffffffffffffffffffffff1681525050620011556040518060400160405280600781526020017f564f5543484552000000000000000000000000000000000000000000000000008152506040518060400160405280600381526020017f2a562a00000000000000000000000000000000000000000000000000000000008152508b6200149f565b5060148190806001815401808255809150506001900390600052602060002090600202016000909190919091506000820151816000019080519060200190620011a092919062002cfa565b5060208201518160010160006101000a81548173ffffffffffffffffffffffffffffffffffffffff021916908373ffffffffffffffffffffffffffffffffffffffff1602179055505050620011f462002cca565b905050505050505050505050565b606060088054600181600116156101000203166002900480601f0160208091040260200160405190810160405280929190818152602001828054600181600116156101000203166002900480156200129e5780601f1062001272576101008083540402835291602001916200129e565b820191906000526020600020905b8154815290600101906020018083116200128057829003601f168201915b5050505050905090565b620012b262001a14565b73ffffffffffffffffffffffffffffffffffffffff168273ffffffffffffffffffffffffffffffffffffffff16141562001323576040517f08c379a00000000000000000000000000000000000000000000000000000000081526004016200131a9062003fc8565b60405180910390fd5b80600660006200133262001a14565b73ffffffffffffffffffffffffffffffffffffffff1673ffffffffffffffffffffffffffffffffffffffff16815260200190815260200160002060008473ffffffffffffffffffffffffffffffffffffffff1673ffffffffffffffffffffffffffffffffffffffff16815260200190815260200160002060006101000a81548160ff0219169083151502179055508173ffffffffffffffffffffffffffffffffffffffff16620013e162001a14565b73ffffffffffffffffffffffffffffffffffffffff167f17307eab39ab6107e8899845ad3d59bd9653f200f220920489ca2b5937696c318360405162001428919062003e4e565b60405180910390a35050565b620014496200144262001a14565b8362001aee565b6200148b576040517f08c379a000000000000000000000000000000000000000000000000000000000815260040162001482906200413e565b60405180910390fd5b6200149984848484620022ca565b50505050565b60008084843385604051620014b49062002d81565b620014c3949392919062003ec3565b604051809103906000f080158015620014e0573d6000803e3d6000fd5b50905080601260006101000a81548173ffffffffffffffffffffffffffffffffffffffff021916908373ffffffffffffffffffffffffffffffffffffffff1602179055507f2e2b3f61b70d2d131b2a807371103cc98d51adcaa5e9a8f9c32658ad8426e74e8160405162001555919062003ddd565b60405180910390a1601260009054906101000a900473ffffffffffffffffffffffffffffffffffffffff169150509392505050565b60606200159782620019f5565b620015d9576040517f08c379a0000000000000000000000000000000000000000000000000000000008152600401620015d090620040fa565b60405180910390fd5b6060600960008481526020019081526020016000208054600181600116156101000203166002900480601f016020809104026020016040519081016040528092919081815260200182805460018160011615610100020316600290048015620016865780601f106200165a5761010080835404028352916020019162001686565b820191906000526020600020905b8154815290600101906020018083116200166857829003601f168201915b50505050509050600060108054600181600116156101000203166002900490501415620016b7578091505062001723565b600081511115620016f057601081604051602001620016d892919062003db5565b60405160208183030381529060405291505062001723565b6010620016fd846200232d565b6040516020016200171092919062003db5565b6040516020818303038152906040529150505b919050565b600b60009054906101000a900473ffffffffffffffffffffffffffffffffffffffff1681565b600a81815481106200175c57fe5b906000526020600020016000915054906101000a900473ffffffffffffffffffffffffffffffffffffffff1681565b6000600660008473ffffffffffffffffffffffffffffffffffffffff1673ffffffffffffffffffffffffffffffffffffffff16815260200190815260200160002060008373ffffffffffffffffffffffffffffffffffffffff1673ffffffffffffffffffffffffffffffffffffffff16815260200190815260200160002060009054906101000a900460ff16905092915050565b601481815481106200182d57fe5b9060005260206000209060020201600091509050806000018054600181600116156101000203166002900480601f016020809104026020016040519081016040528092919081815260200182805460018160011615610100020316600290048015620018dd5780601f10620018b157610100808354040283529160200191620018dd565b820191906000526020600020905b815481529060010190602001808311620018bf57829003601f168201915b5050505050908060010160009054906101000a900473ffffffffffffffffffffffffffffffffffffffff16905082565b600f6020528060005260406000206000915090508060000154908060010154908060020154905083565b601181815481106200194557fe5b906000526020600020016000915090508054600181600116156101000203166002900480601f016020809104026020016040519081016040528092919081815260200182805460018160011615610100020316600290048015620019ed5780601f10620019c157610100808354040283529160200191620019ed565b820191906000526020600020905b815481529060010190602001808311620019cf57829003601f168201915b505050505081565b600062001a0d8260036200248090919063ffffffff16565b9050919050565b600033905090565b816005600083815260200190815260200160002060006101000a81548173ffffffffffffffffffffffffffffffffffffffff021916908373ffffffffffffffffffffffffffffffffffffffff160217905550808273ffffffffffffffffffffffffffffffffffffffff1662001a918362000d91565b73ffffffffffffffffffffffffffffffffffffffff167f8c5be1e5ebec7d5bd14f71427d1e84f3dd0314c0f7b2291e5b200ac8c7c3b92560405160405180910390a45050565b600062001ae7826000016200249c565b9050919050565b600062001afb82620019f5565b62001b3d576040517f08c379a000000000000000000000000000000000000000000000000000000000815260040162001b34906200400c565b60405180910390fd5b600062001b4a8362000d91565b90508073ffffffffffffffffffffffffffffffffffffffff168473ffffffffffffffffffffffffffffffffffffffff16148062001bbc57508373ffffffffffffffffffffffffffffffffffffffff1662001ba48462000815565b73ffffffffffffffffffffffffffffffffffffffff16145b8062001bd0575062001bcf81856200178b565b5b91505092915050565b8273ffffffffffffffffffffffffffffffffffffffff1662001bfb8262000d91565b73ffffffffffffffffffffffffffffffffffffffff161462001c54576040517f08c379a000000000000000000000000000000000000000000000000000000000815260040162001c4b90620040d8565b60405180910390fd5b600073ffffffffffffffffffffffffffffffffffffffff168273ffffffffffffffffffffffffffffffffffffffff16141562001cc7576040517f08c379a000000000000000000000000000000000000000000000000000000000815260040162001cbe9062003fa6565b60405180910390fd5b62001cd4838383620024ad565b62001ce160008262001a1c565b62001d3481600260008673ffffffffffffffffffffffffffffffffffffffff1673ffffffffffffffffffffffffffffffffffffffff168152602001908152602001600020620024b290919063ffffffff16565b5062001d8881600260008573ffffffffffffffffffffffffffffffffffffffff1673ffffffffffffffffffffffffffffffffffffffff168152602001908152602001600020620024ce90919063ffffffff16565b5062001da181836003620024ea9092919063ffffffff16565b50808273ffffffffffffffffffffffffffffffffffffffff168473ffffffffffffffffffffffffffffffffffffffff167fddf252ad1be2c89b69c2b068fc378daa952ba7f163c4a11628f55a4df523b3ef60405160405180910390a4505050565b600062001e13836000018362002521565b60001c905092915050565b60008060008062001e33866000018662002592565b915091508160001c8160001c9350935050509250929050565b600062001e61846000018460001b8462002619565b60001c90509392505050565b600062001e7d82600001620026ae565b9050919050565b60006001549050600160008154809291906001019190505550600073ffffffffffffffffffffffffffffffffffffffff163373ffffffffffffffffffffffffffffffffffffffff16141562001f10576040517f08c379a000000000000000000000000000000000000000000000000000000000815260040162001f079062004094565b60405180910390fd5b62001f1b81620019f5565b1562001f5e576040517f08c379a000000000000000000000000000000000000000000000000000000000815260040162001f559062003f62565b60405180910390fd5b62001f6c60003383620024ad565b62001fbf81600260003373ffffffffffffffffffffffffffffffffffffffff1673ffffffffffffffffffffffffffffffffffffffff168152602001908152602001600020620024ce90919063ffffffff16565b5062001fd881336003620024ea9092919063ffffffff16565b5062001fe362002d8f565b8881600001818152505089816020018181525050600081604001818152505060018160600181815250508981608001818152505060008160a001818152505089600e60008481526020019081526020016000206000018190555089600e60008481526020019081526020016000206001018190555042600e60008481526020019081526020016000206002018190555087600e6000848152602001908152602001600020600a0190805190602001906200209f92919062002cfa565b5086600e6000848152602001908152602001600020600b019080519060200190620020cc92919062002dc5565b50600e6000838152602001908152602001600020600301819080600181540180825580915050600190039060005260206000209060060201600090919091909150600082015181600001556020820151816001015560408201518160020155606082015181600301556080820151816004015560a08201518160050155505080600e6000848152602001908152602001600020600401600082015181600001556020820151816001015560408201518160020155606082015181600301556080820151816004015560a0820151816005015590505085600e6000848152602001908152602001600020600c018190555084600e6000848152602001908152602001600020600d018190555083600e6000848152602001908152602001600020600e01819055506200221b846200220c8789620026bf90919063ffffffff16565b620026bf90919063ffffffff16565b600e6000848152602001908152602001600020600f018190555082600e600084815260200190815260200160002060110190805190602001906200226192919062002cfa565b50813373ffffffffffffffffffffffffffffffffffffffff16600073ffffffffffffffffffffffffffffffffffffffff167fddf252ad1be2c89b69c2b068fc378daa952ba7f163c4a11628f55a4df523b3ef60405160405180910390a450505050505050505050565b620022d784848462001bd9565b620022e58484848462002717565b62002327576040517f08c379a00000000000000000000000000000000000000000000000000000000081526004016200231e9062003f40565b60405180910390fd5b50505050565b6060600082141562002377576040518060400160405280600181526020017f300000000000000000000000000000000000000000000000000000000000000081525090506200247b565b600082905060005b60008214620023a4578080600101915050600a82816200239b57fe5b0491506200237f565b60608167ffffffffffffffff81118015620023be57600080fd5b506040519080825280601f01601f191660200182016040528015620023f25781602001600182028036833780820191505090505b50905060006001830390508593505b600084146200247357600a84816200241557fe5b0660300160f81b828280600190039350815181106200243057fe5b60200101907effffffffffffffffffffffffffffffffffffffffffffffffffffffffffffff1916908160001a905350600a84816200246a57fe5b04935062002401565b819450505050505b919050565b600062002494836000018360001b62002888565b905092915050565b600081600001805490509050919050565b505050565b6000620024c6836000018360001b620028ab565b905092915050565b6000620024e2836000018360001b62002998565b905092915050565b600062002518846000018460001b8473ffffffffffffffffffffffffffffffffffffffff1660001b62002a0c565b90509392505050565b6000818360000180549050116200256f576040517f08c379a0000000000000000000000000000000000000000000000000000000008152600401620025669062003f1e565b60405180910390fd5b8260000182815481106200257f57fe5b9060005260206000200154905092915050565b60008082846000018054905011620025e1576040517f08c379a0000000000000000000000000000000000000000000000000000000008152600401620025d89062004072565b60405180910390fd5b6000846000018481548110620025f357fe5b906000526020600020906002020190508060000154816001015492509250509250929050565b600080846001016000858152602001908152602001600020549050600081141583906200267e576040517f08c379a000000000000000000000000000000000000000000000000000000000815260040162002675919062003e6b565b60405180910390fd5b508460000160018203815481106200269257fe5b9060005260206000209060020201600101549150509392505050565b600081600001805490509050919050565b6000808284019050838110156200270d576040517f08c379a0000000000000000000000000000000000000000000000000000000008152600401620027049062003f84565b60405180910390fd5b8091505092915050565b60006200273a8473ffffffffffffffffffffffffffffffffffffffff1662002aeb565b62002749576001905062002880565b60606200281763150b7a0260e01b6200276162001a14565b88878760405160240162002779949392919062003dfa565b604051602081830303815290604052907bffffffffffffffffffffffffffffffffffffffffffffffffffffffff19166020820180517bffffffffffffffffffffffffffffffffffffffffffffffffffffffff838183161783525050505060405180606001604052806032815260200162005d59603291398773ffffffffffffffffffffffffffffffffffffffff1662002afe9092919063ffffffff16565b90506000818060200190518101906200283191906200325d565b905063150b7a0260e01b7bffffffffffffffffffffffffffffffffffffffffffffffffffffffff1916817bffffffffffffffffffffffffffffffffffffffffffffffffffffffff191614925050505b949350505050565b600080836001016000848152602001908152602001600020541415905092915050565b600080836001016000848152602001908152602001600020549050600081146200298c5760006001820390506000600186600001805490500390506000866000018281548110620028f857fe5b90600052602060002001549050808760000184815481106200291657fe5b90600052602060002001819055506001830187600101600083815260200190815260200160002081905550866000018054806200294f57fe5b6001900381819060005260206000200160009055905586600101600087815260200190815260200160002060009055600194505050505062002992565b60009150505b92915050565b6000620029a6838362002b18565b62002a0157826000018290806001815401808255809150506001900390600052602060002001600090919091909150558260000180549050836001016000848152602001908152602001600020819055506001905062002a06565b600090505b92915050565b600080846001016000858152602001908152602001600020549050600081141562002ab55784600001604051806040016040528086815260200185815250908060018154018082558091505060019003906000526020600020906002020160009091909190915060008201518160000155602082015181600101555050846000018054905085600101600086815260200190815260200160002081905550600191505062002ae4565b8285600001600183038154811062002ac957fe5b90600052602060002090600202016001018190555060009150505b9392505050565b600080823b905060008111915050919050565b606062002b0f848460008562002b3b565b90509392505050565b600080836001016000848152602001908152602001600020541415905092915050565b60608247101562002b83576040517f08c379a000000000000000000000000000000000000000000000000000000000815260040162002b7a9062003fea565b60405180910390fd5b62002b8e8562002aeb565b62002bd0576040517f08c379a000000000000000000000000000000000000000000000000000000000815260040162002bc79062004160565b60405180910390fd5b600060608673ffffffffffffffffffffffffffffffffffffffff16858760405162002bfc919062003d83565b60006040518083038185875af1925050503d806000811462002c3b576040519150601f19603f3d011682016040523d82523d6000602084013e62002c40565b606091505b509150915062002c5282828662002c5e565b92505050949350505050565b6060831562002c705782905062002cc3565b60008351111562002c845782518084602001fd5b816040517f08c379a000000000000000000000000000000000000000000000000000000000815260040162002cba919062003e6b565b60405180910390fd5b9392505050565b604051806040016040528060608152602001600073ffffffffffffffffffffffffffffffffffffffff1681525090565b828054600181600116156101000203166002900490600052602060002090601f016020900481019282601f1062002d3d57805160ff191683800117855562002d6e565b8280016001018555821562002d6e579182015b8281111562002d6d57825182559160200191906001019062002d50565b5b50905062002d7d919062002e2c565b5090565b611811806200454883390190565b6040518060c001604052806000815260200160008152602001600081526020016000815260200160008152602001600081525090565b82805482825590600052602060002090810192821562002e19579160200282015b8281111562002e1857825182908051906020019062002e0792919062002cfa565b509160200191906001019062002de6565b5b50905062002e28919062002e4b565b5090565b5b8082111562002e4757600081600090555060010162002e2d565b5090565b5b8082111562002e6f576000818162002e65919062002e73565b5060010162002e4c565b5090565b50805460018160011615610100020316600290046000825580601f1062002e9b575062002ebc565b601f01602090049060005260206000209081019062002ebb919062002e2c565b5b50565b60008135905062002ed081620044df565b92915050565b600082601f83011262002ee857600080fd5b813562002eff62002ef982620042dd565b620042af565b9150818183526020840193506020810190508360005b8381101562002f49578135860162002f2e888262002ff4565b84526020840193506020830192505060018101905062002f15565b5050505092915050565b60008135905062002f6481620044f9565b92915050565b60008135905062002f7b8162004513565b92915050565b60008151905062002f928162004513565b92915050565b600082601f83011262002faa57600080fd5b813562002fc162002fbb8262004306565b620042af565b9150808252602083016020830185838301111562002fde57600080fd5b62002feb83828462004489565b50505092915050565b600082601f8301126200300657600080fd5b81356200301d620030178262004333565b620042af565b915080825260208301602083018583830111156200303a57600080fd5b6200304783828462004489565b50505092915050565b60008135905062003061816200452d565b92915050565b6000602082840312156200307a57600080fd5b60006200308a8482850162002ebf565b91505092915050565b60008060408385031215620030a757600080fd5b6000620030b78582860162002ebf565b9250506020620030ca8582860162002ebf565b9150509250929050565b600080600060608486031215620030ea57600080fd5b6000620030fa8682870162002ebf565b93505060206200310d8682870162002ebf565b9250506040620031208682870162003050565b9150509250925092565b600080600080608085870312156200314157600080fd5b6000620031518782880162002ebf565b9450506020620031648782880162002ebf565b9350506040620031778782880162003050565b925050606085013567ffffffffffffffff8111156200319557600080fd5b620031a38782880162002f98565b91505092959194509250565b60008060408385031215620031c357600080fd5b6000620031d38582860162002ebf565b9250506020620031e68582860162002f53565b9150509250929050565b600080604083850312156200320457600080fd5b6000620032148582860162002ebf565b9250506020620032278582860162003050565b9150509250929050565b6000602082840312156200324457600080fd5b6000620032548482850162002f6a565b91505092915050565b6000602082840312156200327057600080fd5b6000620032808482850162002f81565b91505092915050565b6000806000606084860312156200329f57600080fd5b600084013567ffffffffffffffff811115620032ba57600080fd5b620032c88682870162002ff4565b935050602084013567ffffffffffffffff811115620032e657600080fd5b620032f48682870162002ff4565b9250506040620033078682870162003050565b9150509250925092565b60008060008060008060008060006101208a8c0312156200333157600080fd5b60008a013567ffffffffffffffff8111156200334c57600080fd5b6200335a8c828d0162002ff4565b99505060206200336d8c828d0162003050565b9850506040620033808c828d0162003050565b97505060608a013567ffffffffffffffff8111156200339e57600080fd5b620033ac8c828d0162002ff4565b96505060808a013567ffffffffffffffff811115620033ca57600080fd5b620033d88c828d0162002ed6565b95505060a0620033eb8c828d0162003050565b94505060c0620033fe8c828d0162003050565b93505060e0620034118c828d0162003050565b9250506101008a013567ffffffffffffffff8111156200343057600080fd5b6200343e8c828d0162002ff4565b9150509295985092959850929598565b6000602082840312156200346157600080fd5b6000620034718482850162003050565b91505092915050565b62003485816200444d565b82525050565b6200349681620043d7565b82525050565b620034a781620043c3565b82525050565b620034b881620043eb565b82525050565b6000620034cb8262004375565b620034d781856200438b565b9350620034e981856020860162004498565b620034f481620044ce565b840191505092915050565b60006200350c8262004375565b6200351881856200439c565b93506200352a81856020860162004498565b80840191505092915050565b6000620035438262004380565b6200354f8185620043a7565b93506200356181856020860162004498565b6200356c81620044ce565b840191505092915050565b6000620035848262004380565b620035908185620043b8565b9350620035a281856020860162004498565b80840191505092915050565b600081546001811660008114620035ce5760018114620035f65762003640565b607f6002830416620035e18187620043b8565b955060ff198316865280860193505062003640565b60028204620036068187620043b8565b9550620036138562004360565b60005b82811015620036375781548189015260018201915060208101905062003616565b82880195505050505b505092915050565b600062003657602283620043a7565b91507f456e756d657261626c655365743a20696e646578206f7574206f6620626f756e60008301527f64730000000000000000000000000000000000000000000000000000000000006020830152604082019050919050565b6000620036bf603283620043a7565b91507f4552433732313a207472616e7366657220746f206e6f6e20455243373231526560008301527f63656976657220696d706c656d656e74657200000000000000000000000000006020830152604082019050919050565b600062003727601c83620043a7565b91507f4552433732313a20746f6b656e20616c7265616479206d696e746564000000006000830152602082019050919050565b600062003769601b83620043a7565b91507f536166654d6174683a206164646974696f6e206f766572666c6f7700000000006000830152602082019050919050565b6000620037ab602483620043a7565b91507f4552433732313a207472616e7366657220746f20746865207a65726f2061646460008301527f72657373000000000000000000000000000000000000000000000000000000006020830152604082019050919050565b600062003813601983620043a7565b91507f4552433732313a20617070726f766520746f2063616c6c6572000000000000006000830152602082019050919050565b600062003855602683620043a7565b91507f416464726573733a20696e73756666696369656e742062616c616e636520666f60008301527f722063616c6c00000000000000000000000000000000000000000000000000006020830152604082019050919050565b6000620038bd602c83620043a7565b91507f4552433732313a206f70657261746f7220717565727920666f72206e6f6e657860008301527f697374656e7420746f6b656e00000000000000000000000000000000000000006020830152604082019050919050565b600062003925603883620043a7565b91507f4552433732313a20617070726f76652063616c6c6572206973206e6f74206f7760008301527f6e6572206e6f7220617070726f76656420666f7220616c6c00000000000000006020830152604082019050919050565b60006200398d602a83620043a7565b91507f4552433732313a2062616c616e636520717565727920666f7220746865207a6560008301527f726f2061646472657373000000000000000000000000000000000000000000006020830152604082019050919050565b6000620039f5602283620043a7565b91507f456e756d657261626c654d61703a20696e646578206f7574206f6620626f756e60008301527f64730000000000000000000000000000000000000000000000000000000000006020830152604082019050919050565b600062003a5d602083620043a7565b91507f4552433732313a206d696e7420746f20746865207a65726f20616464726573736000830152602082019050919050565b600062003a9f602c83620043a7565b91507f4552433732313a20617070726f76656420717565727920666f72206e6f6e657860008301527f697374656e7420746f6b656e00000000000000000000000000000000000000006020830152604082019050919050565b600062003b07602983620043a7565b91507f4552433732313a207472616e73666572206f6620746f6b656e2074686174206960008301527f73206e6f74206f776e00000000000000000000000000000000000000000000006020830152604082019050919050565b600062003b6f602f83620043a7565b91507f4552433732314d657461646174613a2055524920717565727920666f72206e6f60008301527f6e6578697374656e7420746f6b656e00000000000000000000000000000000006020830152604082019050919050565b600062003bd7602183620043a7565b91507f4552433732313a20617070726f76616c20746f2063757272656e74206f776e6560008301527f72000000000000000000000000000000000000000000000000000000000000006020830152604082019050919050565b600062003c3f603183620043a7565b91507f4552433732313a207472616e736665722063616c6c6572206973206e6f74206f60008301527f776e6572206e6f7220617070726f7665640000000000000000000000000000006020830152604082019050919050565b600062003ca7601d83620043a7565b91507f416464726573733a2063616c6c20746f206e6f6e2d636f6e74726163740000006000830152602082019050919050565b60c08201600082015162003cf2600085018262003d61565b50602082015162003d07602085018262003d61565b50604082015162003d1c604085018262003d61565b50606082015162003d31606085018262003d61565b50608082015162003d46608085018262003d61565b5060a082015162003d5b60a085018262003d61565b50505050565b62003d6c8162004443565b82525050565b62003d7d8162004443565b82525050565b600062003d918284620034ff565b915081905092915050565b600062003daa828462003577565b915081905092915050565b600062003dc38285620035ae565b915062003dd1828462003577565b91508190509392505050565b600060208201905062003df460008301846200349c565b92915050565b600060808201905062003e1160008301876200348b565b62003e2060208301866200349c565b62003e2f604083018562003d72565b818103606083015262003e438184620034be565b905095945050505050565b600060208201905062003e656000830184620034ad565b92915050565b6000602082019050818103600083015262003e87818462003536565b905092915050565b6000604082019050818103600083015262003eab818562003536565b905062003ebc60208301846200349c565b9392505050565b6000608082019050818103600083015262003edf818762003536565b9050818103602083015262003ef5818662003536565b905062003f0660408301856200347a565b62003f15606083018462003d72565b95945050505050565b6000602082019050818103600083015262003f398162003648565b9050919050565b6000602082019050818103600083015262003f5b81620036b0565b9050919050565b6000602082019050818103600083015262003f7d8162003718565b9050919050565b6000602082019050818103600083015262003f9f816200375a565b9050919050565b6000602082019050818103600083015262003fc1816200379c565b9050919050565b6000602082019050818103600083015262003fe38162003804565b9050919050565b60006020820190508181036000830152620040058162003846565b9050919050565b600060208201905081810360008301526200402781620038ae565b9050919050565b60006020820190508181036000830152620040498162003916565b9050919050565b600060208201905081810360008301526200406b816200397e565b9050919050565b600060208201905081810360008301526200408d81620039e6565b9050919050565b60006020820190508181036000830152620040af8162003a4e565b9050919050565b60006020820190508181036000830152620040d18162003a90565b9050919050565b60006020820190508181036000830152620040f38162003af8565b9050919050565b60006020820190508181036000830152620041158162003b60565b9050919050565b60006020820190508181036000830152620041378162003bc8565b9050919050565b60006020820190508181036000830152620041598162003c30565b9050919050565b600060208201905081810360008301526200417b8162003c98565b9050919050565b600060208201905062004199600083018462003d72565b92915050565b6000606082019050620041b6600083018662003d72565b620041c5602083018562003d72565b620041d4604083018462003d72565b949350505050565b600061020082019050620041f4600083018e62003d72565b62004203602083018d62003d72565b62004212604083018c62003d72565b62004221606083018b62003cda565b81810361012083015262004236818a62003536565b90506200424861014083018962003d72565b6200425861016083018862003d72565b6200426861018083018762003d72565b620042786101a083018662003d72565b620042886101c083018562003d72565b8181036101e08301526200429d818462003536565b90509c9b505050505050505050505050565b6000604051905081810181811067ffffffffffffffff82111715620042d357600080fd5b8060405250919050565b600067ffffffffffffffff821115620042f557600080fd5b602082029050602081019050919050565b600067ffffffffffffffff8211156200431e57600080fd5b601f19601f8301169050602081019050919050565b600067ffffffffffffffff8211156200434b57600080fd5b601f19601f8301169050602081019050919050565b60008190508160005260206000209050919050565b600081519050919050565b600081519050919050565b600082825260208201905092915050565b600081905092915050565b600082825260208201905092915050565b600081905092915050565b6000620043d08262004423565b9050919050565b6000620043e48262004423565b9050919050565b60008115159050919050565b60007fffffffff0000000000000000000000000000000000000000000000000000000082169050919050565b600073ffffffffffffffffffffffffffffffffffffffff82169050919050565b6000819050919050565b60006200445a8262004461565b9050919050565b60006200446e8262004475565b9050919050565b6000620044828262004423565b9050919050565b82818337600083830152505050565b60005b83811015620044b85780820151818401526020810190506200449b565b83811115620044c8576000848401525b50505050565b6000601f19601f8301169050919050565b620044ea81620043c3565b8114620044f657600080fd5b50565b6200450481620043eb565b81146200451057600080fd5b50565b6200451e81620043f7565b81146200452a57600080fd5b50565b620045388162004443565b81146200454457600080fd5b5056fe60806040523480156200001157600080fd5b506040516200181138038062001811833981810160405260808110156200003757600080fd5b81019080805160405193929190846401000000008211156200005857600080fd5b838201915060208201858111156200006f57600080fd5b82518660018202830111640100000000821117156200008d57600080fd5b8083526020830192505050908051906020019080838360005b83811015620000c3578082015181840152602081019050620000a6565b50505050905090810190601f168015620000f15780820380516001836020036101000a031916815260200191505b50604052602001805160405193929190846401000000008211156200011557600080fd5b838201915060208201858111156200012c57600080fd5b82518660018202830111640100000000821117156200014a57600080fd5b8083526020830192505050908051906020019080838360005b838110156200018057808201518184015260208101905062000163565b50505050905090810190601f168015620001ae5780820380516001836020036101000a031916815260200191505b5060405260200180519060200190929190805190602001909291905050508360039080519060200190620001e492919062000505565b508260049080519060200190620001fd92919062000505565b506012600560006101000a81548160ff021916908360ff16021790555081600560016101000a81548173ffffffffffffffffffffffffffffffffffffffff021916908373ffffffffffffffffffffffffffffffffffffffff1602179055506200028f600560019054906101000a900473ffffffffffffffffffffffffffffffffffffffff16826200029960201b60201c565b50505050620005ab565b600073ffffffffffffffffffffffffffffffffffffffff168273ffffffffffffffffffffffffffffffffffffffff1614156200033d576040517f08c379a000000000000000000000000000000000000000000000000000000000815260040180806020018281038252601f8152602001807f45524332303a206d696e7420746f20746865207a65726f20616464726573730081525060200191505060405180910390fd5b62000351600083836200047760201b60201c565b6200036d816002546200047c60201b62000b121790919060201c565b600281905550620003cb816000808573ffffffffffffffffffffffffffffffffffffffff1673ffffffffffffffffffffffffffffffffffffffff168152602001908152602001600020546200047c60201b62000b121790919060201c565b6000808473ffffffffffffffffffffffffffffffffffffffff1673ffffffffffffffffffffffffffffffffffffffff168152602001908152602001600020819055508173ffffffffffffffffffffffffffffffffffffffff16600073ffffffffffffffffffffffffffffffffffffffff167fddf252ad1be2c89b69c2b068fc378daa952ba7f163c4a11628f55a4df523b3ef836040518082815260200191505060405180910390a35050565b505050565b600080828401905083811015620004fb576040517f08c379a000000000000000000000000000000000000000000000000000000000815260040180806020018281038252601b8152602001807f536166654d6174683a206164646974696f6e206f766572666c6f77000000000081525060200191505060405180910390fd5b8091505092915050565b828054600181600116156101000203166002900490600052602060002090601f016020900481019282601f106200054857805160ff191683800117855562000579565b8280016001018555821562000579579182015b82811115620005785782518255916020019190600101906200055b565b5b5090506200058891906200058c565b5090565b5b80821115620005a75760008160009055506001016200058d565b5090565b61125680620005bb6000396000f3fe608060405234801561001057600080fd5b50600436106100ea5760003560e01c80633eaaf86b1161008c57806395d89b411161006657806395d89b4114610443578063a457c2d7146104c6578063a9059cbb1461052a578063dd62ed3e1461058e576100ea565b80633eaaf86b146103755780636ebcf6071461039357806370a08231146103eb576100ea565b806318160ddd116100c857806318160ddd1461024e57806323b872dd1461026c578063313ce567146102f05780633950935114610311576100ea565b8063024c2ddd146100ef57806306fdde0314610167578063095ea7b3146101ea575b600080fd5b6101516004803603604081101561010557600080fd5b81019080803573ffffffffffffffffffffffffffffffffffffffff169060200190929190803573ffffffffffffffffffffffffffffffffffffffff169060200190929190505050610606565b6040518082815260200191505060405180910390f35b61016f61062b565b6040518080602001828103825283818151815260200191508051906020019080838360005b838110156101af578082015181840152602081019050610194565b50505050905090810190601f1680156101dc5780820380516001836020036101000a031916815260200191505b509250505060405180910390f35b6102366004803603604081101561020057600080fd5b81019080803573ffffffffffffffffffffffffffffffffffffffff169060200190929190803590602001909291905050506106cd565b60405180821515815260200191505060405180910390f35b6102566106eb565b6040518082815260200191505060405180910390f35b6102d86004803603606081101561028257600080fd5b81019080803573ffffffffffffffffffffffffffffffffffffffff169060200190929190803573ffffffffffffffffffffffffffffffffffffffff169060200190929190803590602001909291905050506106f5565b60405180821515815260200191505060405180910390f35b6102f86107ce565b604051808260ff16815260200191505060405180910390f35b61035d6004803603604081101561032757600080fd5b81019080803573ffffffffffffffffffffffffffffffffffffffff169060200190929190803590602001909291905050506107e5565b60405180821515815260200191505060405180910390f35b61037d610898565b6040518082815260200191505060405180910390f35b6103d5600480360360208110156103a957600080fd5b81019080803573ffffffffffffffffffffffffffffffffffffffff16906020019092919050505061089e565b6040518082815260200191505060405180910390f35b61042d6004803603602081101561040157600080fd5b81019080803573ffffffffffffffffffffffffffffffffffffffff1690602001909291905050506108b6565b6040518082815260200191505060405180910390f35b61044b6108fe565b6040518080602001828103825283818151815260200191508051906020019080838360005b8381101561048b578082015181840152602081019050610470565b50505050905090810190601f1680156104b85780820380516001836020036101000a031916815260200191505b509250505060405180910390f35b610512600480360360408110156104dc57600080fd5b81019080803573ffffffffffffffffffffffffffffffffffffffff169060200190929190803590602001909291905050506109a0565b60405180821515815260200191505060405180910390f35b6105766004803603604081101561054057600080fd5b81019080803573ffffffffffffffffffffffffffffffffffffffff16906020019092919080359060200190929190505050610a6d565b60405180821515815260200191505060405180910390f35b6105f0600480360360408110156105a457600080fd5b81019080803573ffffffffffffffffffffffffffffffffffffffff169060200190929190803573ffffffffffffffffffffffffffffffffffffffff169060200190929190505050610a8b565b6040518082815260200191505060405180910390f35b6001602052816000526040600020602052806000526040600020600091509150505481565b606060038054600181600116156101000203166002900480601f0160208091040260200160405190810160405280929190818152602001828054600181600116156101000203166002900480156106c35780601f10610698576101008083540402835291602001916106c3565b820191906000526020600020905b8154815290600101906020018083116106a657829003601f168201915b5050505050905090565b60006106e16106da610b9a565b8484610ba2565b6001905092915050565b6000600254905090565b6000610702848484610d99565b6107c38461070e610b9a565b6107be8560405180606001604052806028815260200161118b60289139600160008b73ffffffffffffffffffffffffffffffffffffffff1673ffffffffffffffffffffffffffffffffffffffff1681526020019081526020016000206000610774610b9a565b73ffffffffffffffffffffffffffffffffffffffff1673ffffffffffffffffffffffffffffffffffffffff1681526020019081526020016000205461105a9092919063ffffffff16565b610ba2565b600190509392505050565b6000600560009054906101000a900460ff16905090565b600061088e6107f2610b9a565b846108898560016000610803610b9a565b73ffffffffffffffffffffffffffffffffffffffff1673ffffffffffffffffffffffffffffffffffffffff16815260200190815260200160002060008973ffffffffffffffffffffffffffffffffffffffff1673ffffffffffffffffffffffffffffffffffffffff16815260200190815260200160002054610b1290919063ffffffff16565b610ba2565b6001905092915050565b60025481565b60006020528060005260406000206000915090505481565b60008060008373ffffffffffffffffffffffffffffffffffffffff1673ffffffffffffffffffffffffffffffffffffffff168152602001908152602001600020549050919050565b606060048054600181600116156101000203166002900480601f0160208091040260200160405190810160405280929190818152602001828054600181600116156101000203166002900480156109965780601f1061096b57610100808354040283529160200191610996565b820191906000526020600020905b81548152906001019060200180831161097957829003601f168201915b5050505050905090565b6000610a636109ad610b9a565b84610a5e856040518060600160405280602581526020016111fc60259139600160006109d7610b9a565b73ffffffffffffffffffffffffffffffffffffffff1673ffffffffffffffffffffffffffffffffffffffff16815260200190815260200160002060008a73ffffffffffffffffffffffffffffffffffffffff1673ffffffffffffffffffffffffffffffffffffffff1681526020019081526020016000205461105a9092919063ffffffff16565b610ba2565b6001905092915050565b6000610a81610a7a610b9a565b8484610d99565b6001905092915050565b6000600160008473ffffffffffffffffffffffffffffffffffffffff1673ffffffffffffffffffffffffffffffffffffffff16815260200190815260200160002060008373ffffffffffffffffffffffffffffffffffffffff1673ffffffffffffffffffffffffffffffffffffffff16815260200190815260200160002054905092915050565b600080828401905083811015610b90576040517f08c379a000000000000000000000000000000000000000000000000000000000815260040180806020018281038252601b8152602001807f536166654d6174683a206164646974696f6e206f766572666c6f77000000000081525060200191505060405180910390fd5b8091505092915050565b600033905090565b600073ffffffffffffffffffffffffffffffffffffffff168373ffffffffffffffffffffffffffffffffffffffff161415610c28576040517f08c379a00000000000000000000000000000000000000000000000000000000081526004018080602001828103825260248152602001806111d86024913960400191505060405180910390fd5b600073ffffffffffffffffffffffffffffffffffffffff168273ffffffffffffffffffffffffffffffffffffffff161415610cae576040517f08c379a00000000000000000000000000000000000000000000000000000000081526004018080602001828103825260228152602001806111436022913960400191505060405180910390fd5b80600160008573ffffffffffffffffffffffffffffffffffffffff1673ffffffffffffffffffffffffffffffffffffffff16815260200190815260200160002060008473ffffffffffffffffffffffffffffffffffffffff1673ffffffffffffffffffffffffffffffffffffffff168152602001908152602001600020819055508173ffffffffffffffffffffffffffffffffffffffff168373ffffffffffffffffffffffffffffffffffffffff167f8c5be1e5ebec7d5bd14f71427d1e84f3dd0314c0f7b2291e5b200ac8c7c3b925836040518082815260200191505060405180910390a3505050565b600073ffffffffffffffffffffffffffffffffffffffff168373ffffffffffffffffffffffffffffffffffffffff161415610e1f576040517f08c379a00000000000000000000000000000000000000000000000000000000081526004018080602001828103825260258152602001806111b36025913960400191505060405180910390fd5b600073ffffffffffffffffffffffffffffffffffffffff168273ffffffffffffffffffffffffffffffffffffffff161415610ea5576040517f08c379a00000000000000000000000000000000000000000000000000000000081526004018080602001828103825260238152602001806111206023913960400191505060405180910390fd5b610eb083838361111a565b610f1b81604051806060016040528060268152602001611165602691396000808773ffffffffffffffffffffffffffffffffffffffff1673ffffffffffffffffffffffffffffffffffffffff1681526020019081526020016000205461105a9092919063ffffffff16565b6000808573ffffffffffffffffffffffffffffffffffffffff1673ffffffffffffffffffffffffffffffffffffffff16815260200190815260200160002081905550610fae816000808573ffffffffffffffffffffffffffffffffffffffff1673ffffffffffffffffffffffffffffffffffffffff16815260200190815260200160002054610b1290919063ffffffff16565b6000808473ffffffffffffffffffffffffffffffffffffffff1673ffffffffffffffffffffffffffffffffffffffff168152602001908152602001600020819055508173ffffffffffffffffffffffffffffffffffffffff168373ffffffffffffffffffffffffffffffffffffffff167fddf252ad1be2c89b69c2b068fc378daa952ba7f163c4a11628f55a4df523b3ef836040518082815260200191505060405180910390a3505050565b6000838311158290611107576040517f08c379a00000000000000000000000000000000000000000000000000000000081526004018080602001828103825283818151815260200191508051906020019080838360005b838110156110cc5780820151818401526020810190506110b1565b50505050905090810190601f1680156110f95780820380516001836020036101000a031916815260200191505b509250505060405180910390fd5b5060008385039050809150509392505050565b50505056fe45524332303a207472616e7366657220746f20746865207a65726f206164647265737345524332303a20617070726f766520746f20746865207a65726f206164647265737345524332303a207472616e7366657220616d6f756e7420657863656564732062616c616e636545524332303a207472616e7366657220616d6f756e74206578636565647320616c6c6f77616e636545524332303a207472616e736665722066726f6d20746865207a65726f206164647265737345524332303a20617070726f76652066726f6d20746865207a65726f206164647265737345524332303a2064656372656173656420616c6c6f77616e63652062656c6f77207a65726fa2646970667358221220b1b740e27bb8ab1e9af43e6f6d710d9f00becc6bbf9610ffd57e04cfd678be0564736f6c634300060c00334552433732313a207472616e7366657220746f206e6f6e20455243373231526563656976657220696d706c656d656e7465724552433732313a206f776e657220717565727920666f72206e6f6e6578697374656e7420746f6b656ea26469706673582212202289bb214b827cd9699e5b379178b334658ed468ba187fd68a4f932a8884fb0c64736f6c634300060c0033",
  "immutableReferences": {},
  "source": "// SPDX-License-Identifier: MIT\r\npragma solidity ^0.6.0;\r\npragma experimental ABIEncoderV2;\r\n\r\nimport \"./ERC721.sol\";\r\nimport \"./ERC20.sol\";\r\n\r\n\r\n\r\ncontract Property is ERC721 {\r\n  string[] public properties;\r\n  address public proptest;\r\n  mapping(string => bool) _propertyExists;\r\n  \r\n  struct property_Details{\r\n      string name;\r\n      address deployed_Token;\r\n  }\r\n  property_Details[] public property_Array;\r\n\r\n  constructor() ERC721(\"Property\",\"QST_TKN\") public{\r\n      \r\n  }\r\n  \r\n      event TokenCreated(address tokenAddress);\r\n  function mint(string memory _property,uint256 origVal,\r\n                                     uint256 coins,\r\n                                     string memory property_images_hash,\r\n                                     string[] memory pro_add_details,\r\n                                     uint256 prop_tax,\r\n                                     uint256 prop_insurance,\r\n                                     uint256 prop_maintainence,\r\n                                     string memory features_prop) public {\r\n   require(!_propertyExists[_property]);\r\n   property_Details memory temp;\r\n   properties.push(_property);\r\n   // uint _id = properties.length; \r\n    \r\n   _mint(origVal,coins,property_images_hash,pro_add_details,prop_tax,prop_insurance,prop_maintainence,features_prop);\r\n   _propertyExists[_property] = true;\r\n\r\n   temp.name = _property;\r\n   temp.deployed_Token = deployNewToken(\"prop1\", \"QST\",origVal);\r\n\r\n    deployNewToken(\"VOUCHER\",\"*V*\",origVal);\r\n    \r\n   property_Array.push(temp);\r\n   delete temp;\r\n    \r\n  } \r\n  \r\n  function deployNewToken(string memory name, string memory symbol,uint256 no_of_token) public returns (address) {\r\n       ERC20 t = new ERC20( name, symbol,msg.sender,no_of_token);\r\n       proptest = address(t);\r\n       emit TokenCreated(address(t));\r\n       return proptest;\r\n       \r\n   }\r\n   \r\n   \r\n  \r\n  \r\n\r\n  function getProperties(uint _index) public view returns(string memory){\r\n   \r\n  return properties[_index];\r\n  \r\n} \r\n\r\nfunction totalProperties()public view returns(uint256){\r\n    \r\n    return properties.length;\r\n}\r\n    \r\n\r\n}\r\n\r\n",
  "sourcePath": "C:/Users/Prerna/Desktop/QuestCrypt/Quest-Contracts/src/contracts/Property.sol",
  "compiler": {
    "name": "solc",
    "version": "0.6.12+commit.27d51765.Emscripten.clang"
  },
  "schemaVersion": "3.3.1",
  "updatedAt": "2020-11-25T12:01:09.678Z",
  "devdoc": {
    "kind": "dev",
    "methods": {
      "approve(address,uint256)": {
        "details": "See {IERC721-approve}."
      },
      "balanceOf(address)": {
        "details": "See {IERC721-balanceOf}."
      },
      "baseURI()": {
        "details": "Returns the base URI set via {_setBaseURI}. This will be automatically added as a prefix in {tokenURI} to each token's URI, or to the token ID if no specific URI is set for that token ID."
      },
      "getApproved(uint256)": {
        "details": "See {IERC721-getApproved}."
      },
      "isApprovedForAll(address,address)": {
        "details": "See {IERC721-isApprovedForAll}."
      },
      "name()": {
        "details": "See {IERC721Metadata-name}."
      },
      "ownerOf(uint256)": {
        "details": "See {IERC721-ownerOf}."
      },
      "safeTransferFrom(address,address,uint256)": {
        "details": "See {IERC721-safeTransferFrom}."
      },
      "safeTransferFrom(address,address,uint256,bytes)": {
        "details": "See {IERC721-safeTransferFrom}."
      },
      "setApprovalForAll(address,bool)": {
        "details": "See {IERC721-setApprovalForAll}."
      },
      "supportsInterface(bytes4)": {
        "details": "See {IERC165-supportsInterface}. Time complexity O(1), guaranteed to always use less than 30 000 gas."
      },
      "symbol()": {
        "details": "See {IERC721Metadata-symbol}."
      },
      "tokenByIndex(uint256)": {
        "details": "See {IERC721Enumerable-tokenByIndex}."
      },
      "tokenOfOwnerByIndex(address,uint256)": {
        "details": "See {IERC721Enumerable-tokenOfOwnerByIndex}."
      },
      "tokenURI(uint256)": {
        "details": "See {IERC721Metadata-tokenURI}."
      },
      "totalSupply()": {
        "details": "See {IERC721Enumerable-totalSupply}."
      },
      "transferFrom(address,address,uint256)": {
        "details": "See {IERC721-transferFrom}."
      }
    },
    "version": 1
  },
  "userdoc": {
    "kind": "user",
    "methods": {},
    "version": 1
  }
}