{
  "contractName": "SLC",
  "abi": [
    {
      "inputs": [
        {
          "internalType": "uint256",
          "name": "_initialSupply",
          "type": "uint256"
        }
      ],
      "stateMutability": "nonpayable",
      "type": "constructor"
    },
    {
      "anonymous": false,
      "inputs": [
        {
          "indexed": true,
          "internalType": "address",
          "name": "_owner",
          "type": "address"
        },
        {
          "indexed": true,
          "internalType": "address",
          "name": "_spender",
          "type": "address"
        },
        {
          "indexed": false,
          "internalType": "uint256",
          "name": "_value",
          "type": "uint256"
        }
      ],
      "name": "Approval",
      "type": "event"
    },
    {
      "anonymous": false,
      "inputs": [
        {
          "indexed": false,
          "internalType": "address",
          "name": "from",
          "type": "address"
        },
        {
          "indexed": false,
          "internalType": "uint256",
          "name": "amount",
          "type": "uint256"
        }
      ],
      "name": "DepositFunds",
      "type": "event"
    },
    {
      "anonymous": false,
      "inputs": [
        {
          "indexed": false,
          "internalType": "address",
          "name": "to",
          "type": "address"
        },
        {
          "indexed": false,
          "internalType": "uint256",
          "name": "amount",
          "type": "uint256"
        },
        {
          "indexed": false,
          "internalType": "uint256",
          "name": "transactionId",
          "type": "uint256"
        }
      ],
      "name": "TransactionCompleted",
      "type": "event"
    },
    {
      "anonymous": false,
      "inputs": [
        {
          "indexed": false,
          "internalType": "address",
          "name": "to",
          "type": "address"
        },
        {
          "indexed": false,
          "internalType": "uint256",
          "name": "amount",
          "type": "uint256"
        },
        {
          "indexed": false,
          "internalType": "uint256",
          "name": "transactionId",
          "type": "uint256"
        }
      ],
      "name": "TransactionCreated",
      "type": "event"
    },
    {
      "anonymous": false,
      "inputs": [
        {
          "indexed": false,
          "internalType": "address",
          "name": "by",
          "type": "address"
        },
        {
          "indexed": false,
          "internalType": "uint256",
          "name": "transactionId",
          "type": "uint256"
        }
      ],
      "name": "TransactionSigned",
      "type": "event"
    },
    {
      "anonymous": false,
      "inputs": [
        {
          "indexed": true,
          "internalType": "address",
          "name": "_from",
          "type": "address"
        },
        {
          "indexed": true,
          "internalType": "address",
          "name": "_to",
          "type": "address"
        },
        {
          "indexed": false,
          "internalType": "uint256",
          "name": "_value",
          "type": "uint256"
        }
      ],
      "name": "Transfer",
      "type": "event"
    },
    {
      "anonymous": false,
      "inputs": [
        {
          "indexed": false,
          "internalType": "address",
          "name": "owner",
          "type": "address"
        }
      ],
      "name": "ownerAdded",
      "type": "event"
    },
    {
      "anonymous": false,
      "inputs": [
        {
          "indexed": false,
          "internalType": "address",
          "name": "owner",
          "type": "address"
        }
      ],
      "name": "ownerRemoved",
      "type": "event"
    },
    {
      "inputs": [
        {
          "internalType": "uint256",
          "name": "",
          "type": "uint256"
        }
      ],
      "name": "_transactions",
      "outputs": [
        {
          "internalType": "address",
          "name": "to",
          "type": "address"
        },
        {
          "internalType": "uint256",
          "name": "amount",
          "type": "uint256"
        },
        {
          "internalType": "uint256",
          "name": "tokenid",
          "type": "uint256"
        },
        {
          "internalType": "uint8",
          "name": "signatureCount",
          "type": "uint8"
        }
      ],
      "stateMutability": "view",
      "type": "function",
      "constant": true
    },
    {
      "inputs": [
        {
          "internalType": "address",
          "name": "",
          "type": "address"
        },
        {
          "internalType": "address",
          "name": "",
          "type": "address"
        }
      ],
      "name": "allowance",
      "outputs": [
        {
          "internalType": "uint256",
          "name": "",
          "type": "uint256"
        }
      ],
      "stateMutability": "view",
      "type": "function",
      "constant": true
    },
    {
      "inputs": [
        {
          "internalType": "address",
          "name": "",
          "type": "address"
        }
      ],
      "name": "balances",
      "outputs": [
        {
          "internalType": "uint256",
          "name": "",
          "type": "uint256"
        }
      ],
      "stateMutability": "view",
      "type": "function",
      "constant": true
    },
    {
      "inputs": [],
      "name": "decimals",
      "outputs": [
        {
          "internalType": "uint256",
          "name": "",
          "type": "uint256"
        }
      ],
      "stateMutability": "view",
      "type": "function",
      "constant": true
    },
    {
      "inputs": [],
      "name": "name",
      "outputs": [
        {
          "internalType": "string",
          "name": "",
          "type": "string"
        }
      ],
      "stateMutability": "view",
      "type": "function",
      "constant": true
    },
    {
      "inputs": [],
      "name": "owner",
      "outputs": [
        {
          "internalType": "address",
          "name": "",
          "type": "address"
        }
      ],
      "stateMutability": "view",
      "type": "function",
      "constant": true
    },
    {
      "inputs": [],
      "name": "symbol",
      "outputs": [
        {
          "internalType": "string",
          "name": "",
          "type": "string"
        }
      ],
      "stateMutability": "view",
      "type": "function",
      "constant": true
    },
    {
      "inputs": [],
      "name": "totalSupply",
      "outputs": [
        {
          "internalType": "uint256",
          "name": "",
          "type": "uint256"
        }
      ],
      "stateMutability": "view",
      "type": "function",
      "constant": true
    },
    {
      "stateMutability": "payable",
      "type": "receive",
      "payable": true
    },
    {
      "inputs": [
        {
          "internalType": "address",
          "name": "_address",
          "type": "address"
        }
      ],
      "name": "setSLF_contract_address",
      "outputs": [],
      "stateMutability": "nonpayable",
      "type": "function"
    },
    {
      "inputs": [
        {
          "internalType": "address",
          "name": "_address",
          "type": "address"
        }
      ],
      "name": "add_region_admin",
      "outputs": [],
      "stateMutability": "nonpayable",
      "type": "function"
    },
    {
      "inputs": [
        {
          "internalType": "uint256",
          "name": "_region_no",
          "type": "uint256"
        },
        {
          "internalType": "address",
          "name": "_address",
          "type": "address"
        }
      ],
      "name": "change_region_admin",
      "outputs": [],
      "stateMutability": "nonpayable",
      "type": "function"
    },
    {
      "inputs": [
        {
          "internalType": "address",
          "name": "_oldAddress",
          "type": "address"
        },
        {
          "internalType": "address",
          "name": "_newAddress",
          "type": "address"
        }
      ],
      "name": "modify",
      "outputs": [],
      "stateMutability": "nonpayable",
      "type": "function"
    },
    {
      "inputs": [
        {
          "internalType": "address",
          "name": "_spender",
          "type": "address"
        },
        {
          "internalType": "uint256",
          "name": "_value",
          "type": "uint256"
        }
      ],
      "name": "approve",
      "outputs": [
        {
          "internalType": "bool",
          "name": "success",
          "type": "bool"
        }
      ],
      "stateMutability": "nonpayable",
      "type": "function"
    },
    {
      "inputs": [
        {
          "internalType": "address",
          "name": "request",
          "type": "address"
        }
      ],
      "name": "balanceOf",
      "outputs": [
        {
          "internalType": "uint256",
          "name": "",
          "type": "uint256"
        }
      ],
      "stateMutability": "view",
      "type": "function",
      "constant": true
    },
    {
      "inputs": [
        {
          "internalType": "address",
          "name": "_owner",
          "type": "address"
        }
      ],
      "name": "addOwner",
      "outputs": [],
      "stateMutability": "nonpayable",
      "type": "function"
    },
    {
      "inputs": [
        {
          "internalType": "address",
          "name": "_owner",
          "type": "address"
        }
      ],
      "name": "removeOwner",
      "outputs": [],
      "stateMutability": "nonpayable",
      "type": "function"
    },
    {
      "inputs": [
        {
          "internalType": "uint256",
          "name": "tokenid",
          "type": "uint256"
        },
        {
          "internalType": "uint256",
          "name": "property_region",
          "type": "uint256"
        },
        {
          "internalType": "uint256",
          "name": "amount",
          "type": "uint256"
        }
      ],
      "name": "withdraw",
      "outputs": [
        {
          "internalType": "uint256",
          "name": "",
          "type": "uint256"
        }
      ],
      "stateMutability": "nonpayable",
      "type": "function"
    },
    {
      "inputs": [],
      "name": "getPendingTransactions",
      "outputs": [
        {
          "internalType": "uint256[]",
          "name": "",
          "type": "uint256[]"
        }
      ],
      "stateMutability": "view",
      "type": "function",
      "constant": true
    },
    {
      "inputs": [
        {
          "internalType": "uint256",
          "name": "transactionId",
          "type": "uint256"
        }
      ],
      "name": "signTransaction",
      "outputs": [],
      "stateMutability": "payable",
      "type": "function",
      "payable": true
    },
    {
      "inputs": [
        {
          "internalType": "uint256",
          "name": "transactionId",
          "type": "uint256"
        }
      ],
      "name": "deleteTransaction",
      "outputs": [],
      "stateMutability": "nonpayable",
      "type": "function"
    },
    {
      "inputs": [],
      "name": "walletBalance",
      "outputs": [
        {
          "internalType": "uint256",
          "name": "",
          "type": "uint256"
        }
      ],
      "stateMutability": "view",
      "type": "function",
      "constant": true
    }
  ],
  "bytecode": "0x60806040526040518060400160405280600381526020017f534c4300000000000000000000000000000000000000000000000000000000008152506001908051906020019062000051929190620001e7565b506040518060400160405280600181526020017f5300000000000000000000000000000000000000000000000000000000000000815250600290805190602001906200009f929190620001e7565b5060006003556001600455348015620000b757600080fd5b506040516200204d3803806200204d83398181016040526020811015620000dd57600080fd5b810190808051906020019092919050505033600e60006101000a81548173ffffffffffffffffffffffffffffffffffffffff021916908373ffffffffffffffffffffffffffffffffffffffff16021790555080600660003373ffffffffffffffffffffffffffffffffffffffff1673ffffffffffffffffffffffffffffffffffffffff16815260200190815260200160002081905550806005819055503373ffffffffffffffffffffffffffffffffffffffff16600073ffffffffffffffffffffffffffffffffffffffff167fddf252ad1be2c89b69c2b068fc378daa952ba7f163c4a11628f55a4df523b3ef836040518082815260200191505060405180910390a35062000296565b828054600181600116156101000203166002900490600052602060002090601f016020900481019282601f106200022a57805160ff19168380011785556200025b565b828001600101855582156200025b579182015b828111156200025a5782518255916020019190600101906200023d565b5b5090506200026a91906200026e565b5090565b6200029391905b808211156200028f57600081600090555060010162000275565b5090565b90565b611da780620002a66000396000f3fe60806040526004361061012d5760003560e01c80636952df8d116100ab57806398e427431161006f57806398e42743146106fb578063a41fe49f1461074c578063b9529201146107af578063cd0a314b14610820578063d11db83f1461084b578063dd62ed3e146108b75761019f565b80636952df8d1461050d5780637065cb481461055e57806370a08231146105af5780638da5cb5b1461061457806395d89b411461066b5761019f565b806318160ddd116100f257806318160ddd146103c957806327e235e3146103f4578063313ce567146104595780635d9ec2101461048457806363e22be2146104b25761019f565b8062e9c006146101a457806306fdde03146101df578063095ea7b31461026f5780630b92880e146102e2578063173825d9146103785761019f565b3661019f577fd241e73300212f6df233a8e6d3146b88a9d4964e06621d54b5ff6afeba7b1b883334604051808373ffffffffffffffffffffffffffffffffffffffff1673ffffffffffffffffffffffffffffffffffffffff1681526020018281526020019250505060405180910390a1005b600080fd5b3480156101b057600080fd5b506101dd600480360360208110156101c757600080fd5b810190808035906020019092919050505061093c565b005b3480156101eb57600080fd5b506101f4610ac9565b6040518080602001828103825283818151815260200191508051906020019080838360005b83811015610234578082015181840152602081019050610219565b50505050905090810190601f1680156102615780820380516001836020036101000a031916815260200191505b509250505060405180910390f35b34801561027b57600080fd5b506102c86004803603604081101561029257600080fd5b81019080803573ffffffffffffffffffffffffffffffffffffffff16906020019092919080359060200190929190505050610b67565b604051808215151515815260200191505060405180910390f35b3480156102ee57600080fd5b5061031b6004803603602081101561030557600080fd5b8101908080359060200190929190505050610c62565b604051808573ffffffffffffffffffffffffffffffffffffffff1673ffffffffffffffffffffffffffffffffffffffff1681526020018481526020018381526020018260ff1660ff16815260200194505050505060405180910390f35b34801561038457600080fd5b506103c76004803603602081101561039b57600080fd5b81019080803573ffffffffffffffffffffffffffffffffffffffff169060200190929190505050610cbf565b005b3480156103d557600080fd5b506103de610dd8565b6040518082815260200191505060405180910390f35b34801561040057600080fd5b506104436004803603602081101561041757600080fd5b81019080803573ffffffffffffffffffffffffffffffffffffffff169060200190929190505050610dde565b6040518082815260200191505060405180910390f35b34801561046557600080fd5b5061046e610df6565b6040518082815260200191505060405180910390f35b6104b06004803603602081101561049a57600080fd5b8101908080359060200190929190505050610dfc565b005b3480156104be57600080fd5b5061050b600480360360408110156104d557600080fd5b8101908080359060200190929190803573ffffffffffffffffffffffffffffffffffffffff1690602001909291905050506111ff565b005b34801561051957600080fd5b5061055c6004803603602081101561053057600080fd5b81019080803573ffffffffffffffffffffffffffffffffffffffff169060200190929190505050611318565b005b34801561056a57600080fd5b506105ad6004803603602081101561058157600080fd5b81019080803573ffffffffffffffffffffffffffffffffffffffff1690602001909291905050506113d7565b005b3480156105bb57600080fd5b506105fe600480360360208110156105d257600080fd5b81019080803573ffffffffffffffffffffffffffffffffffffffff169060200190929190505050611512565b6040518082815260200191505060405180910390f35b34801561062057600080fd5b5061062961155b565b604051808273ffffffffffffffffffffffffffffffffffffffff1673ffffffffffffffffffffffffffffffffffffffff16815260200191505060405180910390f35b34801561067757600080fd5b50610680611581565b6040518080602001828103825283818151815260200191508051906020019080838360005b838110156106c05780820151818401526020810190506106a5565b50505050905090810190601f1680156106ed5780820380516001836020036101000a031916815260200191505b509250505060405180910390f35b34801561070757600080fd5b5061074a6004803603602081101561071e57600080fd5b81019080803573ffffffffffffffffffffffffffffffffffffffff16906020019092919050505061161f565b005b34801561075857600080fd5b506107996004803603606081101561076f57600080fd5b810190808035906020019092919080359060200190929190803590602001909291905050506116bc565b6040518082815260200191505060405180910390f35b3480156107bb57600080fd5b5061081e600480360360408110156107d257600080fd5b81019080803573ffffffffffffffffffffffffffffffffffffffff169060200190929190803573ffffffffffffffffffffffffffffffffffffffff16906020019092919050505061175e565b005b34801561082c57600080fd5b5061083561182c565b6040518082815260200191505060405180910390f35b34801561085757600080fd5b50610860611834565b6040518080602001828103825283818151815260200191508051906020019060200280838360005b838110156108a3578082015181840152602081019050610888565b505050509050019250505060405180910390f35b3480156108c357600080fd5b50610926600480360360408110156108da57600080fd5b81019080803573ffffffffffffffffffffffffffffffffffffffff169060200190929190803573ffffffffffffffffffffffffffffffffffffffff1690602001909291905050506119a1565b6040518082815260200191505060405180910390f35b600e60009054906101000a900473ffffffffffffffffffffffffffffffffffffffff1673ffffffffffffffffffffffffffffffffffffffff163373ffffffffffffffffffffffffffffffffffffffff1614806109e757506001600860003373ffffffffffffffffffffffffffffffffffffffff1673ffffffffffffffffffffffffffffffffffffffff16815260200190815260200160002060009054906101000a900460ff1660ff16145b6109f057600080fd5b60008090505b600c80549050811015610a5157600c8181548110610a1057fe5b9060005260206000200154821415610a44576000600c8281548110610a3157fe5b9060005260206000200181905550610a51565b80806001019150506109f6565b50600d6000815480929190600190039190505550600b6000828152602001908152602001600020600080820160006101000a81549073ffffffffffffffffffffffffffffffffffffffff0219169055600182016000905560028201600090556003820160006101000a81549060ff0219169055505050565b60018054600181600116156101000203166002900480601f016020809104026020016040519081016040528092919081815260200182805460018160011615610100020316600290048015610b5f5780601f10610b3457610100808354040283529160200191610b5f565b820191906000526020600020905b815481529060010190602001808311610b4257829003601f168201915b505050505081565b600081600760003373ffffffffffffffffffffffffffffffffffffffff1673ffffffffffffffffffffffffffffffffffffffff16815260200190815260200160002060008573ffffffffffffffffffffffffffffffffffffffff1673ffffffffffffffffffffffffffffffffffffffff168152602001908152602001600020600082825401925050819055508273ffffffffffffffffffffffffffffffffffffffff163373ffffffffffffffffffffffffffffffffffffffff167f8c5be1e5ebec7d5bd14f71427d1e84f3dd0314c0f7b2291e5b200ac8c7c3b925846040518082815260200191505060405180910390a36001905092915050565b600b6020528060005260406000206000915090508060000160009054906101000a900473ffffffffffffffffffffffffffffffffffffffff16908060010154908060020154908060030160009054906101000a900460ff16905084565b600e60009054906101000a900473ffffffffffffffffffffffffffffffffffffffff1673ffffffffffffffffffffffffffffffffffffffff163373ffffffffffffffffffffffffffffffffffffffff1614610d1957600080fd5b6000600860008373ffffffffffffffffffffffffffffffffffffffff1673ffffffffffffffffffffffffffffffffffffffff16815260200190815260200160002060006101000a81548160ff021916908360ff1602179055507f839c3949c3979499299683cc9d04485ea754bc389b14e057e2af661178985b0281604051808273ffffffffffffffffffffffffffffffffffffffff1673ffffffffffffffffffffffffffffffffffffffff16815260200191505060405180910390a150565b60055481565b60066020528060005260406000206000915090505481565b60035481565b600e60009054906101000a900473ffffffffffffffffffffffffffffffffffffffff1673ffffffffffffffffffffffffffffffffffffffff163373ffffffffffffffffffffffffffffffffffffffff161480610ea757506001600860003373ffffffffffffffffffffffffffffffffffffffff1673ffffffffffffffffffffffffffffffffffffffff16815260200190815260200160002060009054906101000a900460ff1660ff16145b610eb057600080fd5b6000600b6000838152602001908152602001600020905060018160040160003373ffffffffffffffffffffffffffffffffffffffff1673ffffffffffffffffffffffffffffffffffffffff16815260200190815260200160002060009054906101000a900460ff1660ff161415610f2657600080fd5b60018160040160003373ffffffffffffffffffffffffffffffffffffffff1673ffffffffffffffffffffffffffffffffffffffff16815260200190815260200160002060006101000a81548160ff021916908360ff16021790555080600301600081819054906101000a900460ff168092919060010191906101000a81548160ff021916908360ff160217905550507fac63e7e1dc16bccf900879686e74ca33eeb175b670e3aaa9d7e4ccf3781b7a7a3383604051808373ffffffffffffffffffffffffffffffffffffffff1673ffffffffffffffffffffffffffffffffffffffff1681526020018281526020019250505060405180910390a160028160030160009054906101000a900460ff1660ff16106111fb5761106e8160000160009054906101000a900473ffffffffffffffffffffffffffffffffffffffff1682600101546119c6565b6000809054906101000a900473ffffffffffffffffffffffffffffffffffffffff1673ffffffffffffffffffffffffffffffffffffffff166340c10f198260000160009054906101000a900473ffffffffffffffffffffffffffffffffffffffff1683600201546040518363ffffffff1660e01b8152600401808373ffffffffffffffffffffffffffffffffffffffff1673ffffffffffffffffffffffffffffffffffffffff16815260200182815260200192505050600060405180830381600087803b15801561113e57600080fd5b505af1158015611152573d6000803e3d6000fd5b505050507f80913d60a2fe5164e9e438280e3fa540cc312ef748eea90649364713999d5af48160000160009054906101000a900473ffffffffffffffffffffffffffffffffffffffff16826001015484604051808473ffffffffffffffffffffffffffffffffffffffff1673ffffffffffffffffffffffffffffffffffffffff168152602001838152602001828152602001935050505060405180910390a16111fa8261093c565b5b5050565b600e60009054906101000a900473ffffffffffffffffffffffffffffffffffffffff1673ffffffffffffffffffffffffffffffffffffffff163373ffffffffffffffffffffffffffffffffffffffff1614806112b957503373ffffffffffffffffffffffffffffffffffffffff166009600084815260200190815260200160002060009054906101000a900473ffffffffffffffffffffffffffffffffffffffff1673ffffffffffffffffffffffffffffffffffffffff16145b6112c257600080fd5b806009600084815260200190815260200160002060006101000a81548173ffffffffffffffffffffffffffffffffffffffff021916908373ffffffffffffffffffffffffffffffffffffffff1602179055505050565b600e60009054906101000a900473ffffffffffffffffffffffffffffffffffffffff1673ffffffffffffffffffffffffffffffffffffffff163373ffffffffffffffffffffffffffffffffffffffff161461137257600080fd5b80600960006004600081548092919060010191905055815260200190815260200160002060006101000a81548173ffffffffffffffffffffffffffffffffffffffff021916908373ffffffffffffffffffffffffffffffffffffffff16021790555050565b600e60009054906101000a900473ffffffffffffffffffffffffffffffffffffffff1673ffffffffffffffffffffffffffffffffffffffff163373ffffffffffffffffffffffffffffffffffffffff161461143157600080fd5b6001600860008373ffffffffffffffffffffffffffffffffffffffff1673ffffffffffffffffffffffffffffffffffffffff16815260200190815260200160002060006101000a81548160ff021916908360ff1602179055507ff384ffe7ff07c73bc1e2feccdbd24caca828c137bb17e89da2a3b7186cd5f63f600e60009054906101000a900473ffffffffffffffffffffffffffffffffffffffff16604051808273ffffffffffffffffffffffffffffffffffffffff1673ffffffffffffffffffffffffffffffffffffffff16815260200191505060405180910390a150565b6000600660008373ffffffffffffffffffffffffffffffffffffffff1673ffffffffffffffffffffffffffffffffffffffff168152602001908152602001600020549050919050565b600e60009054906101000a900473ffffffffffffffffffffffffffffffffffffffff1681565b60028054600181600116156101000203166002900480601f0160208091040260200160405190810160405280929190818152602001828054600181600116156101000203166002900480156116175780601f106115ec57610100808354040283529160200191611617565b820191906000526020600020905b8154815290600101906020018083116115fa57829003601f168201915b505050505081565b600e60009054906101000a900473ffffffffffffffffffffffffffffffffffffffff1673ffffffffffffffffffffffffffffffffffffffff163373ffffffffffffffffffffffffffffffffffffffff161461167957600080fd5b806000806101000a81548173ffffffffffffffffffffffffffffffffffffffff021916908373ffffffffffffffffffffffffffffffffffffffff16021790555050565b60008060009054906101000a900473ffffffffffffffffffffffffffffffffffffffff1673ffffffffffffffffffffffffffffffffffffffff163373ffffffffffffffffffffffffffffffffffffffff161461171757600080fd5b611755846009600086815260200190815260200160002060009054906101000a900473ffffffffffffffffffffffffffffffffffffffff1684611ae0565b90509392505050565b600e60009054906101000a900473ffffffffffffffffffffffffffffffffffffffff1673ffffffffffffffffffffffffffffffffffffffff163373ffffffffffffffffffffffffffffffffffffffff16146117b857600080fd5b816001600860008373ffffffffffffffffffffffffffffffffffffffff1673ffffffffffffffffffffffffffffffffffffffff16815260200190815260200160002060009054906101000a900460ff1660ff161461181557600080fd5b61181e83610cbf565b611827826113d7565b505050565b600047905090565b6060600e60009054906101000a900473ffffffffffffffffffffffffffffffffffffffff1673ffffffffffffffffffffffffffffffffffffffff163373ffffffffffffffffffffffffffffffffffffffff1614806118e157506001600860003373ffffffffffffffffffffffffffffffffffffffff1673ffffffffffffffffffffffffffffffffffffffff16815260200190815260200160002060009054906101000a900460ff1660ff16145b6118ea57600080fd5b6060600d5460405190808252806020026020018201604052801561191d5781602001602082028038833980820191505090505b509050600080600090505b600c80549050811015611998576000600c828154811061194457fe5b90600052602060002001541461198b57600c818154811061196157fe5b906000526020600020015483838060010194508151811061197e57fe5b6020026020010181815250505b8080600101915050611928565b50819250505090565b6007602052816000526040600020602052806000526040600020600091509150505481565b6119db81600554611ca890919063ffffffff16565b600581905550611a3381600660008573ffffffffffffffffffffffffffffffffffffffff1673ffffffffffffffffffffffffffffffffffffffff16815260200190815260200160002054611ca890919063ffffffff16565b600660008473ffffffffffffffffffffffffffffffffffffffff1673ffffffffffffffffffffffffffffffffffffffff168152602001908152602001600020819055508173ffffffffffffffffffffffffffffffffffffffff16600073ffffffffffffffffffffffffffffffffffffffff167fddf252ad1be2c89b69c2b068fc378daa952ba7f163c4a11628f55a4df523b3ef836040518082815260200191505060405180910390a35050565b600080600a600081546001019190508190559050611afc611d30565b84816000019073ffffffffffffffffffffffffffffffffffffffff16908173ffffffffffffffffffffffffffffffffffffffff168152505083816020018181525050858160400181815250506000816060019060ff16908160ff168152505080600b600084815260200190815260200160002060008201518160000160006101000a81548173ffffffffffffffffffffffffffffffffffffffff021916908373ffffffffffffffffffffffffffffffffffffffff160217905550602082015181600101556040820151816002015560608201518160030160006101000a81548160ff021916908360ff160217905550905050600c829080600181540180825580915050600190039060005260206000200160009091909190915055600d600081548092919060010191905055507f455be61527fd8555ce188333e30f1fdd8d44f5a19dce3aa02003f43921211ac8858584604051808473ffffffffffffffffffffffffffffffffffffffff1673ffffffffffffffffffffffffffffffffffffffff168152602001838152602001828152602001935050505060405180910390a181925050509392505050565b600080828401905083811015611d26576040517f08c379a000000000000000000000000000000000000000000000000000000000815260040180806020018281038252601b8152602001807f536166654d6174683a206164646974696f6e206f766572666c6f77000000000081525060200191505060405180910390fd5b8091505092915050565b6040518060800160405280600073ffffffffffffffffffffffffffffffffffffffff1681526020016000815260200160008152602001600060ff168152509056fea26469706673582212202ea8e1d4e87d5b7c1d756aef14b362c9699ba123e1d201b1425976d13ca0c72364736f6c63430006020033",
  "source": "// SPDX-License-Identifier: MIT\r\n\r\npragma solidity >=0.6.2;\r\n\r\ninterface SLFcontract{\r\n     function mint(address,uint256) external;\r\n}\r\n\r\ncontract SLC{\r\n     using SafeMaths for uint256;\r\n    \r\n    address private SLf_contract_address;      \r\n    string  public name = \"SLC\";\r\n    string  public symbol = \"S\";\r\n    uint256 public decimals = 0;\r\n    uint256 private current_region_no = 1;\r\n    uint256 public totalSupply;\r\n    mapping(address =>uint256) public balances;\r\n    mapping(address =>mapping(address=>uint256)) public allowance;\r\n    mapping(address => uint8) private _owners;\r\n    mapping(uint => address) region_no_to_admin_address;\r\n    \r\n    uint constant MIN_SIGNATURES = 2;\r\n    uint private _transactionIdx;\r\n\r\n    struct Transaction {\r\n      address to;\r\n      uint amount;\r\n      uint tokenid;\r\n      uint8 signatureCount;\r\n      mapping (address => uint8) signatures;\r\n    }\r\n\r\n    mapping (uint => Transaction) public _transactions;\r\n    uint[] private _pendingTransactions;\r\n    uint private count_pending_transactions;\r\n\r\n    \r\nevent Transfer(\r\n    address indexed _from,\r\n    address indexed _to,\r\n    uint256 _value\r\n    );\r\n\r\nevent Approval(\r\n    address indexed _owner,\r\n    address indexed _spender,\r\n    uint256 _value\r\n    );\r\n\r\n    address public owner;\r\n\r\n    modifier onlyOwner(){\r\n        require(msg.sender == owner);\r\n        _;\r\n    }\r\n    \r\n    modifier isAdmin(address _address){\r\n        require(_owners[_address]==1);\r\n        _;\r\n    }\r\n    \r\n      modifier validOwner() {\r\n        require(msg.sender == owner || _owners[msg.sender] == 1);\r\n        _;\r\n    }\r\n    \r\n    event ownerAdded(\r\n        address owner\r\n    );\r\n\r\n    event ownerRemoved(\r\n        address owner\r\n    );\r\n     event DepositFunds(address from, uint amount);\r\n    event TransactionCreated(address to, uint amount, uint transactionId);\r\n    event TransactionCompleted(address to, uint amount, uint transactionId);\r\n    event TransactionSigned(address by, uint transactionId);\r\n\r\n    constructor(uint256 _initialSupply) \r\n    public {\r\n        owner = msg.sender;\r\n        balances[msg.sender] = _initialSupply;\r\n        totalSupply=_initialSupply;\r\n        emit Transfer(address(0),msg.sender,_initialSupply);\r\n    }\r\n    \r\n    function setSLF_contract_address(address _address) public onlyOwner{\r\n        SLf_contract_address = _address;\r\n    }\r\n    \r\n    function add_region_admin(address _address)\r\n    public\r\n    onlyOwner{\r\n        region_no_to_admin_address[current_region_no++] = _address;\r\n    }\r\n     \r\n     function change_region_admin(uint256 _region_no ,address _address)\r\n    public\r\n    {\r\n        require(msg.sender == owner || region_no_to_admin_address[_region_no] == msg.sender);\r\n        region_no_to_admin_address[_region_no] = _address;\r\n    }\r\n    \r\n    function modify(address _oldAddress ,address _newAddress)\r\n    public\r\n    onlyOwner\r\n    isAdmin(_oldAddress){\r\n        removeOwner(_oldAddress);\r\n        addOwner(_newAddress);\r\n     }\r\n    \r\n    function transferFrom(address from ,address _to, uint256 _value) private  returns (bool success) {\r\n        require(_value>0);\r\n         require(balances[from]>=_value);\r\n        \r\n        balances[from] = balances[from].sub(_value);     \r\n        balances[_to] =balances[_to].add(_value);\r\n        emit Transfer(from, _to, _value);\r\n        return true;\r\n    }\r\n    //   function safetransferFrom(address _from, address _to, uint256 _value) public payable returns (bool success) {\r\n    // require (_value>0);\r\n    //  require(_value <= allowance[_from][msg.sender]); \r\n    //  balances[_from]= balances[_from].sub(_value);\r\n    //         balances[_to] = balances[_to].add(_value);\r\n    //  allowance[_from][msg.sender]=allowance[_from][msg.sender].sub(_value);\r\n    //   emit Transfer(_from, _to, _value);\r\n    //         return true;\r\n    // }\r\n    \r\n    function approve(address _spender, uint256 _value) public returns (bool success) {\r\n        allowance[msg.sender][_spender] += _value;                               \r\n        emit Approval(msg.sender,_spender, _value);\r\n        return true;\r\n    }\r\n    function balanceOf(address request) public view returns (uint256){\r\n        return balances[request];\r\n    }\r\n\r\n    \r\n    \r\n       function addOwner(address _owner)\r\n        onlyOwner\r\n        public {         \r\n        //require(_owners[owner]==0);        // we may check that owner is already the Owner...\r\n        _owners[_owner] = 1;\r\n        emit ownerAdded(owner);\r\n    }\r\n\r\n    function removeOwner(address _owner)\r\n        onlyOwner\r\n        public {\r\n        _owners[_owner] = 0;\r\n        emit ownerRemoved(_owner);\r\n    }\r\n\r\n    receive()\r\n        external\r\n        payable {\r\n        emit DepositFunds(msg.sender, msg.value);\r\n    }\r\n\r\n    function withdraw(uint tokenid,uint property_region,uint amount)\r\n        public returns(uint256){\r\n        require(msg.sender == SLf_contract_address);\r\n        return transferTo(tokenid,region_no_to_admin_address[property_region], amount);\r\n    }\r\n\r\n    function transferTo(uint tokenid,address to, uint amount)\r\n        internal returns(uint256) {\r\n        //require(balances[msg.sender] >= amount);\r\n        uint transactionId = ++_transactionIdx;\r\n\r\n        Transaction memory transaction;\r\n        transaction.to = to;\r\n        transaction.amount = amount;\r\n        transaction.tokenid = tokenid;\r\n        transaction.signatureCount = 0;\r\n\r\n        _transactions[transactionId] = transaction;\r\n        _pendingTransactions.push(transactionId);\r\n        count_pending_transactions++;\r\n        emit TransactionCreated(to, amount, transactionId);\r\n        return transactionId;\r\n    }\r\n    \r\n    function mint(address account, uint256 amount) private  {\r\n        \r\n        totalSupply = totalSupply.add(amount);\r\n        balances[account] = balances[account].add(amount);\r\n        emit Transfer(address(0), account, amount);\r\n        \r\n    }\r\n\r\n    function getPendingTransactions()\r\n      view\r\n      validOwner\r\n      public\r\n      returns (uint[] memory) {\r\n      uint[] memory temp = new uint[](count_pending_transactions);\r\n      uint j;\r\n      for(uint i = 0; i < _pendingTransactions.length; i++) {\r\n              if (_pendingTransactions[i] != 0) {\r\n                temp[j++] = _pendingTransactions[i];\r\n              }\r\n      }\r\n          \r\n      return temp;\r\n    }\r\n\r\n    function signTransaction(uint transactionId)\r\n      validOwner\r\n      public payable{\r\n\r\n      Transaction storage transaction = _transactions[transactionId];\r\n\r\n      // Transaction must exist\r\n      //require(address(0) != transaction.from);\r\n      // Creator cannot sign the transaction\r\n      //require(msg.sender != transaction.from);\r\n      // Cannot sign a transaction more than once\r\n      require(transaction.signatures[msg.sender] != 1);\r\n\r\n      transaction.signatures[msg.sender] = 1;\r\n      transaction.signatureCount++;\r\n\r\n      emit TransactionSigned(msg.sender, transactionId);\r\n\r\n      if (transaction.signatureCount >= MIN_SIGNATURES) {\r\n        //require(balances[transaction.from] >= transaction.amount);   \r\n        // transaction.to.transfer(transaction.amount);\r\n        mint(transaction.to,transaction.amount);\r\n        SLFcontract(SLf_contract_address).mint(transaction.to,transaction.tokenid);\r\n        emit TransactionCompleted(transaction.to, transaction.amount, transactionId);\r\n        deleteTransaction(transactionId);\r\n      }\r\n    }\r\n\r\n    function deleteTransaction(uint transactionId)\r\n      validOwner\r\n      public {\r\n      \r\n      for(uint i = 0; i < _pendingTransactions.length; i++) {\r\n         if (transactionId == _pendingTransactions[i]) {\r\n          _pendingTransactions[i] = 0;\r\n          break;\r\n        }\r\n      }\r\n      count_pending_transactions--;\r\n      delete _transactions[transactionId];\r\n    }\r\n\r\n    function walletBalance()\r\n      view\r\n      public\r\n      returns (uint) {\r\n      return address(this).balance;\r\n    }\r\n    \r\n}\r\n\r\nlibrary SafeMaths {\r\n    /**\r\n     * @dev Returns the addition of two unsigned integers, reverting on\r\n     * overflow.\r\n     *\r\n     * Counterpart to Solidity's `+` operator.\r\n     *\r\n     * Requirements:\r\n     *\r\n     * - Addition cannot overflow.\r\n     */\r\n    function add(uint256 a, uint256 b) internal pure returns (uint256) {\r\n        uint256 c = a + b;\r\n        require(c >= a, \"SafeMath: addition overflow\");\r\n\r\n        return c;\r\n    }\r\n\r\n    /**\r\n     * @dev Returns the subtraction of two unsigned integers, reverting on\r\n     * overflow (when the result is negative).\r\n     *\r\n     * Counterpart to Solidity's `-` operator.\r\n     *\r\n     * Requirements:\r\n     *\r\n     * - Subtraction cannot overflow.\r\n     */\r\n    function sub(uint256 a, uint256 b) internal pure returns (uint256) {\r\n        return sub(a, b, \"SafeMath: subtraction overflow\");\r\n    }\r\n\r\n    /**\r\n     * @dev Returns the subtraction of two unsigned integers, reverting with custom message on\r\n     * overflow (when the result is negative).\r\n     *\r\n     * Counterpart to Solidity's `-` operator.\r\n     *\r\n     * Requirements:\r\n     *\r\n     * - Subtraction cannot overflow.\r\n     */\r\n    function sub(uint256 a, uint256 b, string memory errorMessage) internal pure returns (uint256) {\r\n        require(b <= a, errorMessage);\r\n        uint256 c = a - b;\r\n\r\n        return c;\r\n    }\r\n\r\n    /**\r\n     * @dev Returns the multiplication of two unsigned integers, reverting on\r\n     * overflow.\r\n     *\r\n     * Counterpart to Solidity's `*` operator.\r\n     *\r\n     * Requirements:\r\n     *\r\n     * - Multiplication cannot overflow.\r\n     */\r\n    function mul(uint256 a, uint256 b) internal pure returns (uint256) {\r\n        // Gas optimization: this is cheaper than requiring 'a' not being zero, but the\r\n        // benefit is lost if 'b' is also tested.\r\n        // See: https://github.com/OpenZeppelin/openzeppelin-contracts/pull/522\r\n        if (a == 0) {\r\n            return 0;\r\n        }\r\n\r\n        uint256 c = a * b;\r\n        require(c / a == b, \"SafeMath: multiplication overflow\");\r\n\r\n        return c;\r\n    }\r\n\r\n    /**\r\n     * @dev Returns the integer division of two unsigned integers. Reverts on\r\n     * division by zero. The result is rounded towards zero.\r\n     *\r\n     * Counterpart to Solidity's `/` operator. Note: this function uses a\r\n     * `revert` opcode (which leaves remaining gas untouched) while Solidity\r\n     * uses an invalid opcode to revert (consuming all remaining gas).\r\n     *\r\n     * Requirements:\r\n     *\r\n     * - The divisor cannot be zero.\r\n     */\r\n    function div(uint256 a, uint256 b) internal pure returns (uint256) {\r\n        return div(a, b, \"SafeMath: division by zero\");\r\n    }\r\n\r\n    /**\r\n     * @dev Returns the integer division of two unsigned integers. Reverts with custom message on\r\n     * division by zero. The result is rounded towards zero.\r\n     *\r\n     * Counterpart to Solidity's `/` operator. Note: this function uses a\r\n     * `revert` opcode (which leaves remaining gas untouched) while Solidity\r\n     * uses an invalid opcode to revert (consuming all remaining gas).\r\n     *\r\n     * Requirements:\r\n     *\r\n     * - The divisor cannot be zero.\r\n     */\r\n    function div(uint256 a, uint256 b, string memory errorMessage) internal pure returns (uint256) {\r\n        require(b > 0, errorMessage);\r\n        uint256 c = a / b;\r\n        // assert(a == b * c + a % b); // There is no case in which this doesn't hold\r\n\r\n        return c;\r\n    }\r\n\r\n    /**\r\n     * @dev Returns the remainder of dividing two unsigned integers. (unsigned integer modulo),\r\n     * Reverts when dividing by zero.\r\n     *\r\n     * Counterpart to Solidity's `%` operator. This function uses a `revert`\r\n     * opcode (which leaves remaining gas untouched) while Solidity uses an\r\n     * invalid opcode to revert (consuming all remaining gas).\r\n     *\r\n     * Requirements:\r\n     *\r\n     * - The divisor cannot be zero.\r\n     */\r\n    function mod(uint256 a, uint256 b) internal pure returns (uint256) {\r\n        return mod(a, b, \"SafeMath: modulo by zero\");\r\n    }\r\n\r\n    /**\r\n     * @dev Returns the remainder of dividing two unsigned integers. (unsigned integer modulo),\r\n     * Reverts with custom message when dividing by zero.\r\n     *\r\n     * Counterpart to Solidity's `%` operator. This function uses a `revert`\r\n     * opcode (which leaves remaining gas untouched) while Solidity uses an\r\n     * invalid opcode to revert (consuming all remaining gas).\r\n     *\r\n     * Requirements:\r\n     *\r\n     * - The divisor cannot be zero.\r\n     */\r\n    function mod(uint256 a, uint256 b, string memory errorMessage) internal pure returns (uint256) {\r\n        require(b != 0, errorMessage);\r\n        return a % b;\r\n    }\r\n}",
  "sourcePath": "D:/work/metamask/contracts/SLC.sol",
  "compiler": {
    "name": "solc",
    "version": "0.6.2+commit.bacdbe57.Emscripten.clang"
  },
  "schemaVersion": "3.3.3",
  "updatedAt": "2021-01-20T04:45:17.856Z",
  "networkType": "ethereum",
  "devdoc": {
    "methods": {}
  },
  "userdoc": {
    "methods": {}
  }
}