{
  "contractName": "Strings",
  "abi": [
    {
      "inputs": [
        {
          "internalType": "string",
          "name": "str",
          "type": "string"
        }
      ],
      "name": "_toLower",
      "outputs": [
        {
          "internalType": "string",
          "name": "",
          "type": "string"
        }
      ],
      "stateMutability": "pure",
      "type": "function",
      "constant": true
    },
    {
      "inputs": [
        {
          "internalType": "address",
          "name": "account",
          "type": "address"
        }
      ],
      "name": "toString",
      "outputs": [
        {
          "internalType": "string",
          "name": "",
          "type": "string"
        }
      ],
      "stateMutability": "pure",
      "type": "function",
      "constant": true
    },
    {
      "inputs": [
        {
          "internalType": "uint256",
          "name": "value",
          "type": "uint256"
        }
      ],
      "name": "toString",
      "outputs": [
        {
          "internalType": "string",
          "name": "",
          "type": "string"
        }
      ],
      "stateMutability": "pure",
      "type": "function",
      "constant": true
    },
    {
      "inputs": [
        {
          "internalType": "bytes",
          "name": "data",
          "type": "bytes"
        }
      ],
      "name": "toString",
      "outputs": [
        {
          "internalType": "string",
          "name": "",
          "type": "string"
        }
      ],
      "stateMutability": "pure",
      "type": "function",
      "constant": true
    },
    {
      "inputs": [
        {
          "internalType": "bytes32",
          "name": "value",
          "type": "bytes32"
        }
      ],
      "name": "toString",
      "outputs": [
        {
          "internalType": "string",
          "name": "",
          "type": "string"
        }
      ],
      "stateMutability": "pure",
      "type": "function",
      "constant": true
    }
  ],
  "bytecode": "0x6109a8610026600b82828239805160001a60731461001957fe5b30600052607381538281f3fe73000000000000000000000000000000000000000030146080604052600436106100615760003560e01c8063447d7a1d1461006657806356ca623e1461019a5780636900a3ae1461025757806371aad10d146102fe578063b11a19e814610432575b600080fd5b61011f6004803603602081101561007c57600080fd5b810190808035906020019064010000000081111561009957600080fd5b8201836020820111156100ab57600080fd5b803590602001918460018302840111640100000000831117156100cd57600080fd5b91908080601f016020809104026020016040519081016040528093929190818152602001838380828437600081840152601f19601f8201169050808301925050505050505091929192905050506104d9565b6040518080602001828103825283818151815260200191508051906020019080838360005b8381101561015f578082015181840152602081019050610144565b50505050905090810190601f16801561018c5780820380516001836020036101000a031916815260200191505b509250505060405180910390f35b6101dc600480360360208110156101b057600080fd5b81019080803573ffffffffffffffffffffffffffffffffffffffff169060200190929190505050610641565b6040518080602001828103825283818151815260200191508051906020019080838360005b8381101561021c578082015181840152602081019050610201565b50505050905090810190601f1680156102495780820380516001836020036101000a031916815260200191505b509250505060405180910390f35b6102836004803603602081101561026d57600080fd5b81019080803590602001909291905050506106a1565b6040518080602001828103825283818151815260200191508051906020019080838360005b838110156102c35780820151818401526020810190506102a8565b50505050905090810190601f1680156102f05780820380516001836020036101000a031916815260200191505b509250505060405180910390f35b6103b76004803603602081101561031457600080fd5b810190808035906020019064010000000081111561033157600080fd5b82018360208201111561034357600080fd5b8035906020019184600183028401116401000000008311171561036557600080fd5b91908080601f016020809104026020016040519081016040528093929190818152602001838380828437600081840152601f19601f8201169050808301925050505050505091929192905050506106d2565b6040518080602001828103825283818151815260200191508051906020019080838360005b838110156103f75780820151818401526020810190506103dc565b50505050905090810190601f1680156104245780820380516001836020036101000a031916815260200191505b509250505060405180910390f35b61045e6004803603602081101561044857600080fd5b8101908080359060200190929190505050610941565b6040518080602001828103825283818151815260200191508051906020019080838360005b8381101561049e578082015181840152602081019050610483565b50505050905090810190601f1680156104cb5780820380516001836020036101000a031916815260200191505b509250505060405180910390f35b606080829050606081516040519080825280601f01601f1916602001820160405280156105155781602001600182028038833980820191505090505b50905060008090505b825181101561063657604183828151811061053557fe5b602001015160f81c60f81b60f81c60ff16101580156105715750605a83828151811061055d57fe5b602001015160f81c60f81b60f81c60ff1611155b156105d657602083828151811061058457fe5b602001015160f81c60f81b60f81c0160f81b8282815181106105a257fe5b60200101907effffffffffffffffffffffffffffffffffffffffffffffffffffffffffffff1916908160001a905350610629565b8281815181106105e257fe5b602001015160f81c60f81b8282815181106105f957fe5b60200101907effffffffffffffffffffffffffffffffffffffffffffffffffffffffffffff1916908160001a9053505b808060010191505061051e565b508092505050919050565b606061069a82604051602001808273ffffffffffffffffffffffffffffffffffffffff1673ffffffffffffffffffffffffffffffffffffffff1660601b81526014019150506040516020818303038152906040526106d2565b9050919050565b60606106cb82604051602001808281526020019150506040516020818303038152906040526106d2565b9050919050565b6060806040518060400160405280601081526020017f30313233343536373839616263646566000000000000000000000000000000008152509050606060028451026002016040519080825280601f01601f1916602001820160405280156107495781602001600182028038833980820191505090505b5090507f30000000000000000000000000000000000000000000000000000000000000008160008151811061077a57fe5b60200101907effffffffffffffffffffffffffffffffffffffffffffffffffffffffffffff1916908160001a9053507f7800000000000000000000000000000000000000000000000000000000000000816001815181106107d757fe5b60200101907effffffffffffffffffffffffffffffffffffffffffffffffffffffffffffff1916908160001a90535060008090505b84518110156109365782600486838151811061082457fe5b602001015160f81c60f81b7effffffffffffffffffffffffffffffffffffffffffffffffffffffffffffff1916901c60f81c60ff168151811061086357fe5b602001015160f81c60f81b82600283026002018151811061088057fe5b60200101907effffffffffffffffffffffffffffffffffffffffffffffffffffffffffffff1916908160001a90535082600f60f81b8683815181106108c157fe5b602001015160f81c60f81b1660f81c60ff16815181106108dd57fe5b602001015160f81c60f81b8260028302600301815181106108fa57fe5b60200101907effffffffffffffffffffffffffffffffffffffffffffffffffffffffffffff1916908160001a905350808060010191505061080c565b508092505050919050565b606061096b82604051602001808281526020019150506040516020818303038152906040526106d2565b905091905056fea2646970667358221220b9bc1a3958a8aed0b41ece8768feff2d4eb7fcd167fdcdf4be9fb08c83bd8b3a64736f6c63430006020033",
  "source": "// SPDX-License-Identifier: MIT\r\n\r\npragma solidity >=0.6.2;\r\n\r\n/* @dev String operations.\r\n */\r\nlibrary Strings {\r\n    /* @dev Converts a uint256 to its ASCII string representation.\r\n     */\r\n     \r\n     \r\n\r\n     \r\nfunction _toLower(string memory str) public pure returns (string memory) {\r\n        bytes memory bStr = bytes(str);\r\n        bytes memory bLower = new bytes(bStr.length);\r\n        for (uint i = 0; i < bStr.length; i++) {\r\n            // Uppercase character...\r\n            if ((uint8(bStr[i]) >= 65) && (uint8(bStr[i]) <= 90)) {\r\n                // So we add 32 to make it lowercase\r\n                bLower[i] = bytes1(uint8(bStr[i]) + 32);\r\n            } else {\r\n                bLower[i] = bStr[i];\r\n            }\r\n        }\r\n        return string(bLower);\r\n    }\r\n    function uinttoString(uint256 value) internal pure returns (string memory) {\r\n        // Inspired by OraclizeAPI's implementation - MIT licence\r\n        // https://github.com/oraclize/ethereum-api/blob/b42146b063c7d6ee1358846c198246239e9360e8/oraclizeAPI_0.4.25.sol\r\n\r\n        if (value == 0) {\r\n            return \"0\";\r\n        }\r\n        uint256 temp = value;\r\n        uint256 digits;\r\n        while (temp != 0) {\r\n            digits++;\r\n            temp /= 10;\r\n        }\r\n        bytes memory buffer = new bytes(digits);\r\n        uint256 index = digits - 1;\r\n        temp = value;\r\n        while (temp != 0) {\r\n            buffer[index--] = byte(uint8(48 + temp % 10));\r\n            temp /= 10;\r\n        }\r\n        return string(buffer);\r\n    }\r\n     /*-------------------------To Compare two strings---------------------------*/\r\n    function compare(string memory  _a, string memory _b) internal pure returns (int) {\r\n        bytes memory a = bytes(_a);\r\n        bytes memory b = bytes(_b);\r\n        uint minLength = a.length;\r\n        if (b.length < minLength) minLength = b.length;\r\n        for (uint i = 0; i < minLength; i ++)\r\n            if (a[i] < b[i])\r\n                return -1;\r\n            else if (a[i] > b[i])\r\n                return 1;\r\n        if (a.length < b.length)\r\n            return -1;\r\n        else if (a.length > b.length)\r\n            return 1;\r\n        else\r\n            return 0;\r\n    }\r\n\r\n    function equal(string memory _a, string memory _b) internal pure returns (bool) {\r\n        return compare(_a, _b) == 0;\r\n    }\r\n   function toString(address account) public pure returns(string memory) {\r\n    return toString(abi.encodePacked(account));\r\n}\r\n\r\nfunction toString(uint256 value) public pure returns(string memory) {\r\n    return toString(abi.encodePacked(value));\r\n}\r\n\r\nfunction toString(bytes32 value) public pure returns(string memory) {\r\n    return toString(abi.encodePacked(value));\r\n}\r\n\r\nfunction toString(bytes memory data) public pure returns(string memory) {\r\n    bytes memory alphabet = \"0123456789abcdef\";\r\n\r\n    bytes memory str = new bytes(2 + data.length * 2);\r\n    str[0] = \"0\";\r\n    str[1] = \"x\";\r\n    for (uint i = 0; i < data.length; i++) {\r\n        str[2+i*2] = alphabet[uint(uint8(data[i] >> 4))];\r\n        str[3+i*2] = alphabet[uint(uint8(data[i] & 0x0f))];\r\n    }\r\n    return string(str);\r\n}\r\n}",
  "sourcePath": "D:/work/metamask/contracts/Strings.sol",
  "compiler": {
    "name": "solc",
    "version": "0.6.2+commit.bacdbe57.Emscripten.clang"
  },
  "schemaVersion": "3.3.3",
  "updatedAt": "2021-01-20T04:45:17.877Z",
  "networkType": "ethereum",
  "devdoc": {
    "methods": {}
  },
  "userdoc": {
    "methods": {}
  }
}